{
  "address": "0x8A791620dd6260079BF849Dc5567aDC3F2FdC318",
  "abi": [
    {
      "inputs": [],
      "name": "FundProject__NotApporovedByDao",
      "type": "error"
    },
    {
      "anonymous": false,
      "inputs": [
        {
          "indexed": true,
          "internalType": "address",
          "name": "previousOwner",
          "type": "address"
        },
        {
          "indexed": true,
          "internalType": "address",
          "name": "newOwner",
          "type": "address"
        }
      ],
      "name": "OwnershipTransferred",
      "type": "event"
    },
    {
      "inputs": [
        {
          "internalType": "uint256",
          "name": "_projecID",
          "type": "uint256"
        }
      ],
      "name": "_getHashOfProjectData",
      "outputs": [
        {
          "internalType": "string",
          "name": "",
          "type": "string"
        }
      ],
      "stateMutability": "view",
      "type": "function"
    },
    {
      "inputs": [
        {
          "internalType": "string",
          "name": "_ipfsHash",
          "type": "string"
        }
      ],
      "name": "_getProjectId",
      "outputs": [
        {
          "internalType": "uint256",
          "name": "",
          "type": "uint256"
        }
      ],
      "stateMutability": "view",
      "type": "function"
    },
    {
      "inputs": [
        {
          "internalType": "uint256",
          "name": "",
          "type": "uint256"
        }
      ],
      "name": "_isApporovedByDao",
      "outputs": [
        {
          "internalType": "bool",
          "name": "",
          "type": "bool"
        }
      ],
      "stateMutability": "view",
      "type": "function"
    },
    {
      "inputs": [
        {
          "internalType": "uint256",
          "name": "_projecID",
          "type": "uint256"
        }
      ],
      "name": "_isapporoveFundingByDao",
      "outputs": [
        {
          "internalType": "bool",
          "name": "",
          "type": "bool"
        }
      ],
      "stateMutability": "view",
      "type": "function"
    },
    {
      "inputs": [
        {
          "internalType": "string",
          "name": "_ipfsHash",
          "type": "string"
        }
      ],
      "name": "apporoveFundingByDao",
      "outputs": [],
      "stateMutability": "nonpayable",
      "type": "function"
    },
    {
      "inputs": [
        {
          "internalType": "uint256",
          "name": "_projecID",
          "type": "uint256"
        }
      ],
      "name": "cancelApporovelFundingByDao",
      "outputs": [],
      "stateMutability": "nonpayable",
      "type": "function"
    },
    {
      "inputs": [
        {
          "internalType": "uint256",
          "name": "_projecID",
          "type": "uint256"
        }
      ],
      "name": "fund",
      "outputs": [],
      "stateMutability": "payable",
      "type": "function"
    },
    {
      "inputs": [
        {
          "internalType": "uint256",
          "name": "",
          "type": "uint256"
        },
        {
          "internalType": "address",
          "name": "",
          "type": "address"
        }
      ],
      "name": "funders",
      "outputs": [
        {
          "internalType": "uint256",
          "name": "",
          "type": "uint256"
        }
      ],
      "stateMutability": "view",
      "type": "function"
    },
    {
      "inputs": [
        {
          "internalType": "string",
          "name": "",
          "type": "string"
        }
      ],
      "name": "hashToProjectId",
      "outputs": [
        {
          "internalType": "uint256",
          "name": "",
          "type": "uint256"
        }
      ],
      "stateMutability": "view",
      "type": "function"
    },
    {
      "inputs": [
        {
          "internalType": "uint256",
          "name": "",
          "type": "uint256"
        }
      ],
      "name": "idToHash",
      "outputs": [
        {
          "internalType": "string",
          "name": "",
          "type": "string"
        }
      ],
      "stateMutability": "view",
      "type": "function"
    },
    {
      "inputs": [],
      "name": "owner",
      "outputs": [
        {
          "internalType": "address",
          "name": "",
          "type": "address"
        }
      ],
      "stateMutability": "view",
      "type": "function"
    },
    {
      "inputs": [],
      "name": "projectId",
      "outputs": [
        {
          "internalType": "uint256",
          "name": "",
          "type": "uint256"
        }
      ],
      "stateMutability": "view",
      "type": "function"
    },
    {
      "inputs": [],
      "name": "renounceOwnership",
      "outputs": [],
      "stateMutability": "nonpayable",
      "type": "function"
    },
    {
      "inputs": [
        {
          "internalType": "address",
          "name": "newOwner",
          "type": "address"
        }
      ],
      "name": "transferOwnership",
      "outputs": [],
      "stateMutability": "nonpayable",
      "type": "function"
    }
  ],
  "transactionHash": "0xeafb7064c744cc0b86689488030c47d02dfd9cb63f88ee013618d681050b0123",
  "args": [],
  "numDeployments": 1,
  "solcInputHash": "0934ff3c9c2ecd6d365975d91fef7cb5",
  "bytecode": "0x60806040526001805534801561001457600080fd5b5061003161002661003660201b60201c565b61003e60201b60201c565b610102565b600033905090565b60008060009054906101000a900473ffffffffffffffffffffffffffffffffffffffff169050816000806101000a81548173ffffffffffffffffffffffffffffffffffffffff021916908373ffffffffffffffffffffffffffffffffffffffff1602179055508173ffffffffffffffffffffffffffffffffffffffff168173ffffffffffffffffffffffffffffffffffffffff167f8be0079c531659141344cd1fd0a4f28419497f9722a3daafe3b4186f6b6457e060405160405180910390a35050565b61124a806101116000396000f3fe6080604052600436106100dd5760003560e01c80638da5cb5b1161007f578063ca1d209d11610059578063ca1d209d146102d2578063cf686259146102ee578063e983c2761461032b578063f2fde38b14610368576100dd565b80638da5cb5b1461022d5780638fb5548f14610258578063abe1aae614610295576100dd565b80634fac2bb7116100bb5780634fac2bb714610187578063715018a6146101c457806374c121b2146101db57806387030f4d14610204576100dd565b8063141a6c22146100e2578063148038b01461011f5780633fafa1271461015c575b600080fd5b3480156100ee57600080fd5b5061010960048036038101906101049190610a98565b610391565b6040516101169190610afa565b60405180910390f35b34801561012b57600080fd5b5061014660048036038101906101419190610b9f565b6103b9565b6040516101539190610afa565b60405180910390f35b34801561016857600080fd5b506101716103de565b60405161017e9190610afa565b60405180910390f35b34801561019357600080fd5b506101ae60048036038101906101a99190610bdf565b6103e4565b6040516101bb9190610c27565b60405180910390f35b3480156101d057600080fd5b506101d9610404565b005b3480156101e757600080fd5b5061020260048036038101906101fd9190610a98565b610418565b005b34801561021057600080fd5b5061022b60048036038101906102269190610bdf565b6104b1565b005b34801561023957600080fd5b506102426104e8565b60405161024f9190610c51565b60405180910390f35b34801561026457600080fd5b5061027f600480360381019061027a9190610bdf565b610511565b60405161028c9190610ceb565b60405180910390f35b3480156102a157600080fd5b506102bc60048036038101906102b79190610bdf565b6105b1565b6040516102c99190610ceb565b60405180910390f35b6102ec60048036038101906102e79190610bdf565b610656565b005b3480156102fa57600080fd5b5061031560048036038101906103109190610a98565b610719565b6040516103229190610afa565b60405180910390f35b34801561033757600080fd5b50610352600480360381019061034d9190610bdf565b610747565b60405161035f9190610c27565b60405180910390f35b34801561037457600080fd5b5061038f600480360381019061038a9190610d0d565b610771565b005b60006002826040516103a39190610d76565b9081526020016040518091039020549050919050565b6004602052816000526040600020602052806000526040600020600091509150505481565b60015481565b60056020528060005260406000206000915054906101000a900460ff1681565b61040c6107f4565b6104166000610872565b565b6104206107f4565b6001546002826040516104339190610d76565b9081526020016040518091039020819055508060036000600154815260200190815260200160002090816104679190610f99565b50600160056000600154815260200190815260200160002060006101000a81548160ff021916908315150217905550600160008154809291906104a99061109a565b919050555050565b6104b96107f4565b60006005600083815260200190815260200160002060006101000a81548160ff02191690831515021790555050565b60008060009054906101000a900473ffffffffffffffffffffffffffffffffffffffff16905090565b6003602052806000526040600020600091509050805461053090610dbc565b80601f016020809104026020016040519081016040528092919081815260200182805461055c90610dbc565b80156105a95780601f1061057e576101008083540402835291602001916105a9565b820191906000526020600020905b81548152906001019060200180831161058c57829003601f168201915b505050505081565b60606003600083815260200190815260200160002080546105d190610dbc565b80601f01602080910402602001604051908101604052809291908181526020018280546105fd90610dbc565b801561064a5780601f1061061f5761010080835404028352916020019161064a565b820191906000526020600020905b81548152906001019060200180831161062d57829003601f168201915b50505050509050919050565b806005600082815260200190815260200160002060009054906101000a900460ff166106ae576040517f528d75ab00000000000000000000000000000000000000000000000000000000815260040160405180910390fd5b346004600084815260200190815260200160002060003373ffffffffffffffffffffffffffffffffffffffff1673ffffffffffffffffffffffffffffffffffffffff168152602001908152602001600020600082825461070e91906110e2565b925050819055505050565b6002818051602081018201805184825260208301602085012081835280955050505050506000915090505481565b60006005600083815260200190815260200160002060009054906101000a900460ff169050919050565b6107796107f4565b600073ffffffffffffffffffffffffffffffffffffffff168173ffffffffffffffffffffffffffffffffffffffff16036107e8576040517f08c379a00000000000000000000000000000000000000000000000000000000081526004016107df90611188565b60405180910390fd5b6107f181610872565b50565b6107fc610936565b73ffffffffffffffffffffffffffffffffffffffff1661081a6104e8565b73ffffffffffffffffffffffffffffffffffffffff1614610870576040517f08c379a0000000000000000000000000000000000000000000000000000000008152600401610867906111f4565b60405180910390fd5b565b60008060009054906101000a900473ffffffffffffffffffffffffffffffffffffffff169050816000806101000a81548173ffffffffffffffffffffffffffffffffffffffff021916908373ffffffffffffffffffffffffffffffffffffffff1602179055508173ffffffffffffffffffffffffffffffffffffffff168173ffffffffffffffffffffffffffffffffffffffff167f8be0079c531659141344cd1fd0a4f28419497f9722a3daafe3b4186f6b6457e060405160405180910390a35050565b600033905090565b6000604051905090565b600080fd5b600080fd5b600080fd5b600080fd5b6000601f19601f8301169050919050565b7f4e487b7100000000000000000000000000000000000000000000000000000000600052604160045260246000fd5b6109a58261095c565b810181811067ffffffffffffffff821117156109c4576109c361096d565b5b80604052505050565b60006109d761093e565b90506109e3828261099c565b919050565b600067ffffffffffffffff821115610a0357610a0261096d565b5b610a0c8261095c565b9050602081019050919050565b82818337600083830152505050565b6000610a3b610a36846109e8565b6109cd565b905082815260208101848484011115610a5757610a56610957565b5b610a62848285610a19565b509392505050565b600082601f830112610a7f57610a7e610952565b5b8135610a8f848260208601610a28565b91505092915050565b600060208284031215610aae57610aad610948565b5b600082013567ffffffffffffffff811115610acc57610acb61094d565b5b610ad884828501610a6a565b91505092915050565b6000819050919050565b610af481610ae1565b82525050565b6000602082019050610b0f6000830184610aeb565b92915050565b610b1e81610ae1565b8114610b2957600080fd5b50565b600081359050610b3b81610b15565b92915050565b600073ffffffffffffffffffffffffffffffffffffffff82169050919050565b6000610b6c82610b41565b9050919050565b610b7c81610b61565b8114610b8757600080fd5b50565b600081359050610b9981610b73565b92915050565b60008060408385031215610bb657610bb5610948565b5b6000610bc485828601610b2c565b9250506020610bd585828601610b8a565b9150509250929050565b600060208284031215610bf557610bf4610948565b5b6000610c0384828501610b2c565b91505092915050565b60008115159050919050565b610c2181610c0c565b82525050565b6000602082019050610c3c6000830184610c18565b92915050565b610c4b81610b61565b82525050565b6000602082019050610c666000830184610c42565b92915050565b600081519050919050565b600082825260208201905092915050565b60005b83811015610ca6578082015181840152602081019050610c8b565b60008484015250505050565b6000610cbd82610c6c565b610cc78185610c77565b9350610cd7818560208601610c88565b610ce08161095c565b840191505092915050565b60006020820190508181036000830152610d058184610cb2565b905092915050565b600060208284031215610d2357610d22610948565b5b6000610d3184828501610b8a565b91505092915050565b600081905092915050565b6000610d5082610c6c565b610d5a8185610d3a565b9350610d6a818560208601610c88565b80840191505092915050565b6000610d828284610d45565b915081905092915050565b7f4e487b7100000000000000000000000000000000000000000000000000000000600052602260045260246000fd5b60006002820490506001821680610dd457607f821691505b602082108103610de757610de6610d8d565b5b50919050565b60008190508160005260206000209050919050565b60006020601f8301049050919050565b600082821b905092915050565b600060088302610e4f7fffffffffffffffffffffffffffffffffffffffffffffffffffffffffffffffff82610e12565b610e598683610e12565b95508019841693508086168417925050509392505050565b6000819050919050565b6000610e96610e91610e8c84610ae1565b610e71565b610ae1565b9050919050565b6000819050919050565b610eb083610e7b565b610ec4610ebc82610e9d565b848454610e1f565b825550505050565b600090565b610ed9610ecc565b610ee4818484610ea7565b505050565b5b81811015610f0857610efd600082610ed1565b600181019050610eea565b5050565b601f821115610f4d57610f1e81610ded565b610f2784610e02565b81016020851015610f36578190505b610f4a610f4285610e02565b830182610ee9565b50505b505050565b600082821c905092915050565b6000610f7060001984600802610f52565b1980831691505092915050565b6000610f898383610f5f565b9150826002028217905092915050565b610fa282610c6c565b67ffffffffffffffff811115610fbb57610fba61096d565b5b610fc58254610dbc565b610fd0828285610f0c565b600060209050601f8311600181146110035760008415610ff1578287015190505b610ffb8582610f7d565b865550611063565b601f19841661101186610ded565b60005b8281101561103957848901518255600182019150602085019450602081019050611014565b868310156110565784890151611052601f891682610f5f565b8355505b6001600288020188555050505b505050505050565b7f4e487b7100000000000000000000000000000000000000000000000000000000600052601160045260246000fd5b60006110a582610ae1565b91507fffffffffffffffffffffffffffffffffffffffffffffffffffffffffffffffff82036110d7576110d661106b565b5b600182019050919050565b60006110ed82610ae1565b91506110f883610ae1565b92508282019050808211156111105761110f61106b565b5b92915050565b7f4f776e61626c653a206e6577206f776e657220697320746865207a65726f206160008201527f6464726573730000000000000000000000000000000000000000000000000000602082015250565b6000611172602683610c77565b915061117d82611116565b604082019050919050565b600060208201905081810360008301526111a181611165565b9050919050565b7f4f776e61626c653a2063616c6c6572206973206e6f7420746865206f776e6572600082015250565b60006111de602083610c77565b91506111e9826111a8565b602082019050919050565b6000602082019050818103600083015261120d816111d1565b905091905056fea264697066735822122068e9250b9ff0fb4d5389f090651a4b0f2725e27ac47b7d2efd97167c68cac4c264736f6c63430008110033",
  "devdoc": {
    "kind": "dev",
    "methods": {
      "owner()": {
        "details": "Returns the address of the current owner."
      },
      "renounceOwnership()": {
        "details": "Leaves the contract without owner. It will not be possible to call `onlyOwner` functions anymore. Can only be called by the current owner. NOTE: Renouncing ownership will leave the contract without an owner, thereby removing any functionality that is only available to the owner."
      },
      "transferOwnership(address)": {
        "details": "Transfers ownership of the contract to a new account (`newOwner`). Can only be called by the current owner."
      }
    },
    "version": 1
  },
  "userdoc": {
    "kind": "user",
    "methods": {},
    "version": 1
  },
  "storageLayout": {
    "storage": [
      {
        "astId": 7,
        "contract": "contracts/FundProject.sol:FundProject",
        "label": "_owner",
        "offset": 0,
        "slot": "0",
        "type": "t_address"
      },
      {
        "astId": 144,
        "contract": "contracts/FundProject.sol:FundProject",
        "label": "projectId",
        "offset": 0,
        "slot": "1",
        "type": "t_uint256"
      },
      {
        "astId": 148,
        "contract": "contracts/FundProject.sol:FundProject",
        "label": "hashToProjectId",
        "offset": 0,
        "slot": "2",
        "type": "t_mapping(t_string_memory_ptr,t_uint256)"
      },
      {
        "astId": 152,
        "contract": "contracts/FundProject.sol:FundProject",
        "label": "idToHash",
        "offset": 0,
        "slot": "3",
        "type": "t_mapping(t_uint256,t_string_storage)"
      },
      {
        "astId": 158,
        "contract": "contracts/FundProject.sol:FundProject",
        "label": "funders",
        "offset": 0,
        "slot": "4",
        "type": "t_mapping(t_uint256,t_mapping(t_address,t_uint256))"
      },
      {
        "astId": 162,
        "contract": "contracts/FundProject.sol:FundProject",
        "label": "_isApporovedByDao",
        "offset": 0,
        "slot": "5",
        "type": "t_mapping(t_uint256,t_bool)"
      }
    ],
    "types": {
      "t_address": {
        "encoding": "inplace",
        "label": "address",
        "numberOfBytes": "20"
      },
      "t_bool": {
        "encoding": "inplace",
        "label": "bool",
        "numberOfBytes": "1"
      },
      "t_mapping(t_address,t_uint256)": {
        "encoding": "mapping",
        "key": "t_address",
        "label": "mapping(address => uint256)",
        "numberOfBytes": "32",
        "value": "t_uint256"
      },
      "t_mapping(t_string_memory_ptr,t_uint256)": {
        "encoding": "mapping",
        "key": "t_string_memory_ptr",
        "label": "mapping(string => uint256)",
        "numberOfBytes": "32",
        "value": "t_uint256"
      },
      "t_mapping(t_uint256,t_bool)": {
        "encoding": "mapping",
        "key": "t_uint256",
        "label": "mapping(uint256 => bool)",
        "numberOfBytes": "32",
        "value": "t_bool"
      },
      "t_mapping(t_uint256,t_mapping(t_address,t_uint256))": {
        "encoding": "mapping",
        "key": "t_uint256",
        "label": "mapping(uint256 => mapping(address => uint256))",
        "numberOfBytes": "32",
        "value": "t_mapping(t_address,t_uint256)"
      },
      "t_mapping(t_uint256,t_string_storage)": {
        "encoding": "mapping",
        "key": "t_uint256",
        "label": "mapping(uint256 => string)",
        "numberOfBytes": "32",
        "value": "t_string_storage"
      },
      "t_string_memory_ptr": {
        "encoding": "bytes",
        "label": "string",
        "numberOfBytes": "32"
      },
      "t_string_storage": {
        "encoding": "bytes",
        "label": "string",
        "numberOfBytes": "32"
      },
      "t_uint256": {
        "encoding": "inplace",
        "label": "uint256",
        "numberOfBytes": "32"
      }
    }
  }
}