{
  "address": "0x2279B7A0a67DB372996a5FaB50D91eAA73d2eBe6",
  "abi": [
    {
      "inputs": [],
      "name": "FundProject__NotApporovedByDao",
      "type": "error"
    },
    {
      "anonymous": false,
      "inputs": [
        {
          "indexed": true,
          "internalType": "address",
          "name": "previousOwner",
          "type": "address"
        },
        {
          "indexed": true,
          "internalType": "address",
          "name": "newOwner",
          "type": "address"
        }
      ],
      "name": "OwnershipTransferred",
      "type": "event"
    },
    {
      "inputs": [
        {
          "internalType": "string",
          "name": "",
          "type": "string"
        }
      ],
      "name": "_isApporovedByDao",
      "outputs": [
        {
          "internalType": "bool",
          "name": "",
          "type": "bool"
        }
      ],
      "stateMutability": "view",
      "type": "function"
    },
    {
      "inputs": [
        {
          "internalType": "string",
          "name": "_project",
          "type": "string"
        }
      ],
      "name": "_isapporoveFundingByDao",
      "outputs": [
        {
          "internalType": "bool",
          "name": "",
          "type": "bool"
        }
      ],
      "stateMutability": "view",
      "type": "function"
    },
    {
      "inputs": [
        {
          "internalType": "string",
          "name": "_project",
          "type": "string"
        }
      ],
      "name": "apporoveFundingByDao",
      "outputs": [],
      "stateMutability": "nonpayable",
      "type": "function"
    },
    {
      "inputs": [
        {
          "internalType": "string",
          "name": "_project",
          "type": "string"
        }
      ],
      "name": "cancelApporovelFundingByDao",
      "outputs": [],
      "stateMutability": "nonpayable",
      "type": "function"
    },
    {
      "inputs": [
        {
          "internalType": "string",
          "name": "ipfsHash",
          "type": "string"
        }
      ],
      "name": "fund",
      "outputs": [],
      "stateMutability": "payable",
      "type": "function"
    },
    {
      "inputs": [
        {
          "internalType": "string",
          "name": "",
          "type": "string"
        },
        {
          "internalType": "address",
          "name": "",
          "type": "address"
        }
      ],
      "name": "funders",
      "outputs": [
        {
          "internalType": "uint256",
          "name": "",
          "type": "uint256"
        }
      ],
      "stateMutability": "view",
      "type": "function"
    },
    {
      "inputs": [],
      "name": "owner",
      "outputs": [
        {
          "internalType": "address",
          "name": "",
          "type": "address"
        }
      ],
      "stateMutability": "view",
      "type": "function"
    },
    {
      "inputs": [],
      "name": "renounceOwnership",
      "outputs": [],
      "stateMutability": "nonpayable",
      "type": "function"
    },
    {
      "inputs": [
        {
          "internalType": "address",
          "name": "newOwner",
          "type": "address"
        }
      ],
      "name": "transferOwnership",
      "outputs": [],
      "stateMutability": "nonpayable",
      "type": "function"
    }
  ],
  "transactionHash": "0x82b0a9a33d5294fba926aa78a436136cb7d25513252ac644c2c5701e8293ca4d",
  "args": [],
  "numDeployments": 1,
  "solcInputHash": "88b66c97de3b803518e048c2fd73f192",
  "bytecode": "0x608060405234801561001057600080fd5b5061002d61002261003260201b60201c565b61003a60201b60201c565b6100fe565b600033905090565b60008060009054906101000a900473ffffffffffffffffffffffffffffffffffffffff169050816000806101000a81548173ffffffffffffffffffffffffffffffffffffffff021916908373ffffffffffffffffffffffffffffffffffffffff1602179055508173ffffffffffffffffffffffffffffffffffffffff168173ffffffffffffffffffffffffffffffffffffffff167f8be0079c531659141344cd1fd0a4f28419497f9722a3daafe3b4186f6b6457e060405160405180910390a35050565b610b768061010d6000396000f3fe6080604052600436106100865760003560e01c806374c121b21161005957806374c121b2146101245780638da5cb5b1461014d578063ab70eff314610178578063acb469ee146101b5578063f2fde38b146101f257610086565b806363e1a6ba1461008b578063715018a6146100c857806372d63464146100df57806373451f6514610108575b600080fd5b34801561009757600080fd5b506100b260048036038101906100ad9190610782565b61021b565b6040516100bf91906107e6565b60405180910390f35b3480156100d457600080fd5b506100dd610251565b005b3480156100eb57600080fd5b5061010660048036038101906101019190610782565b610265565b005b610122600480360381019061011d9190610782565b6102a7565b005b34801561013057600080fd5b5061014b60048036038101906101469190610782565b610380565b005b34801561015957600080fd5b506101626103c2565b60405161016f9190610842565b60405180910390f35b34801561018457600080fd5b5061019f600480360381019061019a9190610889565b6103eb565b6040516101ac91906108fe565b60405180910390f35b3480156101c157600080fd5b506101dc60048036038101906101d79190610782565b610426565b6040516101e991906107e6565b60405180910390f35b3480156101fe57600080fd5b5061021960048036038101906102149190610919565b61045b565b005b6002818051602081018201805184825260208301602085012081835280955050505050506000915054906101000a900460ff1681565b6102596104de565b610263600061055c565b565b61026d6104de565b600060028260405161027f91906109b7565b908152602001604051809103902060006101000a81548160ff02191690831515021790555050565b806002816040516102b891906109b7565b908152602001604051809103902060009054906101000a900460ff1661030a576040517f528d75ab00000000000000000000000000000000000000000000000000000000815260040160405180910390fd5b3460018360405161031b91906109b7565b908152602001604051809103902060003373ffffffffffffffffffffffffffffffffffffffff1673ffffffffffffffffffffffffffffffffffffffff168152602001908152602001600020600082825461037591906109fd565b925050819055505050565b6103886104de565b600160028260405161039a91906109b7565b908152602001604051809103902060006101000a81548160ff02191690831515021790555050565b60008060009054906101000a900473ffffffffffffffffffffffffffffffffffffffff16905090565b600182805160208101820180518482526020830160208501208183528095505050505050602052806000526040600020600091509150505481565b600060028260405161043891906109b7565b908152602001604051809103902060009054906101000a900460ff169050919050565b6104636104de565b600073ffffffffffffffffffffffffffffffffffffffff168173ffffffffffffffffffffffffffffffffffffffff16036104d2576040517f08c379a00000000000000000000000000000000000000000000000000000000081526004016104c990610ab4565b60405180910390fd5b6104db8161055c565b50565b6104e6610620565b73ffffffffffffffffffffffffffffffffffffffff166105046103c2565b73ffffffffffffffffffffffffffffffffffffffff161461055a576040517f08c379a000000000000000000000000000000000000000000000000000000000815260040161055190610b20565b60405180910390fd5b565b60008060009054906101000a900473ffffffffffffffffffffffffffffffffffffffff169050816000806101000a81548173ffffffffffffffffffffffffffffffffffffffff021916908373ffffffffffffffffffffffffffffffffffffffff1602179055508173ffffffffffffffffffffffffffffffffffffffff168173ffffffffffffffffffffffffffffffffffffffff167f8be0079c531659141344cd1fd0a4f28419497f9722a3daafe3b4186f6b6457e060405160405180910390a35050565b600033905090565b6000604051905090565b600080fd5b600080fd5b600080fd5b600080fd5b6000601f19601f8301169050919050565b7f4e487b7100000000000000000000000000000000000000000000000000000000600052604160045260246000fd5b61068f82610646565b810181811067ffffffffffffffff821117156106ae576106ad610657565b5b80604052505050565b60006106c1610628565b90506106cd8282610686565b919050565b600067ffffffffffffffff8211156106ed576106ec610657565b5b6106f682610646565b9050602081019050919050565b82818337600083830152505050565b6000610725610720846106d2565b6106b7565b90508281526020810184848401111561074157610740610641565b5b61074c848285610703565b509392505050565b600082601f8301126107695761076861063c565b5b8135610779848260208601610712565b91505092915050565b60006020828403121561079857610797610632565b5b600082013567ffffffffffffffff8111156107b6576107b5610637565b5b6107c284828501610754565b91505092915050565b60008115159050919050565b6107e0816107cb565b82525050565b60006020820190506107fb60008301846107d7565b92915050565b600073ffffffffffffffffffffffffffffffffffffffff82169050919050565b600061082c82610801565b9050919050565b61083c81610821565b82525050565b60006020820190506108576000830184610833565b92915050565b61086681610821565b811461087157600080fd5b50565b6000813590506108838161085d565b92915050565b600080604083850312156108a05761089f610632565b5b600083013567ffffffffffffffff8111156108be576108bd610637565b5b6108ca85828601610754565b92505060206108db85828601610874565b9150509250929050565b6000819050919050565b6108f8816108e5565b82525050565b600060208201905061091360008301846108ef565b92915050565b60006020828403121561092f5761092e610632565b5b600061093d84828501610874565b91505092915050565b600081519050919050565b600081905092915050565b60005b8381101561097a57808201518184015260208101905061095f565b60008484015250505050565b600061099182610946565b61099b8185610951565b93506109ab81856020860161095c565b80840191505092915050565b60006109c38284610986565b915081905092915050565b7f4e487b7100000000000000000000000000000000000000000000000000000000600052601160045260246000fd5b6000610a08826108e5565b9150610a13836108e5565b9250828201905080821115610a2b57610a2a6109ce565b5b92915050565b600082825260208201905092915050565b7f4f776e61626c653a206e6577206f776e657220697320746865207a65726f206160008201527f6464726573730000000000000000000000000000000000000000000000000000602082015250565b6000610a9e602683610a31565b9150610aa982610a42565b604082019050919050565b60006020820190508181036000830152610acd81610a91565b9050919050565b7f4f776e61626c653a2063616c6c6572206973206e6f7420746865206f776e6572600082015250565b6000610b0a602083610a31565b9150610b1582610ad4565b602082019050919050565b60006020820190508181036000830152610b3981610afd565b905091905056fea264697066735822122012b342beda6fc4f8b4a00001ced7224dae015a294f9978f0d9b57172d68b03bd64736f6c63430008110033",
  "devdoc": {
    "kind": "dev",
    "methods": {
      "owner()": {
        "details": "Returns the address of the current owner."
      },
      "renounceOwnership()": {
        "details": "Leaves the contract without owner. It will not be possible to call `onlyOwner` functions anymore. Can only be called by the current owner. NOTE: Renouncing ownership will leave the contract without an owner, thereby removing any functionality that is only available to the owner."
      },
      "transferOwnership(address)": {
        "details": "Transfers ownership of the contract to a new account (`newOwner`). Can only be called by the current owner."
      }
    },
    "version": 1
  },
  "userdoc": {
    "kind": "user",
    "methods": {},
    "version": 1
  },
  "storageLayout": {
    "storage": [
      {
        "astId": 7,
        "contract": "contracts/FundProject.sol:FundProject",
        "label": "_owner",
        "offset": 0,
        "slot": "0",
        "type": "t_address"
      },
      {
        "astId": 147,
        "contract": "contracts/FundProject.sol:FundProject",
        "label": "funders",
        "offset": 0,
        "slot": "1",
        "type": "t_mapping(t_string_memory_ptr,t_mapping(t_address,t_uint256))"
      },
      {
        "astId": 151,
        "contract": "contracts/FundProject.sol:FundProject",
        "label": "_isApporovedByDao",
        "offset": 0,
        "slot": "2",
        "type": "t_mapping(t_string_memory_ptr,t_bool)"
      }
    ],
    "types": {
      "t_address": {
        "encoding": "inplace",
        "label": "address",
        "numberOfBytes": "20"
      },
      "t_bool": {
        "encoding": "inplace",
        "label": "bool",
        "numberOfBytes": "1"
      },
      "t_mapping(t_address,t_uint256)": {
        "encoding": "mapping",
        "key": "t_address",
        "label": "mapping(address => uint256)",
        "numberOfBytes": "32",
        "value": "t_uint256"
      },
      "t_mapping(t_string_memory_ptr,t_bool)": {
        "encoding": "mapping",
        "key": "t_string_memory_ptr",
        "label": "mapping(string => bool)",
        "numberOfBytes": "32",
        "value": "t_bool"
      },
      "t_mapping(t_string_memory_ptr,t_mapping(t_address,t_uint256))": {
        "encoding": "mapping",
        "key": "t_string_memory_ptr",
        "label": "mapping(string => mapping(address => uint256))",
        "numberOfBytes": "32",
        "value": "t_mapping(t_address,t_uint256)"
      },
      "t_string_memory_ptr": {
        "encoding": "bytes",
        "label": "string",
        "numberOfBytes": "32"
      },
      "t_uint256": {
        "encoding": "inplace",
        "label": "uint256",
        "numberOfBytes": "32"
      }
    }
  }
}