{
  "address": "0xCf7Ed3AccA5a467e9e704C703E8D87F634fB0Fc9",
  "abi": [
    {
      "inputs": [
        {
          "internalType": "contract IVotes",
          "name": "_token",
          "type": "address"
        },
        {
          "internalType": "contract TimelockController",
          "name": "_timelock",
          "type": "address"
        },
        {
          "internalType": "uint256",
          "name": "_votingDelay",
          "type": "uint256"
        },
        {
          "internalType": "uint256",
          "name": "_votingPeriod",
          "type": "uint256"
        },
        {
          "internalType": "uint256",
          "name": "_quorumPercentage",
          "type": "uint256"
        },
        {
          "internalType": "uint256",
          "name": "_enteranceFee",
          "type": "uint256"
        },
        {
          "internalType": "uint256",
          "name": "_daoPercentage",
          "type": "uint256"
        }
      ],
      "stateMutability": "nonpayable",
      "type": "constructor"
    },
    {
      "inputs": [],
      "name": "Empty",
      "type": "error"
    },
    {
      "inputs": [],
      "name": "FundProject__EnteranceFeeNeeded",
      "type": "error"
    },
    {
      "inputs": [],
      "name": "FundProject__NotApporovedByDao",
      "type": "error"
    },
    {
      "inputs": [],
      "name": "FundProject__NotEnoughPayment",
      "type": "error"
    },
    {
      "inputs": [
        {
          "internalType": "uint256",
          "name": "_projectId",
          "type": "uint256"
        }
      ],
      "name": "FundProject__TransferFailed",
      "type": "error"
    },
    {
      "inputs": [],
      "name": "FundProject__UpkeepNeeded",
      "type": "error"
    },
    {
      "inputs": [],
      "name": "FundProject__WithdrawTransferFailed",
      "type": "error"
    },
    {
      "inputs": [],
      "name": "FundProject__withdrawFund",
      "type": "error"
    },
    {
      "inputs": [],
      "name": "GovernerContract__NeedEnteranceFee",
      "type": "error"
    },
    {
      "anonymous": false,
      "inputs": [
        {
          "indexed": true,
          "internalType": "address",
          "name": "previousOwner",
          "type": "address"
        },
        {
          "indexed": true,
          "internalType": "address",
          "name": "newOwner",
          "type": "address"
        }
      ],
      "name": "OwnershipTransferred",
      "type": "event"
    },
    {
      "anonymous": false,
      "inputs": [
        {
          "indexed": false,
          "internalType": "uint256",
          "name": "proposalId",
          "type": "uint256"
        }
      ],
      "name": "ProposalCanceled",
      "type": "event"
    },
    {
      "anonymous": false,
      "inputs": [
        {
          "indexed": false,
          "internalType": "uint256",
          "name": "proposalId",
          "type": "uint256"
        },
        {
          "indexed": false,
          "internalType": "address",
          "name": "proposer",
          "type": "address"
        },
        {
          "indexed": false,
          "internalType": "address[]",
          "name": "targets",
          "type": "address[]"
        },
        {
          "indexed": false,
          "internalType": "uint256[]",
          "name": "values",
          "type": "uint256[]"
        },
        {
          "indexed": false,
          "internalType": "string[]",
          "name": "signatures",
          "type": "string[]"
        },
        {
          "indexed": false,
          "internalType": "bytes[]",
          "name": "calldatas",
          "type": "bytes[]"
        },
        {
          "indexed": false,
          "internalType": "uint256",
          "name": "startBlock",
          "type": "uint256"
        },
        {
          "indexed": false,
          "internalType": "uint256",
          "name": "endBlock",
          "type": "uint256"
        },
        {
          "indexed": false,
          "internalType": "string",
          "name": "description",
          "type": "string"
        }
      ],
      "name": "ProposalCreated",
      "type": "event"
    },
    {
      "anonymous": false,
      "inputs": [
        {
          "indexed": false,
          "internalType": "uint256",
          "name": "proposalId",
          "type": "uint256"
        }
      ],
      "name": "ProposalExecuted",
      "type": "event"
    },
    {
      "anonymous": false,
      "inputs": [
        {
          "indexed": false,
          "internalType": "uint256",
          "name": "proposalId",
          "type": "uint256"
        },
        {
          "indexed": false,
          "internalType": "uint256",
          "name": "eta",
          "type": "uint256"
        }
      ],
      "name": "ProposalQueued",
      "type": "event"
    },
    {
      "anonymous": false,
      "inputs": [
        {
          "indexed": false,
          "internalType": "uint256",
          "name": "oldProposalThreshold",
          "type": "uint256"
        },
        {
          "indexed": false,
          "internalType": "uint256",
          "name": "newProposalThreshold",
          "type": "uint256"
        }
      ],
      "name": "ProposalThresholdSet",
      "type": "event"
    },
    {
      "anonymous": false,
      "inputs": [
        {
          "indexed": false,
          "internalType": "uint256",
          "name": "oldQuorumNumerator",
          "type": "uint256"
        },
        {
          "indexed": false,
          "internalType": "uint256",
          "name": "newQuorumNumerator",
          "type": "uint256"
        }
      ],
      "name": "QuorumNumeratorUpdated",
      "type": "event"
    },
    {
      "anonymous": false,
      "inputs": [
        {
          "indexed": false,
          "internalType": "address",
          "name": "oldTimelock",
          "type": "address"
        },
        {
          "indexed": false,
          "internalType": "address",
          "name": "newTimelock",
          "type": "address"
        }
      ],
      "name": "TimelockChange",
      "type": "event"
    },
    {
      "anonymous": false,
      "inputs": [
        {
          "indexed": true,
          "internalType": "address",
          "name": "voter",
          "type": "address"
        },
        {
          "indexed": false,
          "internalType": "uint256",
          "name": "proposalId",
          "type": "uint256"
        },
        {
          "indexed": false,
          "internalType": "uint8",
          "name": "support",
          "type": "uint8"
        },
        {
          "indexed": false,
          "internalType": "uint256",
          "name": "weight",
          "type": "uint256"
        },
        {
          "indexed": false,
          "internalType": "string",
          "name": "reason",
          "type": "string"
        }
      ],
      "name": "VoteCast",
      "type": "event"
    },
    {
      "anonymous": false,
      "inputs": [
        {
          "indexed": true,
          "internalType": "address",
          "name": "voter",
          "type": "address"
        },
        {
          "indexed": false,
          "internalType": "uint256",
          "name": "proposalId",
          "type": "uint256"
        },
        {
          "indexed": false,
          "internalType": "uint8",
          "name": "support",
          "type": "uint8"
        },
        {
          "indexed": false,
          "internalType": "uint256",
          "name": "weight",
          "type": "uint256"
        },
        {
          "indexed": false,
          "internalType": "string",
          "name": "reason",
          "type": "string"
        },
        {
          "indexed": false,
          "internalType": "bytes",
          "name": "params",
          "type": "bytes"
        }
      ],
      "name": "VoteCastWithParams",
      "type": "event"
    },
    {
      "anonymous": false,
      "inputs": [
        {
          "indexed": false,
          "internalType": "uint256",
          "name": "oldVotingDelay",
          "type": "uint256"
        },
        {
          "indexed": false,
          "internalType": "uint256",
          "name": "newVotingDelay",
          "type": "uint256"
        }
      ],
      "name": "VotingDelaySet",
      "type": "event"
    },
    {
      "anonymous": false,
      "inputs": [
        {
          "indexed": false,
          "internalType": "uint256",
          "name": "oldVotingPeriod",
          "type": "uint256"
        },
        {
          "indexed": false,
          "internalType": "uint256",
          "name": "newVotingPeriod",
          "type": "uint256"
        }
      ],
      "name": "VotingPeriodSet",
      "type": "event"
    },
    {
      "anonymous": false,
      "inputs": [
        {
          "indexed": true,
          "internalType": "address",
          "name": "_projectOwner",
          "type": "address"
        }
      ],
      "name": "enteranceFeePaid",
      "type": "event"
    },
    {
      "anonymous": false,
      "inputs": [
        {
          "indexed": true,
          "internalType": "uint256",
          "name": "_projectId",
          "type": "uint256"
        }
      ],
      "name": "projectFundingFailed",
      "type": "event"
    },
    {
      "anonymous": false,
      "inputs": [
        {
          "indexed": true,
          "internalType": "uint256",
          "name": "_projectId",
          "type": "uint256"
        }
      ],
      "name": "projectGoesToFunding",
      "type": "event"
    },
    {
      "anonymous": false,
      "inputs": [
        {
          "indexed": true,
          "internalType": "uint256",
          "name": "_projectId",
          "type": "uint256"
        }
      ],
      "name": "projectSuccessfullyFunded",
      "type": "event"
    },
    {
      "inputs": [],
      "name": "BALLOT_TYPEHASH",
      "outputs": [
        {
          "internalType": "bytes32",
          "name": "",
          "type": "bytes32"
        }
      ],
      "stateMutability": "view",
      "type": "function"
    },
    {
      "inputs": [],
      "name": "COUNTING_MODE",
      "outputs": [
        {
          "internalType": "string",
          "name": "",
          "type": "string"
        }
      ],
      "stateMutability": "pure",
      "type": "function"
    },
    {
      "inputs": [],
      "name": "EXTENDED_BALLOT_TYPEHASH",
      "outputs": [
        {
          "internalType": "bytes32",
          "name": "",
          "type": "bytes32"
        }
      ],
      "stateMutability": "view",
      "type": "function"
    },
    {
      "inputs": [
        {
          "internalType": "uint256",
          "name": "",
          "type": "uint256"
        }
      ],
      "name": "_ProjectFundingStatus",
      "outputs": [
        {
          "internalType": "enum FundProject.ProjectFundingStatus",
          "name": "",
          "type": "uint8"
        }
      ],
      "stateMutability": "view",
      "type": "function"
    },
    {
      "inputs": [
        {
          "internalType": "uint256",
          "name": "_projecID",
          "type": "uint256"
        }
      ],
      "name": "_getBalanceOfProject",
      "outputs": [
        {
          "internalType": "uint256",
          "name": "",
          "type": "uint256"
        }
      ],
      "stateMutability": "view",
      "type": "function"
    },
    {
      "inputs": [
        {
          "internalType": "uint256",
          "name": "_projecID",
          "type": "uint256"
        }
      ],
      "name": "_getFundingGoalAmount",
      "outputs": [
        {
          "internalType": "uint256",
          "name": "",
          "type": "uint256"
        }
      ],
      "stateMutability": "view",
      "type": "function"
    },
    {
      "inputs": [
        {
          "internalType": "uint256",
          "name": "_projecID",
          "type": "uint256"
        }
      ],
      "name": "_getHashOfProjectData",
      "outputs": [
        {
          "internalType": "string",
          "name": "",
          "type": "string"
        }
      ],
      "stateMutability": "view",
      "type": "function"
    },
    {
      "inputs": [
        {
          "internalType": "string",
          "name": "_ipfsHash",
          "type": "string"
        }
      ],
      "name": "_getProjectId",
      "outputs": [
        {
          "internalType": "uint256",
          "name": "",
          "type": "uint256"
        }
      ],
      "stateMutability": "view",
      "type": "function"
    },
    {
      "inputs": [
        {
          "internalType": "uint256",
          "name": "_projectID",
          "type": "uint256"
        }
      ],
      "name": "_getProjectStatus",
      "outputs": [
        {
          "internalType": "enum FundProject.ProjectFundingStatus",
          "name": "",
          "type": "uint8"
        }
      ],
      "stateMutability": "view",
      "type": "function"
    },
    {
      "inputs": [
        {
          "internalType": "uint256",
          "name": "_projecID",
          "type": "uint256"
        }
      ],
      "name": "_isApporoveFundingByDao",
      "outputs": [
        {
          "internalType": "bool",
          "name": "",
          "type": "bool"
        }
      ],
      "stateMutability": "view",
      "type": "function"
    },
    {
      "inputs": [
        {
          "internalType": "uint256",
          "name": "",
          "type": "uint256"
        }
      ],
      "name": "_isApporovedByDao",
      "outputs": [
        {
          "internalType": "bool",
          "name": "",
          "type": "bool"
        }
      ],
      "stateMutability": "view",
      "type": "function"
    },
    {
      "inputs": [
        {
          "internalType": "address",
          "name": "",
          "type": "address"
        }
      ],
      "name": "_isEnteranceFeePaid",
      "outputs": [
        {
          "internalType": "bool",
          "name": "",
          "type": "bool"
        }
      ],
      "stateMutability": "view",
      "type": "function"
    },
    {
      "inputs": [
        {
          "internalType": "uint256",
          "name": "",
          "type": "uint256"
        }
      ],
      "name": "_isFunding",
      "outputs": [
        {
          "internalType": "bool",
          "name": "",
          "type": "bool"
        }
      ],
      "stateMutability": "view",
      "type": "function"
    },
    {
      "inputs": [
        {
          "internalType": "string",
          "name": "_ipfsHash",
          "type": "string"
        },
        {
          "internalType": "uint256",
          "name": "_fundingGoalAmount",
          "type": "uint256"
        },
        {
          "internalType": "uint256",
          "name": "_time",
          "type": "uint256"
        },
        {
          "internalType": "address",
          "name": "_projectOwnerAddress",
          "type": "address"
        }
      ],
      "name": "apporoveFundingByDao",
      "outputs": [],
      "stateMutability": "nonpayable",
      "type": "function"
    },
    {
      "inputs": [
        {
          "internalType": "uint256",
          "name": "_projecID",
          "type": "uint256"
        }
      ],
      "name": "cancelApporovelFundingByDao",
      "outputs": [],
      "stateMutability": "nonpayable",
      "type": "function"
    },
    {
      "inputs": [
        {
          "internalType": "uint256",
          "name": "proposalId",
          "type": "uint256"
        },
        {
          "internalType": "uint8",
          "name": "support",
          "type": "uint8"
        }
      ],
      "name": "castVote",
      "outputs": [
        {
          "internalType": "uint256",
          "name": "",
          "type": "uint256"
        }
      ],
      "stateMutability": "nonpayable",
      "type": "function"
    },
    {
      "inputs": [
        {
          "internalType": "uint256",
          "name": "proposalId",
          "type": "uint256"
        },
        {
          "internalType": "uint8",
          "name": "support",
          "type": "uint8"
        },
        {
          "internalType": "uint8",
          "name": "v",
          "type": "uint8"
        },
        {
          "internalType": "bytes32",
          "name": "r",
          "type": "bytes32"
        },
        {
          "internalType": "bytes32",
          "name": "s",
          "type": "bytes32"
        }
      ],
      "name": "castVoteBySig",
      "outputs": [
        {
          "internalType": "uint256",
          "name": "",
          "type": "uint256"
        }
      ],
      "stateMutability": "nonpayable",
      "type": "function"
    },
    {
      "inputs": [
        {
          "internalType": "uint256",
          "name": "proposalId",
          "type": "uint256"
        },
        {
          "internalType": "uint8",
          "name": "support",
          "type": "uint8"
        },
        {
          "internalType": "string",
          "name": "reason",
          "type": "string"
        }
      ],
      "name": "castVoteWithReason",
      "outputs": [
        {
          "internalType": "uint256",
          "name": "",
          "type": "uint256"
        }
      ],
      "stateMutability": "nonpayable",
      "type": "function"
    },
    {
      "inputs": [
        {
          "internalType": "uint256",
          "name": "proposalId",
          "type": "uint256"
        },
        {
          "internalType": "uint8",
          "name": "support",
          "type": "uint8"
        },
        {
          "internalType": "string",
          "name": "reason",
          "type": "string"
        },
        {
          "internalType": "bytes",
          "name": "params",
          "type": "bytes"
        }
      ],
      "name": "castVoteWithReasonAndParams",
      "outputs": [
        {
          "internalType": "uint256",
          "name": "",
          "type": "uint256"
        }
      ],
      "stateMutability": "nonpayable",
      "type": "function"
    },
    {
      "inputs": [
        {
          "internalType": "uint256",
          "name": "proposalId",
          "type": "uint256"
        },
        {
          "internalType": "uint8",
          "name": "support",
          "type": "uint8"
        },
        {
          "internalType": "string",
          "name": "reason",
          "type": "string"
        },
        {
          "internalType": "bytes",
          "name": "params",
          "type": "bytes"
        },
        {
          "internalType": "uint8",
          "name": "v",
          "type": "uint8"
        },
        {
          "internalType": "bytes32",
          "name": "r",
          "type": "bytes32"
        },
        {
          "internalType": "bytes32",
          "name": "s",
          "type": "bytes32"
        }
      ],
      "name": "castVoteWithReasonAndParamsBySig",
      "outputs": [
        {
          "internalType": "uint256",
          "name": "",
          "type": "uint256"
        }
      ],
      "stateMutability": "nonpayable",
      "type": "function"
    },
    {
      "inputs": [
        {
          "internalType": "bytes",
          "name": "",
          "type": "bytes"
        }
      ],
      "name": "checkUpkeep",
      "outputs": [
        {
          "internalType": "bool",
          "name": "upkeepNeeded",
          "type": "bool"
        },
        {
          "internalType": "bytes",
          "name": "",
          "type": "bytes"
        }
      ],
      "stateMutability": "view",
      "type": "function"
    },
    {
      "inputs": [],
      "name": "daoPercentage",
      "outputs": [
        {
          "internalType": "uint256",
          "name": "",
          "type": "uint256"
        }
      ],
      "stateMutability": "view",
      "type": "function"
    },
    {
      "inputs": [],
      "name": "enteranceFee",
      "outputs": [
        {
          "internalType": "uint256",
          "name": "",
          "type": "uint256"
        }
      ],
      "stateMutability": "view",
      "type": "function"
    },
    {
      "inputs": [
        {
          "internalType": "address[]",
          "name": "targets",
          "type": "address[]"
        },
        {
          "internalType": "uint256[]",
          "name": "values",
          "type": "uint256[]"
        },
        {
          "internalType": "bytes[]",
          "name": "calldatas",
          "type": "bytes[]"
        },
        {
          "internalType": "bytes32",
          "name": "descriptionHash",
          "type": "bytes32"
        }
      ],
      "name": "execute",
      "outputs": [
        {
          "internalType": "uint256",
          "name": "",
          "type": "uint256"
        }
      ],
      "stateMutability": "payable",
      "type": "function"
    },
    {
      "inputs": [
        {
          "internalType": "uint256",
          "name": "_projecID",
          "type": "uint256"
        }
      ],
      "name": "fund",
      "outputs": [],
      "stateMutability": "payable",
      "type": "function"
    },
    {
      "inputs": [
        {
          "internalType": "uint256",
          "name": "",
          "type": "uint256"
        },
        {
          "internalType": "address",
          "name": "",
          "type": "address"
        }
      ],
      "name": "funders",
      "outputs": [
        {
          "internalType": "uint256",
          "name": "",
          "type": "uint256"
        }
      ],
      "stateMutability": "view",
      "type": "function"
    },
    {
      "inputs": [],
      "name": "getEnteranceFee",
      "outputs": [
        {
          "internalType": "uint256",
          "name": "",
          "type": "uint256"
        }
      ],
      "stateMutability": "view",
      "type": "function"
    },
    {
      "inputs": [
        {
          "internalType": "address",
          "name": "account",
          "type": "address"
        },
        {
          "internalType": "uint256",
          "name": "blockNumber",
          "type": "uint256"
        }
      ],
      "name": "getVotes",
      "outputs": [
        {
          "internalType": "uint256",
          "name": "",
          "type": "uint256"
        }
      ],
      "stateMutability": "view",
      "type": "function"
    },
    {
      "inputs": [
        {
          "internalType": "address",
          "name": "account",
          "type": "address"
        },
        {
          "internalType": "uint256",
          "name": "blockNumber",
          "type": "uint256"
        },
        {
          "internalType": "bytes",
          "name": "params",
          "type": "bytes"
        }
      ],
      "name": "getVotesWithParams",
      "outputs": [
        {
          "internalType": "uint256",
          "name": "",
          "type": "uint256"
        }
      ],
      "stateMutability": "view",
      "type": "function"
    },
    {
      "inputs": [
        {
          "internalType": "uint256",
          "name": "proposalId",
          "type": "uint256"
        },
        {
          "internalType": "address",
          "name": "account",
          "type": "address"
        }
      ],
      "name": "hasVoted",
      "outputs": [
        {
          "internalType": "bool",
          "name": "",
          "type": "bool"
        }
      ],
      "stateMutability": "view",
      "type": "function"
    },
    {
      "inputs": [
        {
          "internalType": "address[]",
          "name": "targets",
          "type": "address[]"
        },
        {
          "internalType": "uint256[]",
          "name": "values",
          "type": "uint256[]"
        },
        {
          "internalType": "bytes[]",
          "name": "calldatas",
          "type": "bytes[]"
        },
        {
          "internalType": "bytes32",
          "name": "descriptionHash",
          "type": "bytes32"
        }
      ],
      "name": "hashProposal",
      "outputs": [
        {
          "internalType": "uint256",
          "name": "",
          "type": "uint256"
        }
      ],
      "stateMutability": "pure",
      "type": "function"
    },
    {
      "inputs": [
        {
          "internalType": "string",
          "name": "",
          "type": "string"
        }
      ],
      "name": "hashToProjectId",
      "outputs": [
        {
          "internalType": "uint256",
          "name": "",
          "type": "uint256"
        }
      ],
      "stateMutability": "view",
      "type": "function"
    },
    {
      "inputs": [
        {
          "internalType": "uint256",
          "name": "",
          "type": "uint256"
        }
      ],
      "name": "idToHash",
      "outputs": [
        {
          "internalType": "string",
          "name": "",
          "type": "string"
        }
      ],
      "stateMutability": "view",
      "type": "function"
    },
    {
      "inputs": [
        {
          "internalType": "address",
          "name": "account",
          "type": "address"
        }
      ],
      "name": "isEnteranceFeePaid",
      "outputs": [
        {
          "internalType": "bool",
          "name": "",
          "type": "bool"
        }
      ],
      "stateMutability": "view",
      "type": "function"
    },
    {
      "inputs": [
        {
          "internalType": "uint256",
          "name": "_projectID",
          "type": "uint256"
        }
      ],
      "name": "is_funding",
      "outputs": [
        {
          "internalType": "bool",
          "name": "",
          "type": "bool"
        }
      ],
      "stateMutability": "view",
      "type": "function"
    },
    {
      "inputs": [],
      "name": "lastTimeStamp",
      "outputs": [
        {
          "internalType": "uint256",
          "name": "",
          "type": "uint256"
        }
      ],
      "stateMutability": "view",
      "type": "function"
    },
    {
      "inputs": [],
      "name": "name",
      "outputs": [
        {
          "internalType": "string",
          "name": "",
          "type": "string"
        }
      ],
      "stateMutability": "view",
      "type": "function"
    },
    {
      "inputs": [
        {
          "internalType": "address",
          "name": "",
          "type": "address"
        },
        {
          "internalType": "address",
          "name": "",
          "type": "address"
        },
        {
          "internalType": "uint256[]",
          "name": "",
          "type": "uint256[]"
        },
        {
          "internalType": "uint256[]",
          "name": "",
          "type": "uint256[]"
        },
        {
          "internalType": "bytes",
          "name": "",
          "type": "bytes"
        }
      ],
      "name": "onERC1155BatchReceived",
      "outputs": [
        {
          "internalType": "bytes4",
          "name": "",
          "type": "bytes4"
        }
      ],
      "stateMutability": "nonpayable",
      "type": "function"
    },
    {
      "inputs": [
        {
          "internalType": "address",
          "name": "",
          "type": "address"
        },
        {
          "internalType": "address",
          "name": "",
          "type": "address"
        },
        {
          "internalType": "uint256",
          "name": "",
          "type": "uint256"
        },
        {
          "internalType": "uint256",
          "name": "",
          "type": "uint256"
        },
        {
          "internalType": "bytes",
          "name": "",
          "type": "bytes"
        }
      ],
      "name": "onERC1155Received",
      "outputs": [
        {
          "internalType": "bytes4",
          "name": "",
          "type": "bytes4"
        }
      ],
      "stateMutability": "nonpayable",
      "type": "function"
    },
    {
      "inputs": [
        {
          "internalType": "address",
          "name": "",
          "type": "address"
        },
        {
          "internalType": "address",
          "name": "",
          "type": "address"
        },
        {
          "internalType": "uint256",
          "name": "",
          "type": "uint256"
        },
        {
          "internalType": "bytes",
          "name": "",
          "type": "bytes"
        }
      ],
      "name": "onERC721Received",
      "outputs": [
        {
          "internalType": "bytes4",
          "name": "",
          "type": "bytes4"
        }
      ],
      "stateMutability": "nonpayable",
      "type": "function"
    },
    {
      "inputs": [],
      "name": "owner",
      "outputs": [
        {
          "internalType": "address",
          "name": "",
          "type": "address"
        }
      ],
      "stateMutability": "view",
      "type": "function"
    },
    {
      "inputs": [],
      "name": "paySubmitFee",
      "outputs": [],
      "stateMutability": "payable",
      "type": "function"
    },
    {
      "inputs": [
        {
          "internalType": "bytes",
          "name": "",
          "type": "bytes"
        }
      ],
      "name": "performUpkeep",
      "outputs": [],
      "stateMutability": "nonpayable",
      "type": "function"
    },
    {
      "inputs": [
        {
          "internalType": "uint256",
          "name": "",
          "type": "uint256"
        }
      ],
      "name": "projectFundingGoalAmount",
      "outputs": [
        {
          "internalType": "uint256",
          "name": "",
          "type": "uint256"
        }
      ],
      "stateMutability": "view",
      "type": "function"
    },
    {
      "inputs": [
        {
          "internalType": "uint256",
          "name": "",
          "type": "uint256"
        }
      ],
      "name": "projectFunds",
      "outputs": [
        {
          "internalType": "uint256",
          "name": "",
          "type": "uint256"
        }
      ],
      "stateMutability": "view",
      "type": "function"
    },
    {
      "inputs": [],
      "name": "projectId",
      "outputs": [
        {
          "internalType": "uint256",
          "name": "",
          "type": "uint256"
        }
      ],
      "stateMutability": "view",
      "type": "function"
    },
    {
      "inputs": [
        {
          "internalType": "uint256",
          "name": "",
          "type": "uint256"
        }
      ],
      "name": "projectOwnerAddress",
      "outputs": [
        {
          "internalType": "address",
          "name": "",
          "type": "address"
        }
      ],
      "stateMutability": "view",
      "type": "function"
    },
    {
      "inputs": [
        {
          "internalType": "uint256",
          "name": "",
          "type": "uint256"
        },
        {
          "internalType": "uint256",
          "name": "",
          "type": "uint256"
        }
      ],
      "name": "projectToTime",
      "outputs": [
        {
          "internalType": "uint256",
          "name": "",
          "type": "uint256"
        }
      ],
      "stateMutability": "view",
      "type": "function"
    },
    {
      "inputs": [
        {
          "internalType": "uint256",
          "name": "proposalId",
          "type": "uint256"
        }
      ],
      "name": "proposalDeadline",
      "outputs": [
        {
          "internalType": "uint256",
          "name": "",
          "type": "uint256"
        }
      ],
      "stateMutability": "view",
      "type": "function"
    },
    {
      "inputs": [
        {
          "internalType": "uint256",
          "name": "proposalId",
          "type": "uint256"
        }
      ],
      "name": "proposalEta",
      "outputs": [
        {
          "internalType": "uint256",
          "name": "",
          "type": "uint256"
        }
      ],
      "stateMutability": "view",
      "type": "function"
    },
    {
      "inputs": [
        {
          "internalType": "uint256",
          "name": "proposalId",
          "type": "uint256"
        }
      ],
      "name": "proposalSnapshot",
      "outputs": [
        {
          "internalType": "uint256",
          "name": "",
          "type": "uint256"
        }
      ],
      "stateMutability": "view",
      "type": "function"
    },
    {
      "inputs": [],
      "name": "proposalThreshold",
      "outputs": [
        {
          "internalType": "uint256",
          "name": "",
          "type": "uint256"
        }
      ],
      "stateMutability": "view",
      "type": "function"
    },
    {
      "inputs": [
        {
          "internalType": "uint256",
          "name": "proposalId",
          "type": "uint256"
        }
      ],
      "name": "proposalVotes",
      "outputs": [
        {
          "internalType": "uint256",
          "name": "againstVotes",
          "type": "uint256"
        },
        {
          "internalType": "uint256",
          "name": "forVotes",
          "type": "uint256"
        },
        {
          "internalType": "uint256",
          "name": "abstainVotes",
          "type": "uint256"
        }
      ],
      "stateMutability": "view",
      "type": "function"
    },
    {
      "inputs": [
        {
          "internalType": "address[]",
          "name": "targets",
          "type": "address[]"
        },
        {
          "internalType": "uint256[]",
          "name": "values",
          "type": "uint256[]"
        },
        {
          "internalType": "bytes[]",
          "name": "calldatas",
          "type": "bytes[]"
        },
        {
          "internalType": "string",
          "name": "description",
          "type": "string"
        }
      ],
      "name": "propose",
      "outputs": [
        {
          "internalType": "uint256",
          "name": "",
          "type": "uint256"
        }
      ],
      "stateMutability": "nonpayable",
      "type": "function"
    },
    {
      "inputs": [
        {
          "internalType": "address[]",
          "name": "targets",
          "type": "address[]"
        },
        {
          "internalType": "uint256[]",
          "name": "values",
          "type": "uint256[]"
        },
        {
          "internalType": "bytes[]",
          "name": "calldatas",
          "type": "bytes[]"
        },
        {
          "internalType": "bytes32",
          "name": "descriptionHash",
          "type": "bytes32"
        }
      ],
      "name": "queue",
      "outputs": [
        {
          "internalType": "uint256",
          "name": "",
          "type": "uint256"
        }
      ],
      "stateMutability": "nonpayable",
      "type": "function"
    },
    {
      "inputs": [
        {
          "internalType": "uint256",
          "name": "blockNumber",
          "type": "uint256"
        }
      ],
      "name": "quorum",
      "outputs": [
        {
          "internalType": "uint256",
          "name": "",
          "type": "uint256"
        }
      ],
      "stateMutability": "view",
      "type": "function"
    },
    {
      "inputs": [],
      "name": "quorumDenominator",
      "outputs": [
        {
          "internalType": "uint256",
          "name": "",
          "type": "uint256"
        }
      ],
      "stateMutability": "view",
      "type": "function"
    },
    {
      "inputs": [
        {
          "internalType": "uint256",
          "name": "blockNumber",
          "type": "uint256"
        }
      ],
      "name": "quorumNumerator",
      "outputs": [
        {
          "internalType": "uint256",
          "name": "",
          "type": "uint256"
        }
      ],
      "stateMutability": "view",
      "type": "function"
    },
    {
      "inputs": [],
      "name": "quorumNumerator",
      "outputs": [
        {
          "internalType": "uint256",
          "name": "",
          "type": "uint256"
        }
      ],
      "stateMutability": "view",
      "type": "function"
    },
    {
      "inputs": [
        {
          "internalType": "address",
          "name": "target",
          "type": "address"
        },
        {
          "internalType": "uint256",
          "name": "value",
          "type": "uint256"
        },
        {
          "internalType": "bytes",
          "name": "data",
          "type": "bytes"
        }
      ],
      "name": "relay",
      "outputs": [],
      "stateMutability": "nonpayable",
      "type": "function"
    },
    {
      "inputs": [],
      "name": "renounceOwnership",
      "outputs": [],
      "stateMutability": "nonpayable",
      "type": "function"
    },
    {
      "inputs": [
        {
          "internalType": "uint256",
          "name": "newProposalThreshold",
          "type": "uint256"
        }
      ],
      "name": "setProposalThreshold",
      "outputs": [],
      "stateMutability": "nonpayable",
      "type": "function"
    },
    {
      "inputs": [
        {
          "internalType": "uint256",
          "name": "newVotingDelay",
          "type": "uint256"
        }
      ],
      "name": "setVotingDelay",
      "outputs": [],
      "stateMutability": "nonpayable",
      "type": "function"
    },
    {
      "inputs": [
        {
          "internalType": "uint256",
          "name": "newVotingPeriod",
          "type": "uint256"
        }
      ],
      "name": "setVotingPeriod",
      "outputs": [],
      "stateMutability": "nonpayable",
      "type": "function"
    },
    {
      "inputs": [
        {
          "internalType": "uint256",
          "name": "proposalId",
          "type": "uint256"
        }
      ],
      "name": "state",
      "outputs": [
        {
          "internalType": "enum IGovernor.ProposalState",
          "name": "",
          "type": "uint8"
        }
      ],
      "stateMutability": "view",
      "type": "function"
    },
    {
      "inputs": [
        {
          "internalType": "bytes4",
          "name": "interfaceId",
          "type": "bytes4"
        }
      ],
      "name": "supportsInterface",
      "outputs": [
        {
          "internalType": "bool",
          "name": "",
          "type": "bool"
        }
      ],
      "stateMutability": "view",
      "type": "function"
    },
    {
      "inputs": [
        {
          "internalType": "uint256",
          "name": "",
          "type": "uint256"
        }
      ],
      "name": "time",
      "outputs": [
        {
          "internalType": "uint256",
          "name": "",
          "type": "uint256"
        }
      ],
      "stateMutability": "view",
      "type": "function"
    },
    {
      "inputs": [],
      "name": "timelock",
      "outputs": [
        {
          "internalType": "address",
          "name": "",
          "type": "address"
        }
      ],
      "stateMutability": "view",
      "type": "function"
    },
    {
      "inputs": [],
      "name": "token",
      "outputs": [
        {
          "internalType": "contract IVotes",
          "name": "",
          "type": "address"
        }
      ],
      "stateMutability": "view",
      "type": "function"
    },
    {
      "inputs": [
        {
          "internalType": "address",
          "name": "newOwner",
          "type": "address"
        }
      ],
      "name": "transferOwnership",
      "outputs": [],
      "stateMutability": "nonpayable",
      "type": "function"
    },
    {
      "inputs": [
        {
          "internalType": "uint256",
          "name": "newQuorumNumerator",
          "type": "uint256"
        }
      ],
      "name": "updateQuorumNumerator",
      "outputs": [],
      "stateMutability": "nonpayable",
      "type": "function"
    },
    {
      "inputs": [
        {
          "internalType": "contract TimelockController",
          "name": "newTimelock",
          "type": "address"
        }
      ],
      "name": "updateTimelock",
      "outputs": [],
      "stateMutability": "nonpayable",
      "type": "function"
    },
    {
      "inputs": [],
      "name": "version",
      "outputs": [
        {
          "internalType": "string",
          "name": "",
          "type": "string"
        }
      ],
      "stateMutability": "view",
      "type": "function"
    },
    {
      "inputs": [],
      "name": "votingDelay",
      "outputs": [
        {
          "internalType": "uint256",
          "name": "",
          "type": "uint256"
        }
      ],
      "stateMutability": "view",
      "type": "function"
    },
    {
      "inputs": [],
      "name": "votingPeriod",
      "outputs": [
        {
          "internalType": "uint256",
          "name": "",
          "type": "uint256"
        }
      ],
      "stateMutability": "view",
      "type": "function"
    },
    {
      "inputs": [
        {
          "internalType": "uint256",
          "name": "_projectID",
          "type": "uint256"
        }
      ],
      "name": "withdrawFund",
      "outputs": [],
      "stateMutability": "nonpayable",
      "type": "function"
    },
    {
      "stateMutability": "payable",
      "type": "receive"
    }
  ],
  "transactionHash": "0x324e2b55e0f3cb5da32cf75249625e60737067aad7676fee2014c04950cd95b8",
  "args": [
    "0xe7f1725E7734CE288F8367e1Bb143E90bb3F0512",
    "0x5FbDB2315678afecb367f032d93F642f64180aa3",
    0,
    200,
    0,
    "10000000000000000",
    "10"
  ],
  "numDeployments": 1,
  "solcInputHash": "edf7a7fc578491be0baac88ac737a638",
  "bytecode": "0x6101606040526001600d553480156200001757600080fd5b5060405162009f4f38038062009f4f83398181016040528101906200003d919062000bff565b818187858a898960006040518060400160405280601081526020017f476f7665726e6572436f6e747261637400000000000000000000000000000000815250806200008d6200022660201b60201c565b60008280519060200120905060008280519060200120905060007f8b73c3c69bb8fe3d512ecc4cf759cc79239f7b179b0ffacaa9a75d522b39400f90508260e081815250508161010081815250504660a08181525050620000f68184846200026360201b60201c565b608081815250503073ffffffffffffffffffffffffffffffffffffffff1660c08173ffffffffffffffffffffffffffffffffffffffff16815250508061012081815250505050505050806000908162000150919062000f22565b505062000163836200029f60201b60201c565b6200017482620002e660201b60201c565b62000185816200037360201b60201c565b5050508073ffffffffffffffffffffffffffffffffffffffff166101408173ffffffffffffffffffffffffffffffffffffffff168152505050620001cf81620003ba60201b60201c565b50620001e1816200059960201b60201c565b5062000202620001f66200063a60201b60201c565b6200064260201b60201c565b42600e8190555080600f81905550816010819055505050505050505050506200142d565b60606040518060400160405280600181526020017f3100000000000000000000000000000000000000000000000000000000000000815250905090565b600083838346306040516020016200028095949392919062001046565b6040516020818303038152906040528051906020012090509392505050565b7fc565b045403dc03c2eea82b81a0465edad9e2e7fc4d97e11421c209da93d7a9360045482604051620002d4929190620010a3565b60405180910390a18060048190555050565b600081116200032c576040517f08c379a0000000000000000000000000000000000000000000000000000000008152600401620003239062001157565b60405180910390fd5b7f7e3f7f0708a84de9203036abaa450dccc85ad5ff52f78c170f3edb55cf5e88286005548260405162000361929190620010a3565b60405180910390a18060058190555050565b7fccb45da8d5717e6c4544694297c4ba5cf151d455c9bb0ed4fc7a38411bc0546160065482604051620003a8929190620010a3565b60405180910390a18060068190555050565b620003ca6200070860201b60201c565b8111156200040f576040517f08c379a0000000000000000000000000000000000000000000000000000000008152600401620004069062001215565b60405180910390fd5b6000620004216200071160201b60201c565b9050600081141580156200043d57506000600960000180549050145b156200053d5760096000016040518060400160405280600063ffffffff16815260200162000476846200074960201b620036951760201c565b7bffffffffffffffffffffffffffffffffffffffffffffffffffffffff168152509080600181540180825580915050600190039060005260206000200160009091909190915060008201518160000160006101000a81548163ffffffff021916908363ffffffff16021790555060208201518160000160046101000a8154817bffffffffffffffffffffffffffffffffffffffffffffffffffffffff02191690837bffffffffffffffffffffffffffffffffffffffffffffffffffffffff16021790555050505b62000558826009620007b760201b620037001790919060201c565b50507f0553476bf02ef2726e8ce5ced78d63e26e602e4a2257b1f559418e24b463399781836040516200058d929190620010a3565b60405180910390a15050565b7f08f74ea46ef7894f65eabfb5e6e695de773a000b47c529ab559178069b226401600a60009054906101000a900473ffffffffffffffffffffffffffffffffffffffff1682604051620005ee92919062001237565b60405180910390a180600a60006101000a81548173ffffffffffffffffffffffffffffffffffffffff021916908373ffffffffffffffffffffffffffffffffffffffff16021790555050565b600033905090565b6000600c60009054906101000a900473ffffffffffffffffffffffffffffffffffffffff16905081600c60006101000a81548173ffffffffffffffffffffffffffffffffffffffff021916908373ffffffffffffffffffffffffffffffffffffffff1602179055508173ffffffffffffffffffffffffffffffffffffffff168173ffffffffffffffffffffffffffffffffffffffff167f8be0079c531659141344cd1fd0a4f28419497f9722a3daafe3b4186f6b6457e060405160405180910390a35050565b60006064905090565b6000806009600001805490501462000740576200073a6009620009f560201b620039021760201c565b62000744565b6008545b905090565b60007bffffffffffffffffffffffffffffffffffffffffffffffffffffffff8016821115620007af576040517f08c379a0000000000000000000000000000000000000000000000000000000008152600401620007a690620012da565b60405180910390fd5b819050919050565b6000806000846000018054905090506000620007d986620009f560201b60201c565b90506000821180156200083557504386600001600184620007fb91906200132b565b815481106200080f576200080e62001366565b5b9060005260206000200160000160009054906101000a900463ffffffff1663ffffffff16145b15620008d95762000851856200074960201b620036951760201c565b866000016001846200086491906200132b565b8154811062000878576200087762001366565b5b9060005260206000200160000160046101000a8154817bffffffffffffffffffffffffffffffffffffffffffffffffffffffff02191690837bffffffffffffffffffffffffffffffffffffffffffffffffffffffff160217905550620009e6565b856000016040518060400160405280620008fe4362000a9760201b6200399d1760201c565b63ffffffff1681526020016200091f886200074960201b620036951760201c565b7bffffffffffffffffffffffffffffffffffffffffffffffffffffffff168152509080600181540180825580915050600190039060005260206000200160009091909190915060008201518160000160006101000a81548163ffffffff021916908363ffffffff16021790555060208201518160000160046101000a8154817bffffffffffffffffffffffffffffffffffffffffffffffffffffffff02191690837bffffffffffffffffffffffffffffffffffffffffffffffffffffffff16021790555050505b80859350935050509250929050565b600080826000018054905090506000811462000a6e578260000160018262000a1e91906200132b565b8154811062000a325762000a3162001366565b5b9060005260206000200160000160049054906101000a90047bffffffffffffffffffffffffffffffffffffffffffffffffffffffff1662000a71565b60005b7bffffffffffffffffffffffffffffffffffffffffffffffffffffffff16915050919050565b600063ffffffff801682111562000ae5576040517f08c379a000000000000000000000000000000000000000000000000000000000815260040162000adc906200140b565b60405180910390fd5b819050919050565b600080fd5b600073ffffffffffffffffffffffffffffffffffffffff82169050919050565b600062000b1f8262000af2565b9050919050565b600062000b338262000b12565b9050919050565b62000b458162000b26565b811462000b5157600080fd5b50565b60008151905062000b658162000b3a565b92915050565b600062000b788262000af2565b9050919050565b600062000b8c8262000b6b565b9050919050565b62000b9e8162000b7f565b811462000baa57600080fd5b50565b60008151905062000bbe8162000b93565b92915050565b6000819050919050565b62000bd98162000bc4565b811462000be557600080fd5b50565b60008151905062000bf98162000bce565b92915050565b600080600080600080600060e0888a03121562000c215762000c2062000aed565b5b600062000c318a828b0162000b54565b975050602062000c448a828b0162000bad565b965050604062000c578a828b0162000be8565b955050606062000c6a8a828b0162000be8565b945050608062000c7d8a828b0162000be8565b93505060a062000c908a828b0162000be8565b92505060c062000ca38a828b0162000be8565b91505092959891949750929550565b600081519050919050565b7f4e487b7100000000000000000000000000000000000000000000000000000000600052604160045260246000fd5b7f4e487b7100000000000000000000000000000000000000000000000000000000600052602260045260246000fd5b6000600282049050600182168062000d3457607f821691505b60208210810362000d4a5762000d4962000cec565b5b50919050565b60008190508160005260206000209050919050565b60006020601f8301049050919050565b600082821b905092915050565b60006008830262000db47fffffffffffffffffffffffffffffffffffffffffffffffffffffffffffffffff8262000d75565b62000dc0868362000d75565b95508019841693508086168417925050509392505050565b6000819050919050565b600062000e0362000dfd62000df78462000bc4565b62000dd8565b62000bc4565b9050919050565b6000819050919050565b62000e1f8362000de2565b62000e3762000e2e8262000e0a565b84845462000d82565b825550505050565b600090565b62000e4e62000e3f565b62000e5b81848462000e14565b505050565b5b8181101562000e835762000e7760008262000e44565b60018101905062000e61565b5050565b601f82111562000ed25762000e9c8162000d50565b62000ea78462000d65565b8101602085101562000eb7578190505b62000ecf62000ec68562000d65565b83018262000e60565b50505b505050565b600082821c905092915050565b600062000ef76000198460080262000ed7565b1980831691505092915050565b600062000f12838362000ee4565b9150826002028217905092915050565b62000f2d8262000cb2565b67ffffffffffffffff81111562000f495762000f4862000cbd565b5b62000f55825462000d1b565b62000f6282828562000e87565b600060209050601f83116001811462000f9a576000841562000f85578287015190505b62000f91858262000f04565b86555062001001565b601f19841662000faa8662000d50565b60005b8281101562000fd45784890151825560018201915060208501945060208101905062000fad565b8683101562000ff4578489015162000ff0601f89168262000ee4565b8355505b6001600288020188555050505b505050505050565b6000819050919050565b6200101e8162001009565b82525050565b6200102f8162000bc4565b82525050565b620010408162000b12565b82525050565b600060a0820190506200105d600083018862001013565b6200106c602083018762001013565b6200107b604083018662001013565b6200108a606083018562001024565b62001099608083018462001035565b9695505050505050565b6000604082019050620010ba600083018562001024565b620010c9602083018462001024565b9392505050565b600082825260208201905092915050565b7f476f7665726e6f7253657474696e67733a20766f74696e6720706572696f642060008201527f746f6f206c6f7700000000000000000000000000000000000000000000000000602082015250565b60006200113f602783620010d0565b91506200114c82620010e1565b604082019050919050565b60006020820190508181036000830152620011728162001130565b9050919050565b7f476f7665726e6f72566f74657351756f72756d4672616374696f6e3a2071756f60008201527f72756d4e756d657261746f72206f7665722071756f72756d44656e6f6d696e6160208201527f746f720000000000000000000000000000000000000000000000000000000000604082015250565b6000620011fd604383620010d0565b91506200120a8262001179565b606082019050919050565b600060208201905081810360008301526200123081620011ee565b9050919050565b60006040820190506200124e600083018562001035565b6200125d602083018462001035565b9392505050565b7f53616665436173743a2076616c756520646f65736e27742066697420696e203260008201527f3234206269747300000000000000000000000000000000000000000000000000602082015250565b6000620012c2602783620010d0565b9150620012cf8262001264565b604082019050919050565b60006020820190508181036000830152620012f581620012b3565b9050919050565b7f4e487b7100000000000000000000000000000000000000000000000000000000600052601160045260246000fd5b6000620013388262000bc4565b9150620013458362000bc4565b925082820390508181111562001360576200135f620012fc565b5b92915050565b7f4e487b7100000000000000000000000000000000000000000000000000000000600052603260045260246000fd5b7f53616665436173743a2076616c756520646f65736e27742066697420696e203360008201527f3220626974730000000000000000000000000000000000000000000000000000602082015250565b6000620013f3602683620010d0565b9150620014008262001395565b604082019050919050565b600060208201905081810360008301526200142681620013e4565b9050919050565b60805160a05160c05160e051610100516101205161014051618ab9620014966000396000818161359a0152818161488d0152614b0101526000614dc701526000614e0901526000614de801526000614d1d01526000614d7301526000614d9c0152618ab96000f3fe60806040526004361061044b5760003560e01c80637b3c71d311610234578063c01f9e371161012e578063deaaa7cc116100b6578063f23a6e611161007a578063f23a6e6114611336578063f2fde38b14611373578063f8ce560a1461139c578063fc0c546a146113d9578063fea856a11461140457610491565b8063deaaa7cc1461123f578063e0c410cc1461126a578063ea0217cf146112a7578063eb9019d4146112d0578063ece40cc11461130d57610491565b8063ca1d209d116100fd578063ca1d209d14611153578063cf6862591461116f578063d33219b4146111ac578063dc73204b146111d7578063dd4e2ba51461121457610491565b8063c01f9e3714611073578063c0d55329146110b0578063c28bc2fa146110ed578063c59057e41461111657610491565b806397c3d334116101bc578063abe1aae611610180578063abe1aae614610f54578063b58131b014610f91578063b59d18a014610fbc578063bba9c21914610ff9578063bc197c811461103657610491565b806397c3d33414610e5b5780639a802a6d14610e86578063a7713a7014610ec3578063a890c91014610eee578063ab58fb8e14610f1757610491565b806387030f4d1161020357806387030f4d14610d625780638da5cb5b14610d8b5780638fb5548f14610db6578063902bfa2414610df357806396aa167e14610e3057610491565b80637b3c71d314610c805780637d5e81e214610cbd578063809b268e14610cfa578063868661cb14610d3757610491565b80633fafa127116103455780635b6b4652116102cd5780636ee8e8ef116102915780636ee8e8ef14610b8957806370084d7a14610bc657806370b0f66014610c03578063715018a614610c2c578063794d556014610c4357610491565b80635b6b465214610a575780635ced7d4014610a945780635f398a1414610ad157806360c4247f14610b0e5780636e04ff0d14610b4b57610491565b80634fac2bb7116103145780634fac2bb714610948578063535bf50f14610985578063544ffc9c146109b057806354fd4d50146109ef5780635678138814610a1a57610491565b80633fafa1271461087a57806343859632146108a5578063446a156f146108e25780634585e33b1461091f57610491565b8063156277be116103d35780633932abb1116103975780633932abb1146107815780633bccf4fd146107ac5780633be2f2a3146107e95780633e4f49e6146108125780633f3b3b271461084f57610491565b8063156277be1461066f578063160cbed7146106ac5780632656227d146106e95780632d63f693146107195780632fe3e2611461075657610491565b806306fdde031161041a57806306fdde03146105645780630cee17251461058f578063141a6c22146105b8578063148038b0146105f5578063150b7a021461063257610491565b806301ffc9a71461049657806302a251a3146104d357806303420181146104fe57806306f3f9e61461053b57610491565b36610491573073ffffffffffffffffffffffffffffffffffffffff1661046f61140e565b73ffffffffffffffffffffffffffffffffffffffff161461048f57600080fd5b005b600080fd5b3480156104a257600080fd5b506104bd60048036038101906104b89190615a0c565b61141d565b6040516104ca9190615a54565b60405180910390f35b3480156104df57600080fd5b506104e861142f565b6040516104f59190615a88565b60405180910390f35b34801561050a57600080fd5b5061052560048036038101906105209190615ce4565b61143e565b6040516105329190615a88565b60405180910390f35b34801561054757600080fd5b50610562600480360381019061055d9190615dc2565b611523565b005b34801561057057600080fd5b5061057961161a565b6040516105869190615e6e565b60405180910390f35b34801561059b57600080fd5b506105b660048036038101906105b19190615dc2565b6116ac565b005b3480156105c457600080fd5b506105df60048036038101906105da9190615f31565b61182c565b6040516105ec9190615a88565b60405180910390f35b34801561060157600080fd5b5061061c60048036038101906106179190615fd8565b611854565b6040516106299190615a88565b60405180910390f35b34801561063e57600080fd5b5061065960048036038101906106549190616018565b611879565b60405161066691906160aa565b60405180910390f35b34801561067b57600080fd5b5061069660048036038101906106919190615dc2565b61188d565b6040516106a391906160d4565b60405180910390f35b3480156106b857600080fd5b506106d360048036038101906106ce9190616356565b6118c0565b6040516106e09190615a88565b60405180910390f35b61070360048036038101906106fe9190616356565b611b7a565b6040516107109190615a88565b60405180910390f35b34801561072557600080fd5b50610740600480360381019061073b9190615dc2565b611cc7565b60405161074d9190615a88565b60405180910390f35b34801561076257600080fd5b5061076b611d35565b6040516107789190616420565b60405180910390f35b34801561078d57600080fd5b50610796611d59565b6040516107a39190615a88565b60405180910390f35b3480156107b857600080fd5b506107d360048036038101906107ce919061643b565b611d68565b6040516107e09190615a88565b60405180910390f35b3480156107f557600080fd5b50610810600480360381019061080b91906164b6565b611df2565b005b34801561081e57600080fd5b5061083960048036038101906108349190615dc2565b61205f565b60405161084691906165b0565b60405180910390f35b34801561085b57600080fd5b50610864612071565b6040516108719190615a88565b60405180910390f35b34801561088657600080fd5b5061088f612077565b60405161089c9190615a88565b60405180910390f35b3480156108b157600080fd5b506108cc60048036038101906108c79190615fd8565b61207d565b6040516108d99190615a54565b60405180910390f35b3480156108ee57600080fd5b5061090960048036038101906109049190615dc2565b6120e8565b6040516109169190616613565b60405180910390f35b34801561092b57600080fd5b5061094660048036038101906109419190616684565b612112565b005b34801561095457600080fd5b5061096f600480360381019061096a9190615dc2565b612406565b60405161097c9190615a54565b60405180910390f35b34801561099157600080fd5b5061099a612426565b6040516109a79190615a88565b60405180910390f35b3480156109bc57600080fd5b506109d760048036038101906109d29190615dc2565b612430565b6040516109e6939291906166d1565b60405180910390f35b3480156109fb57600080fd5b50610a04612468565b604051610a119190615e6e565b60405180910390f35b348015610a2657600080fd5b50610a416004803603810190610a3c9190616708565b6124a5565b604051610a4e9190615a88565b60405180910390f35b348015610a6357600080fd5b50610a7e6004803603810190610a799190615dc2565b6124d6565b604051610a8b9190615a88565b60405180910390f35b348015610aa057600080fd5b50610abb6004803603810190610ab69190615dc2565b6124ee565b604051610ac89190615a88565b60405180910390f35b348015610add57600080fd5b50610af86004803603810190610af39190616748565b612506565b604051610b059190615a88565b60405180910390f35b348015610b1a57600080fd5b50610b356004803603810190610b309190615dc2565b612570565b604051610b429190615a88565b60405180910390f35b348015610b5757600080fd5b50610b726004803603810190610b6d91906167ec565b6126bc565b604051610b8092919061688a565b60405180910390f35b348015610b9557600080fd5b50610bb06004803603810190610bab91906168ba565b612776565b604051610bbd9190615a54565b60405180910390f35b348015610bd257600080fd5b50610bed6004803603810190610be89190615dc2565b612796565b604051610bfa9190616613565b60405180910390f35b348015610c0f57600080fd5b50610c2a6004803603810190610c259190615dc2565b6127b6565b005b348015610c3857600080fd5b50610c416128ad565b005b348015610c4f57600080fd5b50610c6a6004803603810190610c659190615dc2565b6128c1565b604051610c779190615a88565b60405180910390f35b348015610c8c57600080fd5b50610ca76004803603810190610ca291906168e7565b6128d9565b604051610cb49190615a88565b60405180910390f35b348015610cc957600080fd5b50610ce46004803603810190610cdf919061695b565b612941565b604051610cf19190615a88565b60405180910390f35b348015610d0657600080fd5b50610d216004803603810190610d1c9190615dc2565b6129dc565b604051610d2e9190615a54565b60405180910390f35b348015610d4357600080fd5b50610d4c612a06565b604051610d599190615a88565b60405180910390f35b348015610d6e57600080fd5b50610d896004803603810190610d849190615dc2565b612a0c565b005b348015610d9757600080fd5b50610da0612aaf565b604051610dad91906160d4565b60405180910390f35b348015610dc257600080fd5b50610ddd6004803603810190610dd89190615dc2565b612ad9565b604051610dea9190615e6e565b60405180910390f35b348015610dff57600080fd5b50610e1a6004803603810190610e159190615dc2565b612b79565b604051610e279190615a54565b60405180910390f35b348015610e3c57600080fd5b50610e45612b99565b604051610e529190615a88565b60405180910390f35b348015610e6757600080fd5b50610e70612b9f565b604051610e7d9190615a88565b60405180910390f35b348015610e9257600080fd5b50610ead6004803603810190610ea89190616a32565b612ba8565b604051610eba9190615a88565b60405180910390f35b348015610ecf57600080fd5b50610ed8612bbe565b604051610ee59190615a88565b60405180910390f35b348015610efa57600080fd5b50610f156004803603810190610f109190616af1565b612be7565b005b348015610f2357600080fd5b50610f3e6004803603810190610f399190615dc2565b612cde565b604051610f4b9190615a88565b60405180910390f35b348015610f6057600080fd5b50610f7b6004803603810190610f769190615dc2565b612dab565b604051610f889190615e6e565b60405180910390f35b348015610f9d57600080fd5b50610fa6612e50565b604051610fb39190615a88565b60405180910390f35b348015610fc857600080fd5b50610fe36004803603810190610fde9190615dc2565b612e5f565b604051610ff09190615a88565b60405180910390f35b34801561100557600080fd5b50611020600480360381019061101b9190615dc2565b612e7c565b60405161102d9190615a88565b60405180910390f35b34801561104257600080fd5b5061105d60048036038101906110589190616b1e565b612e99565b60405161106a91906160aa565b60405180910390f35b34801561107f57600080fd5b5061109a60048036038101906110959190615dc2565b612eae565b6040516110a79190615a88565b60405180910390f35b3480156110bc57600080fd5b506110d760048036038101906110d291906168ba565b612f1c565b6040516110e49190615a54565b60405180910390f35b3480156110f957600080fd5b50611114600480360381019061110f9190616bed565b612f72565b005b34801561112257600080fd5b5061113d60048036038101906111389190616356565b6130b3565b60405161114a9190615a88565b60405180910390f35b61116d60048036038101906111689190615dc2565b6130ef565b005b34801561117b57600080fd5b5061119660048036038101906111919190615f31565b6131dc565b6040516111a39190615a88565b60405180910390f35b3480156111b857600080fd5b506111c161320a565b6040516111ce91906160d4565b60405180910390f35b3480156111e357600080fd5b506111fe60048036038101906111f99190616c61565b613234565b60405161120b9190615a88565b60405180910390f35b34801561122057600080fd5b50611229613259565b6040516112369190615e6e565b60405180910390f35b34801561124b57600080fd5b50611254613296565b6040516112619190616420565b60405180910390f35b34801561127657600080fd5b50611291600480360381019061128c9190615dc2565b6132ba565b60405161129e9190615a54565b60405180910390f35b3480156112b357600080fd5b506112ce60048036038101906112c99190615dc2565b6132e4565b005b3480156112dc57600080fd5b506112f760048036038101906112f29190616ca1565b6133db565b6040516113049190615a88565b60405180910390f35b34801561131957600080fd5b50611334600480360381019061132f9190615dc2565b6133f7565b005b34801561134257600080fd5b5061135d60048036038101906113589190616ce1565b6134ee565b60405161136a91906160aa565b60405180910390f35b34801561137f57600080fd5b5061139a600480360381019061139591906168ba565b613503565b005b3480156113a857600080fd5b506113c360048036038101906113be9190615dc2565b613586565b6040516113d09190615a88565b60405180910390f35b3480156113e557600080fd5b506113ee613598565b6040516113fb9190616dd7565b60405180910390f35b61140c6135bc565b005b60006114186139f0565b905090565b600061142882613a1a565b9050919050565b6000611439613a94565b905090565b6000806114c16114b97fb3b3f3b703cd84ce352197dcff232b1b5d3cfb2025ce47cf04742d0651f1af888c8c8c8c60405161147a929190616e22565b60405180910390208b8051906020012060405160200161149e959493929190616e4a565b60405160208183030381529060405280519060200120613a9e565b868686613ab8565b90506115148a828b8b8b8080601f016020809104026020016040519081016040528093929190818152602001838380828437600081840152601f19601f820116905080830192505050505050508a613ae3565b91505098975050505050505050565b61152b61140e565b73ffffffffffffffffffffffffffffffffffffffff16611549613c9f565b73ffffffffffffffffffffffffffffffffffffffff161461159f576040517f08c379a000000000000000000000000000000000000000000000000000000000815260040161159690616ee9565b60405180910390fd5b3073ffffffffffffffffffffffffffffffffffffffff166115be61140e565b73ffffffffffffffffffffffffffffffffffffffff161461160e5760006115e3613ca7565b6040516115f1929190616e22565b604051809103902090505b806116076002613cb4565b036115fc57505b61161781613d90565b50565b60606000805461162990616f38565b80601f016020809104026020016040519081016040528092919081815260200182805461165590616f38565b80156116a25780601f10611677576101008083540402835291602001916116a2565b820191906000526020600020905b81548152906001019060200180831161168557829003601f168201915b5050505050905090565b600260038111156116c0576116bf616539565b5b601b600083815260200190815260200160002060009054906101000a900460ff1660038111156116f3576116f2616539565b5b036117f75760006016600083815260200190815260200160002060003373ffffffffffffffffffffffffffffffffffffffff1673ffffffffffffffffffffffffffffffffffffffff16815260200190815260200160002054905060003373ffffffffffffffffffffffffffffffffffffffff168260405161177390616f8f565b60006040518083038185875af1925050503d80600081146117b0576040519150601f19603f3d011682016040523d82523d6000602084013e6117b5565b606091505b50509050806117f0576040517f9370a94600000000000000000000000000000000000000000000000000000000815260040160405180910390fd5b5050611829565b6040517f3cb39c3700000000000000000000000000000000000000000000000000000000815260040160405180910390fd5b50565b600060148260405161183e9190616fe0565b9081526020016040518091039020549050919050565b6016602052816000526040600020602052806000526040600020600091509150505481565b600063150b7a0260e01b9050949350505050565b601a6020528060005260406000206000915054906101000a900473ffffffffffffffffffffffffffffffffffffffff1681565b6000806118cf868686866130b3565b9050600460078111156118e5576118e4616539565b5b6118ee8261205f565b6007811115611900576118ff616539565b5b14611940576040517f08c379a000000000000000000000000000000000000000000000000000000000815260040161193790617069565b60405180910390fd5b6000600a60009054906101000a900473ffffffffffffffffffffffffffffffffffffffff1673ffffffffffffffffffffffffffffffffffffffff1663f27a0c926040518163ffffffff1660e01b8152600401602060405180830381865afa1580156119af573d6000803e3d6000fd5b505050506040513d601f19601f820116820180604052508101906119d3919061709e565b9050600a60009054906101000a900473ffffffffffffffffffffffffffffffffffffffff1673ffffffffffffffffffffffffffffffffffffffff1663b1c5f4278888886000896040518663ffffffff1660e01b8152600401611a3995949392919061739b565b602060405180830381865afa158015611a56573d6000803e3d6000fd5b505050506040513d601f19601f82011682018060405250810190611a7a9190617418565b600b600084815260200190815260200160002081905550600a60009054906101000a900473ffffffffffffffffffffffffffffffffffffffff1673ffffffffffffffffffffffffffffffffffffffff16638f2a0bb0888888600089876040518763ffffffff1660e01b8152600401611af796959493929190617445565b600060405180830381600087803b158015611b1157600080fd5b505af1158015611b25573d6000803e3d6000fd5b505050507f9a2e42fd6722813d69113e7d0079d3d940171428df7373df9c7f7617cfda2892828242611b5791906174ea565b604051611b6592919061751e565b60405180910390a18192505050949350505050565b600080611b89868686866130b3565b90506000611b968261205f565b905060046007811115611bac57611bab616539565b5b816007811115611bbf57611bbe616539565b5b1480611bef575060056007811115611bda57611bd9616539565b5b816007811115611bed57611bec616539565b5b145b611c2e576040517f08c379a0000000000000000000000000000000000000000000000000000000008152600401611c2590617069565b60405180910390fd5b600180600084815260200190815260200160002060020160006101000a81548160ff0219169083151502179055507f712ae1383f79ac853f8d882153778e0260ef8f03b504e2866e0593e04d2b291f82604051611c8b9190615a88565b60405180910390a1611ca08288888888613f44565b611cad8288888888614027565b611cba828888888861403b565b8192505050949350505050565b6000611d24600160008481526020019081526020016000206000016040518060200160405290816000820160009054906101000a900467ffffffffffffffff1667ffffffffffffffff1667ffffffffffffffff1681525050614096565b67ffffffffffffffff169050919050565b7fb3b3f3b703cd84ce352197dcff232b1b5d3cfb2025ce47cf04742d0651f1af8881565b6000611d636140a4565b905090565b600080611dc9611dc17f150214d74d59b7d1e90c73fc22ef3d991dd0a76b046543d4d80ab92d2a50328f8989604051602001611da693929190617547565b60405160208183030381529060405280519060200120613a9e565b868686613ab8565b9050611de6878288604051806020016040528060008152506140ae565b91505095945050505050565b611dfa6140ce565b601c60008273ffffffffffffffffffffffffffffffffffffffff1673ffffffffffffffffffffffffffffffffffffffff16815260200190815260200160002060009054906101000a900460ff16611e7d576040517f05ed74eb00000000000000000000000000000000000000000000000000000000815260040160405180910390fd5b4260126000600d5481526020019081526020016000206000848152602001908152602001600020819055506000601b6000600d54815260200190815260200160002060006101000a81548160ff02191690836003811115611ee157611ee0616539565b5b02179055508160136000600d548152602001908152602001600020819055508260186000600d54815260200190815260200160002081905550600d54601485604051611f2d9190616fe0565b9081526020016040518091039020819055508360156000600d5481526020019081526020016000209081611f619190617720565b5080601a6000600d54815260200190815260200160002060006101000a81548173ffffffffffffffffffffffffffffffffffffffff021916908373ffffffffffffffffffffffffffffffffffffffff160217905550600160196000600d54815260200190815260200160002060006101000a81548160ff021916908315150217905550600160116000600d54815260200190815260200160002060006101000a81548160ff021916908315150217905550600d547f786d1c7563663debc82f8c0117f799155168b2e814d7030810e1902c91ddf08d60405160405180910390a2600d6000815480929190612054906177f2565b919050555050505050565b600061206a8261414c565b9050919050565b600e5481565b600d5481565b60006007600084815260200190815260200160002060030160008373ffffffffffffffffffffffffffffffffffffffff1673ffffffffffffffffffffffffffffffffffffffff16815260200190815260200160002060009054906101000a900460ff16905092915050565b6000601b600083815260200190815260200160002060009054906101000a900460ff169050919050565b600061212c604051806020016040528060008152506126bc565b50905080612166576040517f443ce01400000000000000000000000000000000000000000000000000000000815260040160405180910390fd5b600060116000600d54815260200190815260200160002060006101000a81548160ff021916908315150217905550600060196000600d54815260200190815260200160002060006101000a81548160ff02191690831515021790555060186000600d5481526020019081526020016000205460176000600d548152602001908152602001600020541115612393576001601b6000600d54815260200190815260200160002060006101000a81548160ff0219169083600381111561222d5761222c616539565b5b021790555060006064600f5460176000600d54815260200190815260200160002054612259919061783a565b61226391906178ab565b90506000601a6000600d54815260200190815260200160002060009054906101000a900473ffffffffffffffffffffffffffffffffffffffff1673ffffffffffffffffffffffffffffffffffffffff16826040516122c090616f8f565b60006040518083038185875af1925050503d80600081146122fd576040519150601f19603f3d011682016040523d82523d6000602084013e612302565b606091505b505090508061235d5760176000600d548152602001908152602001600020546040517f265b39fb0000000000000000000000000000000000000000000000000000000081526004016123549190615a88565b60405180910390fd5b600d547f1fd348a1f60f7b0ef569f04e42cfb3a6ff4c91400932970947875415514ad17260405160405180910390a25050612401565b6002601b6000600d54815260200190815260200160002060006101000a81548160ff021916908360038111156123cc576123cb616539565b5b0217905550600d547f4540ebb54491dc4fd8cd7a13ba536a737551e94cf1d0ed602242bdec63da4d0360405160405180910390a25b505050565b60196020528060005260406000206000915054906101000a900460ff1681565b6000601054905090565b600080600080600760008681526020019081526020016000209050806000015481600101548260020154935093509350509193909250565b60606040518060400160405280600181526020017f3100000000000000000000000000000000000000000000000000000000000000815250905090565b6000806124b0613c9f565b90506124cd848285604051806020016040528060008152506140ae565b91505092915050565b60186020528060005260406000206000915090505481565b60136020528060005260406000206000915090505481565b600080612511613c9f565b905061256487828888888080601f016020809104026020016040519081016040528093929190818152602001838380828437600081840152601f19601f8201169050808301925050505050505087613ae3565b91505095945050505050565b600080600960000180549050905060008103612591576008549150506126b7565b600060096000016001836125a591906178dc565b815481106125b6576125b5617910565b5b906000526020600020016040518060400160405290816000820160009054906101000a900463ffffffff1663ffffffff1663ffffffff1681526020016000820160049054906101000a90047bffffffffffffffffffffffffffffffffffffffffffffffffffffffff167bffffffffffffffffffffffffffffffffffffffffffffffffffffffff167bffffffffffffffffffffffffffffffffffffffffffffffffffffffff1681525050905083816000015163ffffffff161161269e5780602001517bffffffffffffffffffffffffffffffffffffffffffffffffffffffff16925050506126b7565b6126b284600961431f90919063ffffffff16565b925050505b919050565b6000606060116000600d54815260200190815260200160002060009054906101000a900460ff16801561276f575060126000600d548152602001908152602001600020600060136000600d5481526020019081526020016000205481526020019081526020016000205460126000600d548152602001908152602001600020600060136000600d548152602001908152602001600020548152602001908152602001600020544261276d91906178dc565b115b9150915091565b601c6020528060005260406000206000915054906101000a900460ff1681565b601b6020528060005260406000206000915054906101000a900460ff1681565b6127be61140e565b73ffffffffffffffffffffffffffffffffffffffff166127dc613c9f565b73ffffffffffffffffffffffffffffffffffffffff1614612832576040517f08c379a000000000000000000000000000000000000000000000000000000000815260040161282990616ee9565b60405180910390fd5b3073ffffffffffffffffffffffffffffffffffffffff1661285161140e565b73ffffffffffffffffffffffffffffffffffffffff16146128a1576000612876613ca7565b604051612884929190616e22565b604051809103902090505b8061289a6002613cb4565b0361288f57505b6128aa81614477565b50565b6128b56140ce565b6128bf60006144bc565b565b60176020528060005260406000206000915090505481565b6000806128e4613c9f565b905061293686828787878080601f016020809104026020016040519081016040528093929190818152602001838380828437600081840152601f19601f820116905080830192505050505050506140ae565b915050949350505050565b6000601c60003373ffffffffffffffffffffffffffffffffffffffff1673ffffffffffffffffffffffffffffffffffffffff16815260200190815260200160002060009054906101000a900460ff166129c6576040517f4018425300000000000000000000000000000000000000000000000000000000815260040160405180910390fd5b6129d285858585614582565b9050949350505050565b60006011600083815260200190815260200160002060009054906101000a900460ff169050919050565b600f5481565b612a146140ce565b60006019600083815260200190815260200160002060006101000a81548160ff021916908315150217905550600060116000600d54815260200190815260200160002060006101000a81548160ff0219169083151502179055506003601b6000600d54815260200190815260200160002060006101000a81548160ff02191690836003811115612aa757612aa6616539565b5b021790555050565b6000600c60009054906101000a900473ffffffffffffffffffffffffffffffffffffffff16905090565b60156020528060005260406000206000915090508054612af890616f38565b80601f0160208091040260200160405190810160405280929190818152602001828054612b2490616f38565b8015612b715780601f10612b4657610100808354040283529160200191612b71565b820191906000526020600020905b815481529060010190602001808311612b5457829003601f168201915b505050505081565b60116020528060005260406000206000915054906101000a900460ff1681565b60105481565b60006064905090565b6000612bb5848484614889565b90509392505050565b60008060096000018054905014612bde57612bd96009613902565b612be2565b6008545b905090565b612bef61140e565b73ffffffffffffffffffffffffffffffffffffffff16612c0d613c9f565b73ffffffffffffffffffffffffffffffffffffffff1614612c63576040517f08c379a0000000000000000000000000000000000000000000000000000000008152600401612c5a90616ee9565b60405180910390fd5b3073ffffffffffffffffffffffffffffffffffffffff16612c8261140e565b73ffffffffffffffffffffffffffffffffffffffff1614612cd2576000612ca7613ca7565b604051612cb5929190616e22565b604051809103902090505b80612ccb6002613cb4565b03612cc057505b612cdb81614930565b50565b600080600a60009054906101000a900473ffffffffffffffffffffffffffffffffffffffff1673ffffffffffffffffffffffffffffffffffffffff1663d45c4435600b6000868152602001908152602001600020546040518263ffffffff1660e01b8152600401612d4f9190616420565b602060405180830381865afa158015612d6c573d6000803e3d6000fd5b505050506040513d601f19601f82011682018060405250810190612d90919061709e565b905060018114612da05780612da3565b60005b915050919050565b6060601560008381526020019081526020016000208054612dcb90616f38565b80601f0160208091040260200160405190810160405280929190818152602001828054612df790616f38565b8015612e445780601f10612e1957610100808354040283529160200191612e44565b820191906000526020600020905b815481529060010190602001808311612e2757829003601f168201915b50505050509050919050565b6000612e5a6149cf565b905090565b600060186000838152602001908152602001600020549050919050565b600060176000838152602001908152602001600020549050919050565b600063bc197c8160e01b905095945050505050565b6000612f0b600160008481526020019081526020016000206001016040518060200160405290816000820160009054906101000a900467ffffffffffffffff1667ffffffffffffffff1667ffffffffffffffff1681525050614096565b67ffffffffffffffff169050919050565b6000601c60008373ffffffffffffffffffffffffffffffffffffffff1673ffffffffffffffffffffffffffffffffffffffff16815260200190815260200160002060009054906101000a900460ff169050919050565b612f7a61140e565b73ffffffffffffffffffffffffffffffffffffffff16612f98613c9f565b73ffffffffffffffffffffffffffffffffffffffff1614612fee576040517f08c379a0000000000000000000000000000000000000000000000000000000008152600401612fe590616ee9565b60405180910390fd5b3073ffffffffffffffffffffffffffffffffffffffff1661300d61140e565b73ffffffffffffffffffffffffffffffffffffffff161461305d576000613032613ca7565b604051613040929190616e22565b604051809103902090505b806130566002613cb4565b0361304b57505b6130ac8483838080601f016020809104026020016040519081016040528093929190818152602001838380828437600081840152601f19601f82011690508083019250505050505050856149d9565b5050505050565b6000848484846040516020016130cc949392919061793f565b6040516020818303038152906040528051906020012060001c9050949350505050565b806019600082815260200190815260200160002060009054906101000a900460ff16613147576040517f528d75ab00000000000000000000000000000000000000000000000000000000815260040160405180910390fd5b346016600084815260200190815260200160002060003373ffffffffffffffffffffffffffffffffffffffff1673ffffffffffffffffffffffffffffffffffffffff16815260200190815260200160002060008282546131a791906174ea565b92505081905550346017600084815260200190815260200160002060008282546131d191906174ea565b925050819055505050565b6014818051602081018201805184825260208301602085012081835280955050505050506000915090505481565b6000600a60009054906101000a900473ffffffffffffffffffffffffffffffffffffffff16905090565b6012602052816000526040600020602052806000526040600020600091509150505481565b60606040518060400160405280602081526020017f737570706f72743d627261766f2671756f72756d3d666f722c6162737461696e815250905090565b7f150214d74d59b7d1e90c73fc22ef3d991dd0a76b046543d4d80ab92d2a50328f81565b60006019600083815260200190815260200160002060009054906101000a900460ff169050919050565b6132ec61140e565b73ffffffffffffffffffffffffffffffffffffffff1661330a613c9f565b73ffffffffffffffffffffffffffffffffffffffff1614613360576040517f08c379a000000000000000000000000000000000000000000000000000000000815260040161335790616ee9565b60405180910390fd5b3073ffffffffffffffffffffffffffffffffffffffff1661337f61140e565b73ffffffffffffffffffffffffffffffffffffffff16146133cf5760006133a4613ca7565b6040516133b2929190616e22565b604051809103902090505b806133c86002613cb4565b036133bd57505b6133d881614a08565b50565b60006133ef83836133ea614a90565b614889565b905092915050565b6133ff61140e565b73ffffffffffffffffffffffffffffffffffffffff1661341d613c9f565b73ffffffffffffffffffffffffffffffffffffffff1614613473576040517f08c379a000000000000000000000000000000000000000000000000000000000815260040161346a90616ee9565b60405180910390fd5b3073ffffffffffffffffffffffffffffffffffffffff1661349261140e565b73ffffffffffffffffffffffffffffffffffffffff16146134e25760006134b7613ca7565b6040516134c5929190616e22565b604051809103902090505b806134db6002613cb4565b036134d057505b6134eb81614aa7565b50565b600063f23a6e6160e01b905095945050505050565b61350b6140ce565b600073ffffffffffffffffffffffffffffffffffffffff168173ffffffffffffffffffffffffffffffffffffffff160361357a576040517f08c379a000000000000000000000000000000000000000000000000000000000815260040161357190617a0b565b60405180910390fd5b613583816144bc565b50565b600061359182614aec565b9050919050565b7f000000000000000000000000000000000000000000000000000000000000000081565b6010543410156135f8576040517f63dc8b0c00000000000000000000000000000000000000000000000000000000815260040160405180910390fd5b6001601c60003373ffffffffffffffffffffffffffffffffffffffff1673ffffffffffffffffffffffffffffffffffffffff16815260200190815260200160002060006101000a81548160ff0219169083151502179055503373ffffffffffffffffffffffffffffffffffffffff167f08589d6aa50e04ad7909247eece8eb5c4e8ab2d708d7d76becf8a96298b6ee4f60405160405180910390a2565b60007bffffffffffffffffffffffffffffffffffffffffffffffffffffffff80168211156136f8576040517f08c379a00000000000000000000000000000000000000000000000000000000081526004016136ef90617a9d565b60405180910390fd5b819050919050565b600080600084600001805490509050600061371a86613902565b90506000821180156137705750438660000160018461373991906178dc565b8154811061374a57613749617910565b5b9060005260206000200160000160009054906101000a900463ffffffff1663ffffffff16145b156138005761377e85613695565b8660000160018461378f91906178dc565b815481106137a05761379f617910565b5b9060005260206000200160000160046101000a8154817bffffffffffffffffffffffffffffffffffffffffffffffffffffffff02191690837bffffffffffffffffffffffffffffffffffffffffffffffffffffffff1602179055506138f3565b8560000160405180604001604052806138184361399d565b63ffffffff16815260200161382c88613695565b7bffffffffffffffffffffffffffffffffffffffffffffffffffffffff168152509080600181540180825580915050600190039060005260206000200160009091909190915060008201518160000160006101000a81548163ffffffff021916908363ffffffff16021790555060208201518160000160046101000a8154817bffffffffffffffffffffffffffffffffffffffffffffffffffffffff02191690837bffffffffffffffffffffffffffffffffffffffffffffffffffffffff16021790555050505b80859350935050509250929050565b6000808260000180549050905060008114613974578260000160018261392891906178dc565b8154811061393957613938617910565b5b9060005260206000200160000160049054906101000a90047bffffffffffffffffffffffffffffffffffffffffffffffffffffffff16613977565b60005b7bffffffffffffffffffffffffffffffffffffffffffffffffffffffff16915050919050565b600063ffffffff80168211156139e8576040517f08c379a00000000000000000000000000000000000000000000000000000000081526004016139df90617b2f565b60405180910390fd5b819050919050565b6000600a60009054906101000a900473ffffffffffffffffffffffffffffffffffffffff16905090565b60007f6e665ced000000000000000000000000000000000000000000000000000000007bffffffffffffffffffffffffffffffffffffffffffffffffffffffff1916827bffffffffffffffffffffffffffffffffffffffffffffffffffffffff19161480613a8d5750613a8c82614bb4565b5b9050919050565b6000600554905090565b6000613ab1613aab614d19565b83614e33565b9050919050565b6000806000613ac987878787614e66565b91509150613ad681614f72565b8192505050949350505050565b60008060016000888152602001908152602001600020905060016007811115613b0f57613b0e616539565b5b613b188861205f565b6007811115613b2a57613b29616539565b5b14613b6a576040517f08c379a0000000000000000000000000000000000000000000000000000000008152600401613b6190617bc1565b60405180910390fd5b6000613bc987613bb9846000016040518060200160405290816000820160009054906101000a900467ffffffffffffffff1667ffffffffffffffff1667ffffffffffffffff1681525050614096565b67ffffffffffffffff1686614889565b9050613bd8888888848861513e565b6000845103613c3a578673ffffffffffffffffffffffffffffffffffffffff167fb8e138887d0aa13bab447e82de9d5c1777041ecd21ca36ba824ff1e6c07ddda489888489604051613c2d9493929190617be1565b60405180910390a2613c91565b8673ffffffffffffffffffffffffffffffffffffffff167fe2babfbac5889a709b63bb7f598b324e08bc5a4fb9ec647fb3cbc9ec07eb87128988848989604051613c88959493929190617c2d565b60405180910390a25b809250505095945050505050565b600033905090565b3660008036915091509091565b6000613cbf82615342565b15613cf6576040517f3db2a12a00000000000000000000000000000000000000000000000000000000815260040160405180910390fd5b60008260000160009054906101000a9004600f0b905082600101600082600f0b600f0b815260200190815260200160002054915082600101600082600f0b600f0b815260200190815260200160002060009055600181018360000160006101000a8154816fffffffffffffffffffffffffffffffff0219169083600f0b6fffffffffffffffffffffffffffffffff16021790555050919050565b613d98612b9f565b811115613dda576040517f08c379a0000000000000000000000000000000000000000000000000000000008152600401613dd190617d26565b60405180910390fd5b6000613de4612bbe565b905060008114158015613dff57506000600960000180549050145b15613ef15760096000016040518060400160405280600063ffffffff168152602001613e2a84613695565b7bffffffffffffffffffffffffffffffffffffffffffffffffffffffff168152509080600181540180825580915050600190039060005260206000200160009091909190915060008201518160000160006101000a81548163ffffffff021916908363ffffffff16021790555060208201518160000160046101000a8154817bffffffffffffffffffffffffffffffffffffffffffffffffffffffff02191690837bffffffffffffffffffffffffffffffffffffffffffffffffffffffff16021790555050505b613f0582600961370090919063ffffffff16565b50507f0553476bf02ef2726e8ce5ced78d63e26e602e4a2257b1f559418e24b46339978183604051613f3892919061751e565b60405180910390a15050565b3073ffffffffffffffffffffffffffffffffffffffff16613f6361140e565b73ffffffffffffffffffffffffffffffffffffffff16146140205760005b845181101561401e573073ffffffffffffffffffffffffffffffffffffffff16858281518110613fb457613fb3617910565b5b602002602001015173ffffffffffffffffffffffffffffffffffffffff160361400d5761400c838281518110613fed57613fec617910565b5b602002602001015180519060200120600261537790919063ffffffff16565b5b80614017906177f2565b9050613f81565b505b5050505050565b61403485858585856153f3565b5050505050565b3073ffffffffffffffffffffffffffffffffffffffff1661405a61140e565b73ffffffffffffffffffffffffffffffffffffffff161461408f5761407f6002615342565b61408e5761408d6002615491565b5b5b5050505050565b600081600001519050919050565b6000600454905090565b60006140c4858585856140bf614a90565b613ae3565b9050949350505050565b6140d6613c9f565b73ffffffffffffffffffffffffffffffffffffffff166140f4612aaf565b73ffffffffffffffffffffffffffffffffffffffff161461414a576040517f08c379a000000000000000000000000000000000000000000000000000000000815260040161414190617d92565b60405180910390fd5b565b60008061415883615512565b90506004600781111561416e5761416d616539565b5b81600781111561418157614180616539565b5b1461418f578091505061431a565b6000600b60008581526020019081526020016000205490506000801b81036141bb57819250505061431a565b600a60009054906101000a900473ffffffffffffffffffffffffffffffffffffffff1673ffffffffffffffffffffffffffffffffffffffff16632ab0f529826040518263ffffffff1660e01b81526004016142169190616420565b602060405180830381865afa158015614233573d6000803e3d6000fd5b505050506040513d601f19601f820116820180604052508101906142579190617dde565b156142675760079250505061431a565b600a60009054906101000a900473ffffffffffffffffffffffffffffffffffffffff1673ffffffffffffffffffffffffffffffffffffffff1663584b153e826040518263ffffffff1660e01b81526004016142c29190616420565b602060405180830381865afa1580156142df573d6000803e3d6000fd5b505050506040513d601f19601f820116820180604052508101906143039190617dde565b156143135760059250505061431a565b6002925050505b919050565b6000438210614363576040517f08c379a000000000000000000000000000000000000000000000000000000000815260040161435a90617e57565b60405180910390fd5b60008360000180549050905060005b818110156143e75760006143868284615626565b90508486600001828154811061439f5761439e617910565b5b9060005260206000200160000160009054906101000a900463ffffffff1663ffffffff1611156143d1578092506143e1565b6001816143de91906174ea565b91505b50614372565b6000821461444c578460000160018361440091906178dc565b8154811061441157614410617910565b5b9060005260206000200160000160049054906101000a90047bffffffffffffffffffffffffffffffffffffffffffffffffffffffff1661444f565b60005b7bffffffffffffffffffffffffffffffffffffffffffffffffffffffff169250505092915050565b7fc565b045403dc03c2eea82b81a0465edad9e2e7fc4d97e11421c209da93d7a93600454826040516144aa92919061751e565b60405180910390a18060048190555050565b6000600c60009054906101000a900473ffffffffffffffffffffffffffffffffffffffff16905081600c60006101000a81548173ffffffffffffffffffffffffffffffffffffffff021916908373ffffffffffffffffffffffffffffffffffffffff1602179055508173ffffffffffffffffffffffffffffffffffffffff168173ffffffffffffffffffffffffffffffffffffffff167f8be0079c531659141344cd1fd0a4f28419497f9722a3daafe3b4186f6b6457e060405160405180910390a35050565b600061458c612e50565b6145a9614597613c9f565b6001436145a491906178dc565b6133db565b10156145ea576040517f08c379a00000000000000000000000000000000000000000000000000000000081526004016145e190617ee9565b60405180910390fd5b60006145ff86868686805190602001206130b3565b90508451865114614645576040517f08c379a000000000000000000000000000000000000000000000000000000000815260040161463c90617f7b565b60405180910390fd5b8351865114614689576040517f08c379a000000000000000000000000000000000000000000000000000000000815260040161468090617f7b565b60405180910390fd5b60008651116146cd576040517f08c379a00000000000000000000000000000000000000000000000000000000081526004016146c490617fe7565b60405180910390fd5b600060016000838152602001908152602001600020905061472d816000016040518060200160405290816000820160009054906101000a900467ffffffffffffffff1667ffffffffffffffff1667ffffffffffffffff168152505061564c565b61476c576040517f08c379a000000000000000000000000000000000000000000000000000000000815260040161476390618079565b60405180910390fd5b600061477e614779611d59565b615666565b61478743615666565b61479191906180ad565b905060006147a56147a061142f565b615666565b826147b091906180ad565b90506147c882846000016156bd90919063ffffffff16565b6147de81846001016156bd90919063ffffffff16565b7f7d84a6263ae0d98d3329bd7b46bb4e8d6f98cd35a7adb45c274c8b7fd5ebd5e084614808613c9f565b8b8b8d5167ffffffffffffffff81111561482557614824615b83565b5b60405190808252806020026020018201604052801561485857816020015b60608152602001906001900390816148435790505b508c88888e60405161487299989796959493929190618226565b60405180910390a183945050505050949350505050565b60007f000000000000000000000000000000000000000000000000000000000000000073ffffffffffffffffffffffffffffffffffffffff16633a46b1a885856040518363ffffffff1660e01b81526004016148e69291906182d6565b602060405180830381865afa158015614903573d6000803e3d6000fd5b505050506040513d601f19601f82011682018060405250810190614927919061709e565b90509392505050565b7f08f74ea46ef7894f65eabfb5e6e695de773a000b47c529ab559178069b226401600a60009054906101000a900473ffffffffffffffffffffffffffffffffffffffff16826040516149839291906182ff565b60405180910390a180600a60006101000a81548173ffffffffffffffffffffffffffffffffffffffff021916908373ffffffffffffffffffffffffffffffffffffffff16021790555050565b6000600654905090565b60606149ff848484604051806060016040528060298152602001618a5b602991396156ec565b90509392505050565b60008111614a4b576040517f08c379a0000000000000000000000000000000000000000000000000000000008152600401614a429061839a565b60405180910390fd5b7f7e3f7f0708a84de9203036abaa450dccc85ad5ff52f78c170f3edb55cf5e882860055482604051614a7e92919061751e565b60405180910390a18060058190555050565b606060405180602001604052806000815250905090565b7fccb45da8d5717e6c4544694297c4ba5cf151d455c9bb0ed4fc7a38411bc0546160065482604051614ada92919061751e565b60405180910390a18060068190555050565b6000614af6612b9f565b614aff83612570565b7f000000000000000000000000000000000000000000000000000000000000000073ffffffffffffffffffffffffffffffffffffffff16638e539e8c856040518263ffffffff1660e01b8152600401614b589190615a88565b602060405180830381865afa158015614b75573d6000803e3d6000fd5b505050506040513d601f19601f82011682018060405250810190614b99919061709e565b614ba3919061783a565b614bad91906178ab565b9050919050565b6000639a802a6d60e01b630342018160e01b635f398a1460e01b7f79dd796f000000000000000000000000000000000000000000000000000000001818187bffffffffffffffffffffffffffffffffffffffffffffffffffffffff1916827bffffffffffffffffffffffffffffffffffffffffffffffffffffffff19161480614c9a57507f79dd796f000000000000000000000000000000000000000000000000000000007bffffffffffffffffffffffffffffffffffffffffffffffffffffffff1916827bffffffffffffffffffffffffffffffffffffffffffffffffffffffff1916145b80614d0257507f4e2312e0000000000000000000000000000000000000000000000000000000007bffffffffffffffffffffffffffffffffffffffffffffffffffffffff1916827bffffffffffffffffffffffffffffffffffffffffffffffffffffffff1916145b80614d125750614d1182615800565b5b9050919050565b60007f000000000000000000000000000000000000000000000000000000000000000073ffffffffffffffffffffffffffffffffffffffff163073ffffffffffffffffffffffffffffffffffffffff16148015614d9557507f000000000000000000000000000000000000000000000000000000000000000046145b15614dc2577f00000000000000000000000000000000000000000000000000000000000000009050614e30565b614e2d7f00000000000000000000000000000000000000000000000000000000000000007f00000000000000000000000000000000000000000000000000000000000000007f000000000000000000000000000000000000000000000000000000000000000061586a565b90505b90565b60008282604051602001614e48929190618427565b60405160208183030381529060405280519060200120905092915050565b6000807f7fffffffffffffffffffffffffffffff5d576e7357a4501ddfe92f46681b20a08360001c1115614ea1576000600391509150614f69565b601b8560ff1614158015614eb95750601c8560ff1614155b15614ecb576000600491509150614f69565b600060018787878760405160008152602001604052604051614ef0949392919061845e565b6020604051602081039080840390855afa158015614f12573d6000803e3d6000fd5b505050602060405103519050600073ffffffffffffffffffffffffffffffffffffffff168173ffffffffffffffffffffffffffffffffffffffff1603614f6057600060019250925050614f69565b80600092509250505b94509492505050565b60006004811115614f8657614f85616539565b5b816004811115614f9957614f98616539565b5b031561513b5760016004811115614fb357614fb2616539565b5b816004811115614fc657614fc5616539565b5b03615006576040517f08c379a0000000000000000000000000000000000000000000000000000000008152600401614ffd906184ef565b60405180910390fd5b6002600481111561501a57615019616539565b5b81600481111561502d5761502c616539565b5b0361506d576040517f08c379a00000000000000000000000000000000000000000000000000000000081526004016150649061855b565b60405180910390fd5b6003600481111561508157615080616539565b5b81600481111561509457615093616539565b5b036150d4576040517f08c379a00000000000000000000000000000000000000000000000000000000081526004016150cb906185ed565b60405180910390fd5b6004808111156150e7576150e6616539565b5b8160048111156150fa576150f9616539565b5b0361513a576040517f08c379a00000000000000000000000000000000000000000000000000000000081526004016151319061867f565b60405180910390fd5b5b50565b60006007600087815260200190815260200160002090508060030160008673ffffffffffffffffffffffffffffffffffffffff1673ffffffffffffffffffffffffffffffffffffffff16815260200190815260200160002060009054906101000a900460ff16156151e4576040517f08c379a00000000000000000000000000000000000000000000000000000000081526004016151db90618711565b60405180910390fd5b60018160030160008773ffffffffffffffffffffffffffffffffffffffff1673ffffffffffffffffffffffffffffffffffffffff16815260200190815260200160002060006101000a81548160ff0219169083151502179055506000600281111561525257615251616539565b5b60ff168460ff160361527e578281600001600082825461527291906174ea565b9250508190555061533a565b6001600281111561529257615291616539565b5b60ff168460ff16036152be57828160010160008282546152b291906174ea565b92505081905550615339565b6002808111156152d1576152d0616539565b5b60ff168460ff16036152fd57828160020160008282546152f191906174ea565b92505081905550615338565b6040517f08c379a000000000000000000000000000000000000000000000000000000000815260040161532f906187a3565b60405180910390fd5b5b5b505050505050565b60008160000160009054906101000a9004600f0b600f0b8260000160109054906101000a9004600f0b600f0b13159050919050565b60008260000160109054906101000a9004600f0b90508183600101600083600f0b600f0b815260200190815260200160002081905550600181018360000160106101000a8154816fffffffffffffffffffffffffffffffff0219169083600f0b6fffffffffffffffffffffffffffffffff160217905550505050565b600a60009054906101000a900473ffffffffffffffffffffffffffffffffffffffff1673ffffffffffffffffffffffffffffffffffffffff1663e38335e5348686866000876040518763ffffffff1660e01b815260040161545895949392919061739b565b6000604051808303818588803b15801561547157600080fd5b505af1158015615485573d6000803e3d6000fd5b50505050505050505050565b60008160000160006101000a8154816fffffffffffffffffffffffffffffffff0219169083600f0b6fffffffffffffffffffffffffffffffff16021790555060008160000160106101000a8154816fffffffffffffffffffffffffffffffff0219169083600f0b6fffffffffffffffffffffffffffffffff16021790555050565b6000806001600084815260200190815260200160002090508060020160009054906101000a900460ff161561554b576007915050615621565b8060020160019054906101000a900460ff161561556c576002915050615621565b600061557784611cc7565b9050600081036155bc576040517f08c379a00000000000000000000000000000000000000000000000000000000081526004016155b39061880f565b60405180910390fd5b4381106155ce57600092505050615621565b60006155d985612eae565b90504381106155ee5760019350505050615621565b6155f7856158a4565b80156156085750615607856158eb565b5b156156195760049350505050615621565b600393505050505b919050565b6000600282841861563791906178ab565b82841661564491906174ea565b905092915050565b600080826000015167ffffffffffffffff16149050919050565b600067ffffffffffffffff80168211156156b5576040517f08c379a00000000000000000000000000000000000000000000000000000000081526004016156ac906188a1565b60405180910390fd5b819050919050565b808260000160006101000a81548167ffffffffffffffff021916908367ffffffffffffffff1602179055505050565b606082471015615731576040517f08c379a000000000000000000000000000000000000000000000000000000000815260040161572890618933565b60405180910390fd5b61573a85615916565b615779576040517f08c379a00000000000000000000000000000000000000000000000000000000081526004016157709061899f565b60405180910390fd5b6000808673ffffffffffffffffffffffffffffffffffffffff1685876040516157a291906189f0565b60006040518083038185875af1925050503d80600081146157df576040519150601f19603f3d011682016040523d82523d6000602084013e6157e4565b606091505b50915091506157f4828286615939565b92505050949350505050565b60007f01ffc9a7000000000000000000000000000000000000000000000000000000007bffffffffffffffffffffffffffffffffffffffffffffffffffffffff1916827bffffffffffffffffffffffffffffffffffffffffffffffffffffffff1916149050919050565b60008383834630604051602001615885959493929190618a07565b6040516020818303038152906040528051906020012090509392505050565b600080600760008481526020019081526020016000209050806002015481600101546158d091906174ea565b6158e16158dc85611cc7565b613586565b1115915050919050565b6000806007600084815260200190815260200160002090508060000154816001015411915050919050565b6000808273ffffffffffffffffffffffffffffffffffffffff163b119050919050565b6060831561594957829050615999565b60008351111561595c5782518084602001fd5b816040517f08c379a00000000000000000000000000000000000000000000000000000000081526004016159909190615e6e565b60405180910390fd5b9392505050565b6000604051905090565b600080fd5b600080fd5b60007fffffffff0000000000000000000000000000000000000000000000000000000082169050919050565b6159e9816159b4565b81146159f457600080fd5b50565b600081359050615a06816159e0565b92915050565b600060208284031215615a2257615a216159aa565b5b6000615a30848285016159f7565b91505092915050565b60008115159050919050565b615a4e81615a39565b82525050565b6000602082019050615a696000830184615a45565b92915050565b6000819050919050565b615a8281615a6f565b82525050565b6000602082019050615a9d6000830184615a79565b92915050565b615aac81615a6f565b8114615ab757600080fd5b50565b600081359050615ac981615aa3565b92915050565b600060ff82169050919050565b615ae581615acf565b8114615af057600080fd5b50565b600081359050615b0281615adc565b92915050565b600080fd5b600080fd5b600080fd5b60008083601f840112615b2d57615b2c615b08565b5b8235905067ffffffffffffffff811115615b4a57615b49615b0d565b5b602083019150836001820283011115615b6657615b65615b12565b5b9250929050565b600080fd5b6000601f19601f8301169050919050565b7f4e487b7100000000000000000000000000000000000000000000000000000000600052604160045260246000fd5b615bbb82615b72565b810181811067ffffffffffffffff82111715615bda57615bd9615b83565b5b80604052505050565b6000615bed6159a0565b9050615bf98282615bb2565b919050565b600067ffffffffffffffff821115615c1957615c18615b83565b5b615c2282615b72565b9050602081019050919050565b82818337600083830152505050565b6000615c51615c4c84615bfe565b615be3565b905082815260208101848484011115615c6d57615c6c615b6d565b5b615c78848285615c2f565b509392505050565b600082601f830112615c9557615c94615b08565b5b8135615ca5848260208601615c3e565b91505092915050565b6000819050919050565b615cc181615cae565b8114615ccc57600080fd5b50565b600081359050615cde81615cb8565b92915050565b60008060008060008060008060e0898b031215615d0457615d036159aa565b5b6000615d128b828c01615aba565b9850506020615d238b828c01615af3565b975050604089013567ffffffffffffffff811115615d4457615d436159af565b5b615d508b828c01615b17565b9650965050606089013567ffffffffffffffff811115615d7357615d726159af565b5b615d7f8b828c01615c80565b9450506080615d908b828c01615af3565b93505060a0615da18b828c01615ccf565b92505060c0615db28b828c01615ccf565b9150509295985092959890939650565b600060208284031215615dd857615dd76159aa565b5b6000615de684828501615aba565b91505092915050565b600081519050919050565b600082825260208201905092915050565b60005b83811015615e29578082015181840152602081019050615e0e565b60008484015250505050565b6000615e4082615def565b615e4a8185615dfa565b9350615e5a818560208601615e0b565b615e6381615b72565b840191505092915050565b60006020820190508181036000830152615e888184615e35565b905092915050565b600067ffffffffffffffff821115615eab57615eaa615b83565b5b615eb482615b72565b9050602081019050919050565b6000615ed4615ecf84615e90565b615be3565b905082815260208101848484011115615ef057615eef615b6d565b5b615efb848285615c2f565b509392505050565b600082601f830112615f1857615f17615b08565b5b8135615f28848260208601615ec1565b91505092915050565b600060208284031215615f4757615f466159aa565b5b600082013567ffffffffffffffff811115615f6557615f646159af565b5b615f7184828501615f03565b91505092915050565b600073ffffffffffffffffffffffffffffffffffffffff82169050919050565b6000615fa582615f7a565b9050919050565b615fb581615f9a565b8114615fc057600080fd5b50565b600081359050615fd281615fac565b92915050565b60008060408385031215615fef57615fee6159aa565b5b6000615ffd85828601615aba565b925050602061600e85828601615fc3565b9150509250929050565b60008060008060808587031215616032576160316159aa565b5b600061604087828801615fc3565b945050602061605187828801615fc3565b935050604061606287828801615aba565b925050606085013567ffffffffffffffff811115616083576160826159af565b5b61608f87828801615c80565b91505092959194509250565b6160a4816159b4565b82525050565b60006020820190506160bf600083018461609b565b92915050565b6160ce81615f9a565b82525050565b60006020820190506160e960008301846160c5565b92915050565b600067ffffffffffffffff82111561610a57616109615b83565b5b602082029050602081019050919050565b600061612e616129846160ef565b615be3565b9050808382526020820190506020840283018581111561615157616150615b12565b5b835b8181101561617a57806161668882615fc3565b845260208401935050602081019050616153565b5050509392505050565b600082601f83011261619957616198615b08565b5b81356161a984826020860161611b565b91505092915050565b600067ffffffffffffffff8211156161cd576161cc615b83565b5b602082029050602081019050919050565b60006161f16161ec846161b2565b615be3565b9050808382526020820190506020840283018581111561621457616213615b12565b5b835b8181101561623d57806162298882615aba565b845260208401935050602081019050616216565b5050509392505050565b600082601f83011261625c5761625b615b08565b5b813561626c8482602086016161de565b91505092915050565b600067ffffffffffffffff8211156162905761628f615b83565b5b602082029050602081019050919050565b60006162b46162af84616275565b615be3565b905080838252602082019050602084028301858111156162d7576162d6615b12565b5b835b8181101561631e57803567ffffffffffffffff8111156162fc576162fb615b08565b5b8086016163098982615c80565b855260208501945050506020810190506162d9565b5050509392505050565b600082601f83011261633d5761633c615b08565b5b813561634d8482602086016162a1565b91505092915050565b600080600080608085870312156163705761636f6159aa565b5b600085013567ffffffffffffffff81111561638e5761638d6159af565b5b61639a87828801616184565b945050602085013567ffffffffffffffff8111156163bb576163ba6159af565b5b6163c787828801616247565b935050604085013567ffffffffffffffff8111156163e8576163e76159af565b5b6163f487828801616328565b925050606061640587828801615ccf565b91505092959194509250565b61641a81615cae565b82525050565b60006020820190506164356000830184616411565b92915050565b600080600080600060a08688031215616457576164566159aa565b5b600061646588828901615aba565b955050602061647688828901615af3565b945050604061648788828901615af3565b935050606061649888828901615ccf565b92505060806164a988828901615ccf565b9150509295509295909350565b600080600080608085870312156164d0576164cf6159aa565b5b600085013567ffffffffffffffff8111156164ee576164ed6159af565b5b6164fa87828801615f03565b945050602061650b87828801615aba565b935050604061651c87828801615aba565b925050606061652d87828801615fc3565b91505092959194509250565b7f4e487b7100000000000000000000000000000000000000000000000000000000600052602160045260246000fd5b6008811061657957616578616539565b5b50565b600081905061658a82616568565b919050565b600061659a8261657c565b9050919050565b6165aa8161658f565b82525050565b60006020820190506165c560008301846165a1565b92915050565b600481106165dc576165db616539565b5b50565b60008190506165ed826165cb565b919050565b60006165fd826165df565b9050919050565b61660d816165f2565b82525050565b60006020820190506166286000830184616604565b92915050565b60008083601f84011261664457616643615b08565b5b8235905067ffffffffffffffff81111561666157616660615b0d565b5b60208301915083600182028301111561667d5761667c615b12565b5b9250929050565b6000806020838503121561669b5761669a6159aa565b5b600083013567ffffffffffffffff8111156166b9576166b86159af565b5b6166c58582860161662e565b92509250509250929050565b60006060820190506166e66000830186615a79565b6166f36020830185615a79565b6167006040830184615a79565b949350505050565b6000806040838503121561671f5761671e6159aa565b5b600061672d85828601615aba565b925050602061673e85828601615af3565b9150509250929050565b600080600080600060808688031215616764576167636159aa565b5b600061677288828901615aba565b955050602061678388828901615af3565b945050604086013567ffffffffffffffff8111156167a4576167a36159af565b5b6167b088828901615b17565b9350935050606086013567ffffffffffffffff8111156167d3576167d26159af565b5b6167df88828901615c80565b9150509295509295909350565b600060208284031215616802576168016159aa565b5b600082013567ffffffffffffffff8111156168205761681f6159af565b5b61682c84828501615c80565b91505092915050565b600081519050919050565b600082825260208201905092915050565b600061685c82616835565b6168668185616840565b9350616876818560208601615e0b565b61687f81615b72565b840191505092915050565b600060408201905061689f6000830185615a45565b81810360208301526168b18184616851565b90509392505050565b6000602082840312156168d0576168cf6159aa565b5b60006168de84828501615fc3565b91505092915050565b60008060008060608587031215616901576169006159aa565b5b600061690f87828801615aba565b945050602061692087828801615af3565b935050604085013567ffffffffffffffff811115616941576169406159af565b5b61694d87828801615b17565b925092505092959194509250565b60008060008060808587031215616975576169746159aa565b5b600085013567ffffffffffffffff811115616993576169926159af565b5b61699f87828801616184565b945050602085013567ffffffffffffffff8111156169c0576169bf6159af565b5b6169cc87828801616247565b935050604085013567ffffffffffffffff8111156169ed576169ec6159af565b5b6169f987828801616328565b925050606085013567ffffffffffffffff811115616a1a57616a196159af565b5b616a2687828801615f03565b91505092959194509250565b600080600060608486031215616a4b57616a4a6159aa565b5b6000616a5986828701615fc3565b9350506020616a6a86828701615aba565b925050604084013567ffffffffffffffff811115616a8b57616a8a6159af565b5b616a9786828701615c80565b9150509250925092565b6000616aac82615f7a565b9050919050565b6000616abe82616aa1565b9050919050565b616ace81616ab3565b8114616ad957600080fd5b50565b600081359050616aeb81616ac5565b92915050565b600060208284031215616b0757616b066159aa565b5b6000616b1584828501616adc565b91505092915050565b600080600080600060a08688031215616b3a57616b396159aa565b5b6000616b4888828901615fc3565b9550506020616b5988828901615fc3565b945050604086013567ffffffffffffffff811115616b7a57616b796159af565b5b616b8688828901616247565b935050606086013567ffffffffffffffff811115616ba757616ba66159af565b5b616bb388828901616247565b925050608086013567ffffffffffffffff811115616bd457616bd36159af565b5b616be088828901615c80565b9150509295509295909350565b60008060008060608587031215616c0757616c066159aa565b5b6000616c1587828801615fc3565b9450506020616c2687828801615aba565b935050604085013567ffffffffffffffff811115616c4757616c466159af565b5b616c538782880161662e565b925092505092959194509250565b60008060408385031215616c7857616c776159aa565b5b6000616c8685828601615aba565b9250506020616c9785828601615aba565b9150509250929050565b60008060408385031215616cb857616cb76159aa565b5b6000616cc685828601615fc3565b9250506020616cd785828601615aba565b9150509250929050565b600080600080600060a08688031215616cfd57616cfc6159aa565b5b6000616d0b88828901615fc3565b9550506020616d1c88828901615fc3565b9450506040616d2d88828901615aba565b9350506060616d3e88828901615aba565b925050608086013567ffffffffffffffff811115616d5f57616d5e6159af565b5b616d6b88828901615c80565b9150509295509295909350565b6000819050919050565b6000616d9d616d98616d9384615f7a565b616d78565b615f7a565b9050919050565b6000616daf82616d82565b9050919050565b6000616dc182616da4565b9050919050565b616dd181616db6565b82525050565b6000602082019050616dec6000830184616dc8565b92915050565b600081905092915050565b6000616e098385616df2565b9350616e16838584615c2f565b82840190509392505050565b6000616e2f828486616dfd565b91508190509392505050565b616e4481615acf565b82525050565b600060a082019050616e5f6000830188616411565b616e6c6020830187615a79565b616e796040830186616e3b565b616e866060830185616411565b616e936080830184616411565b9695505050505050565b7f476f7665726e6f723a206f6e6c79476f7665726e616e63650000000000000000600082015250565b6000616ed3601883615dfa565b9150616ede82616e9d565b602082019050919050565b60006020820190508181036000830152616f0281616ec6565b9050919050565b7f4e487b7100000000000000000000000000000000000000000000000000000000600052602260045260246000fd5b60006002820490506001821680616f5057607f821691505b602082108103616f6357616f62616f09565b5b50919050565b50565b6000616f79600083616df2565b9150616f8482616f69565b600082019050919050565b6000616f9a82616f6c565b9150819050919050565b600081905092915050565b6000616fba82615def565b616fc48185616fa4565b9350616fd4818560208601615e0b565b80840191505092915050565b6000616fec8284616faf565b915081905092915050565b7f476f7665726e6f723a2070726f706f73616c206e6f742073756363657373667560008201527f6c00000000000000000000000000000000000000000000000000000000000000602082015250565b6000617053602183615dfa565b915061705e82616ff7565b604082019050919050565b6000602082019050818103600083015261708281617046565b9050919050565b60008151905061709881615aa3565b92915050565b6000602082840312156170b4576170b36159aa565b5b60006170c284828501617089565b91505092915050565b600081519050919050565b600082825260208201905092915050565b6000819050602082019050919050565b61710081615f9a565b82525050565b600061711283836170f7565b60208301905092915050565b6000602082019050919050565b6000617136826170cb565b61714081856170d6565b935061714b836170e7565b8060005b8381101561717c5781516171638882617106565b975061716e8361711e565b92505060018101905061714f565b5085935050505092915050565b600081519050919050565b600082825260208201905092915050565b6000819050602082019050919050565b6171be81615a6f565b82525050565b60006171d083836171b5565b60208301905092915050565b6000602082019050919050565b60006171f482617189565b6171fe8185617194565b9350617209836171a5565b8060005b8381101561723a57815161722188826171c4565b975061722c836171dc565b92505060018101905061720d565b5085935050505092915050565b600081519050919050565b600082825260208201905092915050565b6000819050602082019050919050565b600082825260208201905092915050565b600061728f82616835565b6172998185617273565b93506172a9818560208601615e0b565b6172b281615b72565b840191505092915050565b60006172c98383617284565b905092915050565b6000602082019050919050565b60006172e982617247565b6172f38185617252565b93508360208202850161730585617263565b8060005b85811015617341578484038952815161732285826172bd565b945061732d836172d1565b925060208a01995050600181019050617309565b50829750879550505050505092915050565b6000819050919050565b60008160001b9050919050565b600061738561738061737b84617353565b61735d565b615cae565b9050919050565b6173958161736a565b82525050565b600060a08201905081810360008301526173b5818861712b565b905081810360208301526173c981876171e9565b905081810360408301526173dd81866172de565b90506173ec606083018561738c565b6173f96080830184616411565b9695505050505050565b60008151905061741281615cb8565b92915050565b60006020828403121561742e5761742d6159aa565b5b600061743c84828501617403565b91505092915050565b600060c082019050818103600083015261745f818961712b565b9050818103602083015261747381886171e9565b9050818103604083015261748781876172de565b9050617496606083018661738c565b6174a36080830185616411565b6174b060a0830184615a79565b979650505050505050565b7f4e487b7100000000000000000000000000000000000000000000000000000000600052601160045260246000fd5b60006174f582615a6f565b915061750083615a6f565b9250828201905080821115617518576175176174bb565b5b92915050565b60006040820190506175336000830185615a79565b6175406020830184615a79565b9392505050565b600060608201905061755c6000830186616411565b6175696020830185615a79565b6175766040830184616e3b565b949350505050565b60008190508160005260206000209050919050565b60006020601f8301049050919050565b600082821b905092915050565b6000600883026175e07fffffffffffffffffffffffffffffffffffffffffffffffffffffffffffffffff826175a3565b6175ea86836175a3565b95508019841693508086168417925050509392505050565b600061761d61761861761384615a6f565b616d78565b615a6f565b9050919050565b6000819050919050565b61763783617602565b61764b61764382617624565b8484546175b0565b825550505050565b600090565b617660617653565b61766b81848461762e565b505050565b5b8181101561768f57617684600082617658565b600181019050617671565b5050565b601f8211156176d4576176a58161757e565b6176ae84617593565b810160208510156176bd578190505b6176d16176c985617593565b830182617670565b50505b505050565b600082821c905092915050565b60006176f7600019846008026176d9565b1980831691505092915050565b600061771083836176e6565b9150826002028217905092915050565b61772982615def565b67ffffffffffffffff81111561774257617741615b83565b5b61774c8254616f38565b617757828285617693565b600060209050601f83116001811461778a5760008415617778578287015190505b6177828582617704565b8655506177ea565b601f1984166177988661757e565b60005b828110156177c05784890151825560018201915060208501945060208101905061779b565b868310156177dd57848901516177d9601f8916826176e6565b8355505b6001600288020188555050505b505050505050565b60006177fd82615a6f565b91507fffffffffffffffffffffffffffffffffffffffffffffffffffffffffffffffff820361782f5761782e6174bb565b5b600182019050919050565b600061784582615a6f565b915061785083615a6f565b925082820261785e81615a6f565b91508282048414831517617875576178746174bb565b5b5092915050565b7f4e487b7100000000000000000000000000000000000000000000000000000000600052601260045260246000fd5b60006178b682615a6f565b91506178c183615a6f565b9250826178d1576178d061787c565b5b828204905092915050565b60006178e782615a6f565b91506178f283615a6f565b925082820390508181111561790a576179096174bb565b5b92915050565b7f4e487b7100000000000000000000000000000000000000000000000000000000600052603260045260246000fd5b60006080820190508181036000830152617959818761712b565b9050818103602083015261796d81866171e9565b9050818103604083015261798181856172de565b90506179906060830184616411565b95945050505050565b7f4f776e61626c653a206e6577206f776e657220697320746865207a65726f206160008201527f6464726573730000000000000000000000000000000000000000000000000000602082015250565b60006179f5602683615dfa565b9150617a0082617999565b604082019050919050565b60006020820190508181036000830152617a24816179e8565b9050919050565b7f53616665436173743a2076616c756520646f65736e27742066697420696e203260008201527f3234206269747300000000000000000000000000000000000000000000000000602082015250565b6000617a87602783615dfa565b9150617a9282617a2b565b604082019050919050565b60006020820190508181036000830152617ab681617a7a565b9050919050565b7f53616665436173743a2076616c756520646f65736e27742066697420696e203360008201527f3220626974730000000000000000000000000000000000000000000000000000602082015250565b6000617b19602683615dfa565b9150617b2482617abd565b604082019050919050565b60006020820190508181036000830152617b4881617b0c565b9050919050565b7f476f7665726e6f723a20766f7465206e6f742063757272656e746c792061637460008201527f6976650000000000000000000000000000000000000000000000000000000000602082015250565b6000617bab602383615dfa565b9150617bb682617b4f565b604082019050919050565b60006020820190508181036000830152617bda81617b9e565b9050919050565b6000608082019050617bf66000830187615a79565b617c036020830186616e3b565b617c106040830185615a79565b8181036060830152617c228184615e35565b905095945050505050565b600060a082019050617c426000830188615a79565b617c4f6020830187616e3b565b617c5c6040830186615a79565b8181036060830152617c6e8185615e35565b90508181036080830152617c828184616851565b90509695505050505050565b7f476f7665726e6f72566f74657351756f72756d4672616374696f6e3a2071756f60008201527f72756d4e756d657261746f72206f7665722071756f72756d44656e6f6d696e6160208201527f746f720000000000000000000000000000000000000000000000000000000000604082015250565b6000617d10604383615dfa565b9150617d1b82617c8e565b606082019050919050565b60006020820190508181036000830152617d3f81617d03565b9050919050565b7f4f776e61626c653a2063616c6c6572206973206e6f7420746865206f776e6572600082015250565b6000617d7c602083615dfa565b9150617d8782617d46565b602082019050919050565b60006020820190508181036000830152617dab81617d6f565b9050919050565b617dbb81615a39565b8114617dc657600080fd5b50565b600081519050617dd881617db2565b92915050565b600060208284031215617df457617df36159aa565b5b6000617e0284828501617dc9565b91505092915050565b7f436865636b706f696e74733a20626c6f636b206e6f7420796574206d696e6564600082015250565b6000617e41602083615dfa565b9150617e4c82617e0b565b602082019050919050565b60006020820190508181036000830152617e7081617e34565b9050919050565b7f476f7665726e6f723a2070726f706f73657220766f7465732062656c6f77207060008201527f726f706f73616c207468726573686f6c64000000000000000000000000000000602082015250565b6000617ed3603183615dfa565b9150617ede82617e77565b604082019050919050565b60006020820190508181036000830152617f0281617ec6565b9050919050565b7f476f7665726e6f723a20696e76616c69642070726f706f73616c206c656e677460008201527f6800000000000000000000000000000000000000000000000000000000000000602082015250565b6000617f65602183615dfa565b9150617f7082617f09565b604082019050919050565b60006020820190508181036000830152617f9481617f58565b9050919050565b7f476f7665726e6f723a20656d7074792070726f706f73616c0000000000000000600082015250565b6000617fd1601883615dfa565b9150617fdc82617f9b565b602082019050919050565b6000602082019050818103600083015261800081617fc4565b9050919050565b7f476f7665726e6f723a2070726f706f73616c20616c726561647920657869737460008201527f7300000000000000000000000000000000000000000000000000000000000000602082015250565b6000618063602183615dfa565b915061806e82618007565b604082019050919050565b6000602082019050818103600083015261809281618056565b9050919050565b600067ffffffffffffffff82169050919050565b60006180b882618099565b91506180c383618099565b9250828201905067ffffffffffffffff8111156180e3576180e26174bb565b5b92915050565b600081519050919050565b600082825260208201905092915050565b6000819050602082019050919050565b600082825260208201905092915050565b600061813182615def565b61813b8185618115565b935061814b818560208601615e0b565b61815481615b72565b840191505092915050565b600061816b8383618126565b905092915050565b6000602082019050919050565b600061818b826180e9565b61819581856180f4565b9350836020820285016181a785618105565b8060005b858110156181e357848403895281516181c4858261815f565b94506181cf83618173565b925060208a019950506001810190506181ab565b50829750879550505050505092915050565b600061821061820b61820684618099565b616d78565b615a6f565b9050919050565b618220816181f5565b82525050565b60006101208201905061823c600083018c615a79565b618249602083018b6160c5565b818103604083015261825b818a61712b565b9050818103606083015261826f81896171e9565b905081810360808301526182838188618180565b905081810360a083015261829781876172de565b90506182a660c0830186618217565b6182b360e0830185618217565b8181036101008301526182c68184615e35565b90509a9950505050505050505050565b60006040820190506182eb60008301856160c5565b6182f86020830184615a79565b9392505050565b600060408201905061831460008301856160c5565b61832160208301846160c5565b9392505050565b7f476f7665726e6f7253657474696e67733a20766f74696e6720706572696f642060008201527f746f6f206c6f7700000000000000000000000000000000000000000000000000602082015250565b6000618384602783615dfa565b915061838f82618328565b604082019050919050565b600060208201905081810360008301526183b381618377565b9050919050565b7f1901000000000000000000000000000000000000000000000000000000000000600082015250565b60006183f0600283616fa4565b91506183fb826183ba565b600282019050919050565b6000819050919050565b61842161841c82615cae565b618406565b82525050565b6000618432826183e3565b915061843e8285618410565b60208201915061844e8284618410565b6020820191508190509392505050565b60006080820190506184736000830187616411565b6184806020830186616e3b565b61848d6040830185616411565b61849a6060830184616411565b95945050505050565b7f45434453413a20696e76616c6964207369676e61747572650000000000000000600082015250565b60006184d9601883615dfa565b91506184e4826184a3565b602082019050919050565b60006020820190508181036000830152618508816184cc565b9050919050565b7f45434453413a20696e76616c6964207369676e6174757265206c656e67746800600082015250565b6000618545601f83615dfa565b91506185508261850f565b602082019050919050565b6000602082019050818103600083015261857481618538565b9050919050565b7f45434453413a20696e76616c6964207369676e6174757265202773272076616c60008201527f7565000000000000000000000000000000000000000000000000000000000000602082015250565b60006185d7602283615dfa565b91506185e28261857b565b604082019050919050565b60006020820190508181036000830152618606816185ca565b9050919050565b7f45434453413a20696e76616c6964207369676e6174757265202776272076616c60008201527f7565000000000000000000000000000000000000000000000000000000000000602082015250565b6000618669602283615dfa565b91506186748261860d565b604082019050919050565b600060208201905081810360008301526186988161865c565b9050919050565b7f476f7665726e6f72566f74696e6753696d706c653a20766f746520616c72656160008201527f6479206361737400000000000000000000000000000000000000000000000000602082015250565b60006186fb602783615dfa565b91506187068261869f565b604082019050919050565b6000602082019050818103600083015261872a816186ee565b9050919050565b7f476f7665726e6f72566f74696e6753696d706c653a20696e76616c696420766160008201527f6c756520666f7220656e756d20566f7465547970650000000000000000000000602082015250565b600061878d603583615dfa565b915061879882618731565b604082019050919050565b600060208201905081810360008301526187bc81618780565b9050919050565b7f476f7665726e6f723a20756e6b6e6f776e2070726f706f73616c206964000000600082015250565b60006187f9601d83615dfa565b9150618804826187c3565b602082019050919050565b60006020820190508181036000830152618828816187ec565b9050919050565b7f53616665436173743a2076616c756520646f65736e27742066697420696e203660008201527f3420626974730000000000000000000000000000000000000000000000000000602082015250565b600061888b602683615dfa565b91506188968261882f565b604082019050919050565b600060208201905081810360008301526188ba8161887e565b9050919050565b7f416464726573733a20696e73756666696369656e742062616c616e636520666f60008201527f722063616c6c0000000000000000000000000000000000000000000000000000602082015250565b600061891d602683615dfa565b9150618928826188c1565b604082019050919050565b6000602082019050818103600083015261894c81618910565b9050919050565b7f416464726573733a2063616c6c20746f206e6f6e2d636f6e7472616374000000600082015250565b6000618989601d83615dfa565b915061899482618953565b602082019050919050565b600060208201905081810360008301526189b88161897c565b9050919050565b60006189ca82616835565b6189d48185616df2565b93506189e4818560208601615e0b565b80840191505092915050565b60006189fc82846189bf565b915081905092915050565b600060a082019050618a1c6000830188616411565b618a296020830187616411565b618a366040830186616411565b618a436060830185615a79565b618a5060808301846160c5565b969550505050505056fe416464726573733a206c6f772d6c6576656c2063616c6c20776974682076616c7565206661696c6564a2646970667358221220dd4edfac69a6afd6aeac0d468ddba6cc40c7263f1a78654ed0f9586c5980bfef64736f6c63430008110033",
  "devdoc": {
    "errors": {
      "Empty()": [
        {
          "details": "An operation (e.g. {front}) couldn't be completed due to the queue being empty."
        }
      ]
    },
    "kind": "dev",
    "methods": {
      "COUNTING_MODE()": {
        "details": "See {IGovernor-COUNTING_MODE}."
      },
      "castVote(uint256,uint8)": {
        "details": "See {IGovernor-castVote}."
      },
      "castVoteBySig(uint256,uint8,uint8,bytes32,bytes32)": {
        "details": "See {IGovernor-castVoteBySig}."
      },
      "castVoteWithReason(uint256,uint8,string)": {
        "details": "See {IGovernor-castVoteWithReason}."
      },
      "castVoteWithReasonAndParams(uint256,uint8,string,bytes)": {
        "details": "See {IGovernor-castVoteWithReasonAndParams}."
      },
      "castVoteWithReasonAndParamsBySig(uint256,uint8,string,bytes,uint8,bytes32,bytes32)": {
        "details": "See {IGovernor-castVoteWithReasonAndParamsBySig}."
      },
      "execute(address[],uint256[],bytes[],bytes32)": {
        "details": "See {IGovernor-execute}."
      },
      "getVotes(address,uint256)": {
        "details": "See {IGovernor-getVotes}."
      },
      "getVotesWithParams(address,uint256,bytes)": {
        "details": "See {IGovernor-getVotesWithParams}."
      },
      "hasVoted(uint256,address)": {
        "details": "See {IGovernor-hasVoted}."
      },
      "hashProposal(address[],uint256[],bytes[],bytes32)": {
        "details": "See {IGovernor-hashProposal}. The proposal id is produced by hashing the ABI encoded `targets` array, the `values` array, the `calldatas` array and the descriptionHash (bytes32 which itself is the keccak256 hash of the description string). This proposal id can be produced from the proposal data which is part of the {ProposalCreated} event. It can even be computed in advance, before the proposal is submitted. Note that the chainId and the governor address are not part of the proposal id computation. Consequently, the same proposal (with same operation and same description) will have the same id if submitted on multiple governors across multiple networks. This also means that in order to execute the same operation twice (on the same governor) the proposer will have to change the description in order to avoid proposal id conflicts."
      },
      "name()": {
        "details": "See {IGovernor-name}."
      },
      "onERC1155BatchReceived(address,address,uint256[],uint256[],bytes)": {
        "details": "See {IERC1155Receiver-onERC1155BatchReceived}."
      },
      "onERC1155Received(address,address,uint256,uint256,bytes)": {
        "details": "See {IERC1155Receiver-onERC1155Received}."
      },
      "onERC721Received(address,address,uint256,bytes)": {
        "details": "See {IERC721Receiver-onERC721Received}."
      },
      "owner()": {
        "details": "Returns the address of the current owner."
      },
      "proposalDeadline(uint256)": {
        "details": "See {IGovernor-proposalDeadline}."
      },
      "proposalEta(uint256)": {
        "details": "Public accessor to check the eta of a queued proposal"
      },
      "proposalSnapshot(uint256)": {
        "details": "See {IGovernor-proposalSnapshot}."
      },
      "proposalVotes(uint256)": {
        "details": "Accessor to the internal vote counts."
      },
      "queue(address[],uint256[],bytes[],bytes32)": {
        "details": "Function to queue a proposal to the timelock."
      },
      "quorumDenominator()": {
        "details": "Returns the quorum denominator. Defaults to 100, but may be overridden."
      },
      "quorumNumerator()": {
        "details": "Returns the current quorum numerator. See {quorumDenominator}."
      },
      "quorumNumerator(uint256)": {
        "details": "Returns the quorum numerator at a specific block number. See {quorumDenominator}."
      },
      "relay(address,uint256,bytes)": {
        "details": "Relays a transaction or function call to an arbitrary target. In cases where the governance executor is some contract other than the governor itself, like when using a timelock, this function can be invoked in a governance proposal to recover tokens or Ether that was sent to the governor contract by mistake. Note that if the executor is simply the governor itself, use of `relay` is redundant."
      },
      "renounceOwnership()": {
        "details": "Leaves the contract without owner. It will not be possible to call `onlyOwner` functions anymore. Can only be called by the current owner. NOTE: Renouncing ownership will leave the contract without an owner, thereby removing any functionality that is only available to the owner."
      },
      "setProposalThreshold(uint256)": {
        "details": "Update the proposal threshold. This operation can only be performed through a governance proposal. Emits a {ProposalThresholdSet} event."
      },
      "setVotingDelay(uint256)": {
        "details": "Update the voting delay. This operation can only be performed through a governance proposal. Emits a {VotingDelaySet} event."
      },
      "setVotingPeriod(uint256)": {
        "details": "Update the voting period. This operation can only be performed through a governance proposal. Emits a {VotingPeriodSet} event."
      },
      "timelock()": {
        "details": "Public accessor to check the address of the timelock"
      },
      "transferOwnership(address)": {
        "details": "Transfers ownership of the contract to a new account (`newOwner`). Can only be called by the current owner."
      },
      "updateQuorumNumerator(uint256)": {
        "details": "Changes the quorum numerator. Emits a {QuorumNumeratorUpdated} event. Requirements: - Must be called through a governance proposal. - New numerator must be smaller or equal to the denominator."
      },
      "updateTimelock(address)": {
        "details": "Public endpoint to update the underlying timelock instance. Restricted to the timelock itself, so updates must be proposed, scheduled, and executed through governance proposals. CAUTION: It is not recommended to change the timelock while there are other queued governance proposals."
      },
      "version()": {
        "details": "See {IGovernor-version}."
      }
    },
    "version": 1
  },
  "userdoc": {
    "kind": "user",
    "methods": {},
    "version": 1
  },
  "storageLayout": {
    "storage": [
      {
        "astId": 623,
        "contract": "contracts/GovernerContract.sol:GovernerContract",
        "label": "_name",
        "offset": 0,
        "slot": "0",
        "type": "t_string_storage"
      },
      {
        "astId": 628,
        "contract": "contracts/GovernerContract.sol:GovernerContract",
        "label": "_proposals",
        "offset": 0,
        "slot": "1",
        "type": "t_mapping(t_uint256,t_struct(ProposalCore)621_storage)"
      },
      {
        "astId": 631,
        "contract": "contracts/GovernerContract.sol:GovernerContract",
        "label": "_governanceCall",
        "offset": 0,
        "slot": "2",
        "type": "t_struct(Bytes32Deque)8209_storage"
      },
      {
        "astId": 3296,
        "contract": "contracts/GovernerContract.sol:GovernerContract",
        "label": "_votingDelay",
        "offset": 0,
        "slot": "4",
        "type": "t_uint256"
      },
      {
        "astId": 3298,
        "contract": "contracts/GovernerContract.sol:GovernerContract",
        "label": "_votingPeriod",
        "offset": 0,
        "slot": "5",
        "type": "t_uint256"
      },
      {
        "astId": 3300,
        "contract": "contracts/GovernerContract.sol:GovernerContract",
        "label": "_proposalThreshold",
        "offset": 0,
        "slot": "6",
        "type": "t_uint256"
      },
      {
        "astId": 3088,
        "contract": "contracts/GovernerContract.sol:GovernerContract",
        "label": "_proposalVotes",
        "offset": 0,
        "slot": "7",
        "type": "t_mapping(t_uint256,t_struct(ProposalVote)3083_storage)"
      },
      {
        "astId": 3899,
        "contract": "contracts/GovernerContract.sol:GovernerContract",
        "label": "_quorumNumerator",
        "offset": 0,
        "slot": "8",
        "type": "t_uint256"
      },
      {
        "astId": 3902,
        "contract": "contracts/GovernerContract.sol:GovernerContract",
        "label": "_quorumNumeratorHistory",
        "offset": 0,
        "slot": "9",
        "type": "t_struct(History)4576_storage"
      },
      {
        "astId": 3479,
        "contract": "contracts/GovernerContract.sol:GovernerContract",
        "label": "_timelock",
        "offset": 0,
        "slot": "10",
        "type": "t_contract(TimelockController)3062"
      },
      {
        "astId": 3483,
        "contract": "contracts/GovernerContract.sol:GovernerContract",
        "label": "_timelockIds",
        "offset": 0,
        "slot": "11",
        "type": "t_mapping(t_uint256,t_bytes32)"
      },
      {
        "astId": 458,
        "contract": "contracts/GovernerContract.sol:GovernerContract",
        "label": "_owner",
        "offset": 0,
        "slot": "12",
        "type": "t_address"
      },
      {
        "astId": 8563,
        "contract": "contracts/GovernerContract.sol:GovernerContract",
        "label": "projectId",
        "offset": 0,
        "slot": "13",
        "type": "t_uint256"
      },
      {
        "astId": 8565,
        "contract": "contracts/GovernerContract.sol:GovernerContract",
        "label": "lastTimeStamp",
        "offset": 0,
        "slot": "14",
        "type": "t_uint256"
      },
      {
        "astId": 8567,
        "contract": "contracts/GovernerContract.sol:GovernerContract",
        "label": "daoPercentage",
        "offset": 0,
        "slot": "15",
        "type": "t_uint256"
      },
      {
        "astId": 8569,
        "contract": "contracts/GovernerContract.sol:GovernerContract",
        "label": "enteranceFee",
        "offset": 0,
        "slot": "16",
        "type": "t_uint256"
      },
      {
        "astId": 8573,
        "contract": "contracts/GovernerContract.sol:GovernerContract",
        "label": "_isFunding",
        "offset": 0,
        "slot": "17",
        "type": "t_mapping(t_uint256,t_bool)"
      },
      {
        "astId": 8579,
        "contract": "contracts/GovernerContract.sol:GovernerContract",
        "label": "projectToTime",
        "offset": 0,
        "slot": "18",
        "type": "t_mapping(t_uint256,t_mapping(t_uint256,t_uint256))"
      },
      {
        "astId": 8583,
        "contract": "contracts/GovernerContract.sol:GovernerContract",
        "label": "time",
        "offset": 0,
        "slot": "19",
        "type": "t_mapping(t_uint256,t_uint256)"
      },
      {
        "astId": 8587,
        "contract": "contracts/GovernerContract.sol:GovernerContract",
        "label": "hashToProjectId",
        "offset": 0,
        "slot": "20",
        "type": "t_mapping(t_string_memory_ptr,t_uint256)"
      },
      {
        "astId": 8591,
        "contract": "contracts/GovernerContract.sol:GovernerContract",
        "label": "idToHash",
        "offset": 0,
        "slot": "21",
        "type": "t_mapping(t_uint256,t_string_storage)"
      },
      {
        "astId": 8597,
        "contract": "contracts/GovernerContract.sol:GovernerContract",
        "label": "funders",
        "offset": 0,
        "slot": "22",
        "type": "t_mapping(t_uint256,t_mapping(t_address,t_uint256))"
      },
      {
        "astId": 8601,
        "contract": "contracts/GovernerContract.sol:GovernerContract",
        "label": "projectFunds",
        "offset": 0,
        "slot": "23",
        "type": "t_mapping(t_uint256,t_uint256)"
      },
      {
        "astId": 8605,
        "contract": "contracts/GovernerContract.sol:GovernerContract",
        "label": "projectFundingGoalAmount",
        "offset": 0,
        "slot": "24",
        "type": "t_mapping(t_uint256,t_uint256)"
      },
      {
        "astId": 8609,
        "contract": "contracts/GovernerContract.sol:GovernerContract",
        "label": "_isApporovedByDao",
        "offset": 0,
        "slot": "25",
        "type": "t_mapping(t_uint256,t_bool)"
      },
      {
        "astId": 8613,
        "contract": "contracts/GovernerContract.sol:GovernerContract",
        "label": "projectOwnerAddress",
        "offset": 0,
        "slot": "26",
        "type": "t_mapping(t_uint256,t_address)"
      },
      {
        "astId": 8618,
        "contract": "contracts/GovernerContract.sol:GovernerContract",
        "label": "_ProjectFundingStatus",
        "offset": 0,
        "slot": "27",
        "type": "t_mapping(t_uint256,t_enum(ProjectFundingStatus)8560)"
      },
      {
        "astId": 8622,
        "contract": "contracts/GovernerContract.sol:GovernerContract",
        "label": "_isEnteranceFeePaid",
        "offset": 0,
        "slot": "28",
        "type": "t_mapping(t_address,t_bool)"
      }
    ],
    "types": {
      "t_address": {
        "encoding": "inplace",
        "label": "address",
        "numberOfBytes": "20"
      },
      "t_array(t_struct(Checkpoint)4571_storage)dyn_storage": {
        "base": "t_struct(Checkpoint)4571_storage",
        "encoding": "dynamic_array",
        "label": "struct Checkpoints.Checkpoint[]",
        "numberOfBytes": "32"
      },
      "t_bool": {
        "encoding": "inplace",
        "label": "bool",
        "numberOfBytes": "1"
      },
      "t_bytes32": {
        "encoding": "inplace",
        "label": "bytes32",
        "numberOfBytes": "32"
      },
      "t_contract(TimelockController)3062": {
        "encoding": "inplace",
        "label": "contract TimelockController",
        "numberOfBytes": "20"
      },
      "t_enum(ProjectFundingStatus)8560": {
        "encoding": "inplace",
        "label": "enum FundProject.ProjectFundingStatus",
        "numberOfBytes": "1"
      },
      "t_int128": {
        "encoding": "inplace",
        "label": "int128",
        "numberOfBytes": "16"
      },
      "t_mapping(t_address,t_bool)": {
        "encoding": "mapping",
        "key": "t_address",
        "label": "mapping(address => bool)",
        "numberOfBytes": "32",
        "value": "t_bool"
      },
      "t_mapping(t_address,t_uint256)": {
        "encoding": "mapping",
        "key": "t_address",
        "label": "mapping(address => uint256)",
        "numberOfBytes": "32",
        "value": "t_uint256"
      },
      "t_mapping(t_int128,t_bytes32)": {
        "encoding": "mapping",
        "key": "t_int128",
        "label": "mapping(int128 => bytes32)",
        "numberOfBytes": "32",
        "value": "t_bytes32"
      },
      "t_mapping(t_string_memory_ptr,t_uint256)": {
        "encoding": "mapping",
        "key": "t_string_memory_ptr",
        "label": "mapping(string => uint256)",
        "numberOfBytes": "32",
        "value": "t_uint256"
      },
      "t_mapping(t_uint256,t_address)": {
        "encoding": "mapping",
        "key": "t_uint256",
        "label": "mapping(uint256 => address)",
        "numberOfBytes": "32",
        "value": "t_address"
      },
      "t_mapping(t_uint256,t_bool)": {
        "encoding": "mapping",
        "key": "t_uint256",
        "label": "mapping(uint256 => bool)",
        "numberOfBytes": "32",
        "value": "t_bool"
      },
      "t_mapping(t_uint256,t_bytes32)": {
        "encoding": "mapping",
        "key": "t_uint256",
        "label": "mapping(uint256 => bytes32)",
        "numberOfBytes": "32",
        "value": "t_bytes32"
      },
      "t_mapping(t_uint256,t_enum(ProjectFundingStatus)8560)": {
        "encoding": "mapping",
        "key": "t_uint256",
        "label": "mapping(uint256 => enum FundProject.ProjectFundingStatus)",
        "numberOfBytes": "32",
        "value": "t_enum(ProjectFundingStatus)8560"
      },
      "t_mapping(t_uint256,t_mapping(t_address,t_uint256))": {
        "encoding": "mapping",
        "key": "t_uint256",
        "label": "mapping(uint256 => mapping(address => uint256))",
        "numberOfBytes": "32",
        "value": "t_mapping(t_address,t_uint256)"
      },
      "t_mapping(t_uint256,t_mapping(t_uint256,t_uint256))": {
        "encoding": "mapping",
        "key": "t_uint256",
        "label": "mapping(uint256 => mapping(uint256 => uint256))",
        "numberOfBytes": "32",
        "value": "t_mapping(t_uint256,t_uint256)"
      },
      "t_mapping(t_uint256,t_string_storage)": {
        "encoding": "mapping",
        "key": "t_uint256",
        "label": "mapping(uint256 => string)",
        "numberOfBytes": "32",
        "value": "t_string_storage"
      },
      "t_mapping(t_uint256,t_struct(ProposalCore)621_storage)": {
        "encoding": "mapping",
        "key": "t_uint256",
        "label": "mapping(uint256 => struct Governor.ProposalCore)",
        "numberOfBytes": "32",
        "value": "t_struct(ProposalCore)621_storage"
      },
      "t_mapping(t_uint256,t_struct(ProposalVote)3083_storage)": {
        "encoding": "mapping",
        "key": "t_uint256",
        "label": "mapping(uint256 => struct GovernorCountingSimple.ProposalVote)",
        "numberOfBytes": "32",
        "value": "t_struct(ProposalVote)3083_storage"
      },
      "t_mapping(t_uint256,t_uint256)": {
        "encoding": "mapping",
        "key": "t_uint256",
        "label": "mapping(uint256 => uint256)",
        "numberOfBytes": "32",
        "value": "t_uint256"
      },
      "t_string_memory_ptr": {
        "encoding": "bytes",
        "label": "string",
        "numberOfBytes": "32"
      },
      "t_string_storage": {
        "encoding": "bytes",
        "label": "string",
        "numberOfBytes": "32"
      },
      "t_struct(BlockNumber)5154_storage": {
        "encoding": "inplace",
        "label": "struct Timers.BlockNumber",
        "members": [
          {
            "astId": 5153,
            "contract": "contracts/GovernerContract.sol:GovernerContract",
            "label": "_deadline",
            "offset": 0,
            "slot": "0",
            "type": "t_uint64"
          }
        ],
        "numberOfBytes": "32"
      },
      "t_struct(Bytes32Deque)8209_storage": {
        "encoding": "inplace",
        "label": "struct DoubleEndedQueue.Bytes32Deque",
        "members": [
          {
            "astId": 8202,
            "contract": "contracts/GovernerContract.sol:GovernerContract",
            "label": "_begin",
            "offset": 0,
            "slot": "0",
            "type": "t_int128"
          },
          {
            "astId": 8204,
            "contract": "contracts/GovernerContract.sol:GovernerContract",
            "label": "_end",
            "offset": 16,
            "slot": "0",
            "type": "t_int128"
          },
          {
            "astId": 8208,
            "contract": "contracts/GovernerContract.sol:GovernerContract",
            "label": "_data",
            "offset": 0,
            "slot": "1",
            "type": "t_mapping(t_int128,t_bytes32)"
          }
        ],
        "numberOfBytes": "64"
      },
      "t_struct(Checkpoint)4571_storage": {
        "encoding": "inplace",
        "label": "struct Checkpoints.Checkpoint",
        "members": [
          {
            "astId": 4568,
            "contract": "contracts/GovernerContract.sol:GovernerContract",
            "label": "_blockNumber",
            "offset": 0,
            "slot": "0",
            "type": "t_uint32"
          },
          {
            "astId": 4570,
            "contract": "contracts/GovernerContract.sol:GovernerContract",
            "label": "_value",
            "offset": 4,
            "slot": "0",
            "type": "t_uint224"
          }
        ],
        "numberOfBytes": "32"
      },
      "t_struct(History)4576_storage": {
        "encoding": "inplace",
        "label": "struct Checkpoints.History",
        "members": [
          {
            "astId": 4575,
            "contract": "contracts/GovernerContract.sol:GovernerContract",
            "label": "_checkpoints",
            "offset": 0,
            "slot": "0",
            "type": "t_array(t_struct(Checkpoint)4571_storage)dyn_storage"
          }
        ],
        "numberOfBytes": "32"
      },
      "t_struct(ProposalCore)621_storage": {
        "encoding": "inplace",
        "label": "struct Governor.ProposalCore",
        "members": [
          {
            "astId": 613,
            "contract": "contracts/GovernerContract.sol:GovernerContract",
            "label": "voteStart",
            "offset": 0,
            "slot": "0",
            "type": "t_struct(BlockNumber)5154_storage"
          },
          {
            "astId": 616,
            "contract": "contracts/GovernerContract.sol:GovernerContract",
            "label": "voteEnd",
            "offset": 0,
            "slot": "1",
            "type": "t_struct(BlockNumber)5154_storage"
          },
          {
            "astId": 618,
            "contract": "contracts/GovernerContract.sol:GovernerContract",
            "label": "executed",
            "offset": 0,
            "slot": "2",
            "type": "t_bool"
          },
          {
            "astId": 620,
            "contract": "contracts/GovernerContract.sol:GovernerContract",
            "label": "canceled",
            "offset": 1,
            "slot": "2",
            "type": "t_bool"
          }
        ],
        "numberOfBytes": "96"
      },
      "t_struct(ProposalVote)3083_storage": {
        "encoding": "inplace",
        "label": "struct GovernorCountingSimple.ProposalVote",
        "members": [
          {
            "astId": 3074,
            "contract": "contracts/GovernerContract.sol:GovernerContract",
            "label": "againstVotes",
            "offset": 0,
            "slot": "0",
            "type": "t_uint256"
          },
          {
            "astId": 3076,
            "contract": "contracts/GovernerContract.sol:GovernerContract",
            "label": "forVotes",
            "offset": 0,
            "slot": "1",
            "type": "t_uint256"
          },
          {
            "astId": 3078,
            "contract": "contracts/GovernerContract.sol:GovernerContract",
            "label": "abstainVotes",
            "offset": 0,
            "slot": "2",
            "type": "t_uint256"
          },
          {
            "astId": 3082,
            "contract": "contracts/GovernerContract.sol:GovernerContract",
            "label": "hasVoted",
            "offset": 0,
            "slot": "3",
            "type": "t_mapping(t_address,t_bool)"
          }
        ],
        "numberOfBytes": "128"
      },
      "t_uint224": {
        "encoding": "inplace",
        "label": "uint224",
        "numberOfBytes": "28"
      },
      "t_uint256": {
        "encoding": "inplace",
        "label": "uint256",
        "numberOfBytes": "32"
      },
      "t_uint32": {
        "encoding": "inplace",
        "label": "uint32",
        "numberOfBytes": "4"
      },
      "t_uint64": {
        "encoding": "inplace",
        "label": "uint64",
        "numberOfBytes": "8"
      }
    }
  }
}