{
  "address": "0x5FbDB2315678afecb367f032d93F642f64180aa3",
  "abi": [
    {
      "inputs": [],
      "stateMutability": "nonpayable",
      "type": "constructor"
    },
    {
      "anonymous": false,
      "inputs": [
        {
          "indexed": true,
          "internalType": "address",
          "name": "owner",
          "type": "address"
        },
        {
          "indexed": true,
          "internalType": "address",
          "name": "spender",
          "type": "address"
        },
        {
          "indexed": false,
          "internalType": "uint256",
          "name": "value",
          "type": "uint256"
        }
      ],
      "name": "Approval",
      "type": "event"
    },
    {
      "anonymous": false,
      "inputs": [
        {
          "indexed": true,
          "internalType": "address",
          "name": "delegator",
          "type": "address"
        },
        {
          "indexed": true,
          "internalType": "address",
          "name": "fromDelegate",
          "type": "address"
        },
        {
          "indexed": true,
          "internalType": "address",
          "name": "toDelegate",
          "type": "address"
        }
      ],
      "name": "DelegateChanged",
      "type": "event"
    },
    {
      "anonymous": false,
      "inputs": [
        {
          "indexed": true,
          "internalType": "address",
          "name": "delegate",
          "type": "address"
        },
        {
          "indexed": false,
          "internalType": "uint256",
          "name": "previousBalance",
          "type": "uint256"
        },
        {
          "indexed": false,
          "internalType": "uint256",
          "name": "newBalance",
          "type": "uint256"
        }
      ],
      "name": "DelegateVotesChanged",
      "type": "event"
    },
    {
      "anonymous": false,
      "inputs": [
        {
          "indexed": true,
          "internalType": "address",
          "name": "_from",
          "type": "address"
        },
        {
          "indexed": true,
          "internalType": "address",
          "name": "_to",
          "type": "address"
        },
        {
          "indexed": false,
          "internalType": "uint256",
          "name": "_amount",
          "type": "uint256"
        }
      ],
      "name": "TokenTransfer",
      "type": "event"
    },
    {
      "anonymous": false,
      "inputs": [
        {
          "indexed": true,
          "internalType": "address",
          "name": "from",
          "type": "address"
        },
        {
          "indexed": true,
          "internalType": "address",
          "name": "to",
          "type": "address"
        },
        {
          "indexed": false,
          "internalType": "uint256",
          "name": "value",
          "type": "uint256"
        }
      ],
      "name": "Transfer",
      "type": "event"
    },
    {
      "inputs": [],
      "name": "DOMAIN_SEPARATOR",
      "outputs": [
        {
          "internalType": "bytes32",
          "name": "",
          "type": "bytes32"
        }
      ],
      "stateMutability": "view",
      "type": "function"
    },
    {
      "inputs": [
        {
          "internalType": "address",
          "name": "owner",
          "type": "address"
        },
        {
          "internalType": "address",
          "name": "spender",
          "type": "address"
        }
      ],
      "name": "allowance",
      "outputs": [
        {
          "internalType": "uint256",
          "name": "",
          "type": "uint256"
        }
      ],
      "stateMutability": "view",
      "type": "function"
    },
    {
      "inputs": [
        {
          "internalType": "address",
          "name": "spender",
          "type": "address"
        },
        {
          "internalType": "uint256",
          "name": "amount",
          "type": "uint256"
        }
      ],
      "name": "approve",
      "outputs": [
        {
          "internalType": "bool",
          "name": "",
          "type": "bool"
        }
      ],
      "stateMutability": "nonpayable",
      "type": "function"
    },
    {
      "inputs": [
        {
          "internalType": "address",
          "name": "account",
          "type": "address"
        }
      ],
      "name": "balanceOf",
      "outputs": [
        {
          "internalType": "uint256",
          "name": "",
          "type": "uint256"
        }
      ],
      "stateMutability": "view",
      "type": "function"
    },
    {
      "inputs": [
        {
          "internalType": "address",
          "name": "account",
          "type": "address"
        },
        {
          "internalType": "uint256",
          "name": "amount",
          "type": "uint256"
        }
      ],
      "name": "burnToken",
      "outputs": [],
      "stateMutability": "nonpayable",
      "type": "function"
    },
    {
      "inputs": [
        {
          "internalType": "address",
          "name": "account",
          "type": "address"
        },
        {
          "internalType": "uint32",
          "name": "pos",
          "type": "uint32"
        }
      ],
      "name": "checkpoints",
      "outputs": [
        {
          "components": [
            {
              "internalType": "uint32",
              "name": "fromBlock",
              "type": "uint32"
            },
            {
              "internalType": "uint224",
              "name": "votes",
              "type": "uint224"
            }
          ],
          "internalType": "struct ERC20Votes.Checkpoint",
          "name": "",
          "type": "tuple"
        }
      ],
      "stateMutability": "view",
      "type": "function"
    },
    {
      "inputs": [],
      "name": "decimals",
      "outputs": [
        {
          "internalType": "uint8",
          "name": "",
          "type": "uint8"
        }
      ],
      "stateMutability": "view",
      "type": "function"
    },
    {
      "inputs": [
        {
          "internalType": "address",
          "name": "spender",
          "type": "address"
        },
        {
          "internalType": "uint256",
          "name": "subtractedValue",
          "type": "uint256"
        }
      ],
      "name": "decreaseAllowance",
      "outputs": [
        {
          "internalType": "bool",
          "name": "",
          "type": "bool"
        }
      ],
      "stateMutability": "nonpayable",
      "type": "function"
    },
    {
      "inputs": [
        {
          "internalType": "address",
          "name": "delegatee",
          "type": "address"
        }
      ],
      "name": "delegate",
      "outputs": [],
      "stateMutability": "nonpayable",
      "type": "function"
    },
    {
      "inputs": [
        {
          "internalType": "address",
          "name": "delegatee",
          "type": "address"
        },
        {
          "internalType": "uint256",
          "name": "nonce",
          "type": "uint256"
        },
        {
          "internalType": "uint256",
          "name": "expiry",
          "type": "uint256"
        },
        {
          "internalType": "uint8",
          "name": "v",
          "type": "uint8"
        },
        {
          "internalType": "bytes32",
          "name": "r",
          "type": "bytes32"
        },
        {
          "internalType": "bytes32",
          "name": "s",
          "type": "bytes32"
        }
      ],
      "name": "delegateBySig",
      "outputs": [],
      "stateMutability": "nonpayable",
      "type": "function"
    },
    {
      "inputs": [
        {
          "internalType": "address",
          "name": "account",
          "type": "address"
        }
      ],
      "name": "delegates",
      "outputs": [
        {
          "internalType": "address",
          "name": "",
          "type": "address"
        }
      ],
      "stateMutability": "view",
      "type": "function"
    },
    {
      "inputs": [
        {
          "internalType": "uint256",
          "name": "blockNumber",
          "type": "uint256"
        }
      ],
      "name": "getPastTotalSupply",
      "outputs": [
        {
          "internalType": "uint256",
          "name": "",
          "type": "uint256"
        }
      ],
      "stateMutability": "view",
      "type": "function"
    },
    {
      "inputs": [
        {
          "internalType": "address",
          "name": "account",
          "type": "address"
        },
        {
          "internalType": "uint256",
          "name": "blockNumber",
          "type": "uint256"
        }
      ],
      "name": "getPastVotes",
      "outputs": [
        {
          "internalType": "uint256",
          "name": "",
          "type": "uint256"
        }
      ],
      "stateMutability": "view",
      "type": "function"
    },
    {
      "inputs": [
        {
          "internalType": "address",
          "name": "account",
          "type": "address"
        }
      ],
      "name": "getVotes",
      "outputs": [
        {
          "internalType": "uint256",
          "name": "",
          "type": "uint256"
        }
      ],
      "stateMutability": "view",
      "type": "function"
    },
    {
      "inputs": [
        {
          "internalType": "address",
          "name": "spender",
          "type": "address"
        },
        {
          "internalType": "uint256",
          "name": "addedValue",
          "type": "uint256"
        }
      ],
      "name": "increaseAllowance",
      "outputs": [
        {
          "internalType": "bool",
          "name": "",
          "type": "bool"
        }
      ],
      "stateMutability": "nonpayable",
      "type": "function"
    },
    {
      "inputs": [
        {
          "internalType": "address",
          "name": "to",
          "type": "address"
        },
        {
          "internalType": "uint256",
          "name": "amount",
          "type": "uint256"
        }
      ],
      "name": "mintToken",
      "outputs": [],
      "stateMutability": "nonpayable",
      "type": "function"
    },
    {
      "inputs": [],
      "name": "name",
      "outputs": [
        {
          "internalType": "string",
          "name": "",
          "type": "string"
        }
      ],
      "stateMutability": "view",
      "type": "function"
    },
    {
      "inputs": [
        {
          "internalType": "address",
          "name": "owner",
          "type": "address"
        }
      ],
      "name": "nonces",
      "outputs": [
        {
          "internalType": "uint256",
          "name": "",
          "type": "uint256"
        }
      ],
      "stateMutability": "view",
      "type": "function"
    },
    {
      "inputs": [
        {
          "internalType": "address",
          "name": "account",
          "type": "address"
        }
      ],
      "name": "numCheckpoints",
      "outputs": [
        {
          "internalType": "uint32",
          "name": "",
          "type": "uint32"
        }
      ],
      "stateMutability": "view",
      "type": "function"
    },
    {
      "inputs": [
        {
          "internalType": "address",
          "name": "owner",
          "type": "address"
        },
        {
          "internalType": "address",
          "name": "spender",
          "type": "address"
        },
        {
          "internalType": "uint256",
          "name": "value",
          "type": "uint256"
        },
        {
          "internalType": "uint256",
          "name": "deadline",
          "type": "uint256"
        },
        {
          "internalType": "uint8",
          "name": "v",
          "type": "uint8"
        },
        {
          "internalType": "bytes32",
          "name": "r",
          "type": "bytes32"
        },
        {
          "internalType": "bytes32",
          "name": "s",
          "type": "bytes32"
        }
      ],
      "name": "permit",
      "outputs": [],
      "stateMutability": "nonpayable",
      "type": "function"
    },
    {
      "inputs": [],
      "name": "s_initialSupply",
      "outputs": [
        {
          "internalType": "uint256",
          "name": "",
          "type": "uint256"
        }
      ],
      "stateMutability": "view",
      "type": "function"
    },
    {
      "inputs": [],
      "name": "symbol",
      "outputs": [
        {
          "internalType": "string",
          "name": "",
          "type": "string"
        }
      ],
      "stateMutability": "view",
      "type": "function"
    },
    {
      "inputs": [],
      "name": "totalSupply",
      "outputs": [
        {
          "internalType": "uint256",
          "name": "",
          "type": "uint256"
        }
      ],
      "stateMutability": "view",
      "type": "function"
    },
    {
      "inputs": [
        {
          "internalType": "address",
          "name": "to",
          "type": "address"
        },
        {
          "internalType": "uint256",
          "name": "amount",
          "type": "uint256"
        }
      ],
      "name": "transfer",
      "outputs": [
        {
          "internalType": "bool",
          "name": "",
          "type": "bool"
        }
      ],
      "stateMutability": "nonpayable",
      "type": "function"
    },
    {
      "inputs": [
        {
          "internalType": "address",
          "name": "from",
          "type": "address"
        },
        {
          "internalType": "address",
          "name": "to",
          "type": "address"
        },
        {
          "internalType": "uint256",
          "name": "amount",
          "type": "uint256"
        }
      ],
      "name": "transferFrom",
      "outputs": [
        {
          "internalType": "bool",
          "name": "",
          "type": "bool"
        }
      ],
      "stateMutability": "nonpayable",
      "type": "function"
    }
  ],
  "transactionHash": "0x7491f45824d6f62c87c47665e3fbf6032de93feae5a40ca17e1d3c37bbb93b40",
  "args": [],
  "numDeployments": 1,
  "solcInputHash": "66f18b8ec322110c2dd2cceea16c0aca",
  "bytecode": "0x61016060405269d3c21bcecceda1000000600a553480156200002057600080fd5b506040518060400160405280600f81526020017f476f7665726e616e6365546f6b656e0000000000000000000000000000000000815250806040518060400160405280600181526020017f31000000000000000000000000000000000000000000000000000000000000008152506040518060400160405280600f81526020017f476f7665726e616e6365546f6b656e00000000000000000000000000000000008152506040518060400160405280600281526020017f475400000000000000000000000000000000000000000000000000000000000081525081600390816200010b919062000eda565b5080600490816200011d919062000eda565b50505060008280519060200120905060008280519060200120905060007f8b73c3c69bb8fe3d512ecc4cf759cc79239f7b179b0ffacaa9a75d522b39400f90508260e081815250508161010081815250504660a08181525050620001898184846200022260201b60201c565b608081815250503073ffffffffffffffffffffffffffffffffffffffff1660c08173ffffffffffffffffffffffffffffffffffffffff16815250508061012081815250505050505050503373ffffffffffffffffffffffffffffffffffffffff166101408173ffffffffffffffffffffffffffffffffffffffff16815250506200021c33600a546200025e60201b60201c565b6200146a565b600083838346306040516020016200023f95949392919062001032565b6040516020818303038152906040528051906020012090509392505050565b3373ffffffffffffffffffffffffffffffffffffffff166101405173ffffffffffffffffffffffffffffffffffffffff1614620002d2576040517f08c379a0000000000000000000000000000000000000000000000000000000008152600401620002c990620010f0565b60405180910390fd5b620002e98282620002ed60201b62000f241760201c565b5050565b620003048282620003ab60201b62000fb11760201c565b620003146200052360201b60201c565b7bffffffffffffffffffffffffffffffffffffffffffffffffffffffff16620003426200054760201b60201c565b111562000386576040517f08c379a00000000000000000000000000000000000000000000000000000000081526004016200037d9062001188565b60405180910390fd5b620003a560096200055160201b6200111017836200056960201b60201c565b50505050565b600073ffffffffffffffffffffffffffffffffffffffff168273ffffffffffffffffffffffffffffffffffffffff16036200041d576040517f08c379a00000000000000000000000000000000000000000000000000000000081526004016200041490620011fa565b60405180910390fd5b62000431600083836200081a60201b60201c565b80600260008282546200044591906200124b565b92505081905550806000808473ffffffffffffffffffffffffffffffffffffffff1673ffffffffffffffffffffffffffffffffffffffff16815260200190815260200160002060008282546200049c91906200124b565b925050819055508173ffffffffffffffffffffffffffffffffffffffff16600073ffffffffffffffffffffffffffffffffffffffff167fddf252ad1be2c89b69c2b068fc378daa952ba7f163c4a11628f55a4df523b3ef8360405162000503919062001286565b60405180910390a36200051f600083836200081f60201b60201c565b5050565b60007bffffffffffffffffffffffffffffffffffffffffffffffffffffffff905090565b6000600254905090565b600081836200056191906200124b565b905092915050565b60008060008580549050905060008114620005de57856001826200058e9190620012a3565b81548110620005a257620005a1620012de565b5b9060005260206000200160000160049054906101000a90047bffffffffffffffffffffffffffffffffffffffffffffffffffffffff16620005e1565b60005b7bffffffffffffffffffffffffffffffffffffffffffffffffffffffff1692506200060d83858760201c565b915060008111801562000666575043866001836200062c9190620012a3565b8154811062000640576200063f620012de565b5b9060005260206000200160000160009054906101000a900463ffffffff1663ffffffff16145b1562000707576200068282620008a360201b620011261760201c565b86600183620006929190620012a3565b81548110620006a657620006a5620012de565b5b9060005260206000200160000160046101000a8154817bffffffffffffffffffffffffffffffffffffffffffffffffffffffff02191690837bffffffffffffffffffffffffffffffffffffffffffffffffffffffff16021790555062000811565b85604051806040016040528062000729436200091160201b620011911760201c565b63ffffffff1681526020016200074a85620008a360201b620011261760201c565b7bffffffffffffffffffffffffffffffffffffffffffffffffffffffff168152509080600181540180825580915050600190039060005260206000200160009091909190915060008201518160000160006101000a81548163ffffffff021916908363ffffffff16021790555060208201518160000160046101000a8154817bffffffffffffffffffffffffffffffffffffffffffffffffffffffff02191690837bffffffffffffffffffffffffffffffffffffffffffffffffffffffff16021790555050505b50935093915050565b505050565b620008378383836200096760201b620011e41760201c565b8173ffffffffffffffffffffffffffffffffffffffff168373ffffffffffffffffffffffffffffffffffffffff167fd0ed88a3f042c6bbb1e3ea406079b5f2b4b198afccaa535d837f4c63abbc4de68360405162000896919062001286565b60405180910390a3505050565b60007bffffffffffffffffffffffffffffffffffffffffffffffffffffffff801682111562000909576040517f08c379a0000000000000000000000000000000000000000000000000000000008152600401620009009062001383565b60405180910390fd5b819050919050565b600063ffffffff80168211156200095f576040517f08c379a000000000000000000000000000000000000000000000000000000000815260040162000956906200141b565b60405180910390fd5b819050919050565b6200097f838383620009b760201b6200120f1760201c565b620009b26200099484620009bc60201b60201c565b620009a584620009bc60201b60201c565b8362000a2560201b60201c565b505050565b505050565b6000600760008373ffffffffffffffffffffffffffffffffffffffff1673ffffffffffffffffffffffffffffffffffffffff16815260200190815260200160002060009054906101000a900473ffffffffffffffffffffffffffffffffffffffff169050919050565b8173ffffffffffffffffffffffffffffffffffffffff168373ffffffffffffffffffffffffffffffffffffffff161415801562000a625750600081115b1562000c4357600073ffffffffffffffffffffffffffffffffffffffff168373ffffffffffffffffffffffffffffffffffffffff161462000b555760008062000afc600860008773ffffffffffffffffffffffffffffffffffffffff1673ffffffffffffffffffffffffffffffffffffffff16815260200190815260200160002062000c4860201b6200121417856200056960201b60201c565b915091508473ffffffffffffffffffffffffffffffffffffffff167fdec2bacdd2f05b59de34da9b523dff8be42e5e38e818c82fdb0bae774387a724838360405162000b4a9291906200143d565b60405180910390a250505b600073ffffffffffffffffffffffffffffffffffffffff168273ffffffffffffffffffffffffffffffffffffffff161462000c425760008062000be9600860008673ffffffffffffffffffffffffffffffffffffffff1673ffffffffffffffffffffffffffffffffffffffff1681526020019081526020016000206200055160201b6200111017856200056960201b60201c565b915091508373ffffffffffffffffffffffffffffffffffffffff167fdec2bacdd2f05b59de34da9b523dff8be42e5e38e818c82fdb0bae774387a724838360405162000c379291906200143d565b60405180910390a250505b5b505050565b6000818362000c589190620012a3565b905092915050565b600081519050919050565b7f4e487b7100000000000000000000000000000000000000000000000000000000600052604160045260246000fd5b7f4e487b7100000000000000000000000000000000000000000000000000000000600052602260045260246000fd5b6000600282049050600182168062000ce257607f821691505b60208210810362000cf85762000cf762000c9a565b5b50919050565b60008190508160005260206000209050919050565b60006020601f8301049050919050565b600082821b905092915050565b60006008830262000d627fffffffffffffffffffffffffffffffffffffffffffffffffffffffffffffffff8262000d23565b62000d6e868362000d23565b95508019841693508086168417925050509392505050565b6000819050919050565b6000819050919050565b600062000dbb62000db562000daf8462000d86565b62000d90565b62000d86565b9050919050565b6000819050919050565b62000dd78362000d9a565b62000def62000de68262000dc2565b84845462000d30565b825550505050565b600090565b62000e0662000df7565b62000e1381848462000dcc565b505050565b5b8181101562000e3b5762000e2f60008262000dfc565b60018101905062000e19565b5050565b601f82111562000e8a5762000e548162000cfe565b62000e5f8462000d13565b8101602085101562000e6f578190505b62000e8762000e7e8562000d13565b83018262000e18565b50505b505050565b600082821c905092915050565b600062000eaf6000198460080262000e8f565b1980831691505092915050565b600062000eca838362000e9c565b9150826002028217905092915050565b62000ee58262000c60565b67ffffffffffffffff81111562000f015762000f0062000c6b565b5b62000f0d825462000cc9565b62000f1a82828562000e3f565b600060209050601f83116001811462000f52576000841562000f3d578287015190505b62000f49858262000ebc565b86555062000fb9565b601f19841662000f628662000cfe565b60005b8281101562000f8c5784890151825560018201915060208501945060208101905062000f65565b8683101562000fac578489015162000fa8601f89168262000e9c565b8355505b6001600288020188555050505b505050505050565b6000819050919050565b62000fd68162000fc1565b82525050565b62000fe78162000d86565b82525050565b600073ffffffffffffffffffffffffffffffffffffffff82169050919050565b60006200101a8262000fed565b9050919050565b6200102c816200100d565b82525050565b600060a08201905062001049600083018862000fcb565b62001058602083018762000fcb565b62001067604083018662000fcb565b62001076606083018562000fdc565b62001085608083018462001021565b9695505050505050565b600082825260208201905092915050565b7f4f776e61626c653a2063616c6c6572206973206e6f7420746865206f776e6572600082015250565b6000620010d86020836200108f565b9150620010e582620010a0565b602082019050919050565b600060208201905081810360008301526200110b81620010c9565b9050919050565b7f4552433230566f7465733a20746f74616c20737570706c79207269736b73206f60008201527f766572666c6f77696e6720766f74657300000000000000000000000000000000602082015250565b6000620011706030836200108f565b91506200117d8262001112565b604082019050919050565b60006020820190508181036000830152620011a38162001161565b9050919050565b7f45524332303a206d696e7420746f20746865207a65726f206164647265737300600082015250565b6000620011e2601f836200108f565b9150620011ef82620011aa565b602082019050919050565b600060208201905081810360008301526200121581620011d3565b9050919050565b7f4e487b7100000000000000000000000000000000000000000000000000000000600052601160045260246000fd5b6000620012588262000d86565b9150620012658362000d86565b925082820190508082111562001280576200127f6200121c565b5b92915050565b60006020820190506200129d600083018462000fdc565b92915050565b6000620012b08262000d86565b9150620012bd8362000d86565b9250828203905081811115620012d857620012d76200121c565b5b92915050565b7f4e487b7100000000000000000000000000000000000000000000000000000000600052603260045260246000fd5b7f53616665436173743a2076616c756520646f65736e27742066697420696e203260008201527f3234206269747300000000000000000000000000000000000000000000000000602082015250565b60006200136b6027836200108f565b915062001378826200130d565b604082019050919050565b600060208201905081810360008301526200139e816200135c565b9050919050565b7f53616665436173743a2076616c756520646f65736e27742066697420696e203360008201527f3220626974730000000000000000000000000000000000000000000000000000602082015250565b6000620014036026836200108f565b91506200141082620013a5565b604082019050919050565b600060208201905081810360008301526200143681620013f4565b9050919050565b600060408201905062001454600083018562000fdc565b62001463602083018462000fdc565b9392505050565b60805160a05160c05160e051610100516101205161014051613c30620014c56000396000611a5f015260006117b4015260006117f6015260006117d50152600061170a01526000611760015260006117890152613c306000f3fe608060405234801561001057600080fd5b50600436106101735760003560e01c806370a08231116100de578063a457c2d711610097578063d1df306c11610071578063d1df306c146104c0578063d505accf146104dc578063dd62ed3e146104f8578063f1127ed81461052857610173565b8063a457c2d714610444578063a9059cbb14610474578063c3cda520146104a457610173565b806370a082311461034a57806379c650681461037a5780637ecebe00146103965780638e539e8c146103c657806395d89b41146103f65780639ab24eb01461041457610173565b80633644e515116101305780633644e51514610250578063395093511461026e5780633a46b1a81461029e578063587cde1e146102ce5780635c19a95c146102fe5780636fcfff451461031a57610173565b806306fdde0314610178578063095ea7b314610196578063096b34cf146101c657806318160ddd146101e457806323b872dd14610202578063313ce56714610232575b600080fd5b610180610558565b60405161018d91906126f3565b60405180910390f35b6101b060048036038101906101ab91906127ae565b6105ea565b6040516101bd9190612809565b60405180910390f35b6101ce61060d565b6040516101db9190612833565b60405180910390f35b6101ec610613565b6040516101f99190612833565b60405180910390f35b61021c6004803603810190610217919061284e565b61061d565b6040516102299190612809565b60405180910390f35b61023a61064c565b60405161024791906128bd565b60405180910390f35b610258610655565b60405161026591906128f1565b60405180910390f35b610288600480360381019061028391906127ae565b610664565b6040516102959190612809565b60405180910390f35b6102b860048036038101906102b391906127ae565b61069b565b6040516102c59190612833565b60405180910390f35b6102e860048036038101906102e3919061290c565b61072f565b6040516102f59190612948565b60405180910390f35b6103186004803603810190610313919061290c565b610798565b005b610334600480360381019061032f919061290c565b6107ac565b6040516103419190612982565b60405180910390f35b610364600480360381019061035f919061290c565b610800565b6040516103719190612833565b60405180910390f35b610394600480360381019061038f91906127ae565b610848565b005b6103b060048036038101906103ab919061290c565b610856565b6040516103bd9190612833565b60405180910390f35b6103e060048036038101906103db919061299d565b6108a6565b6040516103ed9190612833565b60405180910390f35b6103fe6108fc565b60405161040b91906126f3565b60405180910390f35b61042e6004803603810190610429919061290c565b61098e565b60405161043b9190612833565b60405180910390f35b61045e600480360381019061045991906127ae565b610a9f565b60405161046b9190612809565b60405180910390f35b61048e600480360381019061048991906127ae565b610b16565b60405161049b9190612809565b60405180910390f35b6104be60048036038101906104b99190612a22565b610b39565b005b6104da60048036038101906104d591906127ae565b610c3d565b005b6104f660048036038101906104f19190612aaf565b610c4b565b005b610512600480360381019061050d9190612b51565b610d8d565b60405161051f9190612833565b60405180910390f35b610542600480360381019061053d9190612bbd565b610e14565b60405161054f9190612c72565b60405180910390f35b60606003805461056790612cbc565b80601f016020809104026020016040519081016040528092919081815260200182805461059390612cbc565b80156105e05780601f106105b5576101008083540402835291602001916105e0565b820191906000526020600020905b8154815290600101906020018083116105c357829003601f168201915b5050505050905090565b6000806105f561122a565b9050610602818585611232565b600191505092915050565b600a5481565b6000600254905090565b60008061062861122a565b90506106358582856113fb565b610640858585611487565b60019150509392505050565b60006012905090565b600061065f611706565b905090565b60008061066f61122a565b90506106908185856106818589610d8d565b61068b9190612d1c565b611232565b600191505092915050565b60004382106106df576040517f08c379a00000000000000000000000000000000000000000000000000000000081526004016106d690612d9c565b60405180910390fd5b610727600860008573ffffffffffffffffffffffffffffffffffffffff1673ffffffffffffffffffffffffffffffffffffffff16815260200190815260200160002083611820565b905092915050565b6000600760008373ffffffffffffffffffffffffffffffffffffffff1673ffffffffffffffffffffffffffffffffffffffff16815260200190815260200160002060009054906101000a900473ffffffffffffffffffffffffffffffffffffffff169050919050565b6107a96107a361122a565b8261192c565b50565b60006107f9600860008473ffffffffffffffffffffffffffffffffffffffff1673ffffffffffffffffffffffffffffffffffffffff16815260200190815260200160002080549050611191565b9050919050565b60008060008373ffffffffffffffffffffffffffffffffffffffff1673ffffffffffffffffffffffffffffffffffffffff168152602001908152602001600020549050919050565b6108528282611a46565b5050565b600061089f600560008473ffffffffffffffffffffffffffffffffffffffff1673ffffffffffffffffffffffffffffffffffffffff168152602001908152602001600020611ae2565b9050919050565b60004382106108ea576040517f08c379a00000000000000000000000000000000000000000000000000000000081526004016108e190612d9c565b60405180910390fd5b6108f5600983611820565b9050919050565b60606004805461090b90612cbc565b80601f016020809104026020016040519081016040528092919081815260200182805461093790612cbc565b80156109845780601f1061095957610100808354040283529160200191610984565b820191906000526020600020905b81548152906001019060200180831161096757829003601f168201915b5050505050905090565b600080600860008473ffffffffffffffffffffffffffffffffffffffff1673ffffffffffffffffffffffffffffffffffffffff16815260200190815260200160002080549050905060008114610a7657600860008473ffffffffffffffffffffffffffffffffffffffff1673ffffffffffffffffffffffffffffffffffffffff168152602001908152602001600020600182610a2a9190612dbc565b81548110610a3b57610a3a612df0565b5b9060005260206000200160000160049054906101000a90047bffffffffffffffffffffffffffffffffffffffffffffffffffffffff16610a79565b60005b7bffffffffffffffffffffffffffffffffffffffffffffffffffffffff16915050919050565b600080610aaa61122a565b90506000610ab88286610d8d565b905083811015610afd576040517f08c379a0000000000000000000000000000000000000000000000000000000008152600401610af490612e91565b60405180910390fd5b610b0a8286868403611232565b60019250505092915050565b600080610b2161122a565b9050610b2e818585611487565b600191505092915050565b83421115610b7c576040517f08c379a0000000000000000000000000000000000000000000000000000000008152600401610b7390612efd565b60405180910390fd5b6000610bde610bd67fe48329057bfd03d55e49b547132e39cffd9c1820ad7b9d4c5307691425d15adf898989604051602001610bbb9493929190612f1d565b60405160208183030381529060405280519060200120611af0565b858585611b0a565b9050610be981611b35565b8614610c2a576040517f08c379a0000000000000000000000000000000000000000000000000000000008152600401610c2190612fae565b60405180910390fd5b610c34818861192c565b50505050505050565b610c478282611b93565b5050565b83421115610c8e576040517f08c379a0000000000000000000000000000000000000000000000000000000008152600401610c859061301a565b60405180910390fd5b60007f6e71edae12b1b97f4d1f60370fef10105fa2faae0126114a169c64845d6126c9888888610cbd8c611b35565b89604051602001610cd39695949392919061303a565b6040516020818303038152906040528051906020012090506000610cf682611af0565b90506000610d0682878787611b0a565b90508973ffffffffffffffffffffffffffffffffffffffff168173ffffffffffffffffffffffffffffffffffffffff1614610d76576040517f08c379a0000000000000000000000000000000000000000000000000000000008152600401610d6d906130e7565b60405180910390fd5b610d818a8a8a611232565b50505050505050505050565b6000600160008473ffffffffffffffffffffffffffffffffffffffff1673ffffffffffffffffffffffffffffffffffffffff16815260200190815260200160002060008373ffffffffffffffffffffffffffffffffffffffff1673ffffffffffffffffffffffffffffffffffffffff16815260200190815260200160002054905092915050565b610e1c612625565b600860008473ffffffffffffffffffffffffffffffffffffffff1673ffffffffffffffffffffffffffffffffffffffff1681526020019081526020016000208263ffffffff1681548110610e7357610e72612df0565b5b906000526020600020016040518060400160405290816000820160009054906101000a900463ffffffff1663ffffffff1663ffffffff1681526020016000820160049054906101000a90047bffffffffffffffffffffffffffffffffffffffffffffffffffffffff167bffffffffffffffffffffffffffffffffffffffffffffffffffffffff167bffffffffffffffffffffffffffffffffffffffffffffffffffffffff1681525050905092915050565b610f2e8282610fb1565b610f36611ba1565b7bffffffffffffffffffffffffffffffffffffffffffffffffffffffff16610f5c610613565b1115610f9d576040517f08c379a0000000000000000000000000000000000000000000000000000000008152600401610f9490613179565b60405180910390fd5b610fab600961111083611bc5565b50505050565b600073ffffffffffffffffffffffffffffffffffffffff168273ffffffffffffffffffffffffffffffffffffffff1603611020576040517f08c379a0000000000000000000000000000000000000000000000000000000008152600401611017906131e5565b60405180910390fd5b61102c60008383611e3d565b806002600082825461103e9190612d1c565b92505081905550806000808473ffffffffffffffffffffffffffffffffffffffff1673ffffffffffffffffffffffffffffffffffffffff16815260200190815260200160002060008282546110939190612d1c565b925050819055508173ffffffffffffffffffffffffffffffffffffffff16600073ffffffffffffffffffffffffffffffffffffffff167fddf252ad1be2c89b69c2b068fc378daa952ba7f163c4a11628f55a4df523b3ef836040516110f89190612833565b60405180910390a361110c60008383611e42565b5050565b6000818361111e9190612d1c565b905092915050565b60007bffffffffffffffffffffffffffffffffffffffffffffffffffffffff8016821115611189576040517f08c379a000000000000000000000000000000000000000000000000000000000815260040161118090613277565b60405180910390fd5b819050919050565b600063ffffffff80168211156111dc576040517f08c379a00000000000000000000000000000000000000000000000000000000081526004016111d390613309565b60405180910390fd5b819050919050565b6111ef83838361120f565b61120a6111fb8461072f565b6112048461072f565b83611eb7565b505050565b505050565b600081836112229190612dbc565b905092915050565b600033905090565b600073ffffffffffffffffffffffffffffffffffffffff168373ffffffffffffffffffffffffffffffffffffffff16036112a1576040517f08c379a00000000000000000000000000000000000000000000000000000000081526004016112989061339b565b60405180910390fd5b600073ffffffffffffffffffffffffffffffffffffffff168273ffffffffffffffffffffffffffffffffffffffff1603611310576040517f08c379a00000000000000000000000000000000000000000000000000000000081526004016113079061342d565b60405180910390fd5b80600160008573ffffffffffffffffffffffffffffffffffffffff1673ffffffffffffffffffffffffffffffffffffffff16815260200190815260200160002060008473ffffffffffffffffffffffffffffffffffffffff1673ffffffffffffffffffffffffffffffffffffffff168152602001908152602001600020819055508173ffffffffffffffffffffffffffffffffffffffff168373ffffffffffffffffffffffffffffffffffffffff167f8c5be1e5ebec7d5bd14f71427d1e84f3dd0314c0f7b2291e5b200ac8c7c3b925836040516113ee9190612833565b60405180910390a3505050565b60006114078484610d8d565b90507fffffffffffffffffffffffffffffffffffffffffffffffffffffffffffffffff81146114815781811015611473576040517f08c379a000000000000000000000000000000000000000000000000000000000815260040161146a90613499565b60405180910390fd5b6114808484848403611232565b5b50505050565b600073ffffffffffffffffffffffffffffffffffffffff168373ffffffffffffffffffffffffffffffffffffffff16036114f6576040517f08c379a00000000000000000000000000000000000000000000000000000000081526004016114ed9061352b565b60405180910390fd5b600073ffffffffffffffffffffffffffffffffffffffff168273ffffffffffffffffffffffffffffffffffffffff1603611565576040517f08c379a000000000000000000000000000000000000000000000000000000000815260040161155c906135bd565b60405180910390fd5b611570838383611e3d565b60008060008573ffffffffffffffffffffffffffffffffffffffff1673ffffffffffffffffffffffffffffffffffffffff168152602001908152602001600020549050818110156115f6576040517f08c379a00000000000000000000000000000000000000000000000000000000081526004016115ed9061364f565b60405180910390fd5b8181036000808673ffffffffffffffffffffffffffffffffffffffff1673ffffffffffffffffffffffffffffffffffffffff16815260200190815260200160002081905550816000808573ffffffffffffffffffffffffffffffffffffffff1673ffffffffffffffffffffffffffffffffffffffff16815260200190815260200160002060008282546116899190612d1c565b925050819055508273ffffffffffffffffffffffffffffffffffffffff168473ffffffffffffffffffffffffffffffffffffffff167fddf252ad1be2c89b69c2b068fc378daa952ba7f163c4a11628f55a4df523b3ef846040516116ed9190612833565b60405180910390a3611700848484611e42565b50505050565b60007f000000000000000000000000000000000000000000000000000000000000000073ffffffffffffffffffffffffffffffffffffffff163073ffffffffffffffffffffffffffffffffffffffff1614801561178257507f000000000000000000000000000000000000000000000000000000000000000046145b156117af577f0000000000000000000000000000000000000000000000000000000000000000905061181d565b61181a7f00000000000000000000000000000000000000000000000000000000000000007f00000000000000000000000000000000000000000000000000000000000000007f00000000000000000000000000000000000000000000000000000000000000006120b0565b90505b90565b6000808380549050905060005b8181101561189f57600061184182846120ea565b90508486828154811061185757611856612df0565b5b9060005260206000200160000160009054906101000a900463ffffffff1663ffffffff16111561188957809250611899565b6001816118969190612d1c565b91505b5061182d565b6000821461190157846001836118b59190612dbc565b815481106118c6576118c5612df0565b5b9060005260206000200160000160049054906101000a90047bffffffffffffffffffffffffffffffffffffffffffffffffffffffff16611904565b60005b7bffffffffffffffffffffffffffffffffffffffffffffffffffffffff169250505092915050565b60006119378361072f565b9050600061194484610800565b905082600760008673ffffffffffffffffffffffffffffffffffffffff1673ffffffffffffffffffffffffffffffffffffffff16815260200190815260200160002060006101000a81548173ffffffffffffffffffffffffffffffffffffffff021916908373ffffffffffffffffffffffffffffffffffffffff1602179055508273ffffffffffffffffffffffffffffffffffffffff168273ffffffffffffffffffffffffffffffffffffffff168573ffffffffffffffffffffffffffffffffffffffff167f3134e8a2e6d97e929a7e54011ea5485d7d196dd5f0ba4d4ef95803e8e3fc257f60405160405180910390a4611a40828483611eb7565b50505050565b3373ffffffffffffffffffffffffffffffffffffffff167f000000000000000000000000000000000000000000000000000000000000000073ffffffffffffffffffffffffffffffffffffffff1614611ad4576040517f08c379a0000000000000000000000000000000000000000000000000000000008152600401611acb906136bb565b60405180910390fd5b611ade8282610f24565b5050565b600081600001549050919050565b6000611b03611afd611706565b83612110565b9050919050565b6000806000611b1b87878787612143565b91509150611b288161224f565b8192505050949350505050565b600080600560008473ffffffffffffffffffffffffffffffffffffffff1673ffffffffffffffffffffffffffffffffffffffff1681526020019081526020016000209050611b8281611ae2565b9150611b8d8161241b565b50919050565b611b9d8282612431565b5050565b60007bffffffffffffffffffffffffffffffffffffffffffffffffffffffff905090565b60008060008580549050905060008114611c335785600182611be79190612dbc565b81548110611bf857611bf7612df0565b5b9060005260206000200160000160049054906101000a90047bffffffffffffffffffffffffffffffffffffffffffffffffffffffff16611c36565b60005b7bffffffffffffffffffffffffffffffffffffffffffffffffffffffff169250611c6483858763ffffffff16565b9150600081118015611cb757504386600183611c809190612dbc565b81548110611c9157611c90612df0565b5b9060005260206000200160000160009054906101000a900463ffffffff1663ffffffff16145b15611d4457611cc582611126565b86600183611cd39190612dbc565b81548110611ce457611ce3612df0565b5b9060005260206000200160000160046101000a8154817bffffffffffffffffffffffffffffffffffffffffffffffffffffffff02191690837bffffffffffffffffffffffffffffffffffffffffffffffffffffffff160217905550611e34565b856040518060400160405280611d5943611191565b63ffffffff168152602001611d6d85611126565b7bffffffffffffffffffffffffffffffffffffffffffffffffffffffff168152509080600181540180825580915050600190039060005260206000200160009091909190915060008201518160000160006101000a81548163ffffffff021916908363ffffffff16021790555060208201518160000160046101000a8154817bffffffffffffffffffffffffffffffffffffffffffffffffffffffff02191690837bffffffffffffffffffffffffffffffffffffffffffffffffffffffff16021790555050505b50935093915050565b505050565b611e4d8383836111e4565b8173ffffffffffffffffffffffffffffffffffffffff168373ffffffffffffffffffffffffffffffffffffffff167fd0ed88a3f042c6bbb1e3ea406079b5f2b4b198afccaa535d837f4c63abbc4de683604051611eaa9190612833565b60405180910390a3505050565b8173ffffffffffffffffffffffffffffffffffffffff168373ffffffffffffffffffffffffffffffffffffffff1614158015611ef35750600081115b156120ab57600073ffffffffffffffffffffffffffffffffffffffff168373ffffffffffffffffffffffffffffffffffffffff1614611fd157600080611f7a600860008773ffffffffffffffffffffffffffffffffffffffff1673ffffffffffffffffffffffffffffffffffffffff16815260200190815260200160002061121485611bc5565b915091508473ffffffffffffffffffffffffffffffffffffffff167fdec2bacdd2f05b59de34da9b523dff8be42e5e38e818c82fdb0bae774387a7248383604051611fc69291906136db565b60405180910390a250505b600073ffffffffffffffffffffffffffffffffffffffff168273ffffffffffffffffffffffffffffffffffffffff16146120aa57600080612053600860008673ffffffffffffffffffffffffffffffffffffffff1673ffffffffffffffffffffffffffffffffffffffff16815260200190815260200160002061111085611bc5565b915091508373ffffffffffffffffffffffffffffffffffffffff167fdec2bacdd2f05b59de34da9b523dff8be42e5e38e818c82fdb0bae774387a724838360405161209f9291906136db565b60405180910390a250505b5b505050565b600083838346306040516020016120cb959493929190613704565b6040516020818303038152906040528051906020012090509392505050565b600060028284186120fb9190613786565b8284166121089190612d1c565b905092915050565b6000828260405160200161212592919061382f565b60405160208183030381529060405280519060200120905092915050565b6000807f7fffffffffffffffffffffffffffffff5d576e7357a4501ddfe92f46681b20a08360001c111561217e576000600391509150612246565b601b8560ff16141580156121965750601c8560ff1614155b156121a8576000600491509150612246565b6000600187878787604051600081526020016040526040516121cd9493929190613866565b6020604051602081039080840390855afa1580156121ef573d6000803e3d6000fd5b505050602060405103519050600073ffffffffffffffffffffffffffffffffffffffff168173ffffffffffffffffffffffffffffffffffffffff160361223d57600060019250925050612246565b80600092509250505b94509492505050565b60006004811115612263576122626138ab565b5b816004811115612276576122756138ab565b5b031561241857600160048111156122905761228f6138ab565b5b8160048111156122a3576122a26138ab565b5b036122e3576040517f08c379a00000000000000000000000000000000000000000000000000000000081526004016122da90613926565b60405180910390fd5b600260048111156122f7576122f66138ab565b5b81600481111561230a576123096138ab565b5b0361234a576040517f08c379a000000000000000000000000000000000000000000000000000000000815260040161234190613992565b60405180910390fd5b6003600481111561235e5761235d6138ab565b5b816004811115612371576123706138ab565b5b036123b1576040517f08c379a00000000000000000000000000000000000000000000000000000000081526004016123a890613a24565b60405180910390fd5b6004808111156123c4576123c36138ab565b5b8160048111156123d7576123d66138ab565b5b03612417576040517f08c379a000000000000000000000000000000000000000000000000000000000815260040161240e90613ab6565b60405180910390fd5b5b50565b6001816000016000828254019250508190555050565b61243b828261244f565b612449600961121483611bc5565b50505050565b600073ffffffffffffffffffffffffffffffffffffffff168273ffffffffffffffffffffffffffffffffffffffff16036124be576040517f08c379a00000000000000000000000000000000000000000000000000000000081526004016124b590613b48565b60405180910390fd5b6124ca82600083611e3d565b60008060008473ffffffffffffffffffffffffffffffffffffffff1673ffffffffffffffffffffffffffffffffffffffff16815260200190815260200160002054905081811015612550576040517f08c379a000000000000000000000000000000000000000000000000000000000815260040161254790613bda565b60405180910390fd5b8181036000808573ffffffffffffffffffffffffffffffffffffffff1673ffffffffffffffffffffffffffffffffffffffff1681526020019081526020016000208190555081600260008282546125a79190612dbc565b92505081905550600073ffffffffffffffffffffffffffffffffffffffff168373ffffffffffffffffffffffffffffffffffffffff167fddf252ad1be2c89b69c2b068fc378daa952ba7f163c4a11628f55a4df523b3ef8460405161260c9190612833565b60405180910390a361262083600084611e42565b505050565b6040518060400160405280600063ffffffff16815260200160007bffffffffffffffffffffffffffffffffffffffffffffffffffffffff1681525090565b600081519050919050565b600082825260208201905092915050565b60005b8381101561269d578082015181840152602081019050612682565b60008484015250505050565b6000601f19601f8301169050919050565b60006126c582612663565b6126cf818561266e565b93506126df81856020860161267f565b6126e8816126a9565b840191505092915050565b6000602082019050818103600083015261270d81846126ba565b905092915050565b600080fd5b600073ffffffffffffffffffffffffffffffffffffffff82169050919050565b60006127458261271a565b9050919050565b6127558161273a565b811461276057600080fd5b50565b6000813590506127728161274c565b92915050565b6000819050919050565b61278b81612778565b811461279657600080fd5b50565b6000813590506127a881612782565b92915050565b600080604083850312156127c5576127c4612715565b5b60006127d385828601612763565b92505060206127e485828601612799565b9150509250929050565b60008115159050919050565b612803816127ee565b82525050565b600060208201905061281e60008301846127fa565b92915050565b61282d81612778565b82525050565b60006020820190506128486000830184612824565b92915050565b60008060006060848603121561286757612866612715565b5b600061287586828701612763565b935050602061288686828701612763565b925050604061289786828701612799565b9150509250925092565b600060ff82169050919050565b6128b7816128a1565b82525050565b60006020820190506128d260008301846128ae565b92915050565b6000819050919050565b6128eb816128d8565b82525050565b600060208201905061290660008301846128e2565b92915050565b60006020828403121561292257612921612715565b5b600061293084828501612763565b91505092915050565b6129428161273a565b82525050565b600060208201905061295d6000830184612939565b92915050565b600063ffffffff82169050919050565b61297c81612963565b82525050565b60006020820190506129976000830184612973565b92915050565b6000602082840312156129b3576129b2612715565b5b60006129c184828501612799565b91505092915050565b6129d3816128a1565b81146129de57600080fd5b50565b6000813590506129f0816129ca565b92915050565b6129ff816128d8565b8114612a0a57600080fd5b50565b600081359050612a1c816129f6565b92915050565b60008060008060008060c08789031215612a3f57612a3e612715565b5b6000612a4d89828a01612763565b9650506020612a5e89828a01612799565b9550506040612a6f89828a01612799565b9450506060612a8089828a016129e1565b9350506080612a9189828a01612a0d565b92505060a0612aa289828a01612a0d565b9150509295509295509295565b600080600080600080600060e0888a031215612ace57612acd612715565b5b6000612adc8a828b01612763565b9750506020612aed8a828b01612763565b9650506040612afe8a828b01612799565b9550506060612b0f8a828b01612799565b9450506080612b208a828b016129e1565b93505060a0612b318a828b01612a0d565b92505060c0612b428a828b01612a0d565b91505092959891949750929550565b60008060408385031215612b6857612b67612715565b5b6000612b7685828601612763565b9250506020612b8785828601612763565b9150509250929050565b612b9a81612963565b8114612ba557600080fd5b50565b600081359050612bb781612b91565b92915050565b60008060408385031215612bd457612bd3612715565b5b6000612be285828601612763565b9250506020612bf385828601612ba8565b9150509250929050565b612c0681612963565b82525050565b60007bffffffffffffffffffffffffffffffffffffffffffffffffffffffff82169050919050565b612c3d81612c0c565b82525050565b604082016000820151612c596000850182612bfd565b506020820151612c6c6020850182612c34565b50505050565b6000604082019050612c876000830184612c43565b92915050565b7f4e487b7100000000000000000000000000000000000000000000000000000000600052602260045260246000fd5b60006002820490506001821680612cd457607f821691505b602082108103612ce757612ce6612c8d565b5b50919050565b7f4e487b7100000000000000000000000000000000000000000000000000000000600052601160045260246000fd5b6000612d2782612778565b9150612d3283612778565b9250828201905080821115612d4a57612d49612ced565b5b92915050565b7f4552433230566f7465733a20626c6f636b206e6f7420796574206d696e656400600082015250565b6000612d86601f8361266e565b9150612d9182612d50565b602082019050919050565b60006020820190508181036000830152612db581612d79565b9050919050565b6000612dc782612778565b9150612dd283612778565b9250828203905081811115612dea57612de9612ced565b5b92915050565b7f4e487b7100000000000000000000000000000000000000000000000000000000600052603260045260246000fd5b7f45524332303a2064656372656173656420616c6c6f77616e63652062656c6f7760008201527f207a65726f000000000000000000000000000000000000000000000000000000602082015250565b6000612e7b60258361266e565b9150612e8682612e1f565b604082019050919050565b60006020820190508181036000830152612eaa81612e6e565b9050919050565b7f4552433230566f7465733a207369676e61747572652065787069726564000000600082015250565b6000612ee7601d8361266e565b9150612ef282612eb1565b602082019050919050565b60006020820190508181036000830152612f1681612eda565b9050919050565b6000608082019050612f3260008301876128e2565b612f3f6020830186612939565b612f4c6040830185612824565b612f596060830184612824565b95945050505050565b7f4552433230566f7465733a20696e76616c6964206e6f6e636500000000000000600082015250565b6000612f9860198361266e565b9150612fa382612f62565b602082019050919050565b60006020820190508181036000830152612fc781612f8b565b9050919050565b7f45524332305065726d69743a206578706972656420646561646c696e65000000600082015250565b6000613004601d8361266e565b915061300f82612fce565b602082019050919050565b6000602082019050818103600083015261303381612ff7565b9050919050565b600060c08201905061304f60008301896128e2565b61305c6020830188612939565b6130696040830187612939565b6130766060830186612824565b6130836080830185612824565b61309060a0830184612824565b979650505050505050565b7f45524332305065726d69743a20696e76616c6964207369676e61747572650000600082015250565b60006130d1601e8361266e565b91506130dc8261309b565b602082019050919050565b60006020820190508181036000830152613100816130c4565b9050919050565b7f4552433230566f7465733a20746f74616c20737570706c79207269736b73206f60008201527f766572666c6f77696e6720766f74657300000000000000000000000000000000602082015250565b600061316360308361266e565b915061316e82613107565b604082019050919050565b6000602082019050818103600083015261319281613156565b9050919050565b7f45524332303a206d696e7420746f20746865207a65726f206164647265737300600082015250565b60006131cf601f8361266e565b91506131da82613199565b602082019050919050565b600060208201905081810360008301526131fe816131c2565b9050919050565b7f53616665436173743a2076616c756520646f65736e27742066697420696e203260008201527f3234206269747300000000000000000000000000000000000000000000000000602082015250565b600061326160278361266e565b915061326c82613205565b604082019050919050565b6000602082019050818103600083015261329081613254565b9050919050565b7f53616665436173743a2076616c756520646f65736e27742066697420696e203360008201527f3220626974730000000000000000000000000000000000000000000000000000602082015250565b60006132f360268361266e565b91506132fe82613297565b604082019050919050565b60006020820190508181036000830152613322816132e6565b9050919050565b7f45524332303a20617070726f76652066726f6d20746865207a65726f2061646460008201527f7265737300000000000000000000000000000000000000000000000000000000602082015250565b600061338560248361266e565b915061339082613329565b604082019050919050565b600060208201905081810360008301526133b481613378565b9050919050565b7f45524332303a20617070726f766520746f20746865207a65726f20616464726560008201527f7373000000000000000000000000000000000000000000000000000000000000602082015250565b600061341760228361266e565b9150613422826133bb565b604082019050919050565b600060208201905081810360008301526134468161340a565b9050919050565b7f45524332303a20696e73756666696369656e7420616c6c6f77616e6365000000600082015250565b6000613483601d8361266e565b915061348e8261344d565b602082019050919050565b600060208201905081810360008301526134b281613476565b9050919050565b7f45524332303a207472616e736665722066726f6d20746865207a65726f20616460008201527f6472657373000000000000000000000000000000000000000000000000000000602082015250565b600061351560258361266e565b9150613520826134b9565b604082019050919050565b6000602082019050818103600083015261354481613508565b9050919050565b7f45524332303a207472616e7366657220746f20746865207a65726f206164647260008201527f6573730000000000000000000000000000000000000000000000000000000000602082015250565b60006135a760238361266e565b91506135b28261354b565b604082019050919050565b600060208201905081810360008301526135d68161359a565b9050919050565b7f45524332303a207472616e7366657220616d6f756e742065786365656473206260008201527f616c616e63650000000000000000000000000000000000000000000000000000602082015250565b600061363960268361266e565b9150613644826135dd565b604082019050919050565b600060208201905081810360008301526136688161362c565b9050919050565b7f4f776e61626c653a2063616c6c6572206973206e6f7420746865206f776e6572600082015250565b60006136a560208361266e565b91506136b08261366f565b602082019050919050565b600060208201905081810360008301526136d481613698565b9050919050565b60006040820190506136f06000830185612824565b6136fd6020830184612824565b9392505050565b600060a08201905061371960008301886128e2565b61372660208301876128e2565b61373360408301866128e2565b6137406060830185612824565b61374d6080830184612939565b9695505050505050565b7f4e487b7100000000000000000000000000000000000000000000000000000000600052601260045260246000fd5b600061379182612778565b915061379c83612778565b9250826137ac576137ab613757565b5b828204905092915050565b600081905092915050565b7f1901000000000000000000000000000000000000000000000000000000000000600082015250565b60006137f86002836137b7565b9150613803826137c2565b600282019050919050565b6000819050919050565b613829613824826128d8565b61380e565b82525050565b600061383a826137eb565b91506138468285613818565b6020820191506138568284613818565b6020820191508190509392505050565b600060808201905061387b60008301876128e2565b61388860208301866128ae565b61389560408301856128e2565b6138a260608301846128e2565b95945050505050565b7f4e487b7100000000000000000000000000000000000000000000000000000000600052602160045260246000fd5b7f45434453413a20696e76616c6964207369676e61747572650000000000000000600082015250565b600061391060188361266e565b915061391b826138da565b602082019050919050565b6000602082019050818103600083015261393f81613903565b9050919050565b7f45434453413a20696e76616c6964207369676e6174757265206c656e67746800600082015250565b600061397c601f8361266e565b915061398782613946565b602082019050919050565b600060208201905081810360008301526139ab8161396f565b9050919050565b7f45434453413a20696e76616c6964207369676e6174757265202773272076616c60008201527f7565000000000000000000000000000000000000000000000000000000000000602082015250565b6000613a0e60228361266e565b9150613a19826139b2565b604082019050919050565b60006020820190508181036000830152613a3d81613a01565b9050919050565b7f45434453413a20696e76616c6964207369676e6174757265202776272076616c60008201527f7565000000000000000000000000000000000000000000000000000000000000602082015250565b6000613aa060228361266e565b9150613aab82613a44565b604082019050919050565b60006020820190508181036000830152613acf81613a93565b9050919050565b7f45524332303a206275726e2066726f6d20746865207a65726f2061646472657360008201527f7300000000000000000000000000000000000000000000000000000000000000602082015250565b6000613b3260218361266e565b9150613b3d82613ad6565b604082019050919050565b60006020820190508181036000830152613b6181613b25565b9050919050565b7f45524332303a206275726e20616d6f756e7420657863656564732062616c616e60008201527f6365000000000000000000000000000000000000000000000000000000000000602082015250565b6000613bc460228361266e565b9150613bcf82613b68565b604082019050919050565b60006020820190508181036000830152613bf381613bb7565b905091905056fea26469706673582212208cef1b9fdc7e68a76433516319a5957edfb8b21989789d9b16fd80e4cfe8088d64736f6c63430008110033",
  "devdoc": {
    "kind": "dev",
    "methods": {
      "DOMAIN_SEPARATOR()": {
        "details": "See {IERC20Permit-DOMAIN_SEPARATOR}."
      },
      "allowance(address,address)": {
        "details": "See {IERC20-allowance}."
      },
      "approve(address,uint256)": {
        "details": "See {IERC20-approve}. NOTE: If `amount` is the maximum `uint256`, the allowance is not updated on `transferFrom`. This is semantically equivalent to an infinite approval. Requirements: - `spender` cannot be the zero address."
      },
      "balanceOf(address)": {
        "details": "See {IERC20-balanceOf}."
      },
      "checkpoints(address,uint32)": {
        "details": "Get the `pos`-th checkpoint for `account`."
      },
      "decimals()": {
        "details": "Returns the number of decimals used to get its user representation. For example, if `decimals` equals `2`, a balance of `505` tokens should be displayed to a user as `5.05` (`505 / 10 ** 2`). Tokens usually opt for a value of 18, imitating the relationship between Ether and Wei. This is the value {ERC20} uses, unless this function is overridden; NOTE: This information is only used for _display_ purposes: it in no way affects any of the arithmetic of the contract, including {IERC20-balanceOf} and {IERC20-transfer}."
      },
      "decreaseAllowance(address,uint256)": {
        "details": "Atomically decreases the allowance granted to `spender` by the caller. This is an alternative to {approve} that can be used as a mitigation for problems described in {IERC20-approve}. Emits an {Approval} event indicating the updated allowance. Requirements: - `spender` cannot be the zero address. - `spender` must have allowance for the caller of at least `subtractedValue`."
      },
      "delegate(address)": {
        "details": "Delegate votes from the sender to `delegatee`."
      },
      "delegateBySig(address,uint256,uint256,uint8,bytes32,bytes32)": {
        "details": "Delegates votes from signer to `delegatee`"
      },
      "delegates(address)": {
        "details": "Get the address `account` is currently delegating to."
      },
      "getPastTotalSupply(uint256)": {
        "details": "Retrieve the `totalSupply` at the end of `blockNumber`. Note, this value is the sum of all balances. It is but NOT the sum of all the delegated votes! Requirements: - `blockNumber` must have been already mined"
      },
      "getPastVotes(address,uint256)": {
        "details": "Retrieve the number of votes for `account` at the end of `blockNumber`. Requirements: - `blockNumber` must have been already mined"
      },
      "getVotes(address)": {
        "details": "Gets the current votes balance for `account`"
      },
      "increaseAllowance(address,uint256)": {
        "details": "Atomically increases the allowance granted to `spender` by the caller. This is an alternative to {approve} that can be used as a mitigation for problems described in {IERC20-approve}. Emits an {Approval} event indicating the updated allowance. Requirements: - `spender` cannot be the zero address."
      },
      "name()": {
        "details": "Returns the name of the token."
      },
      "nonces(address)": {
        "details": "See {IERC20Permit-nonces}."
      },
      "numCheckpoints(address)": {
        "details": "Get number of checkpoints for `account`."
      },
      "permit(address,address,uint256,uint256,uint8,bytes32,bytes32)": {
        "details": "See {IERC20Permit-permit}."
      },
      "symbol()": {
        "details": "Returns the symbol of the token, usually a shorter version of the name."
      },
      "totalSupply()": {
        "details": "See {IERC20-totalSupply}."
      },
      "transfer(address,uint256)": {
        "details": "See {IERC20-transfer}. Requirements: - `to` cannot be the zero address. - the caller must have a balance of at least `amount`."
      },
      "transferFrom(address,address,uint256)": {
        "details": "See {IERC20-transferFrom}. Emits an {Approval} event indicating the updated allowance. This is not required by the EIP. See the note at the beginning of {ERC20}. NOTE: Does not update the allowance if the current allowance is the maximum `uint256`. Requirements: - `from` and `to` cannot be the zero address. - `from` must have a balance of at least `amount`. - the caller must have allowance for ``from``'s tokens of at least `amount`."
      }
    },
    "version": 1
  },
  "userdoc": {
    "kind": "user",
    "methods": {},
    "version": 1
  },
  "storageLayout": {
    "storage": [
      {
        "astId": 4206,
        "contract": "contracts/GovernanceToken.sol:GovernanceToken",
        "label": "_balances",
        "offset": 0,
        "slot": "0",
        "type": "t_mapping(t_address,t_uint256)"
      },
      {
        "astId": 4212,
        "contract": "contracts/GovernanceToken.sol:GovernanceToken",
        "label": "_allowances",
        "offset": 0,
        "slot": "1",
        "type": "t_mapping(t_address,t_mapping(t_address,t_uint256))"
      },
      {
        "astId": 4214,
        "contract": "contracts/GovernanceToken.sol:GovernanceToken",
        "label": "_totalSupply",
        "offset": 0,
        "slot": "2",
        "type": "t_uint256"
      },
      {
        "astId": 4216,
        "contract": "contracts/GovernanceToken.sol:GovernanceToken",
        "label": "_name",
        "offset": 0,
        "slot": "3",
        "type": "t_string_storage"
      },
      {
        "astId": 4218,
        "contract": "contracts/GovernanceToken.sol:GovernanceToken",
        "label": "_symbol",
        "offset": 0,
        "slot": "4",
        "type": "t_string_storage"
      },
      {
        "astId": 5539,
        "contract": "contracts/GovernanceToken.sol:GovernanceToken",
        "label": "_nonces",
        "offset": 0,
        "slot": "5",
        "type": "t_mapping(t_address,t_struct(Counter)6299_storage)"
      },
      {
        "astId": 5547,
        "contract": "contracts/GovernanceToken.sol:GovernanceToken",
        "label": "_PERMIT_TYPEHASH_DEPRECATED_SLOT",
        "offset": 0,
        "slot": "6",
        "type": "t_bytes32"
      },
      {
        "astId": 4880,
        "contract": "contracts/GovernanceToken.sol:GovernanceToken",
        "label": "_delegates",
        "offset": 0,
        "slot": "7",
        "type": "t_mapping(t_address,t_address)"
      },
      {
        "astId": 4886,
        "contract": "contracts/GovernanceToken.sol:GovernanceToken",
        "label": "_checkpoints",
        "offset": 0,
        "slot": "8",
        "type": "t_mapping(t_address,t_array(t_struct(Checkpoint)4871_storage)dyn_storage)"
      },
      {
        "astId": 4890,
        "contract": "contracts/GovernanceToken.sol:GovernanceToken",
        "label": "_totalSupplyCheckpoints",
        "offset": 0,
        "slot": "9",
        "type": "t_array(t_struct(Checkpoint)4871_storage)dyn_storage"
      },
      {
        "astId": 10125,
        "contract": "contracts/GovernanceToken.sol:GovernanceToken",
        "label": "s_initialSupply",
        "offset": 0,
        "slot": "10",
        "type": "t_uint256"
      }
    ],
    "types": {
      "t_address": {
        "encoding": "inplace",
        "label": "address",
        "numberOfBytes": "20"
      },
      "t_array(t_struct(Checkpoint)4871_storage)dyn_storage": {
        "base": "t_struct(Checkpoint)4871_storage",
        "encoding": "dynamic_array",
        "label": "struct ERC20Votes.Checkpoint[]",
        "numberOfBytes": "32"
      },
      "t_bytes32": {
        "encoding": "inplace",
        "label": "bytes32",
        "numberOfBytes": "32"
      },
      "t_mapping(t_address,t_address)": {
        "encoding": "mapping",
        "key": "t_address",
        "label": "mapping(address => address)",
        "numberOfBytes": "32",
        "value": "t_address"
      },
      "t_mapping(t_address,t_array(t_struct(Checkpoint)4871_storage)dyn_storage)": {
        "encoding": "mapping",
        "key": "t_address",
        "label": "mapping(address => struct ERC20Votes.Checkpoint[])",
        "numberOfBytes": "32",
        "value": "t_array(t_struct(Checkpoint)4871_storage)dyn_storage"
      },
      "t_mapping(t_address,t_mapping(t_address,t_uint256))": {
        "encoding": "mapping",
        "key": "t_address",
        "label": "mapping(address => mapping(address => uint256))",
        "numberOfBytes": "32",
        "value": "t_mapping(t_address,t_uint256)"
      },
      "t_mapping(t_address,t_struct(Counter)6299_storage)": {
        "encoding": "mapping",
        "key": "t_address",
        "label": "mapping(address => struct Counters.Counter)",
        "numberOfBytes": "32",
        "value": "t_struct(Counter)6299_storage"
      },
      "t_mapping(t_address,t_uint256)": {
        "encoding": "mapping",
        "key": "t_address",
        "label": "mapping(address => uint256)",
        "numberOfBytes": "32",
        "value": "t_uint256"
      },
      "t_string_storage": {
        "encoding": "bytes",
        "label": "string",
        "numberOfBytes": "32"
      },
      "t_struct(Checkpoint)4871_storage": {
        "encoding": "inplace",
        "label": "struct ERC20Votes.Checkpoint",
        "members": [
          {
            "astId": 4868,
            "contract": "contracts/GovernanceToken.sol:GovernanceToken",
            "label": "fromBlock",
            "offset": 0,
            "slot": "0",
            "type": "t_uint32"
          },
          {
            "astId": 4870,
            "contract": "contracts/GovernanceToken.sol:GovernanceToken",
            "label": "votes",
            "offset": 4,
            "slot": "0",
            "type": "t_uint224"
          }
        ],
        "numberOfBytes": "32"
      },
      "t_struct(Counter)6299_storage": {
        "encoding": "inplace",
        "label": "struct Counters.Counter",
        "members": [
          {
            "astId": 6298,
            "contract": "contracts/GovernanceToken.sol:GovernanceToken",
            "label": "_value",
            "offset": 0,
            "slot": "0",
            "type": "t_uint256"
          }
        ],
        "numberOfBytes": "32"
      },
      "t_uint224": {
        "encoding": "inplace",
        "label": "uint224",
        "numberOfBytes": "28"
      },
      "t_uint256": {
        "encoding": "inplace",
        "label": "uint256",
        "numberOfBytes": "32"
      },
      "t_uint32": {
        "encoding": "inplace",
        "label": "uint32",
        "numberOfBytes": "4"
      }
    }
  }
}