{
  "address": "0xCf7Ed3AccA5a467e9e704C703E8D87F634fB0Fc9",
  "abi": [
    {
      "inputs": [
        {
          "internalType": "contract IVotes",
          "name": "_token",
          "type": "address"
        },
        {
          "internalType": "contract TimelockController",
          "name": "_timelock",
          "type": "address"
        },
        {
          "internalType": "uint256",
          "name": "_votingDelay",
          "type": "uint256"
        },
        {
          "internalType": "uint256",
          "name": "_votingPeriod",
          "type": "uint256"
        },
        {
          "internalType": "uint256",
          "name": "_quorumPercentage",
          "type": "uint256"
        },
        {
          "internalType": "uint256",
          "name": "_enteranceFee",
          "type": "uint256"
        },
        {
          "internalType": "uint256",
          "name": "_daoPercentage",
          "type": "uint256"
        }
      ],
      "stateMutability": "nonpayable",
      "type": "constructor"
    },
    {
      "inputs": [],
      "name": "Empty",
      "type": "error"
    },
    {
      "inputs": [],
      "name": "FundProject__EnteranceFeeNeeded",
      "type": "error"
    },
    {
      "inputs": [],
      "name": "FundProject__NotApporovedByDao",
      "type": "error"
    },
    {
      "inputs": [],
      "name": "FundProject__NotEnoughPayment",
      "type": "error"
    },
    {
      "inputs": [
        {
          "internalType": "uint256",
          "name": "_projectId",
          "type": "uint256"
        }
      ],
      "name": "FundProject__TransferFailed",
      "type": "error"
    },
    {
      "inputs": [],
      "name": "FundProject__UpkeepNeeded",
      "type": "error"
    },
    {
      "inputs": [],
      "name": "FundProject__WithdrawTransferFailed",
      "type": "error"
    },
    {
      "inputs": [],
      "name": "FundProject__withdrawFund",
      "type": "error"
    },
    {
      "inputs": [],
      "name": "GovernerContract__NeedEnteranceFee",
      "type": "error"
    },
    {
      "anonymous": false,
      "inputs": [
        {
          "indexed": true,
          "internalType": "address",
          "name": "previousOwner",
          "type": "address"
        },
        {
          "indexed": true,
          "internalType": "address",
          "name": "newOwner",
          "type": "address"
        }
      ],
      "name": "OwnershipTransferred",
      "type": "event"
    },
    {
      "anonymous": false,
      "inputs": [
        {
          "indexed": false,
          "internalType": "uint256",
          "name": "proposalId",
          "type": "uint256"
        }
      ],
      "name": "ProposalCanceled",
      "type": "event"
    },
    {
      "anonymous": false,
      "inputs": [
        {
          "indexed": false,
          "internalType": "uint256",
          "name": "proposalId",
          "type": "uint256"
        },
        {
          "indexed": false,
          "internalType": "address",
          "name": "proposer",
          "type": "address"
        },
        {
          "indexed": false,
          "internalType": "address[]",
          "name": "targets",
          "type": "address[]"
        },
        {
          "indexed": false,
          "internalType": "uint256[]",
          "name": "values",
          "type": "uint256[]"
        },
        {
          "indexed": false,
          "internalType": "string[]",
          "name": "signatures",
          "type": "string[]"
        },
        {
          "indexed": false,
          "internalType": "bytes[]",
          "name": "calldatas",
          "type": "bytes[]"
        },
        {
          "indexed": false,
          "internalType": "uint256",
          "name": "startBlock",
          "type": "uint256"
        },
        {
          "indexed": false,
          "internalType": "uint256",
          "name": "endBlock",
          "type": "uint256"
        },
        {
          "indexed": false,
          "internalType": "string",
          "name": "description",
          "type": "string"
        }
      ],
      "name": "ProposalCreated",
      "type": "event"
    },
    {
      "anonymous": false,
      "inputs": [
        {
          "indexed": false,
          "internalType": "uint256",
          "name": "proposalId",
          "type": "uint256"
        }
      ],
      "name": "ProposalExecuted",
      "type": "event"
    },
    {
      "anonymous": false,
      "inputs": [
        {
          "indexed": false,
          "internalType": "uint256",
          "name": "proposalId",
          "type": "uint256"
        },
        {
          "indexed": false,
          "internalType": "uint256",
          "name": "eta",
          "type": "uint256"
        }
      ],
      "name": "ProposalQueued",
      "type": "event"
    },
    {
      "anonymous": false,
      "inputs": [
        {
          "indexed": false,
          "internalType": "uint256",
          "name": "oldProposalThreshold",
          "type": "uint256"
        },
        {
          "indexed": false,
          "internalType": "uint256",
          "name": "newProposalThreshold",
          "type": "uint256"
        }
      ],
      "name": "ProposalThresholdSet",
      "type": "event"
    },
    {
      "anonymous": false,
      "inputs": [
        {
          "indexed": false,
          "internalType": "uint256",
          "name": "oldQuorumNumerator",
          "type": "uint256"
        },
        {
          "indexed": false,
          "internalType": "uint256",
          "name": "newQuorumNumerator",
          "type": "uint256"
        }
      ],
      "name": "QuorumNumeratorUpdated",
      "type": "event"
    },
    {
      "anonymous": false,
      "inputs": [
        {
          "indexed": false,
          "internalType": "address",
          "name": "oldTimelock",
          "type": "address"
        },
        {
          "indexed": false,
          "internalType": "address",
          "name": "newTimelock",
          "type": "address"
        }
      ],
      "name": "TimelockChange",
      "type": "event"
    },
    {
      "anonymous": false,
      "inputs": [
        {
          "indexed": true,
          "internalType": "address",
          "name": "voter",
          "type": "address"
        },
        {
          "indexed": false,
          "internalType": "uint256",
          "name": "proposalId",
          "type": "uint256"
        },
        {
          "indexed": false,
          "internalType": "uint8",
          "name": "support",
          "type": "uint8"
        },
        {
          "indexed": false,
          "internalType": "uint256",
          "name": "weight",
          "type": "uint256"
        },
        {
          "indexed": false,
          "internalType": "string",
          "name": "reason",
          "type": "string"
        }
      ],
      "name": "VoteCast",
      "type": "event"
    },
    {
      "anonymous": false,
      "inputs": [
        {
          "indexed": true,
          "internalType": "address",
          "name": "voter",
          "type": "address"
        },
        {
          "indexed": false,
          "internalType": "uint256",
          "name": "proposalId",
          "type": "uint256"
        },
        {
          "indexed": false,
          "internalType": "uint8",
          "name": "support",
          "type": "uint8"
        },
        {
          "indexed": false,
          "internalType": "uint256",
          "name": "weight",
          "type": "uint256"
        },
        {
          "indexed": false,
          "internalType": "string",
          "name": "reason",
          "type": "string"
        },
        {
          "indexed": false,
          "internalType": "bytes",
          "name": "params",
          "type": "bytes"
        }
      ],
      "name": "VoteCastWithParams",
      "type": "event"
    },
    {
      "anonymous": false,
      "inputs": [
        {
          "indexed": false,
          "internalType": "uint256",
          "name": "oldVotingDelay",
          "type": "uint256"
        },
        {
          "indexed": false,
          "internalType": "uint256",
          "name": "newVotingDelay",
          "type": "uint256"
        }
      ],
      "name": "VotingDelaySet",
      "type": "event"
    },
    {
      "anonymous": false,
      "inputs": [
        {
          "indexed": false,
          "internalType": "uint256",
          "name": "oldVotingPeriod",
          "type": "uint256"
        },
        {
          "indexed": false,
          "internalType": "uint256",
          "name": "newVotingPeriod",
          "type": "uint256"
        }
      ],
      "name": "VotingPeriodSet",
      "type": "event"
    },
    {
      "anonymous": false,
      "inputs": [
        {
          "indexed": true,
          "internalType": "address",
          "name": "_projectOwner",
          "type": "address"
        }
      ],
      "name": "enteranceFeePaid",
      "type": "event"
    },
    {
      "anonymous": false,
      "inputs": [
        {
          "indexed": true,
          "internalType": "uint256",
          "name": "_projectId",
          "type": "uint256"
        }
      ],
      "name": "projectFundingFailed",
      "type": "event"
    },
    {
      "anonymous": false,
      "inputs": [
        {
          "indexed": true,
          "internalType": "uint256",
          "name": "_projectId",
          "type": "uint256"
        }
      ],
      "name": "projectGoesToFunding",
      "type": "event"
    },
    {
      "anonymous": false,
      "inputs": [
        {
          "indexed": true,
          "internalType": "uint256",
          "name": "_projectId",
          "type": "uint256"
        }
      ],
      "name": "projectSuccessfullyFunded",
      "type": "event"
    },
    {
      "anonymous": false,
      "inputs": [
        {
          "indexed": true,
          "internalType": "address",
          "name": "__investor",
          "type": "address"
        },
        {
          "indexed": true,
          "internalType": "uint256",
          "name": "__projectId",
          "type": "uint256"
        }
      ],
      "name": "withdrawFundSuccessfully",
      "type": "event"
    },
    {
      "inputs": [],
      "name": "BALLOT_TYPEHASH",
      "outputs": [
        {
          "internalType": "bytes32",
          "name": "",
          "type": "bytes32"
        }
      ],
      "stateMutability": "view",
      "type": "function"
    },
    {
      "inputs": [],
      "name": "COUNTING_MODE",
      "outputs": [
        {
          "internalType": "string",
          "name": "",
          "type": "string"
        }
      ],
      "stateMutability": "pure",
      "type": "function"
    },
    {
      "inputs": [],
      "name": "EXTENDED_BALLOT_TYPEHASH",
      "outputs": [
        {
          "internalType": "bytes32",
          "name": "",
          "type": "bytes32"
        }
      ],
      "stateMutability": "view",
      "type": "function"
    },
    {
      "inputs": [
        {
          "internalType": "uint256",
          "name": "",
          "type": "uint256"
        }
      ],
      "name": "_ProjectFundingStatus",
      "outputs": [
        {
          "internalType": "enum FundProject.ProjectFundingStatus",
          "name": "",
          "type": "uint8"
        }
      ],
      "stateMutability": "view",
      "type": "function"
    },
    {
      "inputs": [
        {
          "internalType": "uint256",
          "name": "_projecID",
          "type": "uint256"
        }
      ],
      "name": "_getBalanceOfProject",
      "outputs": [
        {
          "internalType": "uint256",
          "name": "",
          "type": "uint256"
        }
      ],
      "stateMutability": "view",
      "type": "function"
    },
    {
      "inputs": [
        {
          "internalType": "uint256",
          "name": "_projecID",
          "type": "uint256"
        }
      ],
      "name": "_getFundingGoalAmount",
      "outputs": [
        {
          "internalType": "uint256",
          "name": "",
          "type": "uint256"
        }
      ],
      "stateMutability": "view",
      "type": "function"
    },
    {
      "inputs": [
        {
          "internalType": "uint256",
          "name": "_projecID",
          "type": "uint256"
        }
      ],
      "name": "_getHashOfProjectData",
      "outputs": [
        {
          "internalType": "string",
          "name": "",
          "type": "string"
        }
      ],
      "stateMutability": "view",
      "type": "function"
    },
    {
      "inputs": [
        {
          "internalType": "string",
          "name": "_ipfsHash",
          "type": "string"
        }
      ],
      "name": "_getProjectId",
      "outputs": [
        {
          "internalType": "uint256",
          "name": "",
          "type": "uint256"
        }
      ],
      "stateMutability": "view",
      "type": "function"
    },
    {
      "inputs": [
        {
          "internalType": "uint256",
          "name": "_projectID",
          "type": "uint256"
        }
      ],
      "name": "_getProjectStatus",
      "outputs": [
        {
          "internalType": "enum FundProject.ProjectFundingStatus",
          "name": "",
          "type": "uint8"
        }
      ],
      "stateMutability": "view",
      "type": "function"
    },
    {
      "inputs": [
        {
          "internalType": "uint256",
          "name": "_projecID",
          "type": "uint256"
        }
      ],
      "name": "_isApporoveFundingByDao",
      "outputs": [
        {
          "internalType": "bool",
          "name": "",
          "type": "bool"
        }
      ],
      "stateMutability": "view",
      "type": "function"
    },
    {
      "inputs": [
        {
          "internalType": "uint256",
          "name": "",
          "type": "uint256"
        }
      ],
      "name": "_isApporovedByDao",
      "outputs": [
        {
          "internalType": "bool",
          "name": "",
          "type": "bool"
        }
      ],
      "stateMutability": "view",
      "type": "function"
    },
    {
      "inputs": [
        {
          "internalType": "address",
          "name": "",
          "type": "address"
        }
      ],
      "name": "_isEnteranceFeePaid",
      "outputs": [
        {
          "internalType": "bool",
          "name": "",
          "type": "bool"
        }
      ],
      "stateMutability": "view",
      "type": "function"
    },
    {
      "inputs": [
        {
          "internalType": "uint256",
          "name": "",
          "type": "uint256"
        }
      ],
      "name": "_isFunding",
      "outputs": [
        {
          "internalType": "bool",
          "name": "",
          "type": "bool"
        }
      ],
      "stateMutability": "view",
      "type": "function"
    },
    {
      "inputs": [
        {
          "internalType": "string",
          "name": "_ipfsHash",
          "type": "string"
        },
        {
          "internalType": "uint256",
          "name": "_fundingGoalAmount",
          "type": "uint256"
        },
        {
          "internalType": "uint256",
          "name": "_time",
          "type": "uint256"
        },
        {
          "internalType": "uint256",
          "name": "_projectOwnerAddressIndex",
          "type": "uint256"
        }
      ],
      "name": "apporoveFundingByDao",
      "outputs": [],
      "stateMutability": "nonpayable",
      "type": "function"
    },
    {
      "inputs": [
        {
          "internalType": "uint256",
          "name": "_projecID",
          "type": "uint256"
        }
      ],
      "name": "cancelApporovelFundingByDao",
      "outputs": [],
      "stateMutability": "nonpayable",
      "type": "function"
    },
    {
      "inputs": [
        {
          "internalType": "uint256",
          "name": "proposalId",
          "type": "uint256"
        },
        {
          "internalType": "uint8",
          "name": "support",
          "type": "uint8"
        }
      ],
      "name": "castVote",
      "outputs": [
        {
          "internalType": "uint256",
          "name": "",
          "type": "uint256"
        }
      ],
      "stateMutability": "nonpayable",
      "type": "function"
    },
    {
      "inputs": [
        {
          "internalType": "uint256",
          "name": "proposalId",
          "type": "uint256"
        },
        {
          "internalType": "uint8",
          "name": "support",
          "type": "uint8"
        },
        {
          "internalType": "uint8",
          "name": "v",
          "type": "uint8"
        },
        {
          "internalType": "bytes32",
          "name": "r",
          "type": "bytes32"
        },
        {
          "internalType": "bytes32",
          "name": "s",
          "type": "bytes32"
        }
      ],
      "name": "castVoteBySig",
      "outputs": [
        {
          "internalType": "uint256",
          "name": "",
          "type": "uint256"
        }
      ],
      "stateMutability": "nonpayable",
      "type": "function"
    },
    {
      "inputs": [
        {
          "internalType": "uint256",
          "name": "proposalId",
          "type": "uint256"
        },
        {
          "internalType": "uint8",
          "name": "support",
          "type": "uint8"
        },
        {
          "internalType": "string",
          "name": "reason",
          "type": "string"
        }
      ],
      "name": "castVoteWithReason",
      "outputs": [
        {
          "internalType": "uint256",
          "name": "",
          "type": "uint256"
        }
      ],
      "stateMutability": "nonpayable",
      "type": "function"
    },
    {
      "inputs": [
        {
          "internalType": "uint256",
          "name": "proposalId",
          "type": "uint256"
        },
        {
          "internalType": "uint8",
          "name": "support",
          "type": "uint8"
        },
        {
          "internalType": "string",
          "name": "reason",
          "type": "string"
        },
        {
          "internalType": "bytes",
          "name": "params",
          "type": "bytes"
        }
      ],
      "name": "castVoteWithReasonAndParams",
      "outputs": [
        {
          "internalType": "uint256",
          "name": "",
          "type": "uint256"
        }
      ],
      "stateMutability": "nonpayable",
      "type": "function"
    },
    {
      "inputs": [
        {
          "internalType": "uint256",
          "name": "proposalId",
          "type": "uint256"
        },
        {
          "internalType": "uint8",
          "name": "support",
          "type": "uint8"
        },
        {
          "internalType": "string",
          "name": "reason",
          "type": "string"
        },
        {
          "internalType": "bytes",
          "name": "params",
          "type": "bytes"
        },
        {
          "internalType": "uint8",
          "name": "v",
          "type": "uint8"
        },
        {
          "internalType": "bytes32",
          "name": "r",
          "type": "bytes32"
        },
        {
          "internalType": "bytes32",
          "name": "s",
          "type": "bytes32"
        }
      ],
      "name": "castVoteWithReasonAndParamsBySig",
      "outputs": [
        {
          "internalType": "uint256",
          "name": "",
          "type": "uint256"
        }
      ],
      "stateMutability": "nonpayable",
      "type": "function"
    },
    {
      "inputs": [
        {
          "internalType": "bytes",
          "name": "",
          "type": "bytes"
        }
      ],
      "name": "checkUpkeep",
      "outputs": [
        {
          "internalType": "bool",
          "name": "upkeepNeeded",
          "type": "bool"
        },
        {
          "internalType": "bytes",
          "name": "performData",
          "type": "bytes"
        }
      ],
      "stateMutability": "view",
      "type": "function"
    },
    {
      "inputs": [],
      "name": "daoPercentage",
      "outputs": [
        {
          "internalType": "uint256",
          "name": "",
          "type": "uint256"
        }
      ],
      "stateMutability": "view",
      "type": "function"
    },
    {
      "inputs": [],
      "name": "enteranceFee",
      "outputs": [
        {
          "internalType": "uint256",
          "name": "",
          "type": "uint256"
        }
      ],
      "stateMutability": "view",
      "type": "function"
    },
    {
      "inputs": [
        {
          "internalType": "address[]",
          "name": "targets",
          "type": "address[]"
        },
        {
          "internalType": "uint256[]",
          "name": "values",
          "type": "uint256[]"
        },
        {
          "internalType": "bytes[]",
          "name": "calldatas",
          "type": "bytes[]"
        },
        {
          "internalType": "bytes32",
          "name": "descriptionHash",
          "type": "bytes32"
        }
      ],
      "name": "execute",
      "outputs": [
        {
          "internalType": "uint256",
          "name": "",
          "type": "uint256"
        }
      ],
      "stateMutability": "payable",
      "type": "function"
    },
    {
      "inputs": [
        {
          "internalType": "uint256",
          "name": "_projecID",
          "type": "uint256"
        }
      ],
      "name": "fund",
      "outputs": [],
      "stateMutability": "payable",
      "type": "function"
    },
    {
      "inputs": [
        {
          "internalType": "uint256",
          "name": "",
          "type": "uint256"
        },
        {
          "internalType": "address",
          "name": "",
          "type": "address"
        }
      ],
      "name": "funders",
      "outputs": [
        {
          "internalType": "uint256",
          "name": "",
          "type": "uint256"
        }
      ],
      "stateMutability": "view",
      "type": "function"
    },
    {
      "inputs": [],
      "name": "getCurrentProjectId",
      "outputs": [
        {
          "internalType": "uint256",
          "name": "",
          "type": "uint256"
        }
      ],
      "stateMutability": "view",
      "type": "function"
    },
    {
      "inputs": [],
      "name": "getDaoPercentage",
      "outputs": [
        {
          "internalType": "uint256",
          "name": "",
          "type": "uint256"
        }
      ],
      "stateMutability": "view",
      "type": "function"
    },
    {
      "inputs": [],
      "name": "getEnteranceFee",
      "outputs": [
        {
          "internalType": "uint256",
          "name": "",
          "type": "uint256"
        }
      ],
      "stateMutability": "view",
      "type": "function"
    },
    {
      "inputs": [
        {
          "internalType": "uint256",
          "name": "_projectID",
          "type": "uint256"
        }
      ],
      "name": "getFunderBalance",
      "outputs": [
        {
          "internalType": "uint256",
          "name": "",
          "type": "uint256"
        }
      ],
      "stateMutability": "view",
      "type": "function"
    },
    {
      "inputs": [
        {
          "internalType": "address",
          "name": "investor",
          "type": "address"
        }
      ],
      "name": "getInvestedProjects",
      "outputs": [
        {
          "internalType": "uint256[]",
          "name": "",
          "type": "uint256[]"
        }
      ],
      "stateMutability": "view",
      "type": "function"
    },
    {
      "inputs": [
        {
          "internalType": "uint256",
          "name": "_projectID",
          "type": "uint256"
        }
      ],
      "name": "getTimeleft",
      "outputs": [
        {
          "internalType": "uint256",
          "name": "a",
          "type": "uint256"
        },
        {
          "internalType": "uint256",
          "name": "b",
          "type": "uint256"
        }
      ],
      "stateMutability": "view",
      "type": "function"
    },
    {
      "inputs": [
        {
          "internalType": "address",
          "name": "account",
          "type": "address"
        },
        {
          "internalType": "uint256",
          "name": "blockNumber",
          "type": "uint256"
        }
      ],
      "name": "getVotes",
      "outputs": [
        {
          "internalType": "uint256",
          "name": "",
          "type": "uint256"
        }
      ],
      "stateMutability": "view",
      "type": "function"
    },
    {
      "inputs": [
        {
          "internalType": "address",
          "name": "account",
          "type": "address"
        },
        {
          "internalType": "uint256",
          "name": "blockNumber",
          "type": "uint256"
        },
        {
          "internalType": "bytes",
          "name": "params",
          "type": "bytes"
        }
      ],
      "name": "getVotesWithParams",
      "outputs": [
        {
          "internalType": "uint256",
          "name": "",
          "type": "uint256"
        }
      ],
      "stateMutability": "view",
      "type": "function"
    },
    {
      "inputs": [
        {
          "internalType": "uint256",
          "name": "proposalId",
          "type": "uint256"
        },
        {
          "internalType": "address",
          "name": "account",
          "type": "address"
        }
      ],
      "name": "hasVoted",
      "outputs": [
        {
          "internalType": "bool",
          "name": "",
          "type": "bool"
        }
      ],
      "stateMutability": "view",
      "type": "function"
    },
    {
      "inputs": [
        {
          "internalType": "address[]",
          "name": "targets",
          "type": "address[]"
        },
        {
          "internalType": "uint256[]",
          "name": "values",
          "type": "uint256[]"
        },
        {
          "internalType": "bytes[]",
          "name": "calldatas",
          "type": "bytes[]"
        },
        {
          "internalType": "bytes32",
          "name": "descriptionHash",
          "type": "bytes32"
        }
      ],
      "name": "hashProposal",
      "outputs": [
        {
          "internalType": "uint256",
          "name": "",
          "type": "uint256"
        }
      ],
      "stateMutability": "pure",
      "type": "function"
    },
    {
      "inputs": [
        {
          "internalType": "string",
          "name": "",
          "type": "string"
        }
      ],
      "name": "hashToProjectId",
      "outputs": [
        {
          "internalType": "uint256",
          "name": "",
          "type": "uint256"
        }
      ],
      "stateMutability": "view",
      "type": "function"
    },
    {
      "inputs": [
        {
          "internalType": "uint256",
          "name": "",
          "type": "uint256"
        }
      ],
      "name": "idToHash",
      "outputs": [
        {
          "internalType": "string",
          "name": "",
          "type": "string"
        }
      ],
      "stateMutability": "view",
      "type": "function"
    },
    {
      "inputs": [
        {
          "internalType": "address",
          "name": "",
          "type": "address"
        },
        {
          "internalType": "uint256",
          "name": "",
          "type": "uint256"
        }
      ],
      "name": "investedProjects",
      "outputs": [
        {
          "internalType": "uint256",
          "name": "",
          "type": "uint256"
        }
      ],
      "stateMutability": "view",
      "type": "function"
    },
    {
      "inputs": [
        {
          "internalType": "address",
          "name": "account",
          "type": "address"
        }
      ],
      "name": "isEnteranceFeePaid",
      "outputs": [
        {
          "internalType": "bool",
          "name": "",
          "type": "bool"
        }
      ],
      "stateMutability": "view",
      "type": "function"
    },
    {
      "inputs": [
        {
          "internalType": "uint256",
          "name": "_projectID",
          "type": "uint256"
        }
      ],
      "name": "is_funding",
      "outputs": [
        {
          "internalType": "bool",
          "name": "",
          "type": "bool"
        }
      ],
      "stateMutability": "view",
      "type": "function"
    },
    {
      "inputs": [],
      "name": "lastTimeStamp",
      "outputs": [
        {
          "internalType": "uint256",
          "name": "",
          "type": "uint256"
        }
      ],
      "stateMutability": "view",
      "type": "function"
    },
    {
      "inputs": [],
      "name": "name",
      "outputs": [
        {
          "internalType": "string",
          "name": "",
          "type": "string"
        }
      ],
      "stateMutability": "view",
      "type": "function"
    },
    {
      "inputs": [
        {
          "internalType": "address",
          "name": "",
          "type": "address"
        },
        {
          "internalType": "address",
          "name": "",
          "type": "address"
        },
        {
          "internalType": "uint256[]",
          "name": "",
          "type": "uint256[]"
        },
        {
          "internalType": "uint256[]",
          "name": "",
          "type": "uint256[]"
        },
        {
          "internalType": "bytes",
          "name": "",
          "type": "bytes"
        }
      ],
      "name": "onERC1155BatchReceived",
      "outputs": [
        {
          "internalType": "bytes4",
          "name": "",
          "type": "bytes4"
        }
      ],
      "stateMutability": "nonpayable",
      "type": "function"
    },
    {
      "inputs": [
        {
          "internalType": "address",
          "name": "",
          "type": "address"
        },
        {
          "internalType": "address",
          "name": "",
          "type": "address"
        },
        {
          "internalType": "uint256",
          "name": "",
          "type": "uint256"
        },
        {
          "internalType": "uint256",
          "name": "",
          "type": "uint256"
        },
        {
          "internalType": "bytes",
          "name": "",
          "type": "bytes"
        }
      ],
      "name": "onERC1155Received",
      "outputs": [
        {
          "internalType": "bytes4",
          "name": "",
          "type": "bytes4"
        }
      ],
      "stateMutability": "nonpayable",
      "type": "function"
    },
    {
      "inputs": [
        {
          "internalType": "address",
          "name": "",
          "type": "address"
        },
        {
          "internalType": "address",
          "name": "",
          "type": "address"
        },
        {
          "internalType": "uint256",
          "name": "",
          "type": "uint256"
        },
        {
          "internalType": "bytes",
          "name": "",
          "type": "bytes"
        }
      ],
      "name": "onERC721Received",
      "outputs": [
        {
          "internalType": "bytes4",
          "name": "",
          "type": "bytes4"
        }
      ],
      "stateMutability": "nonpayable",
      "type": "function"
    },
    {
      "inputs": [],
      "name": "owner",
      "outputs": [
        {
          "internalType": "address",
          "name": "",
          "type": "address"
        }
      ],
      "stateMutability": "view",
      "type": "function"
    },
    {
      "inputs": [],
      "name": "paySubmitFee",
      "outputs": [],
      "stateMutability": "payable",
      "type": "function"
    },
    {
      "inputs": [
        {
          "internalType": "bytes",
          "name": "performData",
          "type": "bytes"
        }
      ],
      "name": "performUpkeep",
      "outputs": [],
      "stateMutability": "nonpayable",
      "type": "function"
    },
    {
      "inputs": [
        {
          "internalType": "uint256",
          "name": "",
          "type": "uint256"
        }
      ],
      "name": "projectFundingGoalAmount",
      "outputs": [
        {
          "internalType": "uint256",
          "name": "",
          "type": "uint256"
        }
      ],
      "stateMutability": "view",
      "type": "function"
    },
    {
      "inputs": [
        {
          "internalType": "uint256",
          "name": "",
          "type": "uint256"
        }
      ],
      "name": "projectFunds",
      "outputs": [
        {
          "internalType": "uint256",
          "name": "",
          "type": "uint256"
        }
      ],
      "stateMutability": "view",
      "type": "function"
    },
    {
      "inputs": [],
      "name": "projectId",
      "outputs": [
        {
          "internalType": "uint256",
          "name": "",
          "type": "uint256"
        }
      ],
      "stateMutability": "view",
      "type": "function"
    },
    {
      "inputs": [
        {
          "internalType": "uint256",
          "name": "",
          "type": "uint256"
        }
      ],
      "name": "projectOwnerAddress",
      "outputs": [
        {
          "internalType": "address",
          "name": "",
          "type": "address"
        }
      ],
      "stateMutability": "view",
      "type": "function"
    },
    {
      "inputs": [
        {
          "internalType": "uint256",
          "name": "",
          "type": "uint256"
        }
      ],
      "name": "projectOwnerAddressIndex",
      "outputs": [
        {
          "internalType": "address",
          "name": "",
          "type": "address"
        }
      ],
      "stateMutability": "view",
      "type": "function"
    },
    {
      "inputs": [
        {
          "internalType": "uint256",
          "name": "",
          "type": "uint256"
        },
        {
          "internalType": "uint256",
          "name": "",
          "type": "uint256"
        }
      ],
      "name": "projectToTime",
      "outputs": [
        {
          "internalType": "uint256",
          "name": "",
          "type": "uint256"
        }
      ],
      "stateMutability": "view",
      "type": "function"
    },
    {
      "inputs": [
        {
          "internalType": "uint256",
          "name": "proposalId",
          "type": "uint256"
        }
      ],
      "name": "proposalDeadline",
      "outputs": [
        {
          "internalType": "uint256",
          "name": "",
          "type": "uint256"
        }
      ],
      "stateMutability": "view",
      "type": "function"
    },
    {
      "inputs": [
        {
          "internalType": "uint256",
          "name": "proposalId",
          "type": "uint256"
        }
      ],
      "name": "proposalEta",
      "outputs": [
        {
          "internalType": "uint256",
          "name": "",
          "type": "uint256"
        }
      ],
      "stateMutability": "view",
      "type": "function"
    },
    {
      "inputs": [
        {
          "internalType": "uint256",
          "name": "proposalId",
          "type": "uint256"
        }
      ],
      "name": "proposalSnapshot",
      "outputs": [
        {
          "internalType": "uint256",
          "name": "",
          "type": "uint256"
        }
      ],
      "stateMutability": "view",
      "type": "function"
    },
    {
      "inputs": [],
      "name": "proposalThreshold",
      "outputs": [
        {
          "internalType": "uint256",
          "name": "",
          "type": "uint256"
        }
      ],
      "stateMutability": "view",
      "type": "function"
    },
    {
      "inputs": [
        {
          "internalType": "uint256",
          "name": "proposalId",
          "type": "uint256"
        }
      ],
      "name": "proposalVotes",
      "outputs": [
        {
          "internalType": "uint256",
          "name": "againstVotes",
          "type": "uint256"
        },
        {
          "internalType": "uint256",
          "name": "forVotes",
          "type": "uint256"
        },
        {
          "internalType": "uint256",
          "name": "abstainVotes",
          "type": "uint256"
        }
      ],
      "stateMutability": "view",
      "type": "function"
    },
    {
      "inputs": [
        {
          "internalType": "address[]",
          "name": "targets",
          "type": "address[]"
        },
        {
          "internalType": "uint256[]",
          "name": "values",
          "type": "uint256[]"
        },
        {
          "internalType": "bytes[]",
          "name": "calldatas",
          "type": "bytes[]"
        },
        {
          "internalType": "string",
          "name": "description",
          "type": "string"
        }
      ],
      "name": "propose",
      "outputs": [
        {
          "internalType": "uint256",
          "name": "",
          "type": "uint256"
        }
      ],
      "stateMutability": "nonpayable",
      "type": "function"
    },
    {
      "inputs": [
        {
          "internalType": "address[]",
          "name": "targets",
          "type": "address[]"
        },
        {
          "internalType": "uint256[]",
          "name": "values",
          "type": "uint256[]"
        },
        {
          "internalType": "bytes[]",
          "name": "calldatas",
          "type": "bytes[]"
        },
        {
          "internalType": "bytes32",
          "name": "descriptionHash",
          "type": "bytes32"
        }
      ],
      "name": "queue",
      "outputs": [
        {
          "internalType": "uint256",
          "name": "",
          "type": "uint256"
        }
      ],
      "stateMutability": "nonpayable",
      "type": "function"
    },
    {
      "inputs": [
        {
          "internalType": "uint256",
          "name": "blockNumber",
          "type": "uint256"
        }
      ],
      "name": "quorum",
      "outputs": [
        {
          "internalType": "uint256",
          "name": "",
          "type": "uint256"
        }
      ],
      "stateMutability": "view",
      "type": "function"
    },
    {
      "inputs": [],
      "name": "quorumDenominator",
      "outputs": [
        {
          "internalType": "uint256",
          "name": "",
          "type": "uint256"
        }
      ],
      "stateMutability": "view",
      "type": "function"
    },
    {
      "inputs": [
        {
          "internalType": "uint256",
          "name": "blockNumber",
          "type": "uint256"
        }
      ],
      "name": "quorumNumerator",
      "outputs": [
        {
          "internalType": "uint256",
          "name": "",
          "type": "uint256"
        }
      ],
      "stateMutability": "view",
      "type": "function"
    },
    {
      "inputs": [],
      "name": "quorumNumerator",
      "outputs": [
        {
          "internalType": "uint256",
          "name": "",
          "type": "uint256"
        }
      ],
      "stateMutability": "view",
      "type": "function"
    },
    {
      "inputs": [
        {
          "internalType": "address",
          "name": "target",
          "type": "address"
        },
        {
          "internalType": "uint256",
          "name": "value",
          "type": "uint256"
        },
        {
          "internalType": "bytes",
          "name": "data",
          "type": "bytes"
        }
      ],
      "name": "relay",
      "outputs": [],
      "stateMutability": "nonpayable",
      "type": "function"
    },
    {
      "inputs": [],
      "name": "renounceOwnership",
      "outputs": [],
      "stateMutability": "nonpayable",
      "type": "function"
    },
    {
      "inputs": [
        {
          "internalType": "uint256",
          "name": "newProposalThreshold",
          "type": "uint256"
        }
      ],
      "name": "setProposalThreshold",
      "outputs": [],
      "stateMutability": "nonpayable",
      "type": "function"
    },
    {
      "inputs": [
        {
          "internalType": "uint256",
          "name": "newVotingDelay",
          "type": "uint256"
        }
      ],
      "name": "setVotingDelay",
      "outputs": [],
      "stateMutability": "nonpayable",
      "type": "function"
    },
    {
      "inputs": [
        {
          "internalType": "uint256",
          "name": "newVotingPeriod",
          "type": "uint256"
        }
      ],
      "name": "setVotingPeriod",
      "outputs": [],
      "stateMutability": "nonpayable",
      "type": "function"
    },
    {
      "inputs": [
        {
          "internalType": "uint256",
          "name": "proposalId",
          "type": "uint256"
        }
      ],
      "name": "state",
      "outputs": [
        {
          "internalType": "enum IGovernor.ProposalState",
          "name": "",
          "type": "uint8"
        }
      ],
      "stateMutability": "view",
      "type": "function"
    },
    {
      "inputs": [
        {
          "internalType": "bytes4",
          "name": "interfaceId",
          "type": "bytes4"
        }
      ],
      "name": "supportsInterface",
      "outputs": [
        {
          "internalType": "bool",
          "name": "",
          "type": "bool"
        }
      ],
      "stateMutability": "view",
      "type": "function"
    },
    {
      "inputs": [
        {
          "internalType": "uint256",
          "name": "",
          "type": "uint256"
        }
      ],
      "name": "time",
      "outputs": [
        {
          "internalType": "uint256",
          "name": "",
          "type": "uint256"
        }
      ],
      "stateMutability": "view",
      "type": "function"
    },
    {
      "inputs": [],
      "name": "timelock",
      "outputs": [
        {
          "internalType": "address",
          "name": "",
          "type": "address"
        }
      ],
      "stateMutability": "view",
      "type": "function"
    },
    {
      "inputs": [],
      "name": "token",
      "outputs": [
        {
          "internalType": "contract IVotes",
          "name": "",
          "type": "address"
        }
      ],
      "stateMutability": "view",
      "type": "function"
    },
    {
      "inputs": [
        {
          "internalType": "address",
          "name": "newOwner",
          "type": "address"
        }
      ],
      "name": "transferOwnership",
      "outputs": [],
      "stateMutability": "nonpayable",
      "type": "function"
    },
    {
      "inputs": [
        {
          "internalType": "uint256",
          "name": "newQuorumNumerator",
          "type": "uint256"
        }
      ],
      "name": "updateQuorumNumerator",
      "outputs": [],
      "stateMutability": "nonpayable",
      "type": "function"
    },
    {
      "inputs": [
        {
          "internalType": "contract TimelockController",
          "name": "newTimelock",
          "type": "address"
        }
      ],
      "name": "updateTimelock",
      "outputs": [],
      "stateMutability": "nonpayable",
      "type": "function"
    },
    {
      "inputs": [],
      "name": "version",
      "outputs": [
        {
          "internalType": "string",
          "name": "",
          "type": "string"
        }
      ],
      "stateMutability": "view",
      "type": "function"
    },
    {
      "inputs": [],
      "name": "votingDelay",
      "outputs": [
        {
          "internalType": "uint256",
          "name": "",
          "type": "uint256"
        }
      ],
      "stateMutability": "view",
      "type": "function"
    },
    {
      "inputs": [],
      "name": "votingPeriod",
      "outputs": [
        {
          "internalType": "uint256",
          "name": "",
          "type": "uint256"
        }
      ],
      "stateMutability": "view",
      "type": "function"
    },
    {
      "inputs": [
        {
          "internalType": "uint256",
          "name": "_projectID",
          "type": "uint256"
        }
      ],
      "name": "withdrawFund",
      "outputs": [],
      "stateMutability": "nonpayable",
      "type": "function"
    },
    {
      "stateMutability": "payable",
      "type": "receive"
    }
  ],
  "transactionHash": "0x26e79c2e807253ac11dfeda2b147e04b966a8a219ad2a9d6fcd6c4dc1b90e49c",
  "args": [
    "0xe7f1725E7734CE288F8367e1Bb143E90bb3F0512",
    "0x5FbDB2315678afecb367f032d93F642f64180aa3",
    0,
    50,
    0,
    "10000000000000000",
    "10"
  ],
  "numDeployments": 1,
  "solcInputHash": "a1407720c5f6b2a7e45e84dbad9d7fc2",
  "bytecode": "0x6101606040526001600d553480156200001757600080fd5b5060405162005b4138038062005b418339810160408190526200003a9162000882565b818187858a898960006040518060400160405280601081526020016f11dbdd995c9b995c90dbdb9d1c9858dd60821b815250806200007d6200019260201b60201c565b815160208084019190912082518383012060e08290526101008190524660a0818152604080517f8b73c3c69bb8fe3d512ecc4cf759cc79239f7b179b0ffacaa9a75d522b39400f81880181905281830187905260608201869052608082019490945230818401528151808203909301835260c00190528051940193909320919290916080523060c0526101205250508251620001239250600091506020840190620007cd565b5062000131905083620001ad565b6200013c82620001ee565b620001478162000295565b5050506001600160a01b0316610140526200016281620002d6565b506200016e816200044e565b506200017a33620004b7565b42600e55600f55601055506200096795505050505050565b6040805180820190915260018152603160f81b602082015290565b60045460408051918252602082018390527fc565b045403dc03c2eea82b81a0465edad9e2e7fc4d97e11421c209da93d7a93910160405180910390a1600455565b60008111620002545760405162461bcd60e51b815260206004820152602760248201527f476f7665726e6f7253657474696e67733a20766f74696e6720706572696f6420604482015266746f6f206c6f7760c81b60648201526084015b60405180910390fd5b60055460408051918252602082018390527f7e3f7f0708a84de9203036abaa450dccc85ad5ff52f78c170f3edb55cf5e8828910160405180910390a1600555565b60065460408051918252602082018390527fccb45da8d5717e6c4544694297c4ba5cf151d455c9bb0ed4fc7a38411bc05461910160405180910390a1600655565b60648111156200035b5760405162461bcd60e51b815260206004820152604360248201527f476f7665726e6f72566f74657351756f72756d4672616374696f6e3a2071756f60448201527f72756d4e756d657261746f72206f7665722071756f72756d44656e6f6d696e616064820152623a37b960e91b608482015260a4016200024b565b60006200036762000509565b90508015801590620003795750600954155b15620003f45760096000016040518060400160405280600063ffffffff168152602001620003b2846200053860201b620026e91760201c565b6001600160e01b0390811690915282546001810184556000938452602093849020835194909301519091166401000000000263ffffffff909316929092179101555b6200040f826009620005a760201b620027561790919060201c565b505060408051828152602081018490527f0553476bf02ef2726e8ce5ced78d63e26e602e4a2257b1f559418e24b4633997910160405180910390a15050565b600a54604080516001600160a01b03928316815291831660208301527f08f74ea46ef7894f65eabfb5e6e695de773a000b47c529ab559178069b226401910160405180910390a1600a80546001600160a01b0319166001600160a01b0392909216919091179055565b600c80546001600160a01b038381166001600160a01b0319831681179093556040519116919082907f8be0079c531659141344cd1fd0a4f28419497f9722a3daafe3b4186f6b6457e090600090a35050565b6009546000901562000531576200052c60096200070360201b620028811760201c565b905090565b5060085490565b60006001600160e01b03821115620005a35760405162461bcd60e51b815260206004820152602760248201527f53616665436173743a2076616c756520646f65736e27742066697420696e20326044820152663234206269747360c81b60648201526084016200024b565b5090565b8154600090819081620005ba8662000703565b9050600082118015620005fe57504386620005d7600185620008ee565b81548110620005ea57620005ea62000914565b60009182526020909120015463ffffffff16145b1562000672576200061a856200053860201b620026e91760201c565b8662000628600185620008ee565b815481106200063b576200063b62000914565b9060005260206000200160000160046101000a8154816001600160e01b0302191690836001600160e01b03160217905550620006fa565b85600001604051806040016040528062000697436200076660201b620028dd1760201c565b63ffffffff168152602001620006b8886200053860201b620026e91760201c565b6001600160e01b0390811690915282546001810184556000938452602093849020835194909301519091166401000000000263ffffffff909316929092179101555b95939450505050565b805460009080156200075357826200071d600183620008ee565b8154811062000730576200073062000914565b60009182526020909120015464010000000090046001600160e01b031662000756565b60005b6001600160e01b03169392505050565b600063ffffffff821115620005a35760405162461bcd60e51b815260206004820152602660248201527f53616665436173743a2076616c756520646f65736e27742066697420696e203360448201526532206269747360d01b60648201526084016200024b565b828054620007db906200092a565b90600052602060002090601f016020900481019282620007ff57600085556200084a565b82601f106200081a57805160ff19168380011785556200084a565b828001600101855582156200084a579182015b828111156200084a5782518255916020019190600101906200082d565b50620005a39291505b80821115620005a3576000815560010162000853565b6001600160a01b03811681146200087f57600080fd5b50565b600080600080600080600060e0888a0312156200089e57600080fd5b8751620008ab8162000869565b6020890151909750620008be8162000869565b604089015160608a015160808b015160a08c015160c0909c01519a9d939c50919a90999198509650945092505050565b6000828210156200090f57634e487b7160e01b600052601160045260246000fd5b500390565b634e487b7160e01b600052603260045260246000fd5b600181811c908216806200093f57607f821691505b602082108114156200096157634e487b7160e01b600052602260045260246000fd5b50919050565b60805160a05160c05160e051610100516101205161014051615171620009d0600039600081816111180152818161345c015261366c015260006137f701526000613846015260006138210152600061377a015260006137a4015260006137ce01526151716000f3fe6080604052600436106104985760003560e01c80637d5e81e211610260578063c0d5532911610144578063e0c410cc116100c1578063ece40cc111610085578063ece40cc11461107a578063f23a6e611461109a578063f2fde38b146110c6578063f8ce560a146110e6578063fc0c546a14611106578063fea856a11461113a57600080fd5b8063e0c410cc14610fb5578063e59ca39e14610fe5578063e840580114611005578063ea0217cf1461103a578063eb9019d41461105a57600080fd5b8063cf68625911610108578063cf68625914610ead578063d33219b414610ee5578063dc73204b14610f03578063dd4e2ba514610f3b578063deaaa7cc14610f8157600080fd5b8063c0d5532914610e0c578063c28bc2fa14610e45578063c59057e414610e65578063c868ba9a14610e85578063ca1d209d14610e9a57600080fd5b80639a802a6d116101dd578063b58131b0116101a1578063b58131b014610d3c578063b59d18a014610d51578063bba9c21914610d7e578063bc197c8114610dab578063bd1c9e4914610dd7578063c01f9e3714610dec57600080fd5b80639a802a6d14610ca7578063a7713a7014610cc7578063a890c91014610cdc578063ab58fb8e14610cfc578063abe1aae614610d1c57600080fd5b80638da5cb5b116102245780638da5cb5b14610c0f5780638fb5548f14610c2d578063902bfa2414610c4d57806396aa167e14610c7d57806397c3d33414610c9357600080fd5b80637d5e81e214610b53578063809b268e14610b73578063868661cb14610ba357806387030f4d14610bb95780638bca74cf14610bd957600080fd5b80633fd1c809116103875780635ced7d401161030457806370084d7a116102c857806370084d7a14610a8157806370b0f66014610ab157806370c753f014610ad1578063715018a614610af1578063794d556014610b065780637b3c71d314610b3357600080fd5b80635ced7d40146109b65780635f398a14146109e357806360c4247f14610a035780636e04ff0d14610a235780636ee8e8ef14610a5157600080fd5b8063535bf50f1161034b578063535bf50f146108d5578063544ffc9c146108ea57806354fd4d501461093f57806356781388146109695780635b6b46521461098957600080fd5b80633fd1c809146107c657806343859632146107fe578063446a156f146108485780634585e33b146108855780634fac2bb7146108a557600080fd5b8063160cbed7116104155780633932abb1116103d95780633932abb1146107385780633bccf4fd1461074d5780633e4f49e61461076d5780633f3b3b271461079a5780633fafa127146107b057600080fd5b8063160cbed7146106845780632656227d146106a45780632d63f693146106b75780632fe3e261146106d757806335debf2d1461070b57600080fd5b80630cee17251161045c5780630cee17251461057a578063141a6c221461059a578063148038b0146105ba578063150b7a02146105f2578063156277be1461063657600080fd5b806301ffc9a7146104c057806302a251a3146104f5578063034201811461051857806306f3f9e61461053857806306fdde031461055857600080fd5b366104bb57306104a6611142565b6001600160a01b0316146104b957600080fd5b005b600080fd5b3480156104cc57600080fd5b506104e06104db36600461415f565b61115b565b60405190151581526020015b60405180910390f35b34801561050157600080fd5b5061050a61116c565b6040519081526020016104ec565b34801561052457600080fd5b5061050a610533366004614295565b611177565b34801561054457600080fd5b506104b961055336600461433b565b61126f565b34801561056457600080fd5b5061056d611307565b6040516104ec91906143ac565b34801561058657600080fd5b506104b961059536600461433b565b611399565b3480156105a657600080fd5b5061050a6105b53660046143bf565b611497565b3480156105c657600080fd5b5061050a6105d5366004614408565b601660209081526000928352604080842090915290825290205481565b3480156105fe57600080fd5b5061061d61060d366004614438565b630a85bd0160e11b949350505050565b6040516001600160e01b031990911681526020016104ec565b34801561064257600080fd5b5061066c61065136600461433b565b601a602052600090815260409020546001600160a01b031681565b6040516001600160a01b0390911681526020016104ec565b34801561069057600080fd5b5061050a61069f366004614614565b6114bf565b61050a6106b2366004614614565b6116dd565b3480156106c357600080fd5b5061050a6106d236600461433b565b6117ca565b3480156106e357600080fd5b5061050a7fb3b3f3b703cd84ce352197dcff232b1b5d3cfb2025ce47cf04742d0651f1af8881565b34801561071757600080fd5b5061072b6107263660046146a3565b611801565b6040516104ec91906146fb565b34801561074457600080fd5b5061050a61186d565b34801561075957600080fd5b5061050a61076836600461470e565b611878565b34801561077957600080fd5b5061078d61078836600461433b565b6118ee565b6040516104ec9190614772565b3480156107a657600080fd5b5061050a600e5481565b3480156107bc57600080fd5b5061050a600d5481565b3480156107d257600080fd5b5061050a6107e136600461433b565b600090815260166020908152604080832033845290915290205490565b34801561080a57600080fd5b506104e0610819366004614408565b60008281526007602090815260408083206001600160a01b038516845260030190915290205460ff1692915050565b34801561085457600080fd5b5061087861086336600461433b565b6000908152601b602052604090205460ff1690565b6040516104ec919061478c565b34801561089157600080fd5b506104b96108a03660046147a0565b6118f9565b3480156108b157600080fd5b506104e06108c036600461433b565b60196020526000908152604090205460ff1681565b3480156108e157600080fd5b5060105461050a565b3480156108f657600080fd5b5061092461090536600461433b565b6000908152600760205260409020805460018201546002909201549092565b604080519384526020840192909252908201526060016104ec565b34801561094b57600080fd5b506040805180820190915260018152603160f81b602082015261056d565b34801561097557600080fd5b5061050a6109843660046147e1565b611aee565b34801561099557600080fd5b5061050a6109a436600461433b565b60186020526000908152604090205481565b3480156109c257600080fd5b5061050a6109d136600461433b565b60136020526000908152604090205481565b3480156109ef57600080fd5b5061050a6109fe36600461480d565b611b17565b348015610a0f57600080fd5b5061050a610a1e36600461433b565b611b61565b348015610a2f57600080fd5b50610a43610a3e3660046143bf565b611bf7565b6040516104ec929190614890565b348015610a5d57600080fd5b506104e0610a6c3660046146a3565b601c6020526000908152604090205460ff1681565b348015610a8d57600080fd5b50610878610a9c36600461433b565b601b6020526000908152604090205460ff1681565b348015610abd57600080fd5b506104b9610acc36600461433b565b611c93565b348015610add57600080fd5b5061050a610aec3660046148ab565b611d1f565b348015610afd57600080fd5b506104b9611d50565b348015610b1257600080fd5b5061050a610b2136600461433b565b60176020526000908152604090205481565b348015610b3f57600080fd5b5061050a610b4e3660046148d7565b611d64565b348015610b5f57600080fd5b5061050a610b6e366004614930565b611db6565b348015610b7f57600080fd5b506104e0610b8e36600461433b565b60009081526011602052604090205460ff1690565b348015610baf57600080fd5b5061050a600f5481565b348015610bc557600080fd5b506104b9610bd436600461433b565b611dfb565b348015610be557600080fd5b5061066c610bf436600461433b565b601e602052600090815260409020546001600160a01b031681565b348015610c1b57600080fd5b50600c546001600160a01b031661066c565b348015610c3957600080fd5b5061056d610c4836600461433b565b611e49565b348015610c5957600080fd5b506104e0610c6836600461433b565b60116020526000908152604090205460ff1681565b348015610c8957600080fd5b5061050a60105481565b348015610c9f57600080fd5b50606461050a565b348015610cb357600080fd5b5061050a610cc23660046149d0565b611ee3565b348015610cd357600080fd5b5061050a611efa565b348015610ce857600080fd5b506104b9610cf73660046146a3565b611f16565b348015610d0857600080fd5b5061050a610d1736600461433b565b611fa2565b348015610d2857600080fd5b5061056d610d3736600461433b565b61204b565b348015610d4857600080fd5b5061050a6120e3565b348015610d5d57600080fd5b5061050a610d6c36600461433b565b60009081526018602052604090205490565b348015610d8a57600080fd5b5061050a610d9936600461433b565b60009081526017602052604090205490565b348015610db757600080fd5b5061061d610dc6366004614a28565b63bc197c8160e01b95945050505050565b348015610de357600080fd5b50600f5461050a565b348015610df857600080fd5b5061050a610e0736600461433b565b6120ee565b348015610e1857600080fd5b506104e0610e273660046146a3565b6001600160a01b03166000908152601c602052604090205460ff1690565b348015610e5157600080fd5b506104b9610e60366004614abb565b61211d565b348015610e7157600080fd5b5061050a610e80366004614614565b6121e9565b348015610e9157600080fd5b50600d5461050a565b6104b9610ea836600461433b565b612223565b348015610eb957600080fd5b5061050a610ec83660046143bf565b805160208183018101805160148252928201919093012091525481565b348015610ef157600080fd5b50600a546001600160a01b031661066c565b348015610f0f57600080fd5b5061050a610f1e366004614afe565b601260209081526000928352604080842090915290825290205481565b348015610f4757600080fd5b506040805180820190915260208082527f737570706f72743d627261766f2671756f72756d3d666f722c6162737461696e9082015261056d565b348015610f8d57600080fd5b5061050a7f150214d74d59b7d1e90c73fc22ef3d991dd0a76b046543d4d80ab92d2a50328f81565b348015610fc157600080fd5b506104e0610fd036600461433b565b60009081526019602052604090205460ff1690565b348015610ff157600080fd5b506104b9611000366004614b20565b6122d2565b34801561101157600080fd5b5061102561102036600461433b565b612467565b604080519283526020830191909152016104ec565b34801561104657600080fd5b506104b961105536600461433b565b6124ab565b34801561106657600080fd5b5061050a6110753660046148ab565b612537565b34801561108657600080fd5b506104b961109536600461433b565b612558565b3480156110a657600080fd5b5061061d6110b5366004614b73565b63f23a6e6160e01b95945050505050565b3480156110d257600080fd5b506104b96110e13660046146a3565b6125e4565b3480156110f257600080fd5b5061050a61110136600461433b565b61265a565b34801561111257600080fd5b5061066c7f000000000000000000000000000000000000000000000000000000000000000081565b6104b9612665565b6000611156600a546001600160a01b031690565b905090565b600061116682612942565b92915050565b600061115660055490565b60008061121b6112137fb3b3f3b703cd84ce352197dcff232b1b5d3cfb2025ce47cf04742d0651f1af888c8c8c8c6040516111b3929190614bdb565b60405180910390208b805190602001206040516020016111f8959493929190948552602085019390935260ff9190911660408401526060830152608082015260a00190565b60405160208183030381529060405280519060200120612967565b8686866129b5565b90506112618a828b8b8b8080601f0160208091040260200160405190810160405280939291908181526020018383808284376000920191909152508d92506129d3915050565b9a9950505050505050505050565b611277611142565b6001600160a01b0316336001600160a01b0316146112b05760405162461bcd60e51b81526004016112a790614beb565b60405180910390fd5b306112b9611142565b6001600160a01b0316146112fb57600080366040516112d9929190614bdb565b604051809103902090505b806112ef6002612b35565b146112f9576112e4565b505b61130481612bb4565b50565b60606000805461131690614c22565b80601f016020809104026020016040519081016040528092919081815260200182805461134290614c22565b801561138f5780601f106113645761010080835404028352916020019161138f565b820191906000526020600020905b81548152906001019060200180831161137257829003601f168201915b5050505050905090565b60026000828152601b602052604090205460ff1660038111156113be576113be61475c565b141561147e57600081815260166020908152604080832033808552925280832080549084905590519092919083908381818185875af1925050503d8060008114611424576040519150601f19603f3d011682016040523d82523d6000602084013e611429565b606091505b505090508061144b576040516349b854a360e11b815260040160405180910390fd5b600d5460405133907f370c08173448a868859170331cf95622fc6b9ca192121cc9aae246cf05b3ab7c90600090a3505050565b604051633cb39c3760e01b815260040160405180910390fd5b60006014826040516114a99190614c5d565b9081526020016040518091039020549050919050565b6000806114ce868686866121e9565b905060046114db826118ee565b60078111156114ec576114ec61475c565b146115095760405162461bcd60e51b81526004016112a790614c79565b600a546040805163793d064960e11b815290516000926001600160a01b03169163f27a0c92916004808301926020929190829003018186803b15801561154e57600080fd5b505afa158015611562573d6000803e3d6000fd5b505050506040513d601f19601f820116820180604052508101906115869190614cba565b600a5460405163b1c5f42760e01b81529192506001600160a01b03169063b1c5f427906115c0908a908a908a906000908b90600401614d61565b60206040518083038186803b1580156115d857600080fd5b505afa1580156115ec573d6000803e3d6000fd5b505050506040513d601f19601f820116820180604052508101906116109190614cba565b6000838152600b602052604080822092909255600a5491516308f2a0bb60e41b81526001600160a01b0390921691638f2a0bb09161165b918b918b918b91908b908990600401614daf565b600060405180830381600087803b15801561167557600080fd5b505af1158015611689573d6000803e3d6000fd5b505050507f9a2e42fd6722813d69113e7d0079d3d940171428df7373df9c7f7617cfda28928282426116bb9190614e1d565b6040805192835260208301919091520160405180910390a15095945050505050565b6000806116ec868686866121e9565b905060006116f9826118ee565b9050600481600781111561170f5761170f61475c565b148061172c5750600581600781111561172a5761172a61475c565b145b6117485760405162461bcd60e51b81526004016112a790614c79565b600082815260016020818152604092839020600201805460ff191690921790915590518381527f712ae1383f79ac853f8d882153778e0260ef8f03b504e2866e0593e04d2b291f910160405180910390a16117a68288888888612d01565b6117b38288888888612da3565b6117c08288888888612db0565b5095945050505050565b60008181526001602090815260408083208151928301909152546001600160401b0316908190525b6001600160401b031692915050565b6001600160a01b0381166000908152601d602090815260409182902080548351818402810184019094528084526060939283018282801561186157602002820191906000526020600020905b81548152602001906001019080831161184d575b50505050509050919050565b600061115660045490565b604080517f150214d74d59b7d1e90c73fc22ef3d991dd0a76b046543d4d80ab92d2a50328f602082015290810186905260ff8516606082015260009081906118c690611213906080016111f8565b90506118e387828860405180602001604052806000815250612de9565b979650505050505050565b600061116682612e0c565b600061191360405180602001604052806000815250611bf7565b509050806119345760405163110f380560e21b815260040160405180910390fd5b60006119408385614e35565b6000818152601160209081526040808320805460ff19908116909155601983528184208054909116905560188252808320546017909252909120549192501015611aa7576000818152601b60205260408120805460ff19166001179055600f546064906119ad9082614e53565b6000848152601760205260409020546119c69190614e6a565b6119d09190614e89565b6000838152601760209081526040808320839055601a90915280822054905192935090916001600160a01b039091169083908381818185875af1925050503d8060008114611a3a576040519150601f19603f3d011682016040523d82523d6000602084013e611a3f565b606091505b5050905080611a75576000838152601760205260409081902054905163265b39fb60e01b815260048101919091526024016112a7565b60405183907f1fd348a1f60f7b0ef569f04e42cfb3a6ff4c91400932970947875415514ad17290600090a25050611ae8565b6000818152601b6020526040808220805460ff191660021790555182917f4540ebb54491dc4fd8cd7a13ba536a737551e94cf1d0ed602242bdec63da4d0391a25b50505050565b600080339050611b0f84828560405180602001604052806000815250612de9565b949350505050565b6000803390506118e387828888888080601f0160208091040260200160405190810160405280939291908181526020018383808284376000920191909152508a92506129d3915050565b60095460009080611b76575050600854919050565b60006009611b85600184614e53565b81548110611b9557611b95614eab565b60009182526020918290206040805180820190915291015463ffffffff81168083526401000000009091046001600160e01b03169282019290925291508410611bec57602001516001600160e01b03169392505050565b611b0f600985612f74565b6000606060015b600d548111611c8d5760008181526011602052604090205460ff1615611c7b5760008181526013602090815260408083205460128352818420818552909252822054611c4a9042614e53565b1190508093508315611c7957604080516020810184905201604051602081830303815290604052925050611c8d565b505b80611c8581614ec1565b915050611bfe565b50915091565b611c9b611142565b6001600160a01b0316336001600160a01b031614611ccb5760405162461bcd60e51b81526004016112a790614beb565b30611cd4611142565b6001600160a01b031614611d165760008036604051611cf4929190614bdb565b604051809103902090505b80611d0a6002612b35565b14611d1457611cff565b505b61130481613083565b601d6020528160005260406000208181548110611d3b57600080fd5b90600052602060002001600091509150505481565b611d586130c4565b611d62600061311e565b565b600080339050611dac86828787878080601f016020809104026020016040519081016040528093929190818152602001838380828437600092019190915250612de992505050565b9695505050505050565b336000908152601c602052604081205460ff16611de657604051634018425360e01b815260040160405180910390fd5b611df285858585613170565b95945050505050565b611e036130c4565b6000908152601960209081526040808320805460ff19908116909155600d8054855260118452828520805483169055548452601b90925290912080549091166003179055565b60156020526000908152604090208054611e6290614c22565b80601f0160208091040260200160405190810160405280929190818152602001828054611e8e90614c22565b8015611edb5780601f10611eb057610100808354040283529160200191611edb565b820191906000526020600020905b815481529060010190602001808311611ebe57829003601f168201915b505050505081565b6000611ef0848484613433565b90505b9392505050565b60095460009015611f0f576111566009612881565b5060085490565b611f1e611142565b6001600160a01b0316336001600160a01b031614611f4e5760405162461bcd60e51b81526004016112a790614beb565b30611f57611142565b6001600160a01b031614611f995760008036604051611f77929190614bdb565b604051809103902090505b80611f8d6002612b35565b14611f9757611f82565b505b611304816134d8565b600a546000828152600b602052604080822054905163d45c443560e01b81526004810191909152909182916001600160a01b039091169063d45c44359060240160206040518083038186803b158015611ffa57600080fd5b505afa15801561200e573d6000803e3d6000fd5b505050506040513d601f19601f820116820180604052508101906120329190614cba565b9050806001146120425780611ef3565b60009392505050565b600081815260156020526040902080546060919061206890614c22565b80601f016020809104026020016040519081016040528092919081815260200182805461209490614c22565b80156118615780601f106120b657610100808354040283529160200191611861565b820191906000526020600020905b8154815290600101906020018083116120c45750939695505050505050565b600061115660065490565b60008181526001602081815260408084208151928301909152909101546001600160401b0316908190526117f2565b612125611142565b6001600160a01b0316336001600160a01b0316146121555760405162461bcd60e51b81526004016112a790614beb565b3061215e611142565b6001600160a01b0316146121a0576000803660405161217e929190614bdb565b604051809103902090505b806121946002612b35565b1461219e57612189565b505b6121e28483838080601f016020809104026020016040519081016040528093929190818152602001838380828437600092019190915250889250613541915050565b5050505050565b6000848484846040516020016122029493929190614edc565b60408051601f19818403018152919052805160209091012095945050505050565b600081815260196020526040902054819060ff166122545760405163528d75ab60e01b815260040160405180910390fd5b60008281526016602090815260408083203384529091528120805434929061227d908490614e1d565b9091555050600082815260176020526040812080543492906122a0908490614e1d565b90915550506040805160208082018352848252336000908152601d909152919091206122cd916001614090565b505050565b6122da6130c4565b6000818152601e60209081526040808320546001600160a01b03168352601c90915290205460ff1661231f576040516305ed74eb60e01b815260040160405180910390fd5b600d80546000908152601260209081526040808320868452825280832042905583548352601b8252808320805460ff1916905583548352601382528083208690558354835260189091529081902085905590549051601490612382908790614c5d565b908152604080516020928190038301902092909255600d546000908152601582529190912085516123b5928701906140d7565b506000818152601e6020908152604080832054600d80548552601a845282852080546001600160a01b0319166001600160a01b03909316929092179091558054845260198352818420805460ff1990811660019081179092558254865260119094528285208054909416179092559054905190917f786d1c7563663debc82f8c0117f799155168b2e814d7030810e1902c91ddf08d91a2600d805490600061245c83614ec1565b919050555050505050565b60008181526012602090815260408083206013835281842054845290915281205481906124949042614e53565b600093845260136020526040909320549293915050565b6124b3611142565b6001600160a01b0316336001600160a01b0316146124e35760405162461bcd60e51b81526004016112a790614beb565b306124ec611142565b6001600160a01b03161461252e576000803660405161250c929190614bdb565b604051809103902090505b806125226002612b35565b1461252c57612517565b505b61130481613567565b6000611ef3838361255360408051602081019091526000815290565b613433565b612560611142565b6001600160a01b0316336001600160a01b0316146125905760405162461bcd60e51b81526004016112a790614beb565b30612599611142565b6001600160a01b0316146125db57600080366040516125b9929190614bdb565b604051809103902090505b806125cf6002612b35565b146125d9576125c4565b505b61130481613608565b6125ec6130c4565b6001600160a01b0381166126515760405162461bcd60e51b815260206004820152602660248201527f4f776e61626c653a206e6577206f776e657220697320746865207a65726f206160448201526564647265737360d01b60648201526084016112a7565b6113048161311e565b600061116682613649565b601054341015612688576040516318f722c360e21b815260040160405180910390fd5b336000818152601c60209081526040808320805460ff19166001179055600d548352601e90915280822080546001600160a01b03191684179055517f08589d6aa50e04ad7909247eece8eb5c4e8ab2d708d7d76becf8a96298b6ee4f9190a2565b60006001600160e01b038211156127525760405162461bcd60e51b815260206004820152602760248201527f53616665436173743a2076616c756520646f65736e27742066697420696e20326044820152663234206269747360c81b60648201526084016112a7565b5090565b815460009081908161276786612881565b90506000821180156127a557504386612781600185614e53565b8154811061279157612791614eab565b60009182526020909120015463ffffffff16145b15612805576127b3856126e9565b866127bf600185614e53565b815481106127cf576127cf614eab565b9060005260206000200160000160046101000a8154816001600160e01b0302191690836001600160e01b03160217905550612873565b85600001604051806040016040528061281d436128dd565b63ffffffff168152602001612831886126e9565b6001600160e01b0390811690915282546001810184556000938452602093849020835194909301519091166401000000000263ffffffff909316929092179101555b9250839150505b9250929050565b805460009080156128ca5782612898600183614e53565b815481106128a8576128a8614eab565b60009182526020909120015464010000000090046001600160e01b03166128cd565b60005b6001600160e01b03169392505050565b600063ffffffff8211156127525760405162461bcd60e51b815260206004820152602660248201527f53616665436173743a2076616c756520646f65736e27742066697420696e203360448201526532206269747360d01b60648201526084016112a7565b60006001600160e01b03198216636e665ced60e01b1480611166575061116682613702565b600061116661297461376d565b8360405161190160f01b6020820152602281018390526042810182905260009060620160405160208183030381529060405280519060200120905092915050565b60008060006129c687878787613894565b915091506117c081613981565b60008581526001602081905260408220906129ed886118ee565b60078111156129fe576129fe61475c565b14612a575760405162461bcd60e51b815260206004820152602360248201527f476f7665726e6f723a20766f7465206e6f742063757272656e746c792061637460448201526269766560e81b60648201526084016112a7565b604080516020810190915281546001600160401b031690819052600090612a8090889086613433565b9050612a8f8888888488613b3c565b8351612ae157866001600160a01b03167fb8e138887d0aa13bab447e82de9d5c1777041ecd21ca36ba824ff1e6c07ddda489888489604051612ad49493929190614f27565b60405180910390a26118e3565b866001600160a01b03167fe2babfbac5889a709b63bb7f598b324e08bc5a4fb9ec647fb3cbc9ec07eb87128988848989604051612b22959493929190614f4f565b60405180910390a2979650505050505050565b6000612b508254600f81810b600160801b909204900b131590565b15612b6e57604051631ed9509560e11b815260040160405180910390fd5b508054600f0b6000818152600180840160205260408220805492905583546fffffffffffffffffffffffffffffffff191692016001600160801b03169190911790915590565b6064811115612c375760405162461bcd60e51b815260206004820152604360248201527f476f7665726e6f72566f74657351756f72756d4672616374696f6e3a2071756f60448201527f72756d4e756d657261746f72206f7665722071756f72756d44656e6f6d696e616064820152623a37b960e91b608482015260a4016112a7565b6000612c41611efa565b90508015801590612c525750600954155b15612cb757604080518082019091526000815260099060208101612c75846126e9565b6001600160e01b0390811690915282546001810184556000938452602093849020835194909301519091166401000000000263ffffffff909316929092179101555b612cc2600983612756565b505060408051828152602081018490527f0553476bf02ef2726e8ce5ced78d63e26e602e4a2257b1f559418e24b4633997910160405180910390a15050565b30612d0a611142565b6001600160a01b0316146121e25760005b8451811015612d9b57306001600160a01b0316858281518110612d4057612d40614eab565b60200260200101516001600160a01b03161415612d8b57612d8b838281518110612d6c57612d6c614eab565b6020026020010151805190602001206002613cbb90919063ffffffff16565b612d9481614ec1565b9050612d1b565b505050505050565b6121e28585858585613cf7565b30612db9611142565b6001600160a01b0316146121e257600254600f81810b600160801b909204900b13156121e25760006002556121e2565b6000611df285858585612e0760408051602081019091526000815290565b6129d3565b600080612e1883613d6b565b90506004816007811115612e2e57612e2e61475c565b14612e395792915050565b6000838152600b602052604090205480612e54575092915050565b600a54604051632ab0f52960e01b8152600481018390526001600160a01b0390911690632ab0f5299060240160206040518083038186803b158015612e9857600080fd5b505afa158015612eac573d6000803e3d6000fd5b505050506040513d601f19601f82011682018060405250810190612ed09190614f95565b15612edf575060079392505050565b600a54604051632c258a9f60e11b8152600481018390526001600160a01b039091169063584b153e9060240160206040518083038186803b158015612f2357600080fd5b505afa158015612f37573d6000803e3d6000fd5b505050506040513d601f19601f82011682018060405250810190612f5b9190614f95565b15612f6a575060059392505050565b5060029392505050565b6000438210612fc55760405162461bcd60e51b815260206004820181905260248201527f436865636b706f696e74733a20626c6f636b206e6f7420796574206d696e656460448201526064016112a7565b825460005b8181101561302a576000612fde8284613e77565b905084866000018281548110612ff657612ff6614eab565b60009182526020909120015463ffffffff16111561301657809250613024565b613021816001614e1d565b91505b50612fca565b811561306e578461303c600184614e53565b8154811061304c5761304c614eab565b60009182526020909120015464010000000090046001600160e01b0316613071565b60005b6001600160e01b031695945050505050565b60045460408051918252602082018390527fc565b045403dc03c2eea82b81a0465edad9e2e7fc4d97e11421c209da93d7a93910160405180910390a1600455565b600c546001600160a01b03163314611d625760405162461bcd60e51b815260206004820181905260248201527f4f776e61626c653a2063616c6c6572206973206e6f7420746865206f776e657260448201526064016112a7565b600c80546001600160a01b038381166001600160a01b0319831681179093556040519116919082907f8be0079c531659141344cd1fd0a4f28419497f9722a3daafe3b4186f6b6457e090600090a35050565b600061317a6120e3565b61318933611075600143614e53565b10156131f15760405162461bcd60e51b815260206004820152603160248201527f476f7665726e6f723a2070726f706f73657220766f7465732062656c6f7720706044820152701c9bdc1bdcd85b081d1a1c995cda1bdb19607a1b60648201526084016112a7565b600061320686868686805190602001206121e9565b905084518651146132295760405162461bcd60e51b81526004016112a790614fb7565b835186511461324a5760405162461bcd60e51b81526004016112a790614fb7565b600086511161329b5760405162461bcd60e51b815260206004820152601860248201527f476f7665726e6f723a20656d7074792070726f706f73616c000000000000000060448201526064016112a7565b600081815260016020908152604091829020825191820190925281546001600160401b0316908190521561331b5760405162461bcd60e51b815260206004820152602160248201527f476f7665726e6f723a2070726f706f73616c20616c72656164792065786973746044820152607360f81b60648201526084016112a7565b600061332d61332861186d565b613e92565b61333643613e92565b6133409190614ff8565b9050600061334f61332861116c565b6133599083614ff8565b835467ffffffffffffffff19166001600160401b038416178455905060018301805467ffffffffffffffff19166001600160401b0383161790557f7d84a6263ae0d98d3329bd7b46bb4e8d6f98cd35a7adb45c274c8b7fd5ebd5e084338b8b8d516001600160401b038111156133d1576133d16141e0565b60405190808252806020026020018201604052801561340457816020015b60608152602001906001900390816133ef5790505b508c88888e60405161341e99989796959493929190615023565b60405180910390a15091979650505050505050565b604051630748d63560e31b81526001600160a01b038481166004830152602482018490526000917f000000000000000000000000000000000000000000000000000000000000000090911690633a46b1a89060440160206040518083038186803b1580156134a057600080fd5b505afa1580156134b4573d6000803e3d6000fd5b505050506040513d601f19601f82011682018060405250810190611ef09190614cba565b600a54604080516001600160a01b03928316815291831660208301527f08f74ea46ef7894f65eabfb5e6e695de773a000b47c529ab559178069b226401910160405180910390a1600a80546001600160a01b0319166001600160a01b0392909216919091179055565b6060611ef084848460405180606001604052806029815260200161511360299139613efa565b600081116135c75760405162461bcd60e51b815260206004820152602760248201527f476f7665726e6f7253657474696e67733a20766f74696e6720706572696f6420604482015266746f6f206c6f7760c81b60648201526084016112a7565b60055460408051918252602082018390527f7e3f7f0708a84de9203036abaa450dccc85ad5ff52f78c170f3edb55cf5e8828910160405180910390a1600555565b60065460408051918252602082018390527fccb45da8d5717e6c4544694297c4ba5cf151d455c9bb0ed4fc7a38411bc05461910160405180910390a1600655565b6000606461365683611b61565b604051632394e7a360e21b8152600481018590527f00000000000000000000000000000000000000000000000000000000000000006001600160a01b031690638e539e8c9060240160206040518083038186803b1580156136b657600080fd5b505afa1580156136ca573d6000803e3d6000fd5b505050506040513d601f19601f820116820180604052508101906136ee9190614cba565b6136f89190614e6a565b6111669190614e89565b60006001600160e01b0319821663bf26d89760e01b148061373357506001600160e01b031982166379dd796f60e01b145b8061374e57506001600160e01b03198216630271189760e51b145b8061116657506301ffc9a760e01b6001600160e01b0319831614611166565b6000306001600160a01b037f0000000000000000000000000000000000000000000000000000000000000000161480156137c657507f000000000000000000000000000000000000000000000000000000000000000046145b156137f057507f000000000000000000000000000000000000000000000000000000000000000090565b50604080517f00000000000000000000000000000000000000000000000000000000000000006020808301919091527f0000000000000000000000000000000000000000000000000000000000000000828401527f000000000000000000000000000000000000000000000000000000000000000060608301524660808301523060a0808401919091528351808403909101815260c0909201909252805191012090565b6000807f7fffffffffffffffffffffffffffffff5d576e7357a4501ddfe92f46681b20a08311156138cb5750600090506003613978565b8460ff16601b141580156138e357508460ff16601c14155b156138f45750600090506004613978565b6040805160008082526020820180845289905260ff881692820192909252606081018690526080810185905260019060a0016020604051602081039080840390855afa158015613948573d6000803e3d6000fd5b5050604051601f1901519150506001600160a01b03811661397157600060019250925050613978565b9150600090505b94509492505050565b60008160048111156139955761399561475c565b141561399e5750565b60018160048111156139b2576139b261475c565b1415613a005760405162461bcd60e51b815260206004820152601860248201527f45434453413a20696e76616c6964207369676e6174757265000000000000000060448201526064016112a7565b6002816004811115613a1457613a1461475c565b1415613a625760405162461bcd60e51b815260206004820152601f60248201527f45434453413a20696e76616c6964207369676e6174757265206c656e6774680060448201526064016112a7565b6003816004811115613a7657613a7661475c565b1415613acf5760405162461bcd60e51b815260206004820152602260248201527f45434453413a20696e76616c6964207369676e6174757265202773272076616c604482015261756560f01b60648201526084016112a7565b6004816004811115613ae357613ae361475c565b14156113045760405162461bcd60e51b815260206004820152602260248201527f45434453413a20696e76616c6964207369676e6174757265202776272076616c604482015261756560f01b60648201526084016112a7565b60008581526007602090815260408083206001600160a01b0388168452600381019092529091205460ff1615613bc45760405162461bcd60e51b815260206004820152602760248201527f476f7665726e6f72566f74696e6753696d706c653a20766f746520616c726561604482015266191e4818d85cdd60ca1b60648201526084016112a7565b6001600160a01b03851660009081526003820160205260408120805460ff1916600117905560ff168460ff161415613c155782816000016000828254613c0a9190614e1d565b90915550612d9b9050565b60ff841660011415613c355782816001016000828254613c0a9190614e1d565b60ff841660021415613c555782816002016000828254613c0a9190614e1d565b60405162461bcd60e51b815260206004820152603560248201527f476f7665726e6f72566f74696e6753696d706c653a20696e76616c69642076616044820152746c756520666f7220656e756d20566f74655479706560581b60648201526084016112a7565b8154600160801b90819004600f0b6000818152600180860160205260409091209390935583546001600160801b03908116939091011602179055565b600a5460405163e38335e560e01b81526001600160a01b039091169063e38335e5903490613d32908890889088906000908990600401614d61565b6000604051808303818588803b158015613d4b57600080fd5b505af1158015613d5f573d6000803e3d6000fd5b50505050505050505050565b6000818152600160205260408120600281015460ff1615613d8f5750600792915050565b6002810154610100900460ff1615613daa5750600292915050565b6000613db5846117ca565b905080613e045760405162461bcd60e51b815260206004820152601d60248201527f476f7665726e6f723a20756e6b6e6f776e2070726f706f73616c20696400000060448201526064016112a7565b438110613e15575060009392505050565b6000613e20856120ee565b9050438110613e3457506001949350505050565b613e3d85614020565b8015613e5c575060008581526007602052604090208054600190910154115b15613e6c57506004949350505050565b506003949350505050565b6000613e866002848418614e89565b611ef390848416614e1d565b60006001600160401b038211156127525760405162461bcd60e51b815260206004820152602660248201527f53616665436173743a2076616c756520646f65736e27742066697420696e203660448201526534206269747360d01b60648201526084016112a7565b606082471015613f5b5760405162461bcd60e51b815260206004820152602660248201527f416464726573733a20696e73756666696369656e742062616c616e636520666f6044820152651c8818d85b1b60d21b60648201526084016112a7565b6001600160a01b0385163b613fb25760405162461bcd60e51b815260206004820152601d60248201527f416464726573733a2063616c6c20746f206e6f6e2d636f6e747261637400000060448201526064016112a7565b600080866001600160a01b03168587604051613fce9190614c5d565b60006040518083038185875af1925050503d806000811461400b576040519150601f19603f3d011682016040523d82523d6000602084013e614010565b606091505b50915091506118e3828286614057565b6000818152600760205260408120600281015460018201546140429190614e1d565b61404e611101856117ca565b11159392505050565b60608315614066575081611ef3565b8251156140765782518084602001fd5b8160405162461bcd60e51b81526004016112a791906143ac565b8280548282559060005260206000209081019282156140cb579160200282015b828111156140cb5782518255916020019190600101906140b0565b5061275292915061414a565b8280546140e390614c22565b90600052602060002090601f01602090048101928261410557600085556140cb565b82601f1061411e57805160ff19168380011785556140cb565b828001600101855582156140cb57918201828111156140cb5782518255916020019190600101906140b0565b5b80821115612752576000815560010161414b565b60006020828403121561417157600080fd5b81356001600160e01b031981168114611ef357600080fd5b803560ff8116811461419a57600080fd5b919050565b60008083601f8401126141b157600080fd5b5081356001600160401b038111156141c857600080fd5b60208301915083602082850101111561287a57600080fd5b634e487b7160e01b600052604160045260246000fd5b604051601f8201601f191681016001600160401b038111828210171561421e5761421e6141e0565b604052919050565b600082601f83011261423757600080fd5b81356001600160401b03811115614250576142506141e0565b614263601f8201601f19166020016141f6565b81815284602083860101111561427857600080fd5b816020850160208301376000918101602001919091529392505050565b60008060008060008060008060e0898b0312156142b157600080fd5b883597506142c160208a01614189565b965060408901356001600160401b03808211156142dd57600080fd5b6142e98c838d0161419f565b909850965060608b013591508082111561430257600080fd5b5061430f8b828c01614226565b94505061431e60808a01614189565b925060a0890135915060c089013590509295985092959890939650565b60006020828403121561434d57600080fd5b5035919050565b60005b8381101561436f578181015183820152602001614357565b83811115611ae85750506000910152565b60008151808452614398816020860160208601614354565b601f01601f19169290920160200192915050565b602081526000611ef36020830184614380565b6000602082840312156143d157600080fd5b81356001600160401b038111156143e757600080fd5b611b0f84828501614226565b6001600160a01b038116811461130457600080fd5b6000806040838503121561441b57600080fd5b82359150602083013561442d816143f3565b809150509250929050565b6000806000806080858703121561444e57600080fd5b8435614459816143f3565b93506020850135614469816143f3565b92506040850135915060608501356001600160401b0381111561448b57600080fd5b61449787828801614226565b91505092959194509250565b60006001600160401b038211156144bc576144bc6141e0565b5060051b60200190565b600082601f8301126144d757600080fd5b813560206144ec6144e7836144a3565b6141f6565b82815260059290921b8401810191818101908684111561450b57600080fd5b8286015b8481101561452f578035614522816143f3565b835291830191830161450f565b509695505050505050565b600082601f83011261454b57600080fd5b8135602061455b6144e7836144a3565b82815260059290921b8401810191818101908684111561457a57600080fd5b8286015b8481101561452f578035835291830191830161457e565b600082601f8301126145a657600080fd5b813560206145b66144e7836144a3565b82815260059290921b840181019181810190868411156145d557600080fd5b8286015b8481101561452f5780356001600160401b038111156145f85760008081fd5b6146068986838b0101614226565b8452509183019183016145d9565b6000806000806080858703121561462a57600080fd5b84356001600160401b038082111561464157600080fd5b61464d888389016144c6565b9550602087013591508082111561466357600080fd5b61466f8883890161453a565b9450604087013591508082111561468557600080fd5b5061469287828801614595565b949793965093946060013593505050565b6000602082840312156146b557600080fd5b8135611ef3816143f3565b600081518084526020808501945080840160005b838110156146f0578151875295820195908201906001016146d4565b509495945050505050565b602081526000611ef360208301846146c0565b600080600080600060a0868803121561472657600080fd5b8535945061473660208701614189565b935061474460408701614189565b94979396509394606081013594506080013592915050565b634e487b7160e01b600052602160045260246000fd5b60208101600883106147865761478661475c565b91905290565b60208101600483106147865761478661475c565b600080602083850312156147b357600080fd5b82356001600160401b038111156147c957600080fd5b6147d58582860161419f565b90969095509350505050565b600080604083850312156147f457600080fd5b8235915061480460208401614189565b90509250929050565b60008060008060006080868803121561482557600080fd5b8535945061483560208701614189565b935060408601356001600160401b038082111561485157600080fd5b61485d89838a0161419f565b9095509350606088013591508082111561487657600080fd5b5061488388828901614226565b9150509295509295909350565b8215158152604060208201526000611ef06040830184614380565b600080604083850312156148be57600080fd5b82356148c9816143f3565b946020939093013593505050565b600080600080606085870312156148ed57600080fd5b843593506148fd60208601614189565b925060408501356001600160401b0381111561491857600080fd5b6149248782880161419f565b95989497509550505050565b6000806000806080858703121561494657600080fd5b84356001600160401b038082111561495d57600080fd5b614969888389016144c6565b9550602087013591508082111561497f57600080fd5b61498b8883890161453a565b945060408701359150808211156149a157600080fd5b6149ad88838901614595565b935060608701359150808211156149c357600080fd5b5061449787828801614226565b6000806000606084860312156149e557600080fd5b83356149f0816143f3565b92506020840135915060408401356001600160401b03811115614a1257600080fd5b614a1e86828701614226565b9150509250925092565b600080600080600060a08688031215614a4057600080fd5b8535614a4b816143f3565b94506020860135614a5b816143f3565b935060408601356001600160401b0380821115614a7757600080fd5b614a8389838a0161453a565b94506060880135915080821115614a9957600080fd5b614aa589838a0161453a565b9350608088013591508082111561487657600080fd5b60008060008060608587031215614ad157600080fd5b8435614adc816143f3565b93506020850135925060408501356001600160401b0381111561491857600080fd5b60008060408385031215614b1157600080fd5b50508035926020909101359150565b60008060008060808587031215614b3657600080fd5b84356001600160401b03811115614b4c57600080fd5b614b5887828801614226565b97602087013597506040870135966060013595509350505050565b600080600080600060a08688031215614b8b57600080fd5b8535614b96816143f3565b94506020860135614ba6816143f3565b9350604086013592506060860135915060808601356001600160401b03811115614bcf57600080fd5b61488388828901614226565b8183823760009101908152919050565b60208082526018908201527f476f7665726e6f723a206f6e6c79476f7665726e616e63650000000000000000604082015260600190565b600181811c90821680614c3657607f821691505b60208210811415614c5757634e487b7160e01b600052602260045260246000fd5b50919050565b60008251614c6f818460208701614354565b9190910192915050565b60208082526021908201527f476f7665726e6f723a2070726f706f73616c206e6f74207375636365737366756040820152601b60fa1b606082015260800190565b600060208284031215614ccc57600080fd5b5051919050565b600081518084526020808501945080840160005b838110156146f05781516001600160a01b031687529582019590820190600101614ce7565b600081518084526020808501808196508360051b8101915082860160005b85811015614d54578284038952614d42848351614380565b98850198935090840190600101614d2a565b5091979650505050505050565b60a081526000614d7460a0830188614cd3565b8281036020840152614d8681886146c0565b90508281036040840152614d9a8187614d0c565b60608401959095525050608001529392505050565b60c081526000614dc260c0830189614cd3565b8281036020840152614dd481896146c0565b90508281036040840152614de88188614d0c565b60608401969096525050608081019290925260a0909101529392505050565b634e487b7160e01b600052601160045260246000fd5b60008219821115614e3057614e30614e07565b500190565b8035602083101561116657600019602084900360031b1b1692915050565b600082821015614e6557614e65614e07565b500390565b6000816000190483118215151615614e8457614e84614e07565b500290565b600082614ea657634e487b7160e01b600052601260045260246000fd5b500490565b634e487b7160e01b600052603260045260246000fd5b6000600019821415614ed557614ed5614e07565b5060010190565b608081526000614eef6080830187614cd3565b8281036020840152614f0181876146c0565b90508281036040840152614f158186614d0c565b91505082606083015295945050505050565b84815260ff84166020820152826040820152608060608201526000611dac6080830184614380565b85815260ff8516602082015283604082015260a060608201526000614f7760a0830185614380565b8281036080840152614f898185614380565b98975050505050505050565b600060208284031215614fa757600080fd5b81518015158114611ef357600080fd5b60208082526021908201527f476f7665726e6f723a20696e76616c69642070726f706f73616c206c656e67746040820152600d60fb1b606082015260800190565b60006001600160401b0380831681851680830382111561501a5761501a614e07565b01949350505050565b60006101208b8352602060018060a01b038c168185015281604085015261504c8285018c614cd3565b91508382036060850152615060828b6146c0565b915083820360808501528189518084528284019150828160051b850101838c0160005b838110156150b157601f1987840301855261509f838351614380565b94860194925090850190600101615083565b505086810360a08801526150c5818c614d0c565b9450505050506150e060c08401876001600160401b03169052565b6001600160401b03851660e08401528281036101008401526151028185614380565b9c9b50505050505050505050505056fe416464726573733a206c6f772d6c6576656c2063616c6c20776974682076616c7565206661696c6564a26469706673582212201c4f8843a7eff2d14bce1f29a6c5022f5d3cbcdaec71b1b24af686c441e1d02864736f6c63430008090033",
  "devdoc": {
    "errors": {
      "Empty()": [
        {
          "details": "An operation (e.g. {front}) couldn't be completed due to the queue being empty."
        }
      ]
    },
    "kind": "dev",
    "methods": {
      "COUNTING_MODE()": {
        "details": "See {IGovernor-COUNTING_MODE}."
      },
      "castVote(uint256,uint8)": {
        "details": "See {IGovernor-castVote}."
      },
      "castVoteBySig(uint256,uint8,uint8,bytes32,bytes32)": {
        "details": "See {IGovernor-castVoteBySig}."
      },
      "castVoteWithReason(uint256,uint8,string)": {
        "details": "See {IGovernor-castVoteWithReason}."
      },
      "castVoteWithReasonAndParams(uint256,uint8,string,bytes)": {
        "details": "See {IGovernor-castVoteWithReasonAndParams}."
      },
      "castVoteWithReasonAndParamsBySig(uint256,uint8,string,bytes,uint8,bytes32,bytes32)": {
        "details": "See {IGovernor-castVoteWithReasonAndParamsBySig}."
      },
      "execute(address[],uint256[],bytes[],bytes32)": {
        "details": "See {IGovernor-execute}."
      },
      "getVotes(address,uint256)": {
        "details": "See {IGovernor-getVotes}."
      },
      "getVotesWithParams(address,uint256,bytes)": {
        "details": "See {IGovernor-getVotesWithParams}."
      },
      "hasVoted(uint256,address)": {
        "details": "See {IGovernor-hasVoted}."
      },
      "hashProposal(address[],uint256[],bytes[],bytes32)": {
        "details": "See {IGovernor-hashProposal}. The proposal id is produced by hashing the ABI encoded `targets` array, the `values` array, the `calldatas` array and the descriptionHash (bytes32 which itself is the keccak256 hash of the description string). This proposal id can be produced from the proposal data which is part of the {ProposalCreated} event. It can even be computed in advance, before the proposal is submitted. Note that the chainId and the governor address are not part of the proposal id computation. Consequently, the same proposal (with same operation and same description) will have the same id if submitted on multiple governors across multiple networks. This also means that in order to execute the same operation twice (on the same governor) the proposer will have to change the description in order to avoid proposal id conflicts."
      },
      "name()": {
        "details": "See {IGovernor-name}."
      },
      "onERC1155BatchReceived(address,address,uint256[],uint256[],bytes)": {
        "details": "See {IERC1155Receiver-onERC1155BatchReceived}."
      },
      "onERC1155Received(address,address,uint256,uint256,bytes)": {
        "details": "See {IERC1155Receiver-onERC1155Received}."
      },
      "onERC721Received(address,address,uint256,bytes)": {
        "details": "See {IERC721Receiver-onERC721Received}."
      },
      "owner()": {
        "details": "Returns the address of the current owner."
      },
      "performUpkeep(bytes)": {
        "details": "The input to this method should not be trusted, and the caller of the method should not even be restricted to any single registry. Anyone should be able call it, and the input should be validated, there is no guarantee that the data passed in is the performData returned from checkUpkeep. This could happen due to malicious keepers, racing keepers, or simply a state change while the performUpkeep transaction is waiting for confirmation. Always validate the data passed in.",
        "params": {
          "performData": "is the data which was passed back from the checkData simulation. If it is encoded, it can easily be decoded into other types by calling `abi.decode`. This data should not be trusted, and should be validated against the contract's current state."
        }
      },
      "proposalDeadline(uint256)": {
        "details": "See {IGovernor-proposalDeadline}."
      },
      "proposalEta(uint256)": {
        "details": "Public accessor to check the eta of a queued proposal"
      },
      "proposalSnapshot(uint256)": {
        "details": "See {IGovernor-proposalSnapshot}."
      },
      "proposalVotes(uint256)": {
        "details": "Accessor to the internal vote counts."
      },
      "queue(address[],uint256[],bytes[],bytes32)": {
        "details": "Function to queue a proposal to the timelock."
      },
      "quorumDenominator()": {
        "details": "Returns the quorum denominator. Defaults to 100, but may be overridden."
      },
      "quorumNumerator()": {
        "details": "Returns the current quorum numerator. See {quorumDenominator}."
      },
      "quorumNumerator(uint256)": {
        "details": "Returns the quorum numerator at a specific block number. See {quorumDenominator}."
      },
      "relay(address,uint256,bytes)": {
        "details": "Relays a transaction or function call to an arbitrary target. In cases where the governance executor is some contract other than the governor itself, like when using a timelock, this function can be invoked in a governance proposal to recover tokens or Ether that was sent to the governor contract by mistake. Note that if the executor is simply the governor itself, use of `relay` is redundant."
      },
      "renounceOwnership()": {
        "details": "Leaves the contract without owner. It will not be possible to call `onlyOwner` functions anymore. Can only be called by the current owner. NOTE: Renouncing ownership will leave the contract without an owner, thereby removing any functionality that is only available to the owner."
      },
      "setProposalThreshold(uint256)": {
        "details": "Update the proposal threshold. This operation can only be performed through a governance proposal. Emits a {ProposalThresholdSet} event."
      },
      "setVotingDelay(uint256)": {
        "details": "Update the voting delay. This operation can only be performed through a governance proposal. Emits a {VotingDelaySet} event."
      },
      "setVotingPeriod(uint256)": {
        "details": "Update the voting period. This operation can only be performed through a governance proposal. Emits a {VotingPeriodSet} event."
      },
      "timelock()": {
        "details": "Public accessor to check the address of the timelock"
      },
      "transferOwnership(address)": {
        "details": "Transfers ownership of the contract to a new account (`newOwner`). Can only be called by the current owner."
      },
      "updateQuorumNumerator(uint256)": {
        "details": "Changes the quorum numerator. Emits a {QuorumNumeratorUpdated} event. Requirements: - Must be called through a governance proposal. - New numerator must be smaller or equal to the denominator."
      },
      "updateTimelock(address)": {
        "details": "Public endpoint to update the underlying timelock instance. Restricted to the timelock itself, so updates must be proposed, scheduled, and executed through governance proposals. CAUTION: It is not recommended to change the timelock while there are other queued governance proposals."
      },
      "version()": {
        "details": "See {IGovernor-version}."
      }
    },
    "version": 1
  },
  "userdoc": {
    "kind": "user",
    "methods": {
      "performUpkeep(bytes)": {
        "notice": "method that is actually executed by the keepers, via the registry. The data returned by the checkUpkeep simulation will be passed into this method to actually be executed."
      }
    },
    "version": 1
  },
  "storageLayout": {
    "storage": [
      {
        "astId": 623,
        "contract": "contracts/GovernerContract.sol:GovernerContract",
        "label": "_name",
        "offset": 0,
        "slot": "0",
        "type": "t_string_storage"
      },
      {
        "astId": 628,
        "contract": "contracts/GovernerContract.sol:GovernerContract",
        "label": "_proposals",
        "offset": 0,
        "slot": "1",
        "type": "t_mapping(t_uint256,t_struct(ProposalCore)621_storage)"
      },
      {
        "astId": 631,
        "contract": "contracts/GovernerContract.sol:GovernerContract",
        "label": "_governanceCall",
        "offset": 0,
        "slot": "2",
        "type": "t_struct(Bytes32Deque)9817_storage"
      },
      {
        "astId": 3296,
        "contract": "contracts/GovernerContract.sol:GovernerContract",
        "label": "_votingDelay",
        "offset": 0,
        "slot": "4",
        "type": "t_uint256"
      },
      {
        "astId": 3298,
        "contract": "contracts/GovernerContract.sol:GovernerContract",
        "label": "_votingPeriod",
        "offset": 0,
        "slot": "5",
        "type": "t_uint256"
      },
      {
        "astId": 3300,
        "contract": "contracts/GovernerContract.sol:GovernerContract",
        "label": "_proposalThreshold",
        "offset": 0,
        "slot": "6",
        "type": "t_uint256"
      },
      {
        "astId": 3088,
        "contract": "contracts/GovernerContract.sol:GovernerContract",
        "label": "_proposalVotes",
        "offset": 0,
        "slot": "7",
        "type": "t_mapping(t_uint256,t_struct(ProposalVote)3083_storage)"
      },
      {
        "astId": 3899,
        "contract": "contracts/GovernerContract.sol:GovernerContract",
        "label": "_quorumNumerator",
        "offset": 0,
        "slot": "8",
        "type": "t_uint256"
      },
      {
        "astId": 3902,
        "contract": "contracts/GovernerContract.sol:GovernerContract",
        "label": "_quorumNumeratorHistory",
        "offset": 0,
        "slot": "9",
        "type": "t_struct(History)6110_storage"
      },
      {
        "astId": 3479,
        "contract": "contracts/GovernerContract.sol:GovernerContract",
        "label": "_timelock",
        "offset": 0,
        "slot": "10",
        "type": "t_contract(TimelockController)3062"
      },
      {
        "astId": 3483,
        "contract": "contracts/GovernerContract.sol:GovernerContract",
        "label": "_timelockIds",
        "offset": 0,
        "slot": "11",
        "type": "t_mapping(t_uint256,t_bytes32)"
      },
      {
        "astId": 458,
        "contract": "contracts/GovernerContract.sol:GovernerContract",
        "label": "_owner",
        "offset": 0,
        "slot": "12",
        "type": "t_address"
      },
      {
        "astId": 10172,
        "contract": "contracts/GovernerContract.sol:GovernerContract",
        "label": "projectId",
        "offset": 0,
        "slot": "13",
        "type": "t_uint256"
      },
      {
        "astId": 10174,
        "contract": "contracts/GovernerContract.sol:GovernerContract",
        "label": "lastTimeStamp",
        "offset": 0,
        "slot": "14",
        "type": "t_uint256"
      },
      {
        "astId": 10176,
        "contract": "contracts/GovernerContract.sol:GovernerContract",
        "label": "daoPercentage",
        "offset": 0,
        "slot": "15",
        "type": "t_uint256"
      },
      {
        "astId": 10178,
        "contract": "contracts/GovernerContract.sol:GovernerContract",
        "label": "enteranceFee",
        "offset": 0,
        "slot": "16",
        "type": "t_uint256"
      },
      {
        "astId": 10182,
        "contract": "contracts/GovernerContract.sol:GovernerContract",
        "label": "_isFunding",
        "offset": 0,
        "slot": "17",
        "type": "t_mapping(t_uint256,t_bool)"
      },
      {
        "astId": 10188,
        "contract": "contracts/GovernerContract.sol:GovernerContract",
        "label": "projectToTime",
        "offset": 0,
        "slot": "18",
        "type": "t_mapping(t_uint256,t_mapping(t_uint256,t_uint256))"
      },
      {
        "astId": 10192,
        "contract": "contracts/GovernerContract.sol:GovernerContract",
        "label": "time",
        "offset": 0,
        "slot": "19",
        "type": "t_mapping(t_uint256,t_uint256)"
      },
      {
        "astId": 10196,
        "contract": "contracts/GovernerContract.sol:GovernerContract",
        "label": "hashToProjectId",
        "offset": 0,
        "slot": "20",
        "type": "t_mapping(t_string_memory_ptr,t_uint256)"
      },
      {
        "astId": 10200,
        "contract": "contracts/GovernerContract.sol:GovernerContract",
        "label": "idToHash",
        "offset": 0,
        "slot": "21",
        "type": "t_mapping(t_uint256,t_string_storage)"
      },
      {
        "astId": 10206,
        "contract": "contracts/GovernerContract.sol:GovernerContract",
        "label": "funders",
        "offset": 0,
        "slot": "22",
        "type": "t_mapping(t_uint256,t_mapping(t_address,t_uint256))"
      },
      {
        "astId": 10210,
        "contract": "contracts/GovernerContract.sol:GovernerContract",
        "label": "projectFunds",
        "offset": 0,
        "slot": "23",
        "type": "t_mapping(t_uint256,t_uint256)"
      },
      {
        "astId": 10214,
        "contract": "contracts/GovernerContract.sol:GovernerContract",
        "label": "projectFundingGoalAmount",
        "offset": 0,
        "slot": "24",
        "type": "t_mapping(t_uint256,t_uint256)"
      },
      {
        "astId": 10218,
        "contract": "contracts/GovernerContract.sol:GovernerContract",
        "label": "_isApporovedByDao",
        "offset": 0,
        "slot": "25",
        "type": "t_mapping(t_uint256,t_bool)"
      },
      {
        "astId": 10222,
        "contract": "contracts/GovernerContract.sol:GovernerContract",
        "label": "projectOwnerAddress",
        "offset": 0,
        "slot": "26",
        "type": "t_mapping(t_uint256,t_address)"
      },
      {
        "astId": 10227,
        "contract": "contracts/GovernerContract.sol:GovernerContract",
        "label": "_ProjectFundingStatus",
        "offset": 0,
        "slot": "27",
        "type": "t_mapping(t_uint256,t_enum(ProjectFundingStatus)10169)"
      },
      {
        "astId": 10231,
        "contract": "contracts/GovernerContract.sol:GovernerContract",
        "label": "_isEnteranceFeePaid",
        "offset": 0,
        "slot": "28",
        "type": "t_mapping(t_address,t_bool)"
      },
      {
        "astId": 10236,
        "contract": "contracts/GovernerContract.sol:GovernerContract",
        "label": "investedProjects",
        "offset": 0,
        "slot": "29",
        "type": "t_mapping(t_address,t_array(t_uint256)dyn_storage)"
      },
      {
        "astId": 10240,
        "contract": "contracts/GovernerContract.sol:GovernerContract",
        "label": "projectOwnerAddressIndex",
        "offset": 0,
        "slot": "30",
        "type": "t_mapping(t_uint256,t_address)"
      }
    ],
    "types": {
      "t_address": {
        "encoding": "inplace",
        "label": "address",
        "numberOfBytes": "20"
      },
      "t_array(t_struct(Checkpoint)6105_storage)dyn_storage": {
        "base": "t_struct(Checkpoint)6105_storage",
        "encoding": "dynamic_array",
        "label": "struct Checkpoints.Checkpoint[]",
        "numberOfBytes": "32"
      },
      "t_array(t_uint256)dyn_storage": {
        "base": "t_uint256",
        "encoding": "dynamic_array",
        "label": "uint256[]",
        "numberOfBytes": "32"
      },
      "t_bool": {
        "encoding": "inplace",
        "label": "bool",
        "numberOfBytes": "1"
      },
      "t_bytes32": {
        "encoding": "inplace",
        "label": "bytes32",
        "numberOfBytes": "32"
      },
      "t_contract(TimelockController)3062": {
        "encoding": "inplace",
        "label": "contract TimelockController",
        "numberOfBytes": "20"
      },
      "t_enum(ProjectFundingStatus)10169": {
        "encoding": "inplace",
        "label": "enum FundProject.ProjectFundingStatus",
        "numberOfBytes": "1"
      },
      "t_int128": {
        "encoding": "inplace",
        "label": "int128",
        "numberOfBytes": "16"
      },
      "t_mapping(t_address,t_array(t_uint256)dyn_storage)": {
        "encoding": "mapping",
        "key": "t_address",
        "label": "mapping(address => uint256[])",
        "numberOfBytes": "32",
        "value": "t_array(t_uint256)dyn_storage"
      },
      "t_mapping(t_address,t_bool)": {
        "encoding": "mapping",
        "key": "t_address",
        "label": "mapping(address => bool)",
        "numberOfBytes": "32",
        "value": "t_bool"
      },
      "t_mapping(t_address,t_uint256)": {
        "encoding": "mapping",
        "key": "t_address",
        "label": "mapping(address => uint256)",
        "numberOfBytes": "32",
        "value": "t_uint256"
      },
      "t_mapping(t_int128,t_bytes32)": {
        "encoding": "mapping",
        "key": "t_int128",
        "label": "mapping(int128 => bytes32)",
        "numberOfBytes": "32",
        "value": "t_bytes32"
      },
      "t_mapping(t_string_memory_ptr,t_uint256)": {
        "encoding": "mapping",
        "key": "t_string_memory_ptr",
        "label": "mapping(string => uint256)",
        "numberOfBytes": "32",
        "value": "t_uint256"
      },
      "t_mapping(t_uint256,t_address)": {
        "encoding": "mapping",
        "key": "t_uint256",
        "label": "mapping(uint256 => address)",
        "numberOfBytes": "32",
        "value": "t_address"
      },
      "t_mapping(t_uint256,t_bool)": {
        "encoding": "mapping",
        "key": "t_uint256",
        "label": "mapping(uint256 => bool)",
        "numberOfBytes": "32",
        "value": "t_bool"
      },
      "t_mapping(t_uint256,t_bytes32)": {
        "encoding": "mapping",
        "key": "t_uint256",
        "label": "mapping(uint256 => bytes32)",
        "numberOfBytes": "32",
        "value": "t_bytes32"
      },
      "t_mapping(t_uint256,t_enum(ProjectFundingStatus)10169)": {
        "encoding": "mapping",
        "key": "t_uint256",
        "label": "mapping(uint256 => enum FundProject.ProjectFundingStatus)",
        "numberOfBytes": "32",
        "value": "t_enum(ProjectFundingStatus)10169"
      },
      "t_mapping(t_uint256,t_mapping(t_address,t_uint256))": {
        "encoding": "mapping",
        "key": "t_uint256",
        "label": "mapping(uint256 => mapping(address => uint256))",
        "numberOfBytes": "32",
        "value": "t_mapping(t_address,t_uint256)"
      },
      "t_mapping(t_uint256,t_mapping(t_uint256,t_uint256))": {
        "encoding": "mapping",
        "key": "t_uint256",
        "label": "mapping(uint256 => mapping(uint256 => uint256))",
        "numberOfBytes": "32",
        "value": "t_mapping(t_uint256,t_uint256)"
      },
      "t_mapping(t_uint256,t_string_storage)": {
        "encoding": "mapping",
        "key": "t_uint256",
        "label": "mapping(uint256 => string)",
        "numberOfBytes": "32",
        "value": "t_string_storage"
      },
      "t_mapping(t_uint256,t_struct(ProposalCore)621_storage)": {
        "encoding": "mapping",
        "key": "t_uint256",
        "label": "mapping(uint256 => struct Governor.ProposalCore)",
        "numberOfBytes": "32",
        "value": "t_struct(ProposalCore)621_storage"
      },
      "t_mapping(t_uint256,t_struct(ProposalVote)3083_storage)": {
        "encoding": "mapping",
        "key": "t_uint256",
        "label": "mapping(uint256 => struct GovernorCountingSimple.ProposalVote)",
        "numberOfBytes": "32",
        "value": "t_struct(ProposalVote)3083_storage"
      },
      "t_mapping(t_uint256,t_uint256)": {
        "encoding": "mapping",
        "key": "t_uint256",
        "label": "mapping(uint256 => uint256)",
        "numberOfBytes": "32",
        "value": "t_uint256"
      },
      "t_string_memory_ptr": {
        "encoding": "bytes",
        "label": "string",
        "numberOfBytes": "32"
      },
      "t_string_storage": {
        "encoding": "bytes",
        "label": "string",
        "numberOfBytes": "32"
      },
      "t_struct(BlockNumber)6762_storage": {
        "encoding": "inplace",
        "label": "struct Timers.BlockNumber",
        "members": [
          {
            "astId": 6761,
            "contract": "contracts/GovernerContract.sol:GovernerContract",
            "label": "_deadline",
            "offset": 0,
            "slot": "0",
            "type": "t_uint64"
          }
        ],
        "numberOfBytes": "32"
      },
      "t_struct(Bytes32Deque)9817_storage": {
        "encoding": "inplace",
        "label": "struct DoubleEndedQueue.Bytes32Deque",
        "members": [
          {
            "astId": 9810,
            "contract": "contracts/GovernerContract.sol:GovernerContract",
            "label": "_begin",
            "offset": 0,
            "slot": "0",
            "type": "t_int128"
          },
          {
            "astId": 9812,
            "contract": "contracts/GovernerContract.sol:GovernerContract",
            "label": "_end",
            "offset": 16,
            "slot": "0",
            "type": "t_int128"
          },
          {
            "astId": 9816,
            "contract": "contracts/GovernerContract.sol:GovernerContract",
            "label": "_data",
            "offset": 0,
            "slot": "1",
            "type": "t_mapping(t_int128,t_bytes32)"
          }
        ],
        "numberOfBytes": "64"
      },
      "t_struct(Checkpoint)6105_storage": {
        "encoding": "inplace",
        "label": "struct Checkpoints.Checkpoint",
        "members": [
          {
            "astId": 6102,
            "contract": "contracts/GovernerContract.sol:GovernerContract",
            "label": "_blockNumber",
            "offset": 0,
            "slot": "0",
            "type": "t_uint32"
          },
          {
            "astId": 6104,
            "contract": "contracts/GovernerContract.sol:GovernerContract",
            "label": "_value",
            "offset": 4,
            "slot": "0",
            "type": "t_uint224"
          }
        ],
        "numberOfBytes": "32"
      },
      "t_struct(History)6110_storage": {
        "encoding": "inplace",
        "label": "struct Checkpoints.History",
        "members": [
          {
            "astId": 6109,
            "contract": "contracts/GovernerContract.sol:GovernerContract",
            "label": "_checkpoints",
            "offset": 0,
            "slot": "0",
            "type": "t_array(t_struct(Checkpoint)6105_storage)dyn_storage"
          }
        ],
        "numberOfBytes": "32"
      },
      "t_struct(ProposalCore)621_storage": {
        "encoding": "inplace",
        "label": "struct Governor.ProposalCore",
        "members": [
          {
            "astId": 613,
            "contract": "contracts/GovernerContract.sol:GovernerContract",
            "label": "voteStart",
            "offset": 0,
            "slot": "0",
            "type": "t_struct(BlockNumber)6762_storage"
          },
          {
            "astId": 616,
            "contract": "contracts/GovernerContract.sol:GovernerContract",
            "label": "voteEnd",
            "offset": 0,
            "slot": "1",
            "type": "t_struct(BlockNumber)6762_storage"
          },
          {
            "astId": 618,
            "contract": "contracts/GovernerContract.sol:GovernerContract",
            "label": "executed",
            "offset": 0,
            "slot": "2",
            "type": "t_bool"
          },
          {
            "astId": 620,
            "contract": "contracts/GovernerContract.sol:GovernerContract",
            "label": "canceled",
            "offset": 1,
            "slot": "2",
            "type": "t_bool"
          }
        ],
        "numberOfBytes": "96"
      },
      "t_struct(ProposalVote)3083_storage": {
        "encoding": "inplace",
        "label": "struct GovernorCountingSimple.ProposalVote",
        "members": [
          {
            "astId": 3074,
            "contract": "contracts/GovernerContract.sol:GovernerContract",
            "label": "againstVotes",
            "offset": 0,
            "slot": "0",
            "type": "t_uint256"
          },
          {
            "astId": 3076,
            "contract": "contracts/GovernerContract.sol:GovernerContract",
            "label": "forVotes",
            "offset": 0,
            "slot": "1",
            "type": "t_uint256"
          },
          {
            "astId": 3078,
            "contract": "contracts/GovernerContract.sol:GovernerContract",
            "label": "abstainVotes",
            "offset": 0,
            "slot": "2",
            "type": "t_uint256"
          },
          {
            "astId": 3082,
            "contract": "contracts/GovernerContract.sol:GovernerContract",
            "label": "hasVoted",
            "offset": 0,
            "slot": "3",
            "type": "t_mapping(t_address,t_bool)"
          }
        ],
        "numberOfBytes": "128"
      },
      "t_uint224": {
        "encoding": "inplace",
        "label": "uint224",
        "numberOfBytes": "28"
      },
      "t_uint256": {
        "encoding": "inplace",
        "label": "uint256",
        "numberOfBytes": "32"
      },
      "t_uint32": {
        "encoding": "inplace",
        "label": "uint32",
        "numberOfBytes": "4"
      },
      "t_uint64": {
        "encoding": "inplace",
        "label": "uint64",
        "numberOfBytes": "8"
      }
    }
  }
}