{
  "address": "0xCf7Ed3AccA5a467e9e704C703E8D87F634fB0Fc9",
  "abi": [
    {
      "inputs": [
        {
          "internalType": "contract IVotes",
          "name": "_token",
          "type": "address"
        },
        {
          "internalType": "contract TimelockController",
          "name": "_timelock",
          "type": "address"
        },
        {
          "internalType": "uint256",
          "name": "_votingDelay",
          "type": "uint256"
        },
        {
          "internalType": "uint256",
          "name": "_votingPeriod",
          "type": "uint256"
        },
        {
          "internalType": "uint256",
          "name": "_quorumPercentage",
          "type": "uint256"
        },
        {
          "internalType": "uint256",
          "name": "_enteranceFee",
          "type": "uint256"
        },
        {
          "internalType": "uint256",
          "name": "_daoPercentage",
          "type": "uint256"
        }
      ],
      "stateMutability": "nonpayable",
      "type": "constructor"
    },
    {
      "inputs": [],
      "name": "Empty",
      "type": "error"
    },
    {
      "inputs": [],
      "name": "FundProject__EnteranceFeeNeeded",
      "type": "error"
    },
    {
      "inputs": [],
      "name": "FundProject__NotApporovedByDao",
      "type": "error"
    },
    {
      "inputs": [],
      "name": "FundProject__NotEnoughPayment",
      "type": "error"
    },
    {
      "inputs": [
        {
          "internalType": "uint256",
          "name": "_projectId",
          "type": "uint256"
        }
      ],
      "name": "FundProject__TransferFailed",
      "type": "error"
    },
    {
      "inputs": [],
      "name": "FundProject__UpkeepNeeded",
      "type": "error"
    },
    {
      "inputs": [],
      "name": "FundProject__WithdrawTransferFailed",
      "type": "error"
    },
    {
      "inputs": [],
      "name": "FundProject__withdrawFund",
      "type": "error"
    },
    {
      "inputs": [],
      "name": "GovernerContract__NeedEnteranceFee",
      "type": "error"
    },
    {
      "anonymous": false,
      "inputs": [
        {
          "indexed": true,
          "internalType": "address",
          "name": "previousOwner",
          "type": "address"
        },
        {
          "indexed": true,
          "internalType": "address",
          "name": "newOwner",
          "type": "address"
        }
      ],
      "name": "OwnershipTransferred",
      "type": "event"
    },
    {
      "anonymous": false,
      "inputs": [
        {
          "indexed": false,
          "internalType": "uint256",
          "name": "proposalId",
          "type": "uint256"
        }
      ],
      "name": "ProposalCanceled",
      "type": "event"
    },
    {
      "anonymous": false,
      "inputs": [
        {
          "indexed": false,
          "internalType": "uint256",
          "name": "proposalId",
          "type": "uint256"
        },
        {
          "indexed": false,
          "internalType": "address",
          "name": "proposer",
          "type": "address"
        },
        {
          "indexed": false,
          "internalType": "address[]",
          "name": "targets",
          "type": "address[]"
        },
        {
          "indexed": false,
          "internalType": "uint256[]",
          "name": "values",
          "type": "uint256[]"
        },
        {
          "indexed": false,
          "internalType": "string[]",
          "name": "signatures",
          "type": "string[]"
        },
        {
          "indexed": false,
          "internalType": "bytes[]",
          "name": "calldatas",
          "type": "bytes[]"
        },
        {
          "indexed": false,
          "internalType": "uint256",
          "name": "startBlock",
          "type": "uint256"
        },
        {
          "indexed": false,
          "internalType": "uint256",
          "name": "endBlock",
          "type": "uint256"
        },
        {
          "indexed": false,
          "internalType": "string",
          "name": "description",
          "type": "string"
        }
      ],
      "name": "ProposalCreated",
      "type": "event"
    },
    {
      "anonymous": false,
      "inputs": [
        {
          "indexed": false,
          "internalType": "uint256",
          "name": "proposalId",
          "type": "uint256"
        }
      ],
      "name": "ProposalExecuted",
      "type": "event"
    },
    {
      "anonymous": false,
      "inputs": [
        {
          "indexed": false,
          "internalType": "uint256",
          "name": "proposalId",
          "type": "uint256"
        },
        {
          "indexed": false,
          "internalType": "uint256",
          "name": "eta",
          "type": "uint256"
        }
      ],
      "name": "ProposalQueued",
      "type": "event"
    },
    {
      "anonymous": false,
      "inputs": [
        {
          "indexed": false,
          "internalType": "uint256",
          "name": "oldProposalThreshold",
          "type": "uint256"
        },
        {
          "indexed": false,
          "internalType": "uint256",
          "name": "newProposalThreshold",
          "type": "uint256"
        }
      ],
      "name": "ProposalThresholdSet",
      "type": "event"
    },
    {
      "anonymous": false,
      "inputs": [
        {
          "indexed": false,
          "internalType": "uint256",
          "name": "oldQuorumNumerator",
          "type": "uint256"
        },
        {
          "indexed": false,
          "internalType": "uint256",
          "name": "newQuorumNumerator",
          "type": "uint256"
        }
      ],
      "name": "QuorumNumeratorUpdated",
      "type": "event"
    },
    {
      "anonymous": false,
      "inputs": [
        {
          "indexed": false,
          "internalType": "address",
          "name": "oldTimelock",
          "type": "address"
        },
        {
          "indexed": false,
          "internalType": "address",
          "name": "newTimelock",
          "type": "address"
        }
      ],
      "name": "TimelockChange",
      "type": "event"
    },
    {
      "anonymous": false,
      "inputs": [
        {
          "indexed": true,
          "internalType": "address",
          "name": "voter",
          "type": "address"
        },
        {
          "indexed": false,
          "internalType": "uint256",
          "name": "proposalId",
          "type": "uint256"
        },
        {
          "indexed": false,
          "internalType": "uint8",
          "name": "support",
          "type": "uint8"
        },
        {
          "indexed": false,
          "internalType": "uint256",
          "name": "weight",
          "type": "uint256"
        },
        {
          "indexed": false,
          "internalType": "string",
          "name": "reason",
          "type": "string"
        }
      ],
      "name": "VoteCast",
      "type": "event"
    },
    {
      "anonymous": false,
      "inputs": [
        {
          "indexed": true,
          "internalType": "address",
          "name": "voter",
          "type": "address"
        },
        {
          "indexed": false,
          "internalType": "uint256",
          "name": "proposalId",
          "type": "uint256"
        },
        {
          "indexed": false,
          "internalType": "uint8",
          "name": "support",
          "type": "uint8"
        },
        {
          "indexed": false,
          "internalType": "uint256",
          "name": "weight",
          "type": "uint256"
        },
        {
          "indexed": false,
          "internalType": "string",
          "name": "reason",
          "type": "string"
        },
        {
          "indexed": false,
          "internalType": "bytes",
          "name": "params",
          "type": "bytes"
        }
      ],
      "name": "VoteCastWithParams",
      "type": "event"
    },
    {
      "anonymous": false,
      "inputs": [
        {
          "indexed": false,
          "internalType": "uint256",
          "name": "oldVotingDelay",
          "type": "uint256"
        },
        {
          "indexed": false,
          "internalType": "uint256",
          "name": "newVotingDelay",
          "type": "uint256"
        }
      ],
      "name": "VotingDelaySet",
      "type": "event"
    },
    {
      "anonymous": false,
      "inputs": [
        {
          "indexed": false,
          "internalType": "uint256",
          "name": "oldVotingPeriod",
          "type": "uint256"
        },
        {
          "indexed": false,
          "internalType": "uint256",
          "name": "newVotingPeriod",
          "type": "uint256"
        }
      ],
      "name": "VotingPeriodSet",
      "type": "event"
    },
    {
      "anonymous": false,
      "inputs": [
        {
          "indexed": true,
          "internalType": "address",
          "name": "_projectOwner",
          "type": "address"
        }
      ],
      "name": "enteranceFeePaid",
      "type": "event"
    },
    {
      "anonymous": false,
      "inputs": [
        {
          "indexed": true,
          "internalType": "uint256",
          "name": "_projectId",
          "type": "uint256"
        }
      ],
      "name": "projectFundingFailed",
      "type": "event"
    },
    {
      "anonymous": false,
      "inputs": [
        {
          "indexed": true,
          "internalType": "uint256",
          "name": "_projectId",
          "type": "uint256"
        }
      ],
      "name": "projectGoesToFunding",
      "type": "event"
    },
    {
      "anonymous": false,
      "inputs": [
        {
          "indexed": true,
          "internalType": "uint256",
          "name": "_projectId",
          "type": "uint256"
        }
      ],
      "name": "projectSuccessfullyFunded",
      "type": "event"
    },
    {
      "anonymous": false,
      "inputs": [
        {
          "indexed": true,
          "internalType": "address",
          "name": "__investor",
          "type": "address"
        },
        {
          "indexed": true,
          "internalType": "uint256",
          "name": "__projectId",
          "type": "uint256"
        }
      ],
      "name": "withdrawFundSuccessfully",
      "type": "event"
    },
    {
      "inputs": [],
      "name": "BALLOT_TYPEHASH",
      "outputs": [
        {
          "internalType": "bytes32",
          "name": "",
          "type": "bytes32"
        }
      ],
      "stateMutability": "view",
      "type": "function"
    },
    {
      "inputs": [],
      "name": "COUNTING_MODE",
      "outputs": [
        {
          "internalType": "string",
          "name": "",
          "type": "string"
        }
      ],
      "stateMutability": "pure",
      "type": "function"
    },
    {
      "inputs": [],
      "name": "EXTENDED_BALLOT_TYPEHASH",
      "outputs": [
        {
          "internalType": "bytes32",
          "name": "",
          "type": "bytes32"
        }
      ],
      "stateMutability": "view",
      "type": "function"
    },
    {
      "inputs": [
        {
          "internalType": "uint256",
          "name": "",
          "type": "uint256"
        }
      ],
      "name": "_ProjectFundingStatus",
      "outputs": [
        {
          "internalType": "enum FundProject.ProjectFundingStatus",
          "name": "",
          "type": "uint8"
        }
      ],
      "stateMutability": "view",
      "type": "function"
    },
    {
      "inputs": [
        {
          "internalType": "uint256",
          "name": "_projecID",
          "type": "uint256"
        }
      ],
      "name": "_getBalanceOfProject",
      "outputs": [
        {
          "internalType": "uint256",
          "name": "",
          "type": "uint256"
        }
      ],
      "stateMutability": "view",
      "type": "function"
    },
    {
      "inputs": [
        {
          "internalType": "uint256",
          "name": "_projecID",
          "type": "uint256"
        }
      ],
      "name": "_getFundingGoalAmount",
      "outputs": [
        {
          "internalType": "uint256",
          "name": "",
          "type": "uint256"
        }
      ],
      "stateMutability": "view",
      "type": "function"
    },
    {
      "inputs": [
        {
          "internalType": "uint256",
          "name": "_projecID",
          "type": "uint256"
        }
      ],
      "name": "_getHashOfProjectData",
      "outputs": [
        {
          "internalType": "string",
          "name": "",
          "type": "string"
        }
      ],
      "stateMutability": "view",
      "type": "function"
    },
    {
      "inputs": [
        {
          "internalType": "string",
          "name": "_ipfsHash",
          "type": "string"
        }
      ],
      "name": "_getProjectId",
      "outputs": [
        {
          "internalType": "uint256",
          "name": "",
          "type": "uint256"
        }
      ],
      "stateMutability": "view",
      "type": "function"
    },
    {
      "inputs": [
        {
          "internalType": "uint256",
          "name": "_projectID",
          "type": "uint256"
        }
      ],
      "name": "_getProjectStatus",
      "outputs": [
        {
          "internalType": "enum FundProject.ProjectFundingStatus",
          "name": "",
          "type": "uint8"
        }
      ],
      "stateMutability": "view",
      "type": "function"
    },
    {
      "inputs": [
        {
          "internalType": "uint256",
          "name": "_projecID",
          "type": "uint256"
        }
      ],
      "name": "_isApporoveFundingByDao",
      "outputs": [
        {
          "internalType": "bool",
          "name": "",
          "type": "bool"
        }
      ],
      "stateMutability": "view",
      "type": "function"
    },
    {
      "inputs": [
        {
          "internalType": "uint256",
          "name": "",
          "type": "uint256"
        }
      ],
      "name": "_isApporovedByDao",
      "outputs": [
        {
          "internalType": "bool",
          "name": "",
          "type": "bool"
        }
      ],
      "stateMutability": "view",
      "type": "function"
    },
    {
      "inputs": [
        {
          "internalType": "address",
          "name": "",
          "type": "address"
        }
      ],
      "name": "_isEnteranceFeePaid",
      "outputs": [
        {
          "internalType": "bool",
          "name": "",
          "type": "bool"
        }
      ],
      "stateMutability": "view",
      "type": "function"
    },
    {
      "inputs": [
        {
          "internalType": "uint256",
          "name": "",
          "type": "uint256"
        }
      ],
      "name": "_isFunding",
      "outputs": [
        {
          "internalType": "bool",
          "name": "",
          "type": "bool"
        }
      ],
      "stateMutability": "view",
      "type": "function"
    },
    {
      "inputs": [
        {
          "internalType": "string",
          "name": "_ipfsHash",
          "type": "string"
        },
        {
          "internalType": "uint256",
          "name": "_fundingGoalAmount",
          "type": "uint256"
        },
        {
          "internalType": "uint256",
          "name": "_time",
          "type": "uint256"
        },
        {
          "internalType": "address",
          "name": "_projectOwnerAddress",
          "type": "address"
        }
      ],
      "name": "apporoveFundingByDao",
      "outputs": [],
      "stateMutability": "nonpayable",
      "type": "function"
    },
    {
      "inputs": [
        {
          "internalType": "uint256",
          "name": "_projecID",
          "type": "uint256"
        }
      ],
      "name": "cancelApporovelFundingByDao",
      "outputs": [],
      "stateMutability": "nonpayable",
      "type": "function"
    },
    {
      "inputs": [
        {
          "internalType": "uint256",
          "name": "proposalId",
          "type": "uint256"
        },
        {
          "internalType": "uint8",
          "name": "support",
          "type": "uint8"
        }
      ],
      "name": "castVote",
      "outputs": [
        {
          "internalType": "uint256",
          "name": "",
          "type": "uint256"
        }
      ],
      "stateMutability": "nonpayable",
      "type": "function"
    },
    {
      "inputs": [
        {
          "internalType": "uint256",
          "name": "proposalId",
          "type": "uint256"
        },
        {
          "internalType": "uint8",
          "name": "support",
          "type": "uint8"
        },
        {
          "internalType": "uint8",
          "name": "v",
          "type": "uint8"
        },
        {
          "internalType": "bytes32",
          "name": "r",
          "type": "bytes32"
        },
        {
          "internalType": "bytes32",
          "name": "s",
          "type": "bytes32"
        }
      ],
      "name": "castVoteBySig",
      "outputs": [
        {
          "internalType": "uint256",
          "name": "",
          "type": "uint256"
        }
      ],
      "stateMutability": "nonpayable",
      "type": "function"
    },
    {
      "inputs": [
        {
          "internalType": "uint256",
          "name": "proposalId",
          "type": "uint256"
        },
        {
          "internalType": "uint8",
          "name": "support",
          "type": "uint8"
        },
        {
          "internalType": "string",
          "name": "reason",
          "type": "string"
        }
      ],
      "name": "castVoteWithReason",
      "outputs": [
        {
          "internalType": "uint256",
          "name": "",
          "type": "uint256"
        }
      ],
      "stateMutability": "nonpayable",
      "type": "function"
    },
    {
      "inputs": [
        {
          "internalType": "uint256",
          "name": "proposalId",
          "type": "uint256"
        },
        {
          "internalType": "uint8",
          "name": "support",
          "type": "uint8"
        },
        {
          "internalType": "string",
          "name": "reason",
          "type": "string"
        },
        {
          "internalType": "bytes",
          "name": "params",
          "type": "bytes"
        }
      ],
      "name": "castVoteWithReasonAndParams",
      "outputs": [
        {
          "internalType": "uint256",
          "name": "",
          "type": "uint256"
        }
      ],
      "stateMutability": "nonpayable",
      "type": "function"
    },
    {
      "inputs": [
        {
          "internalType": "uint256",
          "name": "proposalId",
          "type": "uint256"
        },
        {
          "internalType": "uint8",
          "name": "support",
          "type": "uint8"
        },
        {
          "internalType": "string",
          "name": "reason",
          "type": "string"
        },
        {
          "internalType": "bytes",
          "name": "params",
          "type": "bytes"
        },
        {
          "internalType": "uint8",
          "name": "v",
          "type": "uint8"
        },
        {
          "internalType": "bytes32",
          "name": "r",
          "type": "bytes32"
        },
        {
          "internalType": "bytes32",
          "name": "s",
          "type": "bytes32"
        }
      ],
      "name": "castVoteWithReasonAndParamsBySig",
      "outputs": [
        {
          "internalType": "uint256",
          "name": "",
          "type": "uint256"
        }
      ],
      "stateMutability": "nonpayable",
      "type": "function"
    },
    {
      "inputs": [
        {
          "internalType": "bytes",
          "name": "",
          "type": "bytes"
        }
      ],
      "name": "checkUpkeep",
      "outputs": [
        {
          "internalType": "bool",
          "name": "upkeepNeeded",
          "type": "bool"
        },
        {
          "internalType": "bytes",
          "name": "performData",
          "type": "bytes"
        }
      ],
      "stateMutability": "view",
      "type": "function"
    },
    {
      "inputs": [],
      "name": "daoPercentage",
      "outputs": [
        {
          "internalType": "uint256",
          "name": "",
          "type": "uint256"
        }
      ],
      "stateMutability": "view",
      "type": "function"
    },
    {
      "inputs": [],
      "name": "enteranceFee",
      "outputs": [
        {
          "internalType": "uint256",
          "name": "",
          "type": "uint256"
        }
      ],
      "stateMutability": "view",
      "type": "function"
    },
    {
      "inputs": [
        {
          "internalType": "address[]",
          "name": "targets",
          "type": "address[]"
        },
        {
          "internalType": "uint256[]",
          "name": "values",
          "type": "uint256[]"
        },
        {
          "internalType": "bytes[]",
          "name": "calldatas",
          "type": "bytes[]"
        },
        {
          "internalType": "bytes32",
          "name": "descriptionHash",
          "type": "bytes32"
        }
      ],
      "name": "execute",
      "outputs": [
        {
          "internalType": "uint256",
          "name": "",
          "type": "uint256"
        }
      ],
      "stateMutability": "payable",
      "type": "function"
    },
    {
      "inputs": [
        {
          "internalType": "uint256",
          "name": "_projecID",
          "type": "uint256"
        }
      ],
      "name": "fund",
      "outputs": [],
      "stateMutability": "payable",
      "type": "function"
    },
    {
      "inputs": [
        {
          "internalType": "uint256",
          "name": "",
          "type": "uint256"
        },
        {
          "internalType": "address",
          "name": "",
          "type": "address"
        }
      ],
      "name": "funders",
      "outputs": [
        {
          "internalType": "uint256",
          "name": "",
          "type": "uint256"
        }
      ],
      "stateMutability": "view",
      "type": "function"
    },
    {
      "inputs": [],
      "name": "getDaoPercentage",
      "outputs": [
        {
          "internalType": "uint256",
          "name": "",
          "type": "uint256"
        }
      ],
      "stateMutability": "view",
      "type": "function"
    },
    {
      "inputs": [],
      "name": "getEnteranceFee",
      "outputs": [
        {
          "internalType": "uint256",
          "name": "",
          "type": "uint256"
        }
      ],
      "stateMutability": "view",
      "type": "function"
    },
    {
      "inputs": [
        {
          "internalType": "uint256",
          "name": "_projectID",
          "type": "uint256"
        }
      ],
      "name": "getFunderBalance",
      "outputs": [
        {
          "internalType": "uint256",
          "name": "",
          "type": "uint256"
        }
      ],
      "stateMutability": "view",
      "type": "function"
    },
    {
      "inputs": [
        {
          "internalType": "address",
          "name": "investor",
          "type": "address"
        }
      ],
      "name": "getInvestedProjects",
      "outputs": [
        {
          "internalType": "uint256[]",
          "name": "",
          "type": "uint256[]"
        }
      ],
      "stateMutability": "view",
      "type": "function"
    },
    {
      "inputs": [
        {
          "internalType": "uint256",
          "name": "_projectID",
          "type": "uint256"
        }
      ],
      "name": "getTimeleft",
      "outputs": [
        {
          "internalType": "uint256",
          "name": "a",
          "type": "uint256"
        },
        {
          "internalType": "uint256",
          "name": "b",
          "type": "uint256"
        }
      ],
      "stateMutability": "view",
      "type": "function"
    },
    {
      "inputs": [
        {
          "internalType": "address",
          "name": "account",
          "type": "address"
        },
        {
          "internalType": "uint256",
          "name": "blockNumber",
          "type": "uint256"
        }
      ],
      "name": "getVotes",
      "outputs": [
        {
          "internalType": "uint256",
          "name": "",
          "type": "uint256"
        }
      ],
      "stateMutability": "view",
      "type": "function"
    },
    {
      "inputs": [
        {
          "internalType": "address",
          "name": "account",
          "type": "address"
        },
        {
          "internalType": "uint256",
          "name": "blockNumber",
          "type": "uint256"
        },
        {
          "internalType": "bytes",
          "name": "params",
          "type": "bytes"
        }
      ],
      "name": "getVotesWithParams",
      "outputs": [
        {
          "internalType": "uint256",
          "name": "",
          "type": "uint256"
        }
      ],
      "stateMutability": "view",
      "type": "function"
    },
    {
      "inputs": [
        {
          "internalType": "uint256",
          "name": "proposalId",
          "type": "uint256"
        },
        {
          "internalType": "address",
          "name": "account",
          "type": "address"
        }
      ],
      "name": "hasVoted",
      "outputs": [
        {
          "internalType": "bool",
          "name": "",
          "type": "bool"
        }
      ],
      "stateMutability": "view",
      "type": "function"
    },
    {
      "inputs": [
        {
          "internalType": "address[]",
          "name": "targets",
          "type": "address[]"
        },
        {
          "internalType": "uint256[]",
          "name": "values",
          "type": "uint256[]"
        },
        {
          "internalType": "bytes[]",
          "name": "calldatas",
          "type": "bytes[]"
        },
        {
          "internalType": "bytes32",
          "name": "descriptionHash",
          "type": "bytes32"
        }
      ],
      "name": "hashProposal",
      "outputs": [
        {
          "internalType": "uint256",
          "name": "",
          "type": "uint256"
        }
      ],
      "stateMutability": "pure",
      "type": "function"
    },
    {
      "inputs": [
        {
          "internalType": "string",
          "name": "",
          "type": "string"
        }
      ],
      "name": "hashToProjectId",
      "outputs": [
        {
          "internalType": "uint256",
          "name": "",
          "type": "uint256"
        }
      ],
      "stateMutability": "view",
      "type": "function"
    },
    {
      "inputs": [
        {
          "internalType": "uint256",
          "name": "",
          "type": "uint256"
        }
      ],
      "name": "idToHash",
      "outputs": [
        {
          "internalType": "string",
          "name": "",
          "type": "string"
        }
      ],
      "stateMutability": "view",
      "type": "function"
    },
    {
      "inputs": [
        {
          "internalType": "address",
          "name": "",
          "type": "address"
        },
        {
          "internalType": "uint256",
          "name": "",
          "type": "uint256"
        }
      ],
      "name": "investedProjects",
      "outputs": [
        {
          "internalType": "uint256",
          "name": "",
          "type": "uint256"
        }
      ],
      "stateMutability": "view",
      "type": "function"
    },
    {
      "inputs": [
        {
          "internalType": "address",
          "name": "account",
          "type": "address"
        }
      ],
      "name": "isEnteranceFeePaid",
      "outputs": [
        {
          "internalType": "bool",
          "name": "",
          "type": "bool"
        }
      ],
      "stateMutability": "view",
      "type": "function"
    },
    {
      "inputs": [
        {
          "internalType": "uint256",
          "name": "_projectID",
          "type": "uint256"
        }
      ],
      "name": "is_funding",
      "outputs": [
        {
          "internalType": "bool",
          "name": "",
          "type": "bool"
        }
      ],
      "stateMutability": "view",
      "type": "function"
    },
    {
      "inputs": [],
      "name": "lastTimeStamp",
      "outputs": [
        {
          "internalType": "uint256",
          "name": "",
          "type": "uint256"
        }
      ],
      "stateMutability": "view",
      "type": "function"
    },
    {
      "inputs": [],
      "name": "name",
      "outputs": [
        {
          "internalType": "string",
          "name": "",
          "type": "string"
        }
      ],
      "stateMutability": "view",
      "type": "function"
    },
    {
      "inputs": [
        {
          "internalType": "address",
          "name": "",
          "type": "address"
        },
        {
          "internalType": "address",
          "name": "",
          "type": "address"
        },
        {
          "internalType": "uint256[]",
          "name": "",
          "type": "uint256[]"
        },
        {
          "internalType": "uint256[]",
          "name": "",
          "type": "uint256[]"
        },
        {
          "internalType": "bytes",
          "name": "",
          "type": "bytes"
        }
      ],
      "name": "onERC1155BatchReceived",
      "outputs": [
        {
          "internalType": "bytes4",
          "name": "",
          "type": "bytes4"
        }
      ],
      "stateMutability": "nonpayable",
      "type": "function"
    },
    {
      "inputs": [
        {
          "internalType": "address",
          "name": "",
          "type": "address"
        },
        {
          "internalType": "address",
          "name": "",
          "type": "address"
        },
        {
          "internalType": "uint256",
          "name": "",
          "type": "uint256"
        },
        {
          "internalType": "uint256",
          "name": "",
          "type": "uint256"
        },
        {
          "internalType": "bytes",
          "name": "",
          "type": "bytes"
        }
      ],
      "name": "onERC1155Received",
      "outputs": [
        {
          "internalType": "bytes4",
          "name": "",
          "type": "bytes4"
        }
      ],
      "stateMutability": "nonpayable",
      "type": "function"
    },
    {
      "inputs": [
        {
          "internalType": "address",
          "name": "",
          "type": "address"
        },
        {
          "internalType": "address",
          "name": "",
          "type": "address"
        },
        {
          "internalType": "uint256",
          "name": "",
          "type": "uint256"
        },
        {
          "internalType": "bytes",
          "name": "",
          "type": "bytes"
        }
      ],
      "name": "onERC721Received",
      "outputs": [
        {
          "internalType": "bytes4",
          "name": "",
          "type": "bytes4"
        }
      ],
      "stateMutability": "nonpayable",
      "type": "function"
    },
    {
      "inputs": [],
      "name": "owner",
      "outputs": [
        {
          "internalType": "address",
          "name": "",
          "type": "address"
        }
      ],
      "stateMutability": "view",
      "type": "function"
    },
    {
      "inputs": [],
      "name": "paySubmitFee",
      "outputs": [],
      "stateMutability": "payable",
      "type": "function"
    },
    {
      "inputs": [
        {
          "internalType": "bytes",
          "name": "performData",
          "type": "bytes"
        }
      ],
      "name": "performUpkeep",
      "outputs": [],
      "stateMutability": "nonpayable",
      "type": "function"
    },
    {
      "inputs": [
        {
          "internalType": "uint256",
          "name": "",
          "type": "uint256"
        }
      ],
      "name": "projectFundingGoalAmount",
      "outputs": [
        {
          "internalType": "uint256",
          "name": "",
          "type": "uint256"
        }
      ],
      "stateMutability": "view",
      "type": "function"
    },
    {
      "inputs": [
        {
          "internalType": "uint256",
          "name": "",
          "type": "uint256"
        }
      ],
      "name": "projectFunds",
      "outputs": [
        {
          "internalType": "uint256",
          "name": "",
          "type": "uint256"
        }
      ],
      "stateMutability": "view",
      "type": "function"
    },
    {
      "inputs": [],
      "name": "projectId",
      "outputs": [
        {
          "internalType": "uint256",
          "name": "",
          "type": "uint256"
        }
      ],
      "stateMutability": "view",
      "type": "function"
    },
    {
      "inputs": [
        {
          "internalType": "uint256",
          "name": "",
          "type": "uint256"
        }
      ],
      "name": "projectOwnerAddress",
      "outputs": [
        {
          "internalType": "address",
          "name": "",
          "type": "address"
        }
      ],
      "stateMutability": "view",
      "type": "function"
    },
    {
      "inputs": [
        {
          "internalType": "uint256",
          "name": "",
          "type": "uint256"
        },
        {
          "internalType": "uint256",
          "name": "",
          "type": "uint256"
        }
      ],
      "name": "projectToTime",
      "outputs": [
        {
          "internalType": "uint256",
          "name": "",
          "type": "uint256"
        }
      ],
      "stateMutability": "view",
      "type": "function"
    },
    {
      "inputs": [
        {
          "internalType": "uint256",
          "name": "proposalId",
          "type": "uint256"
        }
      ],
      "name": "proposalDeadline",
      "outputs": [
        {
          "internalType": "uint256",
          "name": "",
          "type": "uint256"
        }
      ],
      "stateMutability": "view",
      "type": "function"
    },
    {
      "inputs": [
        {
          "internalType": "uint256",
          "name": "proposalId",
          "type": "uint256"
        }
      ],
      "name": "proposalEta",
      "outputs": [
        {
          "internalType": "uint256",
          "name": "",
          "type": "uint256"
        }
      ],
      "stateMutability": "view",
      "type": "function"
    },
    {
      "inputs": [
        {
          "internalType": "uint256",
          "name": "proposalId",
          "type": "uint256"
        }
      ],
      "name": "proposalSnapshot",
      "outputs": [
        {
          "internalType": "uint256",
          "name": "",
          "type": "uint256"
        }
      ],
      "stateMutability": "view",
      "type": "function"
    },
    {
      "inputs": [],
      "name": "proposalThreshold",
      "outputs": [
        {
          "internalType": "uint256",
          "name": "",
          "type": "uint256"
        }
      ],
      "stateMutability": "view",
      "type": "function"
    },
    {
      "inputs": [
        {
          "internalType": "uint256",
          "name": "proposalId",
          "type": "uint256"
        }
      ],
      "name": "proposalVotes",
      "outputs": [
        {
          "internalType": "uint256",
          "name": "againstVotes",
          "type": "uint256"
        },
        {
          "internalType": "uint256",
          "name": "forVotes",
          "type": "uint256"
        },
        {
          "internalType": "uint256",
          "name": "abstainVotes",
          "type": "uint256"
        }
      ],
      "stateMutability": "view",
      "type": "function"
    },
    {
      "inputs": [
        {
          "internalType": "address[]",
          "name": "targets",
          "type": "address[]"
        },
        {
          "internalType": "uint256[]",
          "name": "values",
          "type": "uint256[]"
        },
        {
          "internalType": "bytes[]",
          "name": "calldatas",
          "type": "bytes[]"
        },
        {
          "internalType": "string",
          "name": "description",
          "type": "string"
        }
      ],
      "name": "propose",
      "outputs": [
        {
          "internalType": "uint256",
          "name": "",
          "type": "uint256"
        }
      ],
      "stateMutability": "nonpayable",
      "type": "function"
    },
    {
      "inputs": [
        {
          "internalType": "address[]",
          "name": "targets",
          "type": "address[]"
        },
        {
          "internalType": "uint256[]",
          "name": "values",
          "type": "uint256[]"
        },
        {
          "internalType": "bytes[]",
          "name": "calldatas",
          "type": "bytes[]"
        },
        {
          "internalType": "bytes32",
          "name": "descriptionHash",
          "type": "bytes32"
        }
      ],
      "name": "queue",
      "outputs": [
        {
          "internalType": "uint256",
          "name": "",
          "type": "uint256"
        }
      ],
      "stateMutability": "nonpayable",
      "type": "function"
    },
    {
      "inputs": [
        {
          "internalType": "uint256",
          "name": "blockNumber",
          "type": "uint256"
        }
      ],
      "name": "quorum",
      "outputs": [
        {
          "internalType": "uint256",
          "name": "",
          "type": "uint256"
        }
      ],
      "stateMutability": "view",
      "type": "function"
    },
    {
      "inputs": [],
      "name": "quorumDenominator",
      "outputs": [
        {
          "internalType": "uint256",
          "name": "",
          "type": "uint256"
        }
      ],
      "stateMutability": "view",
      "type": "function"
    },
    {
      "inputs": [
        {
          "internalType": "uint256",
          "name": "blockNumber",
          "type": "uint256"
        }
      ],
      "name": "quorumNumerator",
      "outputs": [
        {
          "internalType": "uint256",
          "name": "",
          "type": "uint256"
        }
      ],
      "stateMutability": "view",
      "type": "function"
    },
    {
      "inputs": [],
      "name": "quorumNumerator",
      "outputs": [
        {
          "internalType": "uint256",
          "name": "",
          "type": "uint256"
        }
      ],
      "stateMutability": "view",
      "type": "function"
    },
    {
      "inputs": [
        {
          "internalType": "address",
          "name": "target",
          "type": "address"
        },
        {
          "internalType": "uint256",
          "name": "value",
          "type": "uint256"
        },
        {
          "internalType": "bytes",
          "name": "data",
          "type": "bytes"
        }
      ],
      "name": "relay",
      "outputs": [],
      "stateMutability": "nonpayable",
      "type": "function"
    },
    {
      "inputs": [],
      "name": "renounceOwnership",
      "outputs": [],
      "stateMutability": "nonpayable",
      "type": "function"
    },
    {
      "inputs": [
        {
          "internalType": "uint256",
          "name": "newProposalThreshold",
          "type": "uint256"
        }
      ],
      "name": "setProposalThreshold",
      "outputs": [],
      "stateMutability": "nonpayable",
      "type": "function"
    },
    {
      "inputs": [
        {
          "internalType": "uint256",
          "name": "newVotingDelay",
          "type": "uint256"
        }
      ],
      "name": "setVotingDelay",
      "outputs": [],
      "stateMutability": "nonpayable",
      "type": "function"
    },
    {
      "inputs": [
        {
          "internalType": "uint256",
          "name": "newVotingPeriod",
          "type": "uint256"
        }
      ],
      "name": "setVotingPeriod",
      "outputs": [],
      "stateMutability": "nonpayable",
      "type": "function"
    },
    {
      "inputs": [
        {
          "internalType": "uint256",
          "name": "proposalId",
          "type": "uint256"
        }
      ],
      "name": "state",
      "outputs": [
        {
          "internalType": "enum IGovernor.ProposalState",
          "name": "",
          "type": "uint8"
        }
      ],
      "stateMutability": "view",
      "type": "function"
    },
    {
      "inputs": [
        {
          "internalType": "bytes4",
          "name": "interfaceId",
          "type": "bytes4"
        }
      ],
      "name": "supportsInterface",
      "outputs": [
        {
          "internalType": "bool",
          "name": "",
          "type": "bool"
        }
      ],
      "stateMutability": "view",
      "type": "function"
    },
    {
      "inputs": [
        {
          "internalType": "uint256",
          "name": "",
          "type": "uint256"
        }
      ],
      "name": "time",
      "outputs": [
        {
          "internalType": "uint256",
          "name": "",
          "type": "uint256"
        }
      ],
      "stateMutability": "view",
      "type": "function"
    },
    {
      "inputs": [],
      "name": "timelock",
      "outputs": [
        {
          "internalType": "address",
          "name": "",
          "type": "address"
        }
      ],
      "stateMutability": "view",
      "type": "function"
    },
    {
      "inputs": [],
      "name": "token",
      "outputs": [
        {
          "internalType": "contract IVotes",
          "name": "",
          "type": "address"
        }
      ],
      "stateMutability": "view",
      "type": "function"
    },
    {
      "inputs": [
        {
          "internalType": "address",
          "name": "newOwner",
          "type": "address"
        }
      ],
      "name": "transferOwnership",
      "outputs": [],
      "stateMutability": "nonpayable",
      "type": "function"
    },
    {
      "inputs": [
        {
          "internalType": "uint256",
          "name": "newQuorumNumerator",
          "type": "uint256"
        }
      ],
      "name": "updateQuorumNumerator",
      "outputs": [],
      "stateMutability": "nonpayable",
      "type": "function"
    },
    {
      "inputs": [
        {
          "internalType": "contract TimelockController",
          "name": "newTimelock",
          "type": "address"
        }
      ],
      "name": "updateTimelock",
      "outputs": [],
      "stateMutability": "nonpayable",
      "type": "function"
    },
    {
      "inputs": [],
      "name": "version",
      "outputs": [
        {
          "internalType": "string",
          "name": "",
          "type": "string"
        }
      ],
      "stateMutability": "view",
      "type": "function"
    },
    {
      "inputs": [],
      "name": "votingDelay",
      "outputs": [
        {
          "internalType": "uint256",
          "name": "",
          "type": "uint256"
        }
      ],
      "stateMutability": "view",
      "type": "function"
    },
    {
      "inputs": [],
      "name": "votingPeriod",
      "outputs": [
        {
          "internalType": "uint256",
          "name": "",
          "type": "uint256"
        }
      ],
      "stateMutability": "view",
      "type": "function"
    },
    {
      "inputs": [
        {
          "internalType": "uint256",
          "name": "_projectID",
          "type": "uint256"
        }
      ],
      "name": "withdrawFund",
      "outputs": [],
      "stateMutability": "nonpayable",
      "type": "function"
    },
    {
      "stateMutability": "payable",
      "type": "receive"
    }
  ],
  "transactionHash": "0xf68e1e809d1243d90ad59a190682a582de34f34cced6bf36beb17591945f556d",
  "args": [
    "0xe7f1725E7734CE288F8367e1Bb143E90bb3F0512",
    "0x5FbDB2315678afecb367f032d93F642f64180aa3",
    0,
    200,
    0,
    "10000000000000000",
    "10"
  ],
  "numDeployments": 1,
  "solcInputHash": "9bb96e2ab1a2d14e7d6f1254972fa73c",
  "bytecode": "0x6101606040526001600d553480156200001757600080fd5b506040516200a4a93803806200a4a983398181016040528101906200003d919062000bff565b818187858a898960006040518060400160405280601081526020017f476f7665726e6572436f6e747261637400000000000000000000000000000000815250806200008d6200022660201b60201c565b60008280519060200120905060008280519060200120905060007f8b73c3c69bb8fe3d512ecc4cf759cc79239f7b179b0ffacaa9a75d522b39400f90508260e081815250508161010081815250504660a08181525050620000f68184846200026360201b60201c565b608081815250503073ffffffffffffffffffffffffffffffffffffffff1660c08173ffffffffffffffffffffffffffffffffffffffff16815250508061012081815250505050505050806000908162000150919062000f22565b505062000163836200029f60201b60201c565b6200017482620002e660201b60201c565b62000185816200037360201b60201c565b5050508073ffffffffffffffffffffffffffffffffffffffff166101408173ffffffffffffffffffffffffffffffffffffffff168152505050620001cf81620003ba60201b60201c565b50620001e1816200059960201b60201c565b5062000202620001f66200063a60201b60201c565b6200064260201b60201c565b42600e8190555080600f81905550816010819055505050505050505050506200142d565b60606040518060400160405280600181526020017f3100000000000000000000000000000000000000000000000000000000000000815250905090565b600083838346306040516020016200028095949392919062001046565b6040516020818303038152906040528051906020012090509392505050565b7fc565b045403dc03c2eea82b81a0465edad9e2e7fc4d97e11421c209da93d7a9360045482604051620002d4929190620010a3565b60405180910390a18060048190555050565b600081116200032c576040517f08c379a0000000000000000000000000000000000000000000000000000000008152600401620003239062001157565b60405180910390fd5b7f7e3f7f0708a84de9203036abaa450dccc85ad5ff52f78c170f3edb55cf5e88286005548260405162000361929190620010a3565b60405180910390a18060058190555050565b7fccb45da8d5717e6c4544694297c4ba5cf151d455c9bb0ed4fc7a38411bc0546160065482604051620003a8929190620010a3565b60405180910390a18060068190555050565b620003ca6200070860201b60201c565b8111156200040f576040517f08c379a0000000000000000000000000000000000000000000000000000000008152600401620004069062001215565b60405180910390fd5b6000620004216200071160201b60201c565b9050600081141580156200043d57506000600960000180549050145b156200053d5760096000016040518060400160405280600063ffffffff16815260200162000476846200074960201b62003abd1760201c565b7bffffffffffffffffffffffffffffffffffffffffffffffffffffffff168152509080600181540180825580915050600190039060005260206000200160009091909190915060008201518160000160006101000a81548163ffffffff021916908363ffffffff16021790555060208201518160000160046101000a8154817bffffffffffffffffffffffffffffffffffffffffffffffffffffffff02191690837bffffffffffffffffffffffffffffffffffffffffffffffffffffffff16021790555050505b62000558826009620007b760201b62003b281790919060201c565b50507f0553476bf02ef2726e8ce5ced78d63e26e602e4a2257b1f559418e24b463399781836040516200058d929190620010a3565b60405180910390a15050565b7f08f74ea46ef7894f65eabfb5e6e695de773a000b47c529ab559178069b226401600a60009054906101000a900473ffffffffffffffffffffffffffffffffffffffff1682604051620005ee92919062001237565b60405180910390a180600a60006101000a81548173ffffffffffffffffffffffffffffffffffffffff021916908373ffffffffffffffffffffffffffffffffffffffff16021790555050565b600033905090565b6000600c60009054906101000a900473ffffffffffffffffffffffffffffffffffffffff16905081600c60006101000a81548173ffffffffffffffffffffffffffffffffffffffff021916908373ffffffffffffffffffffffffffffffffffffffff1602179055508173ffffffffffffffffffffffffffffffffffffffff168173ffffffffffffffffffffffffffffffffffffffff167f8be0079c531659141344cd1fd0a4f28419497f9722a3daafe3b4186f6b6457e060405160405180910390a35050565b60006064905090565b6000806009600001805490501462000740576200073a6009620009f560201b62003d2a1760201c565b62000744565b6008545b905090565b60007bffffffffffffffffffffffffffffffffffffffffffffffffffffffff8016821115620007af576040517f08c379a0000000000000000000000000000000000000000000000000000000008152600401620007a690620012da565b60405180910390fd5b819050919050565b6000806000846000018054905090506000620007d986620009f560201b60201c565b90506000821180156200083557504386600001600184620007fb91906200132b565b815481106200080f576200080e62001366565b5b9060005260206000200160000160009054906101000a900463ffffffff1663ffffffff16145b15620008d95762000851856200074960201b62003abd1760201c565b866000016001846200086491906200132b565b8154811062000878576200087762001366565b5b9060005260206000200160000160046101000a8154817bffffffffffffffffffffffffffffffffffffffffffffffffffffffff02191690837bffffffffffffffffffffffffffffffffffffffffffffffffffffffff160217905550620009e6565b856000016040518060400160405280620008fe4362000a9760201b62003dc51760201c565b63ffffffff1681526020016200091f886200074960201b62003abd1760201c565b7bffffffffffffffffffffffffffffffffffffffffffffffffffffffff168152509080600181540180825580915050600190039060005260206000200160009091909190915060008201518160000160006101000a81548163ffffffff021916908363ffffffff16021790555060208201518160000160046101000a8154817bffffffffffffffffffffffffffffffffffffffffffffffffffffffff02191690837bffffffffffffffffffffffffffffffffffffffffffffffffffffffff16021790555050505b80859350935050509250929050565b600080826000018054905090506000811462000a6e578260000160018262000a1e91906200132b565b8154811062000a325762000a3162001366565b5b9060005260206000200160000160049054906101000a90047bffffffffffffffffffffffffffffffffffffffffffffffffffffffff1662000a71565b60005b7bffffffffffffffffffffffffffffffffffffffffffffffffffffffff16915050919050565b600063ffffffff801682111562000ae5576040517f08c379a000000000000000000000000000000000000000000000000000000000815260040162000adc906200140b565b60405180910390fd5b819050919050565b600080fd5b600073ffffffffffffffffffffffffffffffffffffffff82169050919050565b600062000b1f8262000af2565b9050919050565b600062000b338262000b12565b9050919050565b62000b458162000b26565b811462000b5157600080fd5b50565b60008151905062000b658162000b3a565b92915050565b600062000b788262000af2565b9050919050565b600062000b8c8262000b6b565b9050919050565b62000b9e8162000b7f565b811462000baa57600080fd5b50565b60008151905062000bbe8162000b93565b92915050565b6000819050919050565b62000bd98162000bc4565b811462000be557600080fd5b50565b60008151905062000bf98162000bce565b92915050565b600080600080600080600060e0888a03121562000c215762000c2062000aed565b5b600062000c318a828b0162000b54565b975050602062000c448a828b0162000bad565b965050604062000c578a828b0162000be8565b955050606062000c6a8a828b0162000be8565b945050608062000c7d8a828b0162000be8565b93505060a062000c908a828b0162000be8565b92505060c062000ca38a828b0162000be8565b91505092959891949750929550565b600081519050919050565b7f4e487b7100000000000000000000000000000000000000000000000000000000600052604160045260246000fd5b7f4e487b7100000000000000000000000000000000000000000000000000000000600052602260045260246000fd5b6000600282049050600182168062000d3457607f821691505b60208210810362000d4a5762000d4962000cec565b5b50919050565b60008190508160005260206000209050919050565b60006020601f8301049050919050565b600082821b905092915050565b60006008830262000db47fffffffffffffffffffffffffffffffffffffffffffffffffffffffffffffffff8262000d75565b62000dc0868362000d75565b95508019841693508086168417925050509392505050565b6000819050919050565b600062000e0362000dfd62000df78462000bc4565b62000dd8565b62000bc4565b9050919050565b6000819050919050565b62000e1f8362000de2565b62000e3762000e2e8262000e0a565b84845462000d82565b825550505050565b600090565b62000e4e62000e3f565b62000e5b81848462000e14565b505050565b5b8181101562000e835762000e7760008262000e44565b60018101905062000e61565b5050565b601f82111562000ed25762000e9c8162000d50565b62000ea78462000d65565b8101602085101562000eb7578190505b62000ecf62000ec68562000d65565b83018262000e60565b50505b505050565b600082821c905092915050565b600062000ef76000198460080262000ed7565b1980831691505092915050565b600062000f12838362000ee4565b9150826002028217905092915050565b62000f2d8262000cb2565b67ffffffffffffffff81111562000f495762000f4862000cbd565b5b62000f55825462000d1b565b62000f6282828562000e87565b600060209050601f83116001811462000f9a576000841562000f85578287015190505b62000f91858262000f04565b86555062001001565b601f19841662000faa8662000d50565b60005b8281101562000fd45784890151825560018201915060208501945060208101905062000fad565b8683101562000ff4578489015162000ff0601f89168262000ee4565b8355505b6001600288020188555050505b505050505050565b6000819050919050565b6200101e8162001009565b82525050565b6200102f8162000bc4565b82525050565b620010408162000b12565b82525050565b600060a0820190506200105d600083018862001013565b6200106c602083018762001013565b6200107b604083018662001013565b6200108a606083018562001024565b62001099608083018462001035565b9695505050505050565b6000604082019050620010ba600083018562001024565b620010c9602083018462001024565b9392505050565b600082825260208201905092915050565b7f476f7665726e6f7253657474696e67733a20766f74696e6720706572696f642060008201527f746f6f206c6f7700000000000000000000000000000000000000000000000000602082015250565b60006200113f602783620010d0565b91506200114c82620010e1565b604082019050919050565b60006020820190508181036000830152620011728162001130565b9050919050565b7f476f7665726e6f72566f74657351756f72756d4672616374696f6e3a2071756f60008201527f72756d4e756d657261746f72206f7665722071756f72756d44656e6f6d696e6160208201527f746f720000000000000000000000000000000000000000000000000000000000604082015250565b6000620011fd604383620010d0565b91506200120a8262001179565b606082019050919050565b600060208201905081810360008301526200123081620011ee565b9050919050565b60006040820190506200124e600083018562001035565b6200125d602083018462001035565b9392505050565b7f53616665436173743a2076616c756520646f65736e27742066697420696e203260008201527f3234206269747300000000000000000000000000000000000000000000000000602082015250565b6000620012c2602783620010d0565b9150620012cf8262001264565b604082019050919050565b60006020820190508181036000830152620012f581620012b3565b9050919050565b7f4e487b7100000000000000000000000000000000000000000000000000000000600052601160045260246000fd5b6000620013388262000bc4565b9150620013458362000bc4565b925082820390508181111562001360576200135f620012fc565b5b92915050565b7f4e487b7100000000000000000000000000000000000000000000000000000000600052603260045260246000fd5b7f53616665436173743a2076616c756520646f65736e27742066697420696e203360008201527f3220626974730000000000000000000000000000000000000000000000000000602082015250565b6000620013f3602683620010d0565b9150620014008262001395565b604082019050919050565b600060208201905081810360008301526200142681620013e4565b9050919050565b60805160a05160c05160e05161010051610120516101405161901362001496600039600081816139c201528181614cb50152614f29015260006151ef0152600061523101526000615210015260006151450152600061519b015260006151c401526190136000f3fe6080604052600436106104825760003560e01c8063794d556011610255578063bd1c9e4911610144578063deaaa7cc116100c1578063ece40cc111610085578063ece40cc114611464578063f23a6e611461148d578063f2fde38b146114ca578063f8ce560a146114f3578063fc0c546a14611530578063fea856a11461155b576104c8565b8063deaaa7cc14611358578063e0c410cc14611383578063e8405801146113c0578063ea0217cf146113fe578063eb9019d414611427576104c8565b8063ca1d209d11610108578063ca1d209d1461126c578063cf68625914611288578063d33219b4146112c5578063dc73204b146112f0578063dd4e2ba51461132d576104c8565b8063bd1c9e4914611161578063c01f9e371461118c578063c0d55329146111c9578063c28bc2fa14611206578063c59057e41461122f576104c8565b806397c3d334116101d2578063abe1aae611610196578063abe1aae614611042578063b58131b01461107f578063b59d18a0146110aa578063bba9c219146110e7578063bc197c8114611124576104c8565b806397c3d33414610f495780639a802a6d14610f74578063a7713a7014610fb1578063a890c91014610fdc578063ab58fb8e14611005576104c8565b806387030f4d1161021957806387030f4d14610e505780638da5cb5b14610e795780638fb5548f14610ea4578063902bfa2414610ee157806396aa167e14610f1e576104c8565b8063794d556014610d315780637b3c71d314610d6e5780637d5e81e214610dab578063809b268e14610de8578063868661cb14610e25576104c8565b80633fafa127116103715780635b6b4652116102ee5780636ee8e8ef116102b25780636ee8e8ef14610c3a57806370084d7a14610c7757806370b0f66014610cb457806370c753f014610cdd578063715018a614610d1a576104c8565b80635b6b465214610b085780635ced7d4014610b455780635f398a1414610b8257806360c4247f14610bbf5780636e04ff0d14610bfc576104c8565b80634fac2bb7116103355780634fac2bb7146109f9578063535bf50f14610a36578063544ffc9c14610a6157806354fd4d5014610aa05780635678138814610acb576104c8565b80633fafa127146108ee5780633fd1c809146109195780634385963214610956578063446a156f146109935780634585e33b146109d0576104c8565b8063160cbed7116103ff5780633932abb1116103c35780633932abb1146107f55780633bccf4fd146108205780633be2f2a31461085d5780633e4f49e6146108865780633f3b3b27146108c3576104c8565b8063160cbed7146106e35780632656227d146107205780632d63f693146107505780632fe3e2611461078d57806335debf2d146107b8576104c8565b80630cee1725116104465780630cee1725146105c6578063141a6c22146105ef578063148038b01461062c578063150b7a0214610669578063156277be146106a6576104c8565b806301ffc9a7146104cd57806302a251a31461050a578063034201811461053557806306f3f9e61461057257806306fdde031461059b576104c8565b366104c8573073ffffffffffffffffffffffffffffffffffffffff166104a6611565565b73ffffffffffffffffffffffffffffffffffffffff16146104c657600080fd5b005b600080fd5b3480156104d957600080fd5b506104f460048036038101906104ef9190615e9e565b611574565b6040516105019190615ee6565b60405180910390f35b34801561051657600080fd5b5061051f611586565b60405161052c9190615f1a565b60405180910390f35b34801561054157600080fd5b5061055c60048036038101906105579190616176565b611595565b6040516105699190615f1a565b60405180910390f35b34801561057e57600080fd5b5061059960048036038101906105949190616254565b61167a565b005b3480156105a757600080fd5b506105b0611771565b6040516105bd9190616300565b60405180910390f35b3480156105d257600080fd5b506105ed60048036038101906105e89190616254565b611803565b005b3480156105fb57600080fd5b50610616600480360381019061061191906163c3565b611a1f565b6040516106239190615f1a565b60405180910390f35b34801561063857600080fd5b50610653600480360381019061064e919061646a565b611a47565b6040516106609190615f1a565b60405180910390f35b34801561067557600080fd5b50610690600480360381019061068b91906164aa565b611a6c565b60405161069d919061653c565b60405180910390f35b3480156106b257600080fd5b506106cd60048036038101906106c89190616254565b611a80565b6040516106da9190616566565b60405180910390f35b3480156106ef57600080fd5b5061070a600480360381019061070591906167e8565b611ab3565b6040516107179190615f1a565b60405180910390f35b61073a600480360381019061073591906167e8565b611d6d565b6040516107479190615f1a565b60405180910390f35b34801561075c57600080fd5b5061077760048036038101906107729190616254565b611eba565b6040516107849190615f1a565b60405180910390f35b34801561079957600080fd5b506107a2611f28565b6040516107af91906168b2565b60405180910390f35b3480156107c457600080fd5b506107df60048036038101906107da91906168cd565b611f4c565b6040516107ec91906169b8565b60405180910390f35b34801561080157600080fd5b5061080a611fe3565b6040516108179190615f1a565b60405180910390f35b34801561082c57600080fd5b50610847600480360381019061084291906169da565b611ff2565b6040516108549190615f1a565b60405180910390f35b34801561086957600080fd5b50610884600480360381019061087f9190616a55565b61207c565b005b34801561089257600080fd5b506108ad60048036038101906108a89190616254565b6122e9565b6040516108ba9190616b4f565b60405180910390f35b3480156108cf57600080fd5b506108d86122fb565b6040516108e59190615f1a565b60405180910390f35b3480156108fa57600080fd5b50610903612301565b6040516109109190615f1a565b60405180910390f35b34801561092557600080fd5b50610940600480360381019061093b9190616254565b612307565b60405161094d9190615f1a565b60405180910390f35b34801561096257600080fd5b5061097d6004803603810190610978919061646a565b612361565b60405161098a9190615ee6565b60405180910390f35b34801561099f57600080fd5b506109ba60048036038101906109b59190616254565b6123cc565b6040516109c79190616bb2565b60405180910390f35b3480156109dc57600080fd5b506109f760048036038101906109f29190616c23565b6123f6565b005b348015610a0557600080fd5b50610a206004803603810190610a1b9190616254565b612702565b604051610a2d9190615ee6565b60405180910390f35b348015610a4257600080fd5b50610a4b612722565b604051610a589190615f1a565b60405180910390f35b348015610a6d57600080fd5b50610a886004803603810190610a839190616254565b61272c565b604051610a9793929190616c70565b60405180910390f35b348015610aac57600080fd5b50610ab5612764565b604051610ac29190616300565b60405180910390f35b348015610ad757600080fd5b50610af26004803603810190610aed9190616ca7565b6127a1565b604051610aff9190615f1a565b60405180910390f35b348015610b1457600080fd5b50610b2f6004803603810190610b2a9190616254565b6127d2565b604051610b3c9190615f1a565b60405180910390f35b348015610b5157600080fd5b50610b6c6004803603810190610b679190616254565b6127ea565b604051610b799190615f1a565b60405180910390f35b348015610b8e57600080fd5b50610ba96004803603810190610ba49190616ce7565b612802565b604051610bb69190615f1a565b60405180910390f35b348015610bcb57600080fd5b50610be66004803603810190610be19190616254565b61286c565b604051610bf39190615f1a565b60405180910390f35b348015610c0857600080fd5b50610c236004803603810190610c1e9190616d8b565b6129b8565b604051610c31929190616e29565b60405180910390f35b348015610c4657600080fd5b50610c616004803603810190610c5c91906168cd565b612aa3565b604051610c6e9190615ee6565b60405180910390f35b348015610c8357600080fd5b50610c9e6004803603810190610c999190616254565b612ac3565b604051610cab9190616bb2565b60405180910390f35b348015610cc057600080fd5b50610cdb6004803603810190610cd69190616254565b612ae3565b005b348015610ce957600080fd5b50610d046004803603810190610cff9190616e59565b612bda565b604051610d119190615f1a565b60405180910390f35b348015610d2657600080fd5b50610d2f612c0b565b005b348015610d3d57600080fd5b50610d586004803603810190610d539190616254565b612c1f565b604051610d659190615f1a565b60405180910390f35b348015610d7a57600080fd5b50610d956004803603810190610d909190616e99565b612c37565b604051610da29190615f1a565b60405180910390f35b348015610db757600080fd5b50610dd26004803603810190610dcd9190616f0d565b612c9f565b604051610ddf9190615f1a565b60405180910390f35b348015610df457600080fd5b50610e0f6004803603810190610e0a9190616254565b612d3a565b604051610e1c9190615ee6565b60405180910390f35b348015610e3157600080fd5b50610e3a612d64565b604051610e479190615f1a565b60405180910390f35b348015610e5c57600080fd5b50610e776004803603810190610e729190616254565b612d6a565b005b348015610e8557600080fd5b50610e8e612e0d565b604051610e9b9190616566565b60405180910390f35b348015610eb057600080fd5b50610ecb6004803603810190610ec69190616254565b612e37565b604051610ed89190616300565b60405180910390f35b348015610eed57600080fd5b50610f086004803603810190610f039190616254565b612ed7565b604051610f159190615ee6565b60405180910390f35b348015610f2a57600080fd5b50610f33612ef7565b604051610f409190615f1a565b60405180910390f35b348015610f5557600080fd5b50610f5e612efd565b604051610f6b9190615f1a565b60405180910390f35b348015610f8057600080fd5b50610f9b6004803603810190610f969190616fe4565b612f06565b604051610fa89190615f1a565b60405180910390f35b348015610fbd57600080fd5b50610fc6612f1c565b604051610fd39190615f1a565b60405180910390f35b348015610fe857600080fd5b506110036004803603810190610ffe91906170a3565b612f45565b005b34801561101157600080fd5b5061102c60048036038101906110279190616254565b61303c565b6040516110399190615f1a565b60405180910390f35b34801561104e57600080fd5b5061106960048036038101906110649190616254565b613109565b6040516110769190616300565b60405180910390f35b34801561108b57600080fd5b506110946131ae565b6040516110a19190615f1a565b60405180910390f35b3480156110b657600080fd5b506110d160048036038101906110cc9190616254565b6131bd565b6040516110de9190615f1a565b60405180910390f35b3480156110f357600080fd5b5061110e60048036038101906111099190616254565b6131da565b60405161111b9190615f1a565b60405180910390f35b34801561113057600080fd5b5061114b600480360381019061114691906170d0565b6131f7565b604051611158919061653c565b60405180910390f35b34801561116d57600080fd5b5061117661320c565b6040516111839190615f1a565b60405180910390f35b34801561119857600080fd5b506111b360048036038101906111ae9190616254565b613216565b6040516111c09190615f1a565b60405180910390f35b3480156111d557600080fd5b506111f060048036038101906111eb91906168cd565b613284565b6040516111fd9190615ee6565b60405180910390f35b34801561121257600080fd5b5061122d6004803603810190611228919061719f565b6132da565b005b34801561123b57600080fd5b50611256600480360381019061125191906167e8565b61341b565b6040516112639190615f1a565b60405180910390f35b61128660048036038101906112819190616254565b613457565b005b34801561129457600080fd5b506112af60048036038101906112aa91906163c3565b6135a1565b6040516112bc9190615f1a565b60405180910390f35b3480156112d157600080fd5b506112da6135cf565b6040516112e79190616566565b60405180910390f35b3480156112fc57600080fd5b5061131760048036038101906113129190617213565b6135f9565b6040516113249190615f1a565b60405180910390f35b34801561133957600080fd5b5061134261361e565b60405161134f9190616300565b60405180910390f35b34801561136457600080fd5b5061136d61365b565b60405161137a91906168b2565b60405180910390f35b34801561138f57600080fd5b506113aa60048036038101906113a59190616254565b61367f565b6040516113b79190615ee6565b60405180910390f35b3480156113cc57600080fd5b506113e760048036038101906113e29190616254565b6136a9565b6040516113f5929190617253565b60405180910390f35b34801561140a57600080fd5b5061142560048036038101906114209190616254565b61370c565b005b34801561143357600080fd5b5061144e60048036038101906114499190616e59565b613803565b60405161145b9190615f1a565b60405180910390f35b34801561147057600080fd5b5061148b60048036038101906114869190616254565b61381f565b005b34801561149957600080fd5b506114b460048036038101906114af919061727c565b613916565b6040516114c1919061653c565b60405180910390f35b3480156114d657600080fd5b506114f160048036038101906114ec91906168cd565b61392b565b005b3480156114ff57600080fd5b5061151a60048036038101906115159190616254565b6139ae565b6040516115279190615f1a565b60405180910390f35b34801561153c57600080fd5b506115456139c0565b6040516115529190617372565b60405180910390f35b6115636139e4565b005b600061156f613e18565b905090565b600061157f82613e42565b9050919050565b6000611590613ebc565b905090565b6000806116186116107fb3b3f3b703cd84ce352197dcff232b1b5d3cfb2025ce47cf04742d0651f1af888c8c8c8c6040516115d19291906173bd565b60405180910390208b805190602001206040516020016115f59594939291906173e5565b60405160208183030381529060405280519060200120613ec6565b868686613ee0565b905061166b8a828b8b8b8080601f016020809104026020016040519081016040528093929190818152602001838380828437600081840152601f19601f820116905080830192505050505050508a613f0b565b91505098975050505050505050565b611682611565565b73ffffffffffffffffffffffffffffffffffffffff166116a06140c7565b73ffffffffffffffffffffffffffffffffffffffff16146116f6576040517f08c379a00000000000000000000000000000000000000000000000000000000081526004016116ed90617484565b60405180910390fd5b3073ffffffffffffffffffffffffffffffffffffffff16611715611565565b73ffffffffffffffffffffffffffffffffffffffff161461176557600061173a6140cf565b6040516117489291906173bd565b604051809103902090505b8061175e60026140dc565b0361175357505b61176e816141b8565b50565b606060008054611780906174d3565b80601f01602080910402602001604051908101604052809291908181526020018280546117ac906174d3565b80156117f95780601f106117ce576101008083540402835291602001916117f9565b820191906000526020600020905b8154815290600101906020018083116117dc57829003601f168201915b5050505050905090565b6002600381111561181757611816616ad8565b5b601b600083815260200190815260200160002060009054906101000a900460ff16600381111561184a57611849616ad8565b5b036119ea5760006016600083815260200190815260200160002060003373ffffffffffffffffffffffffffffffffffffffff1673ffffffffffffffffffffffffffffffffffffffff16815260200190815260200160002054905060006016600084815260200190815260200160002060003373ffffffffffffffffffffffffffffffffffffffff1673ffffffffffffffffffffffffffffffffffffffff1681526020019081526020016000208190555060003373ffffffffffffffffffffffffffffffffffffffff16826040516119209061752a565b60006040518083038185875af1925050503d806000811461195d576040519150601f19603f3d011682016040523d82523d6000602084013e611962565b606091505b505090508061199d576040517f9370a94600000000000000000000000000000000000000000000000000000000815260040160405180910390fd5b600d543373ffffffffffffffffffffffffffffffffffffffff167f370c08173448a868859170331cf95622fc6b9ca192121cc9aae246cf05b3ab7c60405160405180910390a35050611a1c565b6040517f3cb39c3700000000000000000000000000000000000000000000000000000000815260040160405180910390fd5b50565b6000601482604051611a31919061757b565b9081526020016040518091039020549050919050565b6016602052816000526040600020602052806000526040600020600091509150505481565b600063150b7a0260e01b9050949350505050565b601a6020528060005260406000206000915054906101000a900473ffffffffffffffffffffffffffffffffffffffff1681565b600080611ac28686868661341b565b905060046007811115611ad857611ad7616ad8565b5b611ae1826122e9565b6007811115611af357611af2616ad8565b5b14611b33576040517f08c379a0000000000000000000000000000000000000000000000000000000008152600401611b2a90617604565b60405180910390fd5b6000600a60009054906101000a900473ffffffffffffffffffffffffffffffffffffffff1673ffffffffffffffffffffffffffffffffffffffff1663f27a0c926040518163ffffffff1660e01b8152600401602060405180830381865afa158015611ba2573d6000803e3d6000fd5b505050506040513d601f19601f82011682018060405250810190611bc69190617639565b9050600a60009054906101000a900473ffffffffffffffffffffffffffffffffffffffff1673ffffffffffffffffffffffffffffffffffffffff1663b1c5f4278888886000896040518663ffffffff1660e01b8152600401611c2c959493929190617878565b602060405180830381865afa158015611c49573d6000803e3d6000fd5b505050506040513d601f19601f82011682018060405250810190611c6d91906178f5565b600b600084815260200190815260200160002081905550600a60009054906101000a900473ffffffffffffffffffffffffffffffffffffffff1673ffffffffffffffffffffffffffffffffffffffff16638f2a0bb0888888600089876040518763ffffffff1660e01b8152600401611cea96959493929190617922565b600060405180830381600087803b158015611d0457600080fd5b505af1158015611d18573d6000803e3d6000fd5b505050507f9a2e42fd6722813d69113e7d0079d3d940171428df7373df9c7f7617cfda2892828242611d4a91906179c7565b604051611d58929190617253565b60405180910390a18192505050949350505050565b600080611d7c8686868661341b565b90506000611d89826122e9565b905060046007811115611d9f57611d9e616ad8565b5b816007811115611db257611db1616ad8565b5b1480611de2575060056007811115611dcd57611dcc616ad8565b5b816007811115611de057611ddf616ad8565b5b145b611e21576040517f08c379a0000000000000000000000000000000000000000000000000000000008152600401611e1890617604565b60405180910390fd5b600180600084815260200190815260200160002060020160006101000a81548160ff0219169083151502179055507f712ae1383f79ac853f8d882153778e0260ef8f03b504e2866e0593e04d2b291f82604051611e7e9190615f1a565b60405180910390a1611e93828888888861436c565b611ea0828888888861444f565b611ead8288888888614463565b8192505050949350505050565b6000611f17600160008481526020019081526020016000206000016040518060200160405290816000820160009054906101000a900467ffffffffffffffff1667ffffffffffffffff1667ffffffffffffffff16815250506144be565b67ffffffffffffffff169050919050565b7fb3b3f3b703cd84ce352197dcff232b1b5d3cfb2025ce47cf04742d0651f1af8881565b6060601d60008373ffffffffffffffffffffffffffffffffffffffff1673ffffffffffffffffffffffffffffffffffffffff168152602001908152602001600020805480602002602001604051908101604052809291908181526020018280548015611fd757602002820191906000526020600020905b815481526020019060010190808311611fc3575b50505050509050919050565b6000611fed6144cc565b905090565b60008061205361204b7f150214d74d59b7d1e90c73fc22ef3d991dd0a76b046543d4d80ab92d2a50328f8989604051602001612030939291906179fb565b60405160208183030381529060405280519060200120613ec6565b868686613ee0565b9050612070878288604051806020016040528060008152506144d6565b91505095945050505050565b6120846144f6565b601c60008273ffffffffffffffffffffffffffffffffffffffff1673ffffffffffffffffffffffffffffffffffffffff16815260200190815260200160002060009054906101000a900460ff16612107576040517f05ed74eb00000000000000000000000000000000000000000000000000000000815260040160405180910390fd5b4260126000600d5481526020019081526020016000206000848152602001908152602001600020819055506000601b6000600d54815260200190815260200160002060006101000a81548160ff0219169083600381111561216b5761216a616ad8565b5b02179055508160136000600d548152602001908152602001600020819055508260186000600d54815260200190815260200160002081905550600d546014856040516121b7919061757b565b9081526020016040518091039020819055508360156000600d54815260200190815260200160002090816121eb9190617bd4565b5080601a6000600d54815260200190815260200160002060006101000a81548173ffffffffffffffffffffffffffffffffffffffff021916908373ffffffffffffffffffffffffffffffffffffffff160217905550600160196000600d54815260200190815260200160002060006101000a81548160ff021916908315150217905550600160116000600d54815260200190815260200160002060006101000a81548160ff021916908315150217905550600d547f786d1c7563663debc82f8c0117f799155168b2e814d7030810e1902c91ddf08d60405160405180910390a2600d60008154809291906122de90617ca6565b919050555050505050565b60006122f482614574565b9050919050565b600e5481565b600d5481565b60006016600083815260200190815260200160002060003373ffffffffffffffffffffffffffffffffffffffff1673ffffffffffffffffffffffffffffffffffffffff168152602001908152602001600020549050919050565b60006007600084815260200190815260200160002060030160008373ffffffffffffffffffffffffffffffffffffffff1673ffffffffffffffffffffffffffffffffffffffff16815260200190815260200160002060009054906101000a900460ff16905092915050565b6000601b600083815260200190815260200160002060009054906101000a900460ff169050919050565b6000612410604051806020016040528060008152506129b8565b5090508061244a576040517f443ce01400000000000000000000000000000000000000000000000000000000815260040160405180910390fd5b60008383906124599190617cf9565b60001c905060006011600083815260200190815260200160002060006101000a81548160ff02191690831515021790555060006019600083815260200190815260200160002060006101000a81548160ff021916908315150217905550601860008281526020019081526020016000205460176000838152602001908152602001600020541115612692576001601b600083815260200190815260200160002060006101000a81548160ff0219169083600381111561251b5761251a616ad8565b5b021790555060006064600f5460176000858152602001908152602001600020546125459190617d58565b61254f9190617dc9565b9050600060176000848152602001908152602001600020819055506000601a600084815260200190815260200160002060009054906101000a900473ffffffffffffffffffffffffffffffffffffffff1673ffffffffffffffffffffffffffffffffffffffff16826040516125c39061752a565b60006040518083038185875af1925050503d8060008114612600576040519150601f19603f3d011682016040523d82523d6000602084013e612605565b606091505b505090508061265e5760176000848152602001908152602001600020546040517f265b39fb0000000000000000000000000000000000000000000000000000000081526004016126559190615f1a565b60405180910390fd5b827f1fd348a1f60f7b0ef569f04e42cfb3a6ff4c91400932970947875415514ad17260405160405180910390a250506126fc565b6002601b600083815260200190815260200160002060006101000a81548160ff021916908360038111156126c9576126c8616ad8565b5b0217905550807f4540ebb54491dc4fd8cd7a13ba536a737551e94cf1d0ed602242bdec63da4d0360405160405180910390a25b50505050565b60196020528060005260406000206000915054906101000a900460ff1681565b6000601054905090565b600080600080600760008681526020019081526020016000209050806000015481600101548260020154935093509350509193909250565b60606040518060400160405280600181526020017f3100000000000000000000000000000000000000000000000000000000000000815250905090565b6000806127ac6140c7565b90506127c9848285604051806020016040528060008152506144d6565b91505092915050565b60186020528060005260406000206000915090505481565b60136020528060005260406000206000915090505481565b60008061280d6140c7565b905061286087828888888080601f016020809104026020016040519081016040528093929190818152602001838380828437600081840152601f19601f8201169050808301925050505050505087613f0b565b91505095945050505050565b60008060096000018054905090506000810361288d576008549150506129b3565b600060096000016001836128a19190617dfa565b815481106128b2576128b1617e2e565b5b906000526020600020016040518060400160405290816000820160009054906101000a900463ffffffff1663ffffffff1663ffffffff1681526020016000820160049054906101000a90047bffffffffffffffffffffffffffffffffffffffffffffffffffffffff167bffffffffffffffffffffffffffffffffffffffffffffffffffffffff167bffffffffffffffffffffffffffffffffffffffffffffffffffffffff1681525050905083816000015163ffffffff161161299a5780602001517bffffffffffffffffffffffffffffffffffffffffffffffffffffffff16925050506129b3565b6129ae84600961474790919063ffffffff16565b925050505b919050565b600060606000600190505b600d548111612a9d5760006011600083815260200190815260200160002060009054906101000a900460ff16905060006013600084815260200190815260200160002054601260008581526020019081526020016000206000601360008781526020019081526020016000205481526020019081526020016000205442612a4a9190617dfa565b119050818015612a575750805b94508415612a885782604051602001612a709190617e7e565b60405160208183030381529060405293505050612a9d565b50508080612a9590617ca6565b9150506129c3565b50915091565b601c6020528060005260406000206000915054906101000a900460ff1681565b601b6020528060005260406000206000915054906101000a900460ff1681565b612aeb611565565b73ffffffffffffffffffffffffffffffffffffffff16612b096140c7565b73ffffffffffffffffffffffffffffffffffffffff1614612b5f576040517f08c379a0000000000000000000000000000000000000000000000000000000008152600401612b5690617484565b60405180910390fd5b3073ffffffffffffffffffffffffffffffffffffffff16612b7e611565565b73ffffffffffffffffffffffffffffffffffffffff1614612bce576000612ba36140cf565b604051612bb19291906173bd565b604051809103902090505b80612bc760026140dc565b03612bbc57505b612bd78161489f565b50565b601d6020528160005260406000208181548110612bf657600080fd5b90600052602060002001600091509150505481565b612c136144f6565b612c1d60006148e4565b565b60176020528060005260406000206000915090505481565b600080612c426140c7565b9050612c9486828787878080601f016020809104026020016040519081016040528093929190818152602001838380828437600081840152601f19601f820116905080830192505050505050506144d6565b915050949350505050565b6000601c60003373ffffffffffffffffffffffffffffffffffffffff1673ffffffffffffffffffffffffffffffffffffffff16815260200190815260200160002060009054906101000a900460ff16612d24576040517f4018425300000000000000000000000000000000000000000000000000000000815260040160405180910390fd5b612d30858585856149aa565b9050949350505050565b60006011600083815260200190815260200160002060009054906101000a900460ff169050919050565b600f5481565b612d726144f6565b60006019600083815260200190815260200160002060006101000a81548160ff021916908315150217905550600060116000600d54815260200190815260200160002060006101000a81548160ff0219169083151502179055506003601b6000600d54815260200190815260200160002060006101000a81548160ff02191690836003811115612e0557612e04616ad8565b5b021790555050565b6000600c60009054906101000a900473ffffffffffffffffffffffffffffffffffffffff16905090565b60156020528060005260406000206000915090508054612e56906174d3565b80601f0160208091040260200160405190810160405280929190818152602001828054612e82906174d3565b8015612ecf5780601f10612ea457610100808354040283529160200191612ecf565b820191906000526020600020905b815481529060010190602001808311612eb257829003601f168201915b505050505081565b60116020528060005260406000206000915054906101000a900460ff1681565b60105481565b60006064905090565b6000612f13848484614cb1565b90509392505050565b60008060096000018054905014612f3c57612f376009613d2a565b612f40565b6008545b905090565b612f4d611565565b73ffffffffffffffffffffffffffffffffffffffff16612f6b6140c7565b73ffffffffffffffffffffffffffffffffffffffff1614612fc1576040517f08c379a0000000000000000000000000000000000000000000000000000000008152600401612fb890617484565b60405180910390fd5b3073ffffffffffffffffffffffffffffffffffffffff16612fe0611565565b73ffffffffffffffffffffffffffffffffffffffff16146130305760006130056140cf565b6040516130139291906173bd565b604051809103902090505b8061302960026140dc565b0361301e57505b61303981614d58565b50565b600080600a60009054906101000a900473ffffffffffffffffffffffffffffffffffffffff1673ffffffffffffffffffffffffffffffffffffffff1663d45c4435600b6000868152602001908152602001600020546040518263ffffffff1660e01b81526004016130ad91906168b2565b602060405180830381865afa1580156130ca573d6000803e3d6000fd5b505050506040513d601f19601f820116820180604052508101906130ee9190617639565b9050600181146130fe5780613101565b60005b915050919050565b6060601560008381526020019081526020016000208054613129906174d3565b80601f0160208091040260200160405190810160405280929190818152602001828054613155906174d3565b80156131a25780601f10613177576101008083540402835291602001916131a2565b820191906000526020600020905b81548152906001019060200180831161318557829003601f168201915b50505050509050919050565b60006131b8614df7565b905090565b600060186000838152602001908152602001600020549050919050565b600060176000838152602001908152602001600020549050919050565b600063bc197c8160e01b905095945050505050565b6000600f54905090565b6000613273600160008481526020019081526020016000206001016040518060200160405290816000820160009054906101000a900467ffffffffffffffff1667ffffffffffffffff1667ffffffffffffffff16815250506144be565b67ffffffffffffffff169050919050565b6000601c60008373ffffffffffffffffffffffffffffffffffffffff1673ffffffffffffffffffffffffffffffffffffffff16815260200190815260200160002060009054906101000a900460ff169050919050565b6132e2611565565b73ffffffffffffffffffffffffffffffffffffffff166133006140c7565b73ffffffffffffffffffffffffffffffffffffffff1614613356576040517f08c379a000000000000000000000000000000000000000000000000000000000815260040161334d90617484565b60405180910390fd5b3073ffffffffffffffffffffffffffffffffffffffff16613375611565565b73ffffffffffffffffffffffffffffffffffffffff16146133c557600061339a6140cf565b6040516133a89291906173bd565b604051809103902090505b806133be60026140dc565b036133b357505b6134148483838080601f016020809104026020016040519081016040528093929190818152602001838380828437600081840152601f19601f8201169050808301925050505050505085614e01565b5050505050565b6000848484846040516020016134349493929190617e99565b6040516020818303038152906040528051906020012060001c9050949350505050565b806019600082815260200190815260200160002060009054906101000a900460ff166134af576040517f528d75ab00000000000000000000000000000000000000000000000000000000815260040160405180910390fd5b346016600084815260200190815260200160002060003373ffffffffffffffffffffffffffffffffffffffff1673ffffffffffffffffffffffffffffffffffffffff168152602001908152602001600020600082825461350f91906179c7565b925050819055503460176000848152602001908152602001600020600082825461353991906179c7565b92505081905550604051806020016040528083815250601d60003373ffffffffffffffffffffffffffffffffffffffff1673ffffffffffffffffffffffffffffffffffffffff16815260200190815260200160002090600161359c929190615dc8565b505050565b6014818051602081018201805184825260208301602085012081835280955050505050506000915090505481565b6000600a60009054906101000a900473ffffffffffffffffffffffffffffffffffffffff16905090565b6012602052816000526040600020602052806000526040600020600091509150505481565b60606040518060400160405280602081526020017f737570706f72743d627261766f2671756f72756d3d666f722c6162737461696e815250905090565b7f150214d74d59b7d1e90c73fc22ef3d991dd0a76b046543d4d80ab92d2a50328f81565b60006019600083815260200190815260200160002060009054906101000a900460ff169050919050565b6000806012600084815260200190815260200160002060006013600086815260200190815260200160002054815260200190815260200160002054426136ef9190617dfa565b915060136000848152602001908152602001600020549050915091565b613714611565565b73ffffffffffffffffffffffffffffffffffffffff166137326140c7565b73ffffffffffffffffffffffffffffffffffffffff1614613788576040517f08c379a000000000000000000000000000000000000000000000000000000000815260040161377f90617484565b60405180910390fd5b3073ffffffffffffffffffffffffffffffffffffffff166137a7611565565b73ffffffffffffffffffffffffffffffffffffffff16146137f75760006137cc6140cf565b6040516137da9291906173bd565b604051809103902090505b806137f060026140dc565b036137e557505b61380081614e30565b50565b60006138178383613812614eb8565b614cb1565b905092915050565b613827611565565b73ffffffffffffffffffffffffffffffffffffffff166138456140c7565b73ffffffffffffffffffffffffffffffffffffffff161461389b576040517f08c379a000000000000000000000000000000000000000000000000000000000815260040161389290617484565b60405180910390fd5b3073ffffffffffffffffffffffffffffffffffffffff166138ba611565565b73ffffffffffffffffffffffffffffffffffffffff161461390a5760006138df6140cf565b6040516138ed9291906173bd565b604051809103902090505b8061390360026140dc565b036138f857505b61391381614ecf565b50565b600063f23a6e6160e01b905095945050505050565b6139336144f6565b600073ffffffffffffffffffffffffffffffffffffffff168173ffffffffffffffffffffffffffffffffffffffff16036139a2576040517f08c379a000000000000000000000000000000000000000000000000000000000815260040161399990617f65565b60405180910390fd5b6139ab816148e4565b50565b60006139b982614f14565b9050919050565b7f000000000000000000000000000000000000000000000000000000000000000081565b601054341015613a20576040517f63dc8b0c00000000000000000000000000000000000000000000000000000000815260040160405180910390fd5b6001601c60003373ffffffffffffffffffffffffffffffffffffffff1673ffffffffffffffffffffffffffffffffffffffff16815260200190815260200160002060006101000a81548160ff0219169083151502179055503373ffffffffffffffffffffffffffffffffffffffff167f08589d6aa50e04ad7909247eece8eb5c4e8ab2d708d7d76becf8a96298b6ee4f60405160405180910390a2565b60007bffffffffffffffffffffffffffffffffffffffffffffffffffffffff8016821115613b20576040517f08c379a0000000000000000000000000000000000000000000000000000000008152600401613b1790617ff7565b60405180910390fd5b819050919050565b6000806000846000018054905090506000613b4286613d2a565b9050600082118015613b9857504386600001600184613b619190617dfa565b81548110613b7257613b71617e2e565b5b9060005260206000200160000160009054906101000a900463ffffffff1663ffffffff16145b15613c2857613ba685613abd565b86600001600184613bb79190617dfa565b81548110613bc857613bc7617e2e565b5b9060005260206000200160000160046101000a8154817bffffffffffffffffffffffffffffffffffffffffffffffffffffffff02191690837bffffffffffffffffffffffffffffffffffffffffffffffffffffffff160217905550613d1b565b856000016040518060400160405280613c4043613dc5565b63ffffffff168152602001613c5488613abd565b7bffffffffffffffffffffffffffffffffffffffffffffffffffffffff168152509080600181540180825580915050600190039060005260206000200160009091909190915060008201518160000160006101000a81548163ffffffff021916908363ffffffff16021790555060208201518160000160046101000a8154817bffffffffffffffffffffffffffffffffffffffffffffffffffffffff02191690837bffffffffffffffffffffffffffffffffffffffffffffffffffffffff16021790555050505b80859350935050509250929050565b6000808260000180549050905060008114613d9c5782600001600182613d509190617dfa565b81548110613d6157613d60617e2e565b5b9060005260206000200160000160049054906101000a90047bffffffffffffffffffffffffffffffffffffffffffffffffffffffff16613d9f565b60005b7bffffffffffffffffffffffffffffffffffffffffffffffffffffffff16915050919050565b600063ffffffff8016821115613e10576040517f08c379a0000000000000000000000000000000000000000000000000000000008152600401613e0790618089565b60405180910390fd5b819050919050565b6000600a60009054906101000a900473ffffffffffffffffffffffffffffffffffffffff16905090565b60007f6e665ced000000000000000000000000000000000000000000000000000000007bffffffffffffffffffffffffffffffffffffffffffffffffffffffff1916827bffffffffffffffffffffffffffffffffffffffffffffffffffffffff19161480613eb55750613eb482614fdc565b5b9050919050565b6000600554905090565b6000613ed9613ed3615141565b8361525b565b9050919050565b6000806000613ef18787878761528e565b91509150613efe8161539a565b8192505050949350505050565b60008060016000888152602001908152602001600020905060016007811115613f3757613f36616ad8565b5b613f40886122e9565b6007811115613f5257613f51616ad8565b5b14613f92576040517f08c379a0000000000000000000000000000000000000000000000000000000008152600401613f899061811b565b60405180910390fd5b6000613ff187613fe1846000016040518060200160405290816000820160009054906101000a900467ffffffffffffffff1667ffffffffffffffff1667ffffffffffffffff16815250506144be565b67ffffffffffffffff1686614cb1565b90506140008888888488615566565b6000845103614062578673ffffffffffffffffffffffffffffffffffffffff167fb8e138887d0aa13bab447e82de9d5c1777041ecd21ca36ba824ff1e6c07ddda489888489604051614055949392919061813b565b60405180910390a26140b9565b8673ffffffffffffffffffffffffffffffffffffffff167fe2babfbac5889a709b63bb7f598b324e08bc5a4fb9ec647fb3cbc9ec07eb871289888489896040516140b0959493929190618187565b60405180910390a25b809250505095945050505050565b600033905090565b3660008036915091509091565b60006140e78261576a565b1561411e576040517f3db2a12a00000000000000000000000000000000000000000000000000000000815260040160405180910390fd5b60008260000160009054906101000a9004600f0b905082600101600082600f0b600f0b815260200190815260200160002054915082600101600082600f0b600f0b815260200190815260200160002060009055600181018360000160006101000a8154816fffffffffffffffffffffffffffffffff0219169083600f0b6fffffffffffffffffffffffffffffffff16021790555050919050565b6141c0612efd565b811115614202576040517f08c379a00000000000000000000000000000000000000000000000000000000081526004016141f990618280565b60405180910390fd5b600061420c612f1c565b90506000811415801561422757506000600960000180549050145b156143195760096000016040518060400160405280600063ffffffff16815260200161425284613abd565b7bffffffffffffffffffffffffffffffffffffffffffffffffffffffff168152509080600181540180825580915050600190039060005260206000200160009091909190915060008201518160000160006101000a81548163ffffffff021916908363ffffffff16021790555060208201518160000160046101000a8154817bffffffffffffffffffffffffffffffffffffffffffffffffffffffff02191690837bffffffffffffffffffffffffffffffffffffffffffffffffffffffff16021790555050505b61432d826009613b2890919063ffffffff16565b50507f0553476bf02ef2726e8ce5ced78d63e26e602e4a2257b1f559418e24b46339978183604051614360929190617253565b60405180910390a15050565b3073ffffffffffffffffffffffffffffffffffffffff1661438b611565565b73ffffffffffffffffffffffffffffffffffffffff16146144485760005b8451811015614446573073ffffffffffffffffffffffffffffffffffffffff168582815181106143dc576143db617e2e565b5b602002602001015173ffffffffffffffffffffffffffffffffffffffff16036144355761443483828151811061441557614414617e2e565b5b602002602001015180519060200120600261579f90919063ffffffff16565b5b8061443f90617ca6565b90506143a9565b505b5050505050565b61445c858585858561581b565b5050505050565b3073ffffffffffffffffffffffffffffffffffffffff16614482611565565b73ffffffffffffffffffffffffffffffffffffffff16146144b7576144a7600261576a565b6144b6576144b560026158b9565b5b5b5050505050565b600081600001519050919050565b6000600454905090565b60006144ec858585856144e7614eb8565b613f0b565b9050949350505050565b6144fe6140c7565b73ffffffffffffffffffffffffffffffffffffffff1661451c612e0d565b73ffffffffffffffffffffffffffffffffffffffff1614614572576040517f08c379a0000000000000000000000000000000000000000000000000000000008152600401614569906182ec565b60405180910390fd5b565b6000806145808361593a565b90506004600781111561459657614595616ad8565b5b8160078111156145a9576145a8616ad8565b5b146145b75780915050614742565b6000600b60008581526020019081526020016000205490506000801b81036145e3578192505050614742565b600a60009054906101000a900473ffffffffffffffffffffffffffffffffffffffff1673ffffffffffffffffffffffffffffffffffffffff16632ab0f529826040518263ffffffff1660e01b815260040161463e91906168b2565b602060405180830381865afa15801561465b573d6000803e3d6000fd5b505050506040513d601f19601f8201168201806040525081019061467f9190618338565b1561468f57600792505050614742565b600a60009054906101000a900473ffffffffffffffffffffffffffffffffffffffff1673ffffffffffffffffffffffffffffffffffffffff1663584b153e826040518263ffffffff1660e01b81526004016146ea91906168b2565b602060405180830381865afa158015614707573d6000803e3d6000fd5b505050506040513d601f19601f8201168201806040525081019061472b9190618338565b1561473b57600592505050614742565b6002925050505b919050565b600043821061478b576040517f08c379a0000000000000000000000000000000000000000000000000000000008152600401614782906183b1565b60405180910390fd5b60008360000180549050905060005b8181101561480f5760006147ae8284615a4e565b9050848660000182815481106147c7576147c6617e2e565b5b9060005260206000200160000160009054906101000a900463ffffffff1663ffffffff1611156147f957809250614809565b60018161480691906179c7565b91505b5061479a565b6000821461487457846000016001836148289190617dfa565b8154811061483957614838617e2e565b5b9060005260206000200160000160049054906101000a90047bffffffffffffffffffffffffffffffffffffffffffffffffffffffff16614877565b60005b7bffffffffffffffffffffffffffffffffffffffffffffffffffffffff169250505092915050565b7fc565b045403dc03c2eea82b81a0465edad9e2e7fc4d97e11421c209da93d7a93600454826040516148d2929190617253565b60405180910390a18060048190555050565b6000600c60009054906101000a900473ffffffffffffffffffffffffffffffffffffffff16905081600c60006101000a81548173ffffffffffffffffffffffffffffffffffffffff021916908373ffffffffffffffffffffffffffffffffffffffff1602179055508173ffffffffffffffffffffffffffffffffffffffff168173ffffffffffffffffffffffffffffffffffffffff167f8be0079c531659141344cd1fd0a4f28419497f9722a3daafe3b4186f6b6457e060405160405180910390a35050565b60006149b46131ae565b6149d16149bf6140c7565b6001436149cc9190617dfa565b613803565b1015614a12576040517f08c379a0000000000000000000000000000000000000000000000000000000008152600401614a0990618443565b60405180910390fd5b6000614a27868686868051906020012061341b565b90508451865114614a6d576040517f08c379a0000000000000000000000000000000000000000000000000000000008152600401614a64906184d5565b60405180910390fd5b8351865114614ab1576040517f08c379a0000000000000000000000000000000000000000000000000000000008152600401614aa8906184d5565b60405180910390fd5b6000865111614af5576040517f08c379a0000000000000000000000000000000000000000000000000000000008152600401614aec90618541565b60405180910390fd5b6000600160008381526020019081526020016000209050614b55816000016040518060200160405290816000820160009054906101000a900467ffffffffffffffff1667ffffffffffffffff1667ffffffffffffffff1681525050615a74565b614b94576040517f08c379a0000000000000000000000000000000000000000000000000000000008152600401614b8b906185d3565b60405180910390fd5b6000614ba6614ba1611fe3565b615a8e565b614baf43615a8e565b614bb99190618607565b90506000614bcd614bc8611586565b615a8e565b82614bd89190618607565b9050614bf08284600001615ae590919063ffffffff16565b614c068184600101615ae590919063ffffffff16565b7f7d84a6263ae0d98d3329bd7b46bb4e8d6f98cd35a7adb45c274c8b7fd5ebd5e084614c306140c7565b8b8b8d5167ffffffffffffffff811115614c4d57614c4c616015565b5b604051908082528060200260200182016040528015614c8057816020015b6060815260200190600190039081614c6b5790505b508c88888e604051614c9a99989796959493929190618780565b60405180910390a183945050505050949350505050565b60007f000000000000000000000000000000000000000000000000000000000000000073ffffffffffffffffffffffffffffffffffffffff16633a46b1a885856040518363ffffffff1660e01b8152600401614d0e929190618830565b602060405180830381865afa158015614d2b573d6000803e3d6000fd5b505050506040513d601f19601f82011682018060405250810190614d4f9190617639565b90509392505050565b7f08f74ea46ef7894f65eabfb5e6e695de773a000b47c529ab559178069b226401600a60009054906101000a900473ffffffffffffffffffffffffffffffffffffffff1682604051614dab929190618859565b60405180910390a180600a60006101000a81548173ffffffffffffffffffffffffffffffffffffffff021916908373ffffffffffffffffffffffffffffffffffffffff16021790555050565b6000600654905090565b6060614e27848484604051806060016040528060298152602001618fb560299139615b14565b90509392505050565b60008111614e73576040517f08c379a0000000000000000000000000000000000000000000000000000000008152600401614e6a906188f4565b60405180910390fd5b7f7e3f7f0708a84de9203036abaa450dccc85ad5ff52f78c170f3edb55cf5e882860055482604051614ea6929190617253565b60405180910390a18060058190555050565b606060405180602001604052806000815250905090565b7fccb45da8d5717e6c4544694297c4ba5cf151d455c9bb0ed4fc7a38411bc0546160065482604051614f02929190617253565b60405180910390a18060068190555050565b6000614f1e612efd565b614f278361286c565b7f000000000000000000000000000000000000000000000000000000000000000073ffffffffffffffffffffffffffffffffffffffff16638e539e8c856040518263ffffffff1660e01b8152600401614f809190615f1a565b602060405180830381865afa158015614f9d573d6000803e3d6000fd5b505050506040513d601f19601f82011682018060405250810190614fc19190617639565b614fcb9190617d58565b614fd59190617dc9565b9050919050565b6000639a802a6d60e01b630342018160e01b635f398a1460e01b7f79dd796f000000000000000000000000000000000000000000000000000000001818187bffffffffffffffffffffffffffffffffffffffffffffffffffffffff1916827bffffffffffffffffffffffffffffffffffffffffffffffffffffffff191614806150c257507f79dd796f000000000000000000000000000000000000000000000000000000007bffffffffffffffffffffffffffffffffffffffffffffffffffffffff1916827bffffffffffffffffffffffffffffffffffffffffffffffffffffffff1916145b8061512a57507f4e2312e0000000000000000000000000000000000000000000000000000000007bffffffffffffffffffffffffffffffffffffffffffffffffffffffff1916827bffffffffffffffffffffffffffffffffffffffffffffffffffffffff1916145b8061513a575061513982615c28565b5b9050919050565b60007f000000000000000000000000000000000000000000000000000000000000000073ffffffffffffffffffffffffffffffffffffffff163073ffffffffffffffffffffffffffffffffffffffff161480156151bd57507f000000000000000000000000000000000000000000000000000000000000000046145b156151ea577f00000000000000000000000000000000000000000000000000000000000000009050615258565b6152557f00000000000000000000000000000000000000000000000000000000000000007f00000000000000000000000000000000000000000000000000000000000000007f0000000000000000000000000000000000000000000000000000000000000000615c92565b90505b90565b60008282604051602001615270929190618981565b60405160208183030381529060405280519060200120905092915050565b6000807f7fffffffffffffffffffffffffffffff5d576e7357a4501ddfe92f46681b20a08360001c11156152c9576000600391509150615391565b601b8560ff16141580156152e15750601c8560ff1614155b156152f3576000600491509150615391565b60006001878787876040516000815260200160405260405161531894939291906189b8565b6020604051602081039080840390855afa15801561533a573d6000803e3d6000fd5b505050602060405103519050600073ffffffffffffffffffffffffffffffffffffffff168173ffffffffffffffffffffffffffffffffffffffff160361538857600060019250925050615391565b80600092509250505b94509492505050565b600060048111156153ae576153ad616ad8565b5b8160048111156153c1576153c0616ad8565b5b031561556357600160048111156153db576153da616ad8565b5b8160048111156153ee576153ed616ad8565b5b0361542e576040517f08c379a000000000000000000000000000000000000000000000000000000000815260040161542590618a49565b60405180910390fd5b6002600481111561544257615441616ad8565b5b81600481111561545557615454616ad8565b5b03615495576040517f08c379a000000000000000000000000000000000000000000000000000000000815260040161548c90618ab5565b60405180910390fd5b600360048111156154a9576154a8616ad8565b5b8160048111156154bc576154bb616ad8565b5b036154fc576040517f08c379a00000000000000000000000000000000000000000000000000000000081526004016154f390618b47565b60405180910390fd5b60048081111561550f5761550e616ad8565b5b81600481111561552257615521616ad8565b5b03615562576040517f08c379a000000000000000000000000000000000000000000000000000000000815260040161555990618bd9565b60405180910390fd5b5b50565b60006007600087815260200190815260200160002090508060030160008673ffffffffffffffffffffffffffffffffffffffff1673ffffffffffffffffffffffffffffffffffffffff16815260200190815260200160002060009054906101000a900460ff161561560c576040517f08c379a000000000000000000000000000000000000000000000000000000000815260040161560390618c6b565b60405180910390fd5b60018160030160008773ffffffffffffffffffffffffffffffffffffffff1673ffffffffffffffffffffffffffffffffffffffff16815260200190815260200160002060006101000a81548160ff0219169083151502179055506000600281111561567a57615679616ad8565b5b60ff168460ff16036156a6578281600001600082825461569a91906179c7565b92505081905550615762565b600160028111156156ba576156b9616ad8565b5b60ff168460ff16036156e657828160010160008282546156da91906179c7565b92505081905550615761565b6002808111156156f9576156f8616ad8565b5b60ff168460ff1603615725578281600201600082825461571991906179c7565b92505081905550615760565b6040517f08c379a000000000000000000000000000000000000000000000000000000000815260040161575790618cfd565b60405180910390fd5b5b5b505050505050565b60008160000160009054906101000a9004600f0b600f0b8260000160109054906101000a9004600f0b600f0b13159050919050565b60008260000160109054906101000a9004600f0b90508183600101600083600f0b600f0b815260200190815260200160002081905550600181018360000160106101000a8154816fffffffffffffffffffffffffffffffff0219169083600f0b6fffffffffffffffffffffffffffffffff160217905550505050565b600a60009054906101000a900473ffffffffffffffffffffffffffffffffffffffff1673ffffffffffffffffffffffffffffffffffffffff1663e38335e5348686866000876040518763ffffffff1660e01b8152600401615880959493929190617878565b6000604051808303818588803b15801561589957600080fd5b505af11580156158ad573d6000803e3d6000fd5b50505050505050505050565b60008160000160006101000a8154816fffffffffffffffffffffffffffffffff0219169083600f0b6fffffffffffffffffffffffffffffffff16021790555060008160000160106101000a8154816fffffffffffffffffffffffffffffffff0219169083600f0b6fffffffffffffffffffffffffffffffff16021790555050565b6000806001600084815260200190815260200160002090508060020160009054906101000a900460ff1615615973576007915050615a49565b8060020160019054906101000a900460ff1615615994576002915050615a49565b600061599f84611eba565b9050600081036159e4576040517f08c379a00000000000000000000000000000000000000000000000000000000081526004016159db90618d69565b60405180910390fd5b4381106159f657600092505050615a49565b6000615a0185613216565b9050438110615a165760019350505050615a49565b615a1f85615ccc565b8015615a305750615a2f85615d13565b5b15615a415760049350505050615a49565b600393505050505b919050565b60006002828418615a5f9190617dc9565b828416615a6c91906179c7565b905092915050565b600080826000015167ffffffffffffffff16149050919050565b600067ffffffffffffffff8016821115615add576040517f08c379a0000000000000000000000000000000000000000000000000000000008152600401615ad490618dfb565b60405180910390fd5b819050919050565b808260000160006101000a81548167ffffffffffffffff021916908367ffffffffffffffff1602179055505050565b606082471015615b59576040517f08c379a0000000000000000000000000000000000000000000000000000000008152600401615b5090618e8d565b60405180910390fd5b615b6285615d3e565b615ba1576040517f08c379a0000000000000000000000000000000000000000000000000000000008152600401615b9890618ef9565b60405180910390fd5b6000808673ffffffffffffffffffffffffffffffffffffffff168587604051615bca9190618f4a565b60006040518083038185875af1925050503d8060008114615c07576040519150601f19603f3d011682016040523d82523d6000602084013e615c0c565b606091505b5091509150615c1c828286615d61565b92505050949350505050565b60007f01ffc9a7000000000000000000000000000000000000000000000000000000007bffffffffffffffffffffffffffffffffffffffffffffffffffffffff1916827bffffffffffffffffffffffffffffffffffffffffffffffffffffffff1916149050919050565b60008383834630604051602001615cad959493929190618f61565b6040516020818303038152906040528051906020012090509392505050565b60008060076000848152602001908152602001600020905080600201548160010154615cf891906179c7565b615d09615d0485611eba565b6139ae565b1115915050919050565b6000806007600084815260200190815260200160002090508060000154816001015411915050919050565b6000808273ffffffffffffffffffffffffffffffffffffffff163b119050919050565b60608315615d7157829050615dc1565b600083511115615d845782518084602001fd5b816040517f08c379a0000000000000000000000000000000000000000000000000000000008152600401615db89190616300565b60405180910390fd5b9392505050565b828054828255906000526020600020908101928215615e04579160200282015b82811115615e03578251825591602001919060010190615de8565b5b509050615e119190615e15565b5090565b5b80821115615e2e576000816000905550600101615e16565b5090565b6000604051905090565b600080fd5b600080fd5b60007fffffffff0000000000000000000000000000000000000000000000000000000082169050919050565b615e7b81615e46565b8114615e8657600080fd5b50565b600081359050615e9881615e72565b92915050565b600060208284031215615eb457615eb3615e3c565b5b6000615ec284828501615e89565b91505092915050565b60008115159050919050565b615ee081615ecb565b82525050565b6000602082019050615efb6000830184615ed7565b92915050565b6000819050919050565b615f1481615f01565b82525050565b6000602082019050615f2f6000830184615f0b565b92915050565b615f3e81615f01565b8114615f4957600080fd5b50565b600081359050615f5b81615f35565b92915050565b600060ff82169050919050565b615f7781615f61565b8114615f8257600080fd5b50565b600081359050615f9481615f6e565b92915050565b600080fd5b600080fd5b600080fd5b60008083601f840112615fbf57615fbe615f9a565b5b8235905067ffffffffffffffff811115615fdc57615fdb615f9f565b5b602083019150836001820283011115615ff857615ff7615fa4565b5b9250929050565b600080fd5b6000601f19601f8301169050919050565b7f4e487b7100000000000000000000000000000000000000000000000000000000600052604160045260246000fd5b61604d82616004565b810181811067ffffffffffffffff8211171561606c5761606b616015565b5b80604052505050565b600061607f615e32565b905061608b8282616044565b919050565b600067ffffffffffffffff8211156160ab576160aa616015565b5b6160b482616004565b9050602081019050919050565b82818337600083830152505050565b60006160e36160de84616090565b616075565b9050828152602081018484840111156160ff576160fe615fff565b5b61610a8482856160c1565b509392505050565b600082601f83011261612757616126615f9a565b5b81356161378482602086016160d0565b91505092915050565b6000819050919050565b61615381616140565b811461615e57600080fd5b50565b6000813590506161708161614a565b92915050565b60008060008060008060008060e0898b03121561619657616195615e3c565b5b60006161a48b828c01615f4c565b98505060206161b58b828c01615f85565b975050604089013567ffffffffffffffff8111156161d6576161d5615e41565b5b6161e28b828c01615fa9565b9650965050606089013567ffffffffffffffff81111561620557616204615e41565b5b6162118b828c01616112565b94505060806162228b828c01615f85565b93505060a06162338b828c01616161565b92505060c06162448b828c01616161565b9150509295985092959890939650565b60006020828403121561626a57616269615e3c565b5b600061627884828501615f4c565b91505092915050565b600081519050919050565b600082825260208201905092915050565b60005b838110156162bb5780820151818401526020810190506162a0565b60008484015250505050565b60006162d282616281565b6162dc818561628c565b93506162ec81856020860161629d565b6162f581616004565b840191505092915050565b6000602082019050818103600083015261631a81846162c7565b905092915050565b600067ffffffffffffffff82111561633d5761633c616015565b5b61634682616004565b9050602081019050919050565b600061636661636184616322565b616075565b90508281526020810184848401111561638257616381615fff565b5b61638d8482856160c1565b509392505050565b600082601f8301126163aa576163a9615f9a565b5b81356163ba848260208601616353565b91505092915050565b6000602082840312156163d9576163d8615e3c565b5b600082013567ffffffffffffffff8111156163f7576163f6615e41565b5b61640384828501616395565b91505092915050565b600073ffffffffffffffffffffffffffffffffffffffff82169050919050565b60006164378261640c565b9050919050565b6164478161642c565b811461645257600080fd5b50565b6000813590506164648161643e565b92915050565b6000806040838503121561648157616480615e3c565b5b600061648f85828601615f4c565b92505060206164a085828601616455565b9150509250929050565b600080600080608085870312156164c4576164c3615e3c565b5b60006164d287828801616455565b94505060206164e387828801616455565b93505060406164f487828801615f4c565b925050606085013567ffffffffffffffff81111561651557616514615e41565b5b61652187828801616112565b91505092959194509250565b61653681615e46565b82525050565b6000602082019050616551600083018461652d565b92915050565b6165608161642c565b82525050565b600060208201905061657b6000830184616557565b92915050565b600067ffffffffffffffff82111561659c5761659b616015565b5b602082029050602081019050919050565b60006165c06165bb84616581565b616075565b905080838252602082019050602084028301858111156165e3576165e2615fa4565b5b835b8181101561660c57806165f88882616455565b8452602084019350506020810190506165e5565b5050509392505050565b600082601f83011261662b5761662a615f9a565b5b813561663b8482602086016165ad565b91505092915050565b600067ffffffffffffffff82111561665f5761665e616015565b5b602082029050602081019050919050565b600061668361667e84616644565b616075565b905080838252602082019050602084028301858111156166a6576166a5615fa4565b5b835b818110156166cf57806166bb8882615f4c565b8452602084019350506020810190506166a8565b5050509392505050565b600082601f8301126166ee576166ed615f9a565b5b81356166fe848260208601616670565b91505092915050565b600067ffffffffffffffff82111561672257616721616015565b5b602082029050602081019050919050565b600061674661674184616707565b616075565b9050808382526020820190506020840283018581111561676957616768615fa4565b5b835b818110156167b057803567ffffffffffffffff81111561678e5761678d615f9a565b5b80860161679b8982616112565b8552602085019450505060208101905061676b565b5050509392505050565b600082601f8301126167cf576167ce615f9a565b5b81356167df848260208601616733565b91505092915050565b6000806000806080858703121561680257616801615e3c565b5b600085013567ffffffffffffffff8111156168205761681f615e41565b5b61682c87828801616616565b945050602085013567ffffffffffffffff81111561684d5761684c615e41565b5b616859878288016166d9565b935050604085013567ffffffffffffffff81111561687a57616879615e41565b5b616886878288016167ba565b925050606061689787828801616161565b91505092959194509250565b6168ac81616140565b82525050565b60006020820190506168c760008301846168a3565b92915050565b6000602082840312156168e3576168e2615e3c565b5b60006168f184828501616455565b91505092915050565b600081519050919050565b600082825260208201905092915050565b6000819050602082019050919050565b61692f81615f01565b82525050565b60006169418383616926565b60208301905092915050565b6000602082019050919050565b6000616965826168fa565b61696f8185616905565b935061697a83616916565b8060005b838110156169ab5781516169928882616935565b975061699d8361694d565b92505060018101905061697e565b5085935050505092915050565b600060208201905081810360008301526169d2818461695a565b905092915050565b600080600080600060a086880312156169f6576169f5615e3c565b5b6000616a0488828901615f4c565b9550506020616a1588828901615f85565b9450506040616a2688828901615f85565b9350506060616a3788828901616161565b9250506080616a4888828901616161565b9150509295509295909350565b60008060008060808587031215616a6f57616a6e615e3c565b5b600085013567ffffffffffffffff811115616a8d57616a8c615e41565b5b616a9987828801616395565b9450506020616aaa87828801615f4c565b9350506040616abb87828801615f4c565b9250506060616acc87828801616455565b91505092959194509250565b7f4e487b7100000000000000000000000000000000000000000000000000000000600052602160045260246000fd5b60088110616b1857616b17616ad8565b5b50565b6000819050616b2982616b07565b919050565b6000616b3982616b1b565b9050919050565b616b4981616b2e565b82525050565b6000602082019050616b646000830184616b40565b92915050565b60048110616b7b57616b7a616ad8565b5b50565b6000819050616b8c82616b6a565b919050565b6000616b9c82616b7e565b9050919050565b616bac81616b91565b82525050565b6000602082019050616bc76000830184616ba3565b92915050565b60008083601f840112616be357616be2615f9a565b5b8235905067ffffffffffffffff811115616c0057616bff615f9f565b5b602083019150836001820283011115616c1c57616c1b615fa4565b5b9250929050565b60008060208385031215616c3a57616c39615e3c565b5b600083013567ffffffffffffffff811115616c5857616c57615e41565b5b616c6485828601616bcd565b92509250509250929050565b6000606082019050616c856000830186615f0b565b616c926020830185615f0b565b616c9f6040830184615f0b565b949350505050565b60008060408385031215616cbe57616cbd615e3c565b5b6000616ccc85828601615f4c565b9250506020616cdd85828601615f85565b9150509250929050565b600080600080600060808688031215616d0357616d02615e3c565b5b6000616d1188828901615f4c565b9550506020616d2288828901615f85565b945050604086013567ffffffffffffffff811115616d4357616d42615e41565b5b616d4f88828901615fa9565b9350935050606086013567ffffffffffffffff811115616d7257616d71615e41565b5b616d7e88828901616112565b9150509295509295909350565b600060208284031215616da157616da0615e3c565b5b600082013567ffffffffffffffff811115616dbf57616dbe615e41565b5b616dcb84828501616112565b91505092915050565b600081519050919050565b600082825260208201905092915050565b6000616dfb82616dd4565b616e058185616ddf565b9350616e1581856020860161629d565b616e1e81616004565b840191505092915050565b6000604082019050616e3e6000830185615ed7565b8181036020830152616e508184616df0565b90509392505050565b60008060408385031215616e7057616e6f615e3c565b5b6000616e7e85828601616455565b9250506020616e8f85828601615f4c565b9150509250929050565b60008060008060608587031215616eb357616eb2615e3c565b5b6000616ec187828801615f4c565b9450506020616ed287828801615f85565b935050604085013567ffffffffffffffff811115616ef357616ef2615e41565b5b616eff87828801615fa9565b925092505092959194509250565b60008060008060808587031215616f2757616f26615e3c565b5b600085013567ffffffffffffffff811115616f4557616f44615e41565b5b616f5187828801616616565b945050602085013567ffffffffffffffff811115616f7257616f71615e41565b5b616f7e878288016166d9565b935050604085013567ffffffffffffffff811115616f9f57616f9e615e41565b5b616fab878288016167ba565b925050606085013567ffffffffffffffff811115616fcc57616fcb615e41565b5b616fd887828801616395565b91505092959194509250565b600080600060608486031215616ffd57616ffc615e3c565b5b600061700b86828701616455565b935050602061701c86828701615f4c565b925050604084013567ffffffffffffffff81111561703d5761703c615e41565b5b61704986828701616112565b9150509250925092565b600061705e8261640c565b9050919050565b600061707082617053565b9050919050565b61708081617065565b811461708b57600080fd5b50565b60008135905061709d81617077565b92915050565b6000602082840312156170b9576170b8615e3c565b5b60006170c78482850161708e565b91505092915050565b600080600080600060a086880312156170ec576170eb615e3c565b5b60006170fa88828901616455565b955050602061710b88828901616455565b945050604086013567ffffffffffffffff81111561712c5761712b615e41565b5b617138888289016166d9565b935050606086013567ffffffffffffffff81111561715957617158615e41565b5b617165888289016166d9565b925050608086013567ffffffffffffffff81111561718657617185615e41565b5b61719288828901616112565b9150509295509295909350565b600080600080606085870312156171b9576171b8615e3c565b5b60006171c787828801616455565b94505060206171d887828801615f4c565b935050604085013567ffffffffffffffff8111156171f9576171f8615e41565b5b61720587828801616bcd565b925092505092959194509250565b6000806040838503121561722a57617229615e3c565b5b600061723885828601615f4c565b925050602061724985828601615f4c565b9150509250929050565b60006040820190506172686000830185615f0b565b6172756020830184615f0b565b9392505050565b600080600080600060a0868803121561729857617297615e3c565b5b60006172a688828901616455565b95505060206172b788828901616455565b94505060406172c888828901615f4c565b93505060606172d988828901615f4c565b925050608086013567ffffffffffffffff8111156172fa576172f9615e41565b5b61730688828901616112565b9150509295509295909350565b6000819050919050565b600061733861733361732e8461640c565b617313565b61640c565b9050919050565b600061734a8261731d565b9050919050565b600061735c8261733f565b9050919050565b61736c81617351565b82525050565b60006020820190506173876000830184617363565b92915050565b600081905092915050565b60006173a4838561738d565b93506173b18385846160c1565b82840190509392505050565b60006173ca828486617398565b91508190509392505050565b6173df81615f61565b82525050565b600060a0820190506173fa60008301886168a3565b6174076020830187615f0b565b61741460408301866173d6565b61742160608301856168a3565b61742e60808301846168a3565b9695505050505050565b7f476f7665726e6f723a206f6e6c79476f7665726e616e63650000000000000000600082015250565b600061746e60188361628c565b915061747982617438565b602082019050919050565b6000602082019050818103600083015261749d81617461565b9050919050565b7f4e487b7100000000000000000000000000000000000000000000000000000000600052602260045260246000fd5b600060028204905060018216806174eb57607f821691505b6020821081036174fe576174fd6174a4565b5b50919050565b50565b600061751460008361738d565b915061751f82617504565b600082019050919050565b600061753582617507565b9150819050919050565b600081905092915050565b600061755582616281565b61755f818561753f565b935061756f81856020860161629d565b80840191505092915050565b6000617587828461754a565b915081905092915050565b7f476f7665726e6f723a2070726f706f73616c206e6f742073756363657373667560008201527f6c00000000000000000000000000000000000000000000000000000000000000602082015250565b60006175ee60218361628c565b91506175f982617592565b604082019050919050565b6000602082019050818103600083015261761d816175e1565b9050919050565b60008151905061763381615f35565b92915050565b60006020828403121561764f5761764e615e3c565b5b600061765d84828501617624565b91505092915050565b600081519050919050565b600082825260208201905092915050565b6000819050602082019050919050565b61769b8161642c565b82525050565b60006176ad8383617692565b60208301905092915050565b6000602082019050919050565b60006176d182617666565b6176db8185617671565b93506176e683617682565b8060005b838110156177175781516176fe88826176a1565b9750617709836176b9565b9250506001810190506176ea565b5085935050505092915050565b600081519050919050565b600082825260208201905092915050565b6000819050602082019050919050565b600082825260208201905092915050565b600061776c82616dd4565b6177768185617750565b935061778681856020860161629d565b61778f81616004565b840191505092915050565b60006177a68383617761565b905092915050565b6000602082019050919050565b60006177c682617724565b6177d0818561772f565b9350836020820285016177e285617740565b8060005b8581101561781e57848403895281516177ff858261779a565b945061780a836177ae565b925060208a019950506001810190506177e6565b50829750879550505050505092915050565b6000819050919050565b60008160001b9050919050565b600061786261785d61785884617830565b61783a565b616140565b9050919050565b61787281617847565b82525050565b600060a082019050818103600083015261789281886176c6565b905081810360208301526178a6818761695a565b905081810360408301526178ba81866177bb565b90506178c96060830185617869565b6178d660808301846168a3565b9695505050505050565b6000815190506178ef8161614a565b92915050565b60006020828403121561790b5761790a615e3c565b5b6000617919848285016178e0565b91505092915050565b600060c082019050818103600083015261793c81896176c6565b90508181036020830152617950818861695a565b9050818103604083015261796481876177bb565b90506179736060830186617869565b61798060808301856168a3565b61798d60a0830184615f0b565b979650505050505050565b7f4e487b7100000000000000000000000000000000000000000000000000000000600052601160045260246000fd5b60006179d282615f01565b91506179dd83615f01565b92508282019050808211156179f5576179f4617998565b5b92915050565b6000606082019050617a1060008301866168a3565b617a1d6020830185615f0b565b617a2a60408301846173d6565b949350505050565b60008190508160005260206000209050919050565b60006020601f8301049050919050565b600082821b905092915050565b600060088302617a947fffffffffffffffffffffffffffffffffffffffffffffffffffffffffffffffff82617a57565b617a9e8683617a57565b95508019841693508086168417925050509392505050565b6000617ad1617acc617ac784615f01565b617313565b615f01565b9050919050565b6000819050919050565b617aeb83617ab6565b617aff617af782617ad8565b848454617a64565b825550505050565b600090565b617b14617b07565b617b1f818484617ae2565b505050565b5b81811015617b4357617b38600082617b0c565b600181019050617b25565b5050565b601f821115617b8857617b5981617a32565b617b6284617a47565b81016020851015617b71578190505b617b85617b7d85617a47565b830182617b24565b50505b505050565b600082821c905092915050565b6000617bab60001984600802617b8d565b1980831691505092915050565b6000617bc48383617b9a565b9150826002028217905092915050565b617bdd82616281565b67ffffffffffffffff811115617bf657617bf5616015565b5b617c0082546174d3565b617c0b828285617b47565b600060209050601f831160018114617c3e5760008415617c2c578287015190505b617c368582617bb8565b865550617c9e565b601f198416617c4c86617a32565b60005b82811015617c7457848901518255600182019150602085019450602081019050617c4f565b86831015617c915784890151617c8d601f891682617b9a565b8355505b6001600288020188555050505b505050505050565b6000617cb182615f01565b91507fffffffffffffffffffffffffffffffffffffffffffffffffffffffffffffffff8203617ce357617ce2617998565b5b600182019050919050565b600082905092915050565b6000617d058383617cee565b82617d108135616140565b92506020821015617d5057617d4b7fffffffffffffffffffffffffffffffffffffffffffffffffffffffffffffffff83602003600802617a57565b831692505b505092915050565b6000617d6382615f01565b9150617d6e83615f01565b9250828202617d7c81615f01565b91508282048414831517617d9357617d92617998565b5b5092915050565b7f4e487b7100000000000000000000000000000000000000000000000000000000600052601260045260246000fd5b6000617dd482615f01565b9150617ddf83615f01565b925082617def57617dee617d9a565b5b828204905092915050565b6000617e0582615f01565b9150617e1083615f01565b9250828203905081811115617e2857617e27617998565b5b92915050565b7f4e487b7100000000000000000000000000000000000000000000000000000000600052603260045260246000fd5b6000819050919050565b617e78617e7382615f01565b617e5d565b82525050565b6000617e8a8284617e67565b60208201915081905092915050565b60006080820190508181036000830152617eb381876176c6565b90508181036020830152617ec7818661695a565b90508181036040830152617edb81856177bb565b9050617eea60608301846168a3565b95945050505050565b7f4f776e61626c653a206e6577206f776e657220697320746865207a65726f206160008201527f6464726573730000000000000000000000000000000000000000000000000000602082015250565b6000617f4f60268361628c565b9150617f5a82617ef3565b604082019050919050565b60006020820190508181036000830152617f7e81617f42565b9050919050565b7f53616665436173743a2076616c756520646f65736e27742066697420696e203260008201527f3234206269747300000000000000000000000000000000000000000000000000602082015250565b6000617fe160278361628c565b9150617fec82617f85565b604082019050919050565b6000602082019050818103600083015261801081617fd4565b9050919050565b7f53616665436173743a2076616c756520646f65736e27742066697420696e203360008201527f3220626974730000000000000000000000000000000000000000000000000000602082015250565b600061807360268361628c565b915061807e82618017565b604082019050919050565b600060208201905081810360008301526180a281618066565b9050919050565b7f476f7665726e6f723a20766f7465206e6f742063757272656e746c792061637460008201527f6976650000000000000000000000000000000000000000000000000000000000602082015250565b600061810560238361628c565b9150618110826180a9565b604082019050919050565b60006020820190508181036000830152618134816180f8565b9050919050565b60006080820190506181506000830187615f0b565b61815d60208301866173d6565b61816a6040830185615f0b565b818103606083015261817c81846162c7565b905095945050505050565b600060a08201905061819c6000830188615f0b565b6181a960208301876173d6565b6181b66040830186615f0b565b81810360608301526181c881856162c7565b905081810360808301526181dc8184616df0565b90509695505050505050565b7f476f7665726e6f72566f74657351756f72756d4672616374696f6e3a2071756f60008201527f72756d4e756d657261746f72206f7665722071756f72756d44656e6f6d696e6160208201527f746f720000000000000000000000000000000000000000000000000000000000604082015250565b600061826a60438361628c565b9150618275826181e8565b606082019050919050565b600060208201905081810360008301526182998161825d565b9050919050565b7f4f776e61626c653a2063616c6c6572206973206e6f7420746865206f776e6572600082015250565b60006182d660208361628c565b91506182e1826182a0565b602082019050919050565b60006020820190508181036000830152618305816182c9565b9050919050565b61831581615ecb565b811461832057600080fd5b50565b6000815190506183328161830c565b92915050565b60006020828403121561834e5761834d615e3c565b5b600061835c84828501618323565b91505092915050565b7f436865636b706f696e74733a20626c6f636b206e6f7420796574206d696e6564600082015250565b600061839b60208361628c565b91506183a682618365565b602082019050919050565b600060208201905081810360008301526183ca8161838e565b9050919050565b7f476f7665726e6f723a2070726f706f73657220766f7465732062656c6f77207060008201527f726f706f73616c207468726573686f6c64000000000000000000000000000000602082015250565b600061842d60318361628c565b9150618438826183d1565b604082019050919050565b6000602082019050818103600083015261845c81618420565b9050919050565b7f476f7665726e6f723a20696e76616c69642070726f706f73616c206c656e677460008201527f6800000000000000000000000000000000000000000000000000000000000000602082015250565b60006184bf60218361628c565b91506184ca82618463565b604082019050919050565b600060208201905081810360008301526184ee816184b2565b9050919050565b7f476f7665726e6f723a20656d7074792070726f706f73616c0000000000000000600082015250565b600061852b60188361628c565b9150618536826184f5565b602082019050919050565b6000602082019050818103600083015261855a8161851e565b9050919050565b7f476f7665726e6f723a2070726f706f73616c20616c726561647920657869737460008201527f7300000000000000000000000000000000000000000000000000000000000000602082015250565b60006185bd60218361628c565b91506185c882618561565b604082019050919050565b600060208201905081810360008301526185ec816185b0565b9050919050565b600067ffffffffffffffff82169050919050565b6000618612826185f3565b915061861d836185f3565b9250828201905067ffffffffffffffff81111561863d5761863c617998565b5b92915050565b600081519050919050565b600082825260208201905092915050565b6000819050602082019050919050565b600082825260208201905092915050565b600061868b82616281565b618695818561866f565b93506186a581856020860161629d565b6186ae81616004565b840191505092915050565b60006186c58383618680565b905092915050565b6000602082019050919050565b60006186e582618643565b6186ef818561864e565b9350836020820285016187018561865f565b8060005b8581101561873d578484038952815161871e85826186b9565b9450618729836186cd565b925060208a01995050600181019050618705565b50829750879550505050505092915050565b600061876a618765618760846185f3565b617313565b615f01565b9050919050565b61877a8161874f565b82525050565b600061012082019050618796600083018c615f0b565b6187a3602083018b616557565b81810360408301526187b5818a6176c6565b905081810360608301526187c9818961695a565b905081810360808301526187dd81886186da565b905081810360a08301526187f181876177bb565b905061880060c0830186618771565b61880d60e0830185618771565b81810361010083015261882081846162c7565b90509a9950505050505050505050565b60006040820190506188456000830185616557565b6188526020830184615f0b565b9392505050565b600060408201905061886e6000830185616557565b61887b6020830184616557565b9392505050565b7f476f7665726e6f7253657474696e67733a20766f74696e6720706572696f642060008201527f746f6f206c6f7700000000000000000000000000000000000000000000000000602082015250565b60006188de60278361628c565b91506188e982618882565b604082019050919050565b6000602082019050818103600083015261890d816188d1565b9050919050565b7f1901000000000000000000000000000000000000000000000000000000000000600082015250565b600061894a60028361753f565b915061895582618914565b600282019050919050565b6000819050919050565b61897b61897682616140565b618960565b82525050565b600061898c8261893d565b9150618998828561896a565b6020820191506189a8828461896a565b6020820191508190509392505050565b60006080820190506189cd60008301876168a3565b6189da60208301866173d6565b6189e760408301856168a3565b6189f460608301846168a3565b95945050505050565b7f45434453413a20696e76616c6964207369676e61747572650000000000000000600082015250565b6000618a3360188361628c565b9150618a3e826189fd565b602082019050919050565b60006020820190508181036000830152618a6281618a26565b9050919050565b7f45434453413a20696e76616c6964207369676e6174757265206c656e67746800600082015250565b6000618a9f601f8361628c565b9150618aaa82618a69565b602082019050919050565b60006020820190508181036000830152618ace81618a92565b9050919050565b7f45434453413a20696e76616c6964207369676e6174757265202773272076616c60008201527f7565000000000000000000000000000000000000000000000000000000000000602082015250565b6000618b3160228361628c565b9150618b3c82618ad5565b604082019050919050565b60006020820190508181036000830152618b6081618b24565b9050919050565b7f45434453413a20696e76616c6964207369676e6174757265202776272076616c60008201527f7565000000000000000000000000000000000000000000000000000000000000602082015250565b6000618bc360228361628c565b9150618bce82618b67565b604082019050919050565b60006020820190508181036000830152618bf281618bb6565b9050919050565b7f476f7665726e6f72566f74696e6753696d706c653a20766f746520616c72656160008201527f6479206361737400000000000000000000000000000000000000000000000000602082015250565b6000618c5560278361628c565b9150618c6082618bf9565b604082019050919050565b60006020820190508181036000830152618c8481618c48565b9050919050565b7f476f7665726e6f72566f74696e6753696d706c653a20696e76616c696420766160008201527f6c756520666f7220656e756d20566f7465547970650000000000000000000000602082015250565b6000618ce760358361628c565b9150618cf282618c8b565b604082019050919050565b60006020820190508181036000830152618d1681618cda565b9050919050565b7f476f7665726e6f723a20756e6b6e6f776e2070726f706f73616c206964000000600082015250565b6000618d53601d8361628c565b9150618d5e82618d1d565b602082019050919050565b60006020820190508181036000830152618d8281618d46565b9050919050565b7f53616665436173743a2076616c756520646f65736e27742066697420696e203660008201527f3420626974730000000000000000000000000000000000000000000000000000602082015250565b6000618de560268361628c565b9150618df082618d89565b604082019050919050565b60006020820190508181036000830152618e1481618dd8565b9050919050565b7f416464726573733a20696e73756666696369656e742062616c616e636520666f60008201527f722063616c6c0000000000000000000000000000000000000000000000000000602082015250565b6000618e7760268361628c565b9150618e8282618e1b565b604082019050919050565b60006020820190508181036000830152618ea681618e6a565b9050919050565b7f416464726573733a2063616c6c20746f206e6f6e2d636f6e7472616374000000600082015250565b6000618ee3601d8361628c565b9150618eee82618ead565b602082019050919050565b60006020820190508181036000830152618f1281618ed6565b9050919050565b6000618f2482616dd4565b618f2e818561738d565b9350618f3e81856020860161629d565b80840191505092915050565b6000618f568284618f19565b915081905092915050565b600060a082019050618f7660008301886168a3565b618f8360208301876168a3565b618f9060408301866168a3565b618f9d6060830185615f0b565b618faa6080830184616557565b969550505050505056fe416464726573733a206c6f772d6c6576656c2063616c6c20776974682076616c7565206661696c6564a2646970667358221220e4c4ef21389682e5feb911735f43d26b7f768b1c9cb28c392aa5dda9dbadea4264736f6c63430008110033",
  "devdoc": {
    "errors": {
      "Empty()": [
        {
          "details": "An operation (e.g. {front}) couldn't be completed due to the queue being empty."
        }
      ]
    },
    "kind": "dev",
    "methods": {
      "COUNTING_MODE()": {
        "details": "See {IGovernor-COUNTING_MODE}."
      },
      "castVote(uint256,uint8)": {
        "details": "See {IGovernor-castVote}."
      },
      "castVoteBySig(uint256,uint8,uint8,bytes32,bytes32)": {
        "details": "See {IGovernor-castVoteBySig}."
      },
      "castVoteWithReason(uint256,uint8,string)": {
        "details": "See {IGovernor-castVoteWithReason}."
      },
      "castVoteWithReasonAndParams(uint256,uint8,string,bytes)": {
        "details": "See {IGovernor-castVoteWithReasonAndParams}."
      },
      "castVoteWithReasonAndParamsBySig(uint256,uint8,string,bytes,uint8,bytes32,bytes32)": {
        "details": "See {IGovernor-castVoteWithReasonAndParamsBySig}."
      },
      "execute(address[],uint256[],bytes[],bytes32)": {
        "details": "See {IGovernor-execute}."
      },
      "getVotes(address,uint256)": {
        "details": "See {IGovernor-getVotes}."
      },
      "getVotesWithParams(address,uint256,bytes)": {
        "details": "See {IGovernor-getVotesWithParams}."
      },
      "hasVoted(uint256,address)": {
        "details": "See {IGovernor-hasVoted}."
      },
      "hashProposal(address[],uint256[],bytes[],bytes32)": {
        "details": "See {IGovernor-hashProposal}. The proposal id is produced by hashing the ABI encoded `targets` array, the `values` array, the `calldatas` array and the descriptionHash (bytes32 which itself is the keccak256 hash of the description string). This proposal id can be produced from the proposal data which is part of the {ProposalCreated} event. It can even be computed in advance, before the proposal is submitted. Note that the chainId and the governor address are not part of the proposal id computation. Consequently, the same proposal (with same operation and same description) will have the same id if submitted on multiple governors across multiple networks. This also means that in order to execute the same operation twice (on the same governor) the proposer will have to change the description in order to avoid proposal id conflicts."
      },
      "name()": {
        "details": "See {IGovernor-name}."
      },
      "onERC1155BatchReceived(address,address,uint256[],uint256[],bytes)": {
        "details": "See {IERC1155Receiver-onERC1155BatchReceived}."
      },
      "onERC1155Received(address,address,uint256,uint256,bytes)": {
        "details": "See {IERC1155Receiver-onERC1155Received}."
      },
      "onERC721Received(address,address,uint256,bytes)": {
        "details": "See {IERC721Receiver-onERC721Received}."
      },
      "owner()": {
        "details": "Returns the address of the current owner."
      },
      "performUpkeep(bytes)": {
        "details": "The input to this method should not be trusted, and the caller of the method should not even be restricted to any single registry. Anyone should be able call it, and the input should be validated, there is no guarantee that the data passed in is the performData returned from checkUpkeep. This could happen due to malicious keepers, racing keepers, or simply a state change while the performUpkeep transaction is waiting for confirmation. Always validate the data passed in.",
        "params": {
          "performData": "is the data which was passed back from the checkData simulation. If it is encoded, it can easily be decoded into other types by calling `abi.decode`. This data should not be trusted, and should be validated against the contract's current state."
        }
      },
      "proposalDeadline(uint256)": {
        "details": "See {IGovernor-proposalDeadline}."
      },
      "proposalEta(uint256)": {
        "details": "Public accessor to check the eta of a queued proposal"
      },
      "proposalSnapshot(uint256)": {
        "details": "See {IGovernor-proposalSnapshot}."
      },
      "proposalVotes(uint256)": {
        "details": "Accessor to the internal vote counts."
      },
      "queue(address[],uint256[],bytes[],bytes32)": {
        "details": "Function to queue a proposal to the timelock."
      },
      "quorumDenominator()": {
        "details": "Returns the quorum denominator. Defaults to 100, but may be overridden."
      },
      "quorumNumerator()": {
        "details": "Returns the current quorum numerator. See {quorumDenominator}."
      },
      "quorumNumerator(uint256)": {
        "details": "Returns the quorum numerator at a specific block number. See {quorumDenominator}."
      },
      "relay(address,uint256,bytes)": {
        "details": "Relays a transaction or function call to an arbitrary target. In cases where the governance executor is some contract other than the governor itself, like when using a timelock, this function can be invoked in a governance proposal to recover tokens or Ether that was sent to the governor contract by mistake. Note that if the executor is simply the governor itself, use of `relay` is redundant."
      },
      "renounceOwnership()": {
        "details": "Leaves the contract without owner. It will not be possible to call `onlyOwner` functions anymore. Can only be called by the current owner. NOTE: Renouncing ownership will leave the contract without an owner, thereby removing any functionality that is only available to the owner."
      },
      "setProposalThreshold(uint256)": {
        "details": "Update the proposal threshold. This operation can only be performed through a governance proposal. Emits a {ProposalThresholdSet} event."
      },
      "setVotingDelay(uint256)": {
        "details": "Update the voting delay. This operation can only be performed through a governance proposal. Emits a {VotingDelaySet} event."
      },
      "setVotingPeriod(uint256)": {
        "details": "Update the voting period. This operation can only be performed through a governance proposal. Emits a {VotingPeriodSet} event."
      },
      "timelock()": {
        "details": "Public accessor to check the address of the timelock"
      },
      "transferOwnership(address)": {
        "details": "Transfers ownership of the contract to a new account (`newOwner`). Can only be called by the current owner."
      },
      "updateQuorumNumerator(uint256)": {
        "details": "Changes the quorum numerator. Emits a {QuorumNumeratorUpdated} event. Requirements: - Must be called through a governance proposal. - New numerator must be smaller or equal to the denominator."
      },
      "updateTimelock(address)": {
        "details": "Public endpoint to update the underlying timelock instance. Restricted to the timelock itself, so updates must be proposed, scheduled, and executed through governance proposals. CAUTION: It is not recommended to change the timelock while there are other queued governance proposals."
      },
      "version()": {
        "details": "See {IGovernor-version}."
      }
    },
    "version": 1
  },
  "userdoc": {
    "kind": "user",
    "methods": {
      "performUpkeep(bytes)": {
        "notice": "method that is actually executed by the keepers, via the registry. The data returned by the checkUpkeep simulation will be passed into this method to actually be executed."
      }
    },
    "version": 1
  },
  "storageLayout": {
    "storage": [
      {
        "astId": 623,
        "contract": "contracts/GovernerContract.sol:GovernerContract",
        "label": "_name",
        "offset": 0,
        "slot": "0",
        "type": "t_string_storage"
      },
      {
        "astId": 628,
        "contract": "contracts/GovernerContract.sol:GovernerContract",
        "label": "_proposals",
        "offset": 0,
        "slot": "1",
        "type": "t_mapping(t_uint256,t_struct(ProposalCore)621_storage)"
      },
      {
        "astId": 631,
        "contract": "contracts/GovernerContract.sol:GovernerContract",
        "label": "_governanceCall",
        "offset": 0,
        "slot": "2",
        "type": "t_struct(Bytes32Deque)9817_storage"
      },
      {
        "astId": 3296,
        "contract": "contracts/GovernerContract.sol:GovernerContract",
        "label": "_votingDelay",
        "offset": 0,
        "slot": "4",
        "type": "t_uint256"
      },
      {
        "astId": 3298,
        "contract": "contracts/GovernerContract.sol:GovernerContract",
        "label": "_votingPeriod",
        "offset": 0,
        "slot": "5",
        "type": "t_uint256"
      },
      {
        "astId": 3300,
        "contract": "contracts/GovernerContract.sol:GovernerContract",
        "label": "_proposalThreshold",
        "offset": 0,
        "slot": "6",
        "type": "t_uint256"
      },
      {
        "astId": 3088,
        "contract": "contracts/GovernerContract.sol:GovernerContract",
        "label": "_proposalVotes",
        "offset": 0,
        "slot": "7",
        "type": "t_mapping(t_uint256,t_struct(ProposalVote)3083_storage)"
      },
      {
        "astId": 3899,
        "contract": "contracts/GovernerContract.sol:GovernerContract",
        "label": "_quorumNumerator",
        "offset": 0,
        "slot": "8",
        "type": "t_uint256"
      },
      {
        "astId": 3902,
        "contract": "contracts/GovernerContract.sol:GovernerContract",
        "label": "_quorumNumeratorHistory",
        "offset": 0,
        "slot": "9",
        "type": "t_struct(History)6110_storage"
      },
      {
        "astId": 3479,
        "contract": "contracts/GovernerContract.sol:GovernerContract",
        "label": "_timelock",
        "offset": 0,
        "slot": "10",
        "type": "t_contract(TimelockController)3062"
      },
      {
        "astId": 3483,
        "contract": "contracts/GovernerContract.sol:GovernerContract",
        "label": "_timelockIds",
        "offset": 0,
        "slot": "11",
        "type": "t_mapping(t_uint256,t_bytes32)"
      },
      {
        "astId": 458,
        "contract": "contracts/GovernerContract.sol:GovernerContract",
        "label": "_owner",
        "offset": 0,
        "slot": "12",
        "type": "t_address"
      },
      {
        "astId": 10172,
        "contract": "contracts/GovernerContract.sol:GovernerContract",
        "label": "projectId",
        "offset": 0,
        "slot": "13",
        "type": "t_uint256"
      },
      {
        "astId": 10174,
        "contract": "contracts/GovernerContract.sol:GovernerContract",
        "label": "lastTimeStamp",
        "offset": 0,
        "slot": "14",
        "type": "t_uint256"
      },
      {
        "astId": 10176,
        "contract": "contracts/GovernerContract.sol:GovernerContract",
        "label": "daoPercentage",
        "offset": 0,
        "slot": "15",
        "type": "t_uint256"
      },
      {
        "astId": 10178,
        "contract": "contracts/GovernerContract.sol:GovernerContract",
        "label": "enteranceFee",
        "offset": 0,
        "slot": "16",
        "type": "t_uint256"
      },
      {
        "astId": 10182,
        "contract": "contracts/GovernerContract.sol:GovernerContract",
        "label": "_isFunding",
        "offset": 0,
        "slot": "17",
        "type": "t_mapping(t_uint256,t_bool)"
      },
      {
        "astId": 10188,
        "contract": "contracts/GovernerContract.sol:GovernerContract",
        "label": "projectToTime",
        "offset": 0,
        "slot": "18",
        "type": "t_mapping(t_uint256,t_mapping(t_uint256,t_uint256))"
      },
      {
        "astId": 10192,
        "contract": "contracts/GovernerContract.sol:GovernerContract",
        "label": "time",
        "offset": 0,
        "slot": "19",
        "type": "t_mapping(t_uint256,t_uint256)"
      },
      {
        "astId": 10196,
        "contract": "contracts/GovernerContract.sol:GovernerContract",
        "label": "hashToProjectId",
        "offset": 0,
        "slot": "20",
        "type": "t_mapping(t_string_memory_ptr,t_uint256)"
      },
      {
        "astId": 10200,
        "contract": "contracts/GovernerContract.sol:GovernerContract",
        "label": "idToHash",
        "offset": 0,
        "slot": "21",
        "type": "t_mapping(t_uint256,t_string_storage)"
      },
      {
        "astId": 10206,
        "contract": "contracts/GovernerContract.sol:GovernerContract",
        "label": "funders",
        "offset": 0,
        "slot": "22",
        "type": "t_mapping(t_uint256,t_mapping(t_address,t_uint256))"
      },
      {
        "astId": 10210,
        "contract": "contracts/GovernerContract.sol:GovernerContract",
        "label": "projectFunds",
        "offset": 0,
        "slot": "23",
        "type": "t_mapping(t_uint256,t_uint256)"
      },
      {
        "astId": 10214,
        "contract": "contracts/GovernerContract.sol:GovernerContract",
        "label": "projectFundingGoalAmount",
        "offset": 0,
        "slot": "24",
        "type": "t_mapping(t_uint256,t_uint256)"
      },
      {
        "astId": 10218,
        "contract": "contracts/GovernerContract.sol:GovernerContract",
        "label": "_isApporovedByDao",
        "offset": 0,
        "slot": "25",
        "type": "t_mapping(t_uint256,t_bool)"
      },
      {
        "astId": 10222,
        "contract": "contracts/GovernerContract.sol:GovernerContract",
        "label": "projectOwnerAddress",
        "offset": 0,
        "slot": "26",
        "type": "t_mapping(t_uint256,t_address)"
      },
      {
        "astId": 10227,
        "contract": "contracts/GovernerContract.sol:GovernerContract",
        "label": "_ProjectFundingStatus",
        "offset": 0,
        "slot": "27",
        "type": "t_mapping(t_uint256,t_enum(ProjectFundingStatus)10169)"
      },
      {
        "astId": 10231,
        "contract": "contracts/GovernerContract.sol:GovernerContract",
        "label": "_isEnteranceFeePaid",
        "offset": 0,
        "slot": "28",
        "type": "t_mapping(t_address,t_bool)"
      },
      {
        "astId": 10236,
        "contract": "contracts/GovernerContract.sol:GovernerContract",
        "label": "investedProjects",
        "offset": 0,
        "slot": "29",
        "type": "t_mapping(t_address,t_array(t_uint256)dyn_storage)"
      }
    ],
    "types": {
      "t_address": {
        "encoding": "inplace",
        "label": "address",
        "numberOfBytes": "20"
      },
      "t_array(t_struct(Checkpoint)6105_storage)dyn_storage": {
        "base": "t_struct(Checkpoint)6105_storage",
        "encoding": "dynamic_array",
        "label": "struct Checkpoints.Checkpoint[]",
        "numberOfBytes": "32"
      },
      "t_array(t_uint256)dyn_storage": {
        "base": "t_uint256",
        "encoding": "dynamic_array",
        "label": "uint256[]",
        "numberOfBytes": "32"
      },
      "t_bool": {
        "encoding": "inplace",
        "label": "bool",
        "numberOfBytes": "1"
      },
      "t_bytes32": {
        "encoding": "inplace",
        "label": "bytes32",
        "numberOfBytes": "32"
      },
      "t_contract(TimelockController)3062": {
        "encoding": "inplace",
        "label": "contract TimelockController",
        "numberOfBytes": "20"
      },
      "t_enum(ProjectFundingStatus)10169": {
        "encoding": "inplace",
        "label": "enum FundProject.ProjectFundingStatus",
        "numberOfBytes": "1"
      },
      "t_int128": {
        "encoding": "inplace",
        "label": "int128",
        "numberOfBytes": "16"
      },
      "t_mapping(t_address,t_array(t_uint256)dyn_storage)": {
        "encoding": "mapping",
        "key": "t_address",
        "label": "mapping(address => uint256[])",
        "numberOfBytes": "32",
        "value": "t_array(t_uint256)dyn_storage"
      },
      "t_mapping(t_address,t_bool)": {
        "encoding": "mapping",
        "key": "t_address",
        "label": "mapping(address => bool)",
        "numberOfBytes": "32",
        "value": "t_bool"
      },
      "t_mapping(t_address,t_uint256)": {
        "encoding": "mapping",
        "key": "t_address",
        "label": "mapping(address => uint256)",
        "numberOfBytes": "32",
        "value": "t_uint256"
      },
      "t_mapping(t_int128,t_bytes32)": {
        "encoding": "mapping",
        "key": "t_int128",
        "label": "mapping(int128 => bytes32)",
        "numberOfBytes": "32",
        "value": "t_bytes32"
      },
      "t_mapping(t_string_memory_ptr,t_uint256)": {
        "encoding": "mapping",
        "key": "t_string_memory_ptr",
        "label": "mapping(string => uint256)",
        "numberOfBytes": "32",
        "value": "t_uint256"
      },
      "t_mapping(t_uint256,t_address)": {
        "encoding": "mapping",
        "key": "t_uint256",
        "label": "mapping(uint256 => address)",
        "numberOfBytes": "32",
        "value": "t_address"
      },
      "t_mapping(t_uint256,t_bool)": {
        "encoding": "mapping",
        "key": "t_uint256",
        "label": "mapping(uint256 => bool)",
        "numberOfBytes": "32",
        "value": "t_bool"
      },
      "t_mapping(t_uint256,t_bytes32)": {
        "encoding": "mapping",
        "key": "t_uint256",
        "label": "mapping(uint256 => bytes32)",
        "numberOfBytes": "32",
        "value": "t_bytes32"
      },
      "t_mapping(t_uint256,t_enum(ProjectFundingStatus)10169)": {
        "encoding": "mapping",
        "key": "t_uint256",
        "label": "mapping(uint256 => enum FundProject.ProjectFundingStatus)",
        "numberOfBytes": "32",
        "value": "t_enum(ProjectFundingStatus)10169"
      },
      "t_mapping(t_uint256,t_mapping(t_address,t_uint256))": {
        "encoding": "mapping",
        "key": "t_uint256",
        "label": "mapping(uint256 => mapping(address => uint256))",
        "numberOfBytes": "32",
        "value": "t_mapping(t_address,t_uint256)"
      },
      "t_mapping(t_uint256,t_mapping(t_uint256,t_uint256))": {
        "encoding": "mapping",
        "key": "t_uint256",
        "label": "mapping(uint256 => mapping(uint256 => uint256))",
        "numberOfBytes": "32",
        "value": "t_mapping(t_uint256,t_uint256)"
      },
      "t_mapping(t_uint256,t_string_storage)": {
        "encoding": "mapping",
        "key": "t_uint256",
        "label": "mapping(uint256 => string)",
        "numberOfBytes": "32",
        "value": "t_string_storage"
      },
      "t_mapping(t_uint256,t_struct(ProposalCore)621_storage)": {
        "encoding": "mapping",
        "key": "t_uint256",
        "label": "mapping(uint256 => struct Governor.ProposalCore)",
        "numberOfBytes": "32",
        "value": "t_struct(ProposalCore)621_storage"
      },
      "t_mapping(t_uint256,t_struct(ProposalVote)3083_storage)": {
        "encoding": "mapping",
        "key": "t_uint256",
        "label": "mapping(uint256 => struct GovernorCountingSimple.ProposalVote)",
        "numberOfBytes": "32",
        "value": "t_struct(ProposalVote)3083_storage"
      },
      "t_mapping(t_uint256,t_uint256)": {
        "encoding": "mapping",
        "key": "t_uint256",
        "label": "mapping(uint256 => uint256)",
        "numberOfBytes": "32",
        "value": "t_uint256"
      },
      "t_string_memory_ptr": {
        "encoding": "bytes",
        "label": "string",
        "numberOfBytes": "32"
      },
      "t_string_storage": {
        "encoding": "bytes",
        "label": "string",
        "numberOfBytes": "32"
      },
      "t_struct(BlockNumber)6762_storage": {
        "encoding": "inplace",
        "label": "struct Timers.BlockNumber",
        "members": [
          {
            "astId": 6761,
            "contract": "contracts/GovernerContract.sol:GovernerContract",
            "label": "_deadline",
            "offset": 0,
            "slot": "0",
            "type": "t_uint64"
          }
        ],
        "numberOfBytes": "32"
      },
      "t_struct(Bytes32Deque)9817_storage": {
        "encoding": "inplace",
        "label": "struct DoubleEndedQueue.Bytes32Deque",
        "members": [
          {
            "astId": 9810,
            "contract": "contracts/GovernerContract.sol:GovernerContract",
            "label": "_begin",
            "offset": 0,
            "slot": "0",
            "type": "t_int128"
          },
          {
            "astId": 9812,
            "contract": "contracts/GovernerContract.sol:GovernerContract",
            "label": "_end",
            "offset": 16,
            "slot": "0",
            "type": "t_int128"
          },
          {
            "astId": 9816,
            "contract": "contracts/GovernerContract.sol:GovernerContract",
            "label": "_data",
            "offset": 0,
            "slot": "1",
            "type": "t_mapping(t_int128,t_bytes32)"
          }
        ],
        "numberOfBytes": "64"
      },
      "t_struct(Checkpoint)6105_storage": {
        "encoding": "inplace",
        "label": "struct Checkpoints.Checkpoint",
        "members": [
          {
            "astId": 6102,
            "contract": "contracts/GovernerContract.sol:GovernerContract",
            "label": "_blockNumber",
            "offset": 0,
            "slot": "0",
            "type": "t_uint32"
          },
          {
            "astId": 6104,
            "contract": "contracts/GovernerContract.sol:GovernerContract",
            "label": "_value",
            "offset": 4,
            "slot": "0",
            "type": "t_uint224"
          }
        ],
        "numberOfBytes": "32"
      },
      "t_struct(History)6110_storage": {
        "encoding": "inplace",
        "label": "struct Checkpoints.History",
        "members": [
          {
            "astId": 6109,
            "contract": "contracts/GovernerContract.sol:GovernerContract",
            "label": "_checkpoints",
            "offset": 0,
            "slot": "0",
            "type": "t_array(t_struct(Checkpoint)6105_storage)dyn_storage"
          }
        ],
        "numberOfBytes": "32"
      },
      "t_struct(ProposalCore)621_storage": {
        "encoding": "inplace",
        "label": "struct Governor.ProposalCore",
        "members": [
          {
            "astId": 613,
            "contract": "contracts/GovernerContract.sol:GovernerContract",
            "label": "voteStart",
            "offset": 0,
            "slot": "0",
            "type": "t_struct(BlockNumber)6762_storage"
          },
          {
            "astId": 616,
            "contract": "contracts/GovernerContract.sol:GovernerContract",
            "label": "voteEnd",
            "offset": 0,
            "slot": "1",
            "type": "t_struct(BlockNumber)6762_storage"
          },
          {
            "astId": 618,
            "contract": "contracts/GovernerContract.sol:GovernerContract",
            "label": "executed",
            "offset": 0,
            "slot": "2",
            "type": "t_bool"
          },
          {
            "astId": 620,
            "contract": "contracts/GovernerContract.sol:GovernerContract",
            "label": "canceled",
            "offset": 1,
            "slot": "2",
            "type": "t_bool"
          }
        ],
        "numberOfBytes": "96"
      },
      "t_struct(ProposalVote)3083_storage": {
        "encoding": "inplace",
        "label": "struct GovernorCountingSimple.ProposalVote",
        "members": [
          {
            "astId": 3074,
            "contract": "contracts/GovernerContract.sol:GovernerContract",
            "label": "againstVotes",
            "offset": 0,
            "slot": "0",
            "type": "t_uint256"
          },
          {
            "astId": 3076,
            "contract": "contracts/GovernerContract.sol:GovernerContract",
            "label": "forVotes",
            "offset": 0,
            "slot": "1",
            "type": "t_uint256"
          },
          {
            "astId": 3078,
            "contract": "contracts/GovernerContract.sol:GovernerContract",
            "label": "abstainVotes",
            "offset": 0,
            "slot": "2",
            "type": "t_uint256"
          },
          {
            "astId": 3082,
            "contract": "contracts/GovernerContract.sol:GovernerContract",
            "label": "hasVoted",
            "offset": 0,
            "slot": "3",
            "type": "t_mapping(t_address,t_bool)"
          }
        ],
        "numberOfBytes": "128"
      },
      "t_uint224": {
        "encoding": "inplace",
        "label": "uint224",
        "numberOfBytes": "28"
      },
      "t_uint256": {
        "encoding": "inplace",
        "label": "uint256",
        "numberOfBytes": "32"
      },
      "t_uint32": {
        "encoding": "inplace",
        "label": "uint32",
        "numberOfBytes": "4"
      },
      "t_uint64": {
        "encoding": "inplace",
        "label": "uint64",
        "numberOfBytes": "8"
      }
    }
  }
}