{
  "address": "0xe7f1725E7734CE288F8367e1Bb143E90bb3F0512",
  "abi": [
    {
      "inputs": [],
      "stateMutability": "nonpayable",
      "type": "constructor"
    },
    {
      "anonymous": false,
      "inputs": [
        {
          "indexed": true,
          "internalType": "address",
          "name": "owner",
          "type": "address"
        },
        {
          "indexed": true,
          "internalType": "address",
          "name": "spender",
          "type": "address"
        },
        {
          "indexed": false,
          "internalType": "uint256",
          "name": "value",
          "type": "uint256"
        }
      ],
      "name": "Approval",
      "type": "event"
    },
    {
      "anonymous": false,
      "inputs": [
        {
          "indexed": true,
          "internalType": "address",
          "name": "delegator",
          "type": "address"
        },
        {
          "indexed": true,
          "internalType": "address",
          "name": "fromDelegate",
          "type": "address"
        },
        {
          "indexed": true,
          "internalType": "address",
          "name": "toDelegate",
          "type": "address"
        }
      ],
      "name": "DelegateChanged",
      "type": "event"
    },
    {
      "anonymous": false,
      "inputs": [
        {
          "indexed": true,
          "internalType": "address",
          "name": "delegate",
          "type": "address"
        },
        {
          "indexed": false,
          "internalType": "uint256",
          "name": "previousBalance",
          "type": "uint256"
        },
        {
          "indexed": false,
          "internalType": "uint256",
          "name": "newBalance",
          "type": "uint256"
        }
      ],
      "name": "DelegateVotesChanged",
      "type": "event"
    },
    {
      "anonymous": false,
      "inputs": [
        {
          "indexed": true,
          "internalType": "address",
          "name": "previousOwner",
          "type": "address"
        },
        {
          "indexed": true,
          "internalType": "address",
          "name": "newOwner",
          "type": "address"
        }
      ],
      "name": "OwnershipTransferred",
      "type": "event"
    },
    {
      "anonymous": false,
      "inputs": [
        {
          "indexed": true,
          "internalType": "address",
          "name": "_from",
          "type": "address"
        },
        {
          "indexed": true,
          "internalType": "address",
          "name": "_to",
          "type": "address"
        },
        {
          "indexed": false,
          "internalType": "uint256",
          "name": "_amount",
          "type": "uint256"
        }
      ],
      "name": "TokenTransfer",
      "type": "event"
    },
    {
      "anonymous": false,
      "inputs": [
        {
          "indexed": true,
          "internalType": "address",
          "name": "from",
          "type": "address"
        },
        {
          "indexed": true,
          "internalType": "address",
          "name": "to",
          "type": "address"
        },
        {
          "indexed": false,
          "internalType": "uint256",
          "name": "value",
          "type": "uint256"
        }
      ],
      "name": "Transfer",
      "type": "event"
    },
    {
      "inputs": [],
      "name": "DOMAIN_SEPARATOR",
      "outputs": [
        {
          "internalType": "bytes32",
          "name": "",
          "type": "bytes32"
        }
      ],
      "stateMutability": "view",
      "type": "function"
    },
    {
      "inputs": [
        {
          "internalType": "address",
          "name": "owner",
          "type": "address"
        },
        {
          "internalType": "address",
          "name": "spender",
          "type": "address"
        }
      ],
      "name": "allowance",
      "outputs": [
        {
          "internalType": "uint256",
          "name": "",
          "type": "uint256"
        }
      ],
      "stateMutability": "view",
      "type": "function"
    },
    {
      "inputs": [
        {
          "internalType": "address",
          "name": "spender",
          "type": "address"
        },
        {
          "internalType": "uint256",
          "name": "amount",
          "type": "uint256"
        }
      ],
      "name": "approve",
      "outputs": [
        {
          "internalType": "bool",
          "name": "",
          "type": "bool"
        }
      ],
      "stateMutability": "nonpayable",
      "type": "function"
    },
    {
      "inputs": [
        {
          "internalType": "address",
          "name": "account",
          "type": "address"
        }
      ],
      "name": "balanceOf",
      "outputs": [
        {
          "internalType": "uint256",
          "name": "",
          "type": "uint256"
        }
      ],
      "stateMutability": "view",
      "type": "function"
    },
    {
      "inputs": [
        {
          "internalType": "address",
          "name": "account",
          "type": "address"
        },
        {
          "internalType": "uint256",
          "name": "amount",
          "type": "uint256"
        }
      ],
      "name": "burnToken",
      "outputs": [],
      "stateMutability": "nonpayable",
      "type": "function"
    },
    {
      "inputs": [
        {
          "internalType": "address",
          "name": "account",
          "type": "address"
        },
        {
          "internalType": "uint32",
          "name": "pos",
          "type": "uint32"
        }
      ],
      "name": "checkpoints",
      "outputs": [
        {
          "components": [
            {
              "internalType": "uint32",
              "name": "fromBlock",
              "type": "uint32"
            },
            {
              "internalType": "uint224",
              "name": "votes",
              "type": "uint224"
            }
          ],
          "internalType": "struct ERC20Votes.Checkpoint",
          "name": "",
          "type": "tuple"
        }
      ],
      "stateMutability": "view",
      "type": "function"
    },
    {
      "inputs": [],
      "name": "decimals",
      "outputs": [
        {
          "internalType": "uint8",
          "name": "",
          "type": "uint8"
        }
      ],
      "stateMutability": "view",
      "type": "function"
    },
    {
      "inputs": [
        {
          "internalType": "address",
          "name": "spender",
          "type": "address"
        },
        {
          "internalType": "uint256",
          "name": "subtractedValue",
          "type": "uint256"
        }
      ],
      "name": "decreaseAllowance",
      "outputs": [
        {
          "internalType": "bool",
          "name": "",
          "type": "bool"
        }
      ],
      "stateMutability": "nonpayable",
      "type": "function"
    },
    {
      "inputs": [
        {
          "internalType": "address",
          "name": "delegatee",
          "type": "address"
        }
      ],
      "name": "delegate",
      "outputs": [],
      "stateMutability": "nonpayable",
      "type": "function"
    },
    {
      "inputs": [
        {
          "internalType": "address",
          "name": "delegatee",
          "type": "address"
        },
        {
          "internalType": "uint256",
          "name": "nonce",
          "type": "uint256"
        },
        {
          "internalType": "uint256",
          "name": "expiry",
          "type": "uint256"
        },
        {
          "internalType": "uint8",
          "name": "v",
          "type": "uint8"
        },
        {
          "internalType": "bytes32",
          "name": "r",
          "type": "bytes32"
        },
        {
          "internalType": "bytes32",
          "name": "s",
          "type": "bytes32"
        }
      ],
      "name": "delegateBySig",
      "outputs": [],
      "stateMutability": "nonpayable",
      "type": "function"
    },
    {
      "inputs": [
        {
          "internalType": "address",
          "name": "account",
          "type": "address"
        }
      ],
      "name": "delegates",
      "outputs": [
        {
          "internalType": "address",
          "name": "",
          "type": "address"
        }
      ],
      "stateMutability": "view",
      "type": "function"
    },
    {
      "inputs": [
        {
          "internalType": "uint256",
          "name": "blockNumber",
          "type": "uint256"
        }
      ],
      "name": "getPastTotalSupply",
      "outputs": [
        {
          "internalType": "uint256",
          "name": "",
          "type": "uint256"
        }
      ],
      "stateMutability": "view",
      "type": "function"
    },
    {
      "inputs": [
        {
          "internalType": "address",
          "name": "account",
          "type": "address"
        },
        {
          "internalType": "uint256",
          "name": "blockNumber",
          "type": "uint256"
        }
      ],
      "name": "getPastVotes",
      "outputs": [
        {
          "internalType": "uint256",
          "name": "",
          "type": "uint256"
        }
      ],
      "stateMutability": "view",
      "type": "function"
    },
    {
      "inputs": [
        {
          "internalType": "address",
          "name": "account",
          "type": "address"
        }
      ],
      "name": "getVotes",
      "outputs": [
        {
          "internalType": "uint256",
          "name": "",
          "type": "uint256"
        }
      ],
      "stateMutability": "view",
      "type": "function"
    },
    {
      "inputs": [
        {
          "internalType": "address",
          "name": "spender",
          "type": "address"
        },
        {
          "internalType": "uint256",
          "name": "addedValue",
          "type": "uint256"
        }
      ],
      "name": "increaseAllowance",
      "outputs": [
        {
          "internalType": "bool",
          "name": "",
          "type": "bool"
        }
      ],
      "stateMutability": "nonpayable",
      "type": "function"
    },
    {
      "inputs": [
        {
          "internalType": "address",
          "name": "to",
          "type": "address"
        },
        {
          "internalType": "uint256",
          "name": "amount",
          "type": "uint256"
        }
      ],
      "name": "mintToken",
      "outputs": [],
      "stateMutability": "nonpayable",
      "type": "function"
    },
    {
      "inputs": [],
      "name": "name",
      "outputs": [
        {
          "internalType": "string",
          "name": "",
          "type": "string"
        }
      ],
      "stateMutability": "view",
      "type": "function"
    },
    {
      "inputs": [
        {
          "internalType": "address",
          "name": "owner",
          "type": "address"
        }
      ],
      "name": "nonces",
      "outputs": [
        {
          "internalType": "uint256",
          "name": "",
          "type": "uint256"
        }
      ],
      "stateMutability": "view",
      "type": "function"
    },
    {
      "inputs": [
        {
          "internalType": "address",
          "name": "account",
          "type": "address"
        }
      ],
      "name": "numCheckpoints",
      "outputs": [
        {
          "internalType": "uint32",
          "name": "",
          "type": "uint32"
        }
      ],
      "stateMutability": "view",
      "type": "function"
    },
    {
      "inputs": [],
      "name": "owner",
      "outputs": [
        {
          "internalType": "address",
          "name": "",
          "type": "address"
        }
      ],
      "stateMutability": "view",
      "type": "function"
    },
    {
      "inputs": [
        {
          "internalType": "address",
          "name": "owner",
          "type": "address"
        },
        {
          "internalType": "address",
          "name": "spender",
          "type": "address"
        },
        {
          "internalType": "uint256",
          "name": "value",
          "type": "uint256"
        },
        {
          "internalType": "uint256",
          "name": "deadline",
          "type": "uint256"
        },
        {
          "internalType": "uint8",
          "name": "v",
          "type": "uint8"
        },
        {
          "internalType": "bytes32",
          "name": "r",
          "type": "bytes32"
        },
        {
          "internalType": "bytes32",
          "name": "s",
          "type": "bytes32"
        }
      ],
      "name": "permit",
      "outputs": [],
      "stateMutability": "nonpayable",
      "type": "function"
    },
    {
      "inputs": [],
      "name": "renounceOwnership",
      "outputs": [],
      "stateMutability": "nonpayable",
      "type": "function"
    },
    {
      "inputs": [],
      "name": "s_initialSupply",
      "outputs": [
        {
          "internalType": "uint256",
          "name": "",
          "type": "uint256"
        }
      ],
      "stateMutability": "view",
      "type": "function"
    },
    {
      "inputs": [],
      "name": "symbol",
      "outputs": [
        {
          "internalType": "string",
          "name": "",
          "type": "string"
        }
      ],
      "stateMutability": "view",
      "type": "function"
    },
    {
      "inputs": [],
      "name": "totalSupply",
      "outputs": [
        {
          "internalType": "uint256",
          "name": "",
          "type": "uint256"
        }
      ],
      "stateMutability": "view",
      "type": "function"
    },
    {
      "inputs": [
        {
          "internalType": "address",
          "name": "to",
          "type": "address"
        },
        {
          "internalType": "uint256",
          "name": "amount",
          "type": "uint256"
        }
      ],
      "name": "transfer",
      "outputs": [
        {
          "internalType": "bool",
          "name": "",
          "type": "bool"
        }
      ],
      "stateMutability": "nonpayable",
      "type": "function"
    },
    {
      "inputs": [
        {
          "internalType": "address",
          "name": "from",
          "type": "address"
        },
        {
          "internalType": "address",
          "name": "to",
          "type": "address"
        },
        {
          "internalType": "uint256",
          "name": "amount",
          "type": "uint256"
        }
      ],
      "name": "transferFrom",
      "outputs": [
        {
          "internalType": "bool",
          "name": "",
          "type": "bool"
        }
      ],
      "stateMutability": "nonpayable",
      "type": "function"
    },
    {
      "inputs": [
        {
          "internalType": "address",
          "name": "newOwner",
          "type": "address"
        }
      ],
      "name": "transferOwnership",
      "outputs": [],
      "stateMutability": "nonpayable",
      "type": "function"
    }
  ],
  "transactionHash": "0x745d50d0f658a5611f2854d91471338015130866cba8356c1c6c5ac37f12c5d9",
  "args": [],
  "numDeployments": 1,
  "solcInputHash": "865f8451b79a875f15c7120a0497c47b",
  "bytecode": "0x61014060405269d3c21bcecceda1000000600b553480156200002057600080fd5b506040518060400160405280600f81526020017f476f7665726e616e6365546f6b656e0000000000000000000000000000000000815250806040518060400160405280600181526020017f31000000000000000000000000000000000000000000000000000000000000008152506040518060400160405280600f81526020017f476f7665726e616e6365546f6b656e00000000000000000000000000000000008152506040518060400160405280600281526020017f475400000000000000000000000000000000000000000000000000000000000081525081600390816200010b919062000fea565b5080600490816200011d919062000fea565b50505060008280519060200120905060008280519060200120905060007f8b73c3c69bb8fe3d512ecc4cf759cc79239f7b179b0ffacaa9a75d522b39400f90508260e081815250508161010081815250504660a08181525050620001898184846200020d60201b60201c565b608081815250503073ffffffffffffffffffffffffffffffffffffffff1660c08173ffffffffffffffffffffffffffffffffffffffff1681525050806101208181525050505050505050620001f3620001e76200024960201b60201c565b6200025160201b60201c565b6200020733600b546200031760201b60201c565b6200157a565b600083838346306040516020016200022a95949392919062001142565b6040516020818303038152906040528051906020012090509392505050565b600033905090565b6000600a60009054906101000a900473ffffffffffffffffffffffffffffffffffffffff16905081600a60006101000a81548173ffffffffffffffffffffffffffffffffffffffff021916908373ffffffffffffffffffffffffffffffffffffffff1602179055508173ffffffffffffffffffffffffffffffffffffffff168173ffffffffffffffffffffffffffffffffffffffff167f8be0079c531659141344cd1fd0a4f28419497f9722a3daafe3b4186f6b6457e060405160405180910390a35050565b620003276200034260201b60201c565b6200033e8282620003d360201b6200107a1760201c565b5050565b620003526200024960201b60201c565b73ffffffffffffffffffffffffffffffffffffffff16620003786200049160201b60201c565b73ffffffffffffffffffffffffffffffffffffffff1614620003d1576040517f08c379a0000000000000000000000000000000000000000000000000000000008152600401620003c89062001200565b60405180910390fd5b565b620003ea8282620004bb60201b620011071760201c565b620003fa6200063360201b60201c565b7bffffffffffffffffffffffffffffffffffffffffffffffffffffffff16620004286200065760201b60201c565b11156200046c576040517f08c379a0000000000000000000000000000000000000000000000000000000008152600401620004639062001298565b60405180910390fd5b6200048b60096200066160201b6200126617836200067960201b60201c565b50505050565b6000600a60009054906101000a900473ffffffffffffffffffffffffffffffffffffffff16905090565b600073ffffffffffffffffffffffffffffffffffffffff168273ffffffffffffffffffffffffffffffffffffffff16036200052d576040517f08c379a000000000000000000000000000000000000000000000000000000000815260040162000524906200130a565b60405180910390fd5b62000541600083836200092a60201b60201c565b80600260008282546200055591906200135b565b92505081905550806000808473ffffffffffffffffffffffffffffffffffffffff1673ffffffffffffffffffffffffffffffffffffffff1681526020019081526020016000206000828254620005ac91906200135b565b925050819055508173ffffffffffffffffffffffffffffffffffffffff16600073ffffffffffffffffffffffffffffffffffffffff167fddf252ad1be2c89b69c2b068fc378daa952ba7f163c4a11628f55a4df523b3ef8360405162000613919062001396565b60405180910390a36200062f600083836200092f60201b60201c565b5050565b60007bffffffffffffffffffffffffffffffffffffffffffffffffffffffff905090565b6000600254905090565b600081836200067191906200135b565b905092915050565b60008060008580549050905060008114620006ee57856001826200069e9190620013b3565b81548110620006b257620006b1620013ee565b5b9060005260206000200160000160049054906101000a90047bffffffffffffffffffffffffffffffffffffffffffffffffffffffff16620006f1565b60005b7bffffffffffffffffffffffffffffffffffffffffffffffffffffffff1692506200071d83858760201c565b915060008111801562000776575043866001836200073c9190620013b3565b8154811062000750576200074f620013ee565b5b9060005260206000200160000160009054906101000a900463ffffffff1663ffffffff16145b1562000817576200079282620009b360201b6200127c1760201c565b86600183620007a29190620013b3565b81548110620007b657620007b5620013ee565b5b9060005260206000200160000160046101000a8154817bffffffffffffffffffffffffffffffffffffffffffffffffffffffff02191690837bffffffffffffffffffffffffffffffffffffffffffffffffffffffff16021790555062000921565b856040518060400160405280620008394362000a2160201b620012e71760201c565b63ffffffff1681526020016200085a85620009b360201b6200127c1760201c565b7bffffffffffffffffffffffffffffffffffffffffffffffffffffffff168152509080600181540180825580915050600190039060005260206000200160009091909190915060008201518160000160006101000a81548163ffffffff021916908363ffffffff16021790555060208201518160000160046101000a8154817bffffffffffffffffffffffffffffffffffffffffffffffffffffffff02191690837bffffffffffffffffffffffffffffffffffffffffffffffffffffffff16021790555050505b50935093915050565b505050565b6200094783838362000a7760201b6200133a1760201c565b8173ffffffffffffffffffffffffffffffffffffffff168373ffffffffffffffffffffffffffffffffffffffff167fd0ed88a3f042c6bbb1e3ea406079b5f2b4b198afccaa535d837f4c63abbc4de683604051620009a6919062001396565b60405180910390a3505050565b60007bffffffffffffffffffffffffffffffffffffffffffffffffffffffff801682111562000a19576040517f08c379a000000000000000000000000000000000000000000000000000000000815260040162000a109062001493565b60405180910390fd5b819050919050565b600063ffffffff801682111562000a6f576040517f08c379a000000000000000000000000000000000000000000000000000000000815260040162000a66906200152b565b60405180910390fd5b819050919050565b62000a8f83838362000ac760201b620013651760201c565b62000ac262000aa48462000acc60201b60201c565b62000ab58462000acc60201b60201c565b8362000b3560201b60201c565b505050565b505050565b6000600760008373ffffffffffffffffffffffffffffffffffffffff1673ffffffffffffffffffffffffffffffffffffffff16815260200190815260200160002060009054906101000a900473ffffffffffffffffffffffffffffffffffffffff169050919050565b8173ffffffffffffffffffffffffffffffffffffffff168373ffffffffffffffffffffffffffffffffffffffff161415801562000b725750600081115b1562000d5357600073ffffffffffffffffffffffffffffffffffffffff168373ffffffffffffffffffffffffffffffffffffffff161462000c655760008062000c0c600860008773ffffffffffffffffffffffffffffffffffffffff1673ffffffffffffffffffffffffffffffffffffffff16815260200190815260200160002062000d5860201b6200136a17856200067960201b60201c565b915091508473ffffffffffffffffffffffffffffffffffffffff167fdec2bacdd2f05b59de34da9b523dff8be42e5e38e818c82fdb0bae774387a724838360405162000c5a9291906200154d565b60405180910390a250505b600073ffffffffffffffffffffffffffffffffffffffff168273ffffffffffffffffffffffffffffffffffffffff161462000d525760008062000cf9600860008673ffffffffffffffffffffffffffffffffffffffff1673ffffffffffffffffffffffffffffffffffffffff1681526020019081526020016000206200066160201b6200126617856200067960201b60201c565b915091508373ffffffffffffffffffffffffffffffffffffffff167fdec2bacdd2f05b59de34da9b523dff8be42e5e38e818c82fdb0bae774387a724838360405162000d479291906200154d565b60405180910390a250505b5b505050565b6000818362000d689190620013b3565b905092915050565b600081519050919050565b7f4e487b7100000000000000000000000000000000000000000000000000000000600052604160045260246000fd5b7f4e487b7100000000000000000000000000000000000000000000000000000000600052602260045260246000fd5b6000600282049050600182168062000df257607f821691505b60208210810362000e085762000e0762000daa565b5b50919050565b60008190508160005260206000209050919050565b60006020601f8301049050919050565b600082821b905092915050565b60006008830262000e727fffffffffffffffffffffffffffffffffffffffffffffffffffffffffffffffff8262000e33565b62000e7e868362000e33565b95508019841693508086168417925050509392505050565b6000819050919050565b6000819050919050565b600062000ecb62000ec562000ebf8462000e96565b62000ea0565b62000e96565b9050919050565b6000819050919050565b62000ee78362000eaa565b62000eff62000ef68262000ed2565b84845462000e40565b825550505050565b600090565b62000f1662000f07565b62000f2381848462000edc565b505050565b5b8181101562000f4b5762000f3f60008262000f0c565b60018101905062000f29565b5050565b601f82111562000f9a5762000f648162000e0e565b62000f6f8462000e23565b8101602085101562000f7f578190505b62000f9762000f8e8562000e23565b83018262000f28565b50505b505050565b600082821c905092915050565b600062000fbf6000198460080262000f9f565b1980831691505092915050565b600062000fda838362000fac565b9150826002028217905092915050565b62000ff58262000d70565b67ffffffffffffffff81111562001011576200101062000d7b565b5b6200101d825462000dd9565b6200102a82828562000f4f565b600060209050601f8311600181146200106257600084156200104d578287015190505b62001059858262000fcc565b865550620010c9565b601f198416620010728662000e0e565b60005b828110156200109c5784890151825560018201915060208501945060208101905062001075565b86831015620010bc5784890151620010b8601f89168262000fac565b8355505b6001600288020188555050505b505050505050565b6000819050919050565b620010e681620010d1565b82525050565b620010f78162000e96565b82525050565b600073ffffffffffffffffffffffffffffffffffffffff82169050919050565b60006200112a82620010fd565b9050919050565b6200113c816200111d565b82525050565b600060a082019050620011596000830188620010db565b620011686020830187620010db565b620011776040830186620010db565b620011866060830185620010ec565b62001195608083018462001131565b9695505050505050565b600082825260208201905092915050565b7f4f776e61626c653a2063616c6c6572206973206e6f7420746865206f776e6572600082015250565b6000620011e86020836200119f565b9150620011f582620011b0565b602082019050919050565b600060208201905081810360008301526200121b81620011d9565b9050919050565b7f4552433230566f7465733a20746f74616c20737570706c79207269736b73206f60008201527f766572666c6f77696e6720766f74657300000000000000000000000000000000602082015250565b6000620012806030836200119f565b91506200128d8262001222565b604082019050919050565b60006020820190508181036000830152620012b38162001271565b9050919050565b7f45524332303a206d696e7420746f20746865207a65726f206164647265737300600082015250565b6000620012f2601f836200119f565b9150620012ff82620012ba565b602082019050919050565b600060208201905081810360008301526200132581620012e3565b9050919050565b7f4e487b7100000000000000000000000000000000000000000000000000000000600052601160045260246000fd5b6000620013688262000e96565b9150620013758362000e96565b925082820190508082111562001390576200138f6200132c565b5b92915050565b6000602082019050620013ad6000830184620010ec565b92915050565b6000620013c08262000e96565b9150620013cd8362000e96565b9250828203905081811115620013e857620013e76200132c565b5b92915050565b7f4e487b7100000000000000000000000000000000000000000000000000000000600052603260045260246000fd5b7f53616665436173743a2076616c756520646f65736e27742066697420696e203260008201527f3234206269747300000000000000000000000000000000000000000000000000602082015250565b60006200147b6027836200119f565b915062001488826200141d565b604082019050919050565b60006020820190508181036000830152620014ae816200146c565b9050919050565b7f53616665436173743a2076616c756520646f65736e27742066697420696e203360008201527f3220626974730000000000000000000000000000000000000000000000000000602082015250565b6000620015136026836200119f565b91506200152082620014b5565b604082019050919050565b60006020820190508181036000830152620015468162001504565b9050919050565b6000604082019050620015646000830185620010ec565b620015736020830184620010ec565b9392505050565b60805160a05160c05160e0516101005161012051613ed6620015ca600039600061190a0152600061194c0152600061192b01526000611860015260006118b6015260006118df0152613ed66000f3fe608060405234801561001057600080fd5b50600436106101c45760003560e01c806379c65068116100f9578063a9059cbb11610097578063d505accf11610071578063d505accf14610555578063dd62ed3e14610571578063f1127ed8146105a1578063f2fde38b146105d1576101c4565b8063a9059cbb146104ed578063c3cda5201461051d578063d1df306c14610539576101c4565b80638e539e8c116100d35780638e539e8c1461043f57806395d89b411461046f5780639ab24eb01461048d578063a457c2d7146104bd576101c4565b806379c65068146103d55780637ecebe00146103f15780638da5cb5b14610421576101c4565b806339509351116101665780635c19a95c116101405780635c19a95c1461034f5780636fcfff451461036b57806370a082311461039b578063715018a6146103cb576101c4565b806339509351146102bf5780633a46b1a8146102ef578063587cde1e1461031f576101c4565b806318160ddd116101a257806318160ddd1461023557806323b872dd14610253578063313ce567146102835780633644e515146102a1576101c4565b806306fdde03146101c9578063095ea7b3146101e7578063096b34cf14610217575b600080fd5b6101d16105ed565b6040516101de9190612907565b60405180910390f35b61020160048036038101906101fc91906129c2565b61067f565b60405161020e9190612a1d565b60405180910390f35b61021f6106a2565b60405161022c9190612a47565b60405180910390f35b61023d6106a8565b60405161024a9190612a47565b60405180910390f35b61026d60048036038101906102689190612a62565b6106b2565b60405161027a9190612a1d565b60405180910390f35b61028b6106e1565b6040516102989190612ad1565b60405180910390f35b6102a96106ea565b6040516102b69190612b05565b60405180910390f35b6102d960048036038101906102d491906129c2565b6106f9565b6040516102e69190612a1d565b60405180910390f35b610309600480360381019061030491906129c2565b610730565b6040516103169190612a47565b60405180910390f35b61033960048036038101906103349190612b20565b6107c4565b6040516103469190612b5c565b60405180910390f35b61036960048036038101906103649190612b20565b61082d565b005b61038560048036038101906103809190612b20565b610841565b6040516103929190612b96565b60405180910390f35b6103b560048036038101906103b09190612b20565b610895565b6040516103c29190612a47565b60405180910390f35b6103d36108dd565b005b6103ef60048036038101906103ea91906129c2565b6108f1565b005b61040b60048036038101906104069190612b20565b6108ff565b6040516104189190612a47565b60405180910390f35b61042961094f565b6040516104369190612b5c565b60405180910390f35b61045960048036038101906104549190612bb1565b610979565b6040516104669190612a47565b60405180910390f35b6104776109cf565b6040516104849190612907565b60405180910390f35b6104a760048036038101906104a29190612b20565b610a61565b6040516104b49190612a47565b60405180910390f35b6104d760048036038101906104d291906129c2565b610b72565b6040516104e49190612a1d565b60405180910390f35b610507600480360381019061050291906129c2565b610be9565b6040516105149190612a1d565b60405180910390f35b61053760048036038101906105329190612c36565b610c0c565b005b610553600480360381019061054e91906129c2565b610d10565b005b61056f600480360381019061056a9190612cc3565b610d1e565b005b61058b60048036038101906105869190612d65565b610e60565b6040516105989190612a47565b60405180910390f35b6105bb60048036038101906105b69190612dd1565b610ee7565b6040516105c89190612e86565b60405180910390f35b6105eb60048036038101906105e69190612b20565b610ff7565b005b6060600380546105fc90612ed0565b80601f016020809104026020016040519081016040528092919081815260200182805461062890612ed0565b80156106755780601f1061064a57610100808354040283529160200191610675565b820191906000526020600020905b81548152906001019060200180831161065857829003601f168201915b5050505050905090565b60008061068a611380565b9050610697818585611388565b600191505092915050565b600b5481565b6000600254905090565b6000806106bd611380565b90506106ca858285611551565b6106d58585856115dd565b60019150509392505050565b60006012905090565b60006106f461185c565b905090565b600080610704611380565b90506107258185856107168589610e60565b6107209190612f30565b611388565b600191505092915050565b6000438210610774576040517f08c379a000000000000000000000000000000000000000000000000000000000815260040161076b90612fb0565b60405180910390fd5b6107bc600860008573ffffffffffffffffffffffffffffffffffffffff1673ffffffffffffffffffffffffffffffffffffffff16815260200190815260200160002083611976565b905092915050565b6000600760008373ffffffffffffffffffffffffffffffffffffffff1673ffffffffffffffffffffffffffffffffffffffff16815260200190815260200160002060009054906101000a900473ffffffffffffffffffffffffffffffffffffffff169050919050565b61083e610838611380565b82611a82565b50565b600061088e600860008473ffffffffffffffffffffffffffffffffffffffff1673ffffffffffffffffffffffffffffffffffffffff168152602001908152602001600020805490506112e7565b9050919050565b60008060008373ffffffffffffffffffffffffffffffffffffffff1673ffffffffffffffffffffffffffffffffffffffff168152602001908152602001600020549050919050565b6108e5611b9c565b6108ef6000611c1a565b565b6108fb8282611ce0565b5050565b6000610948600560008473ffffffffffffffffffffffffffffffffffffffff1673ffffffffffffffffffffffffffffffffffffffff168152602001908152602001600020611cf6565b9050919050565b6000600a60009054906101000a900473ffffffffffffffffffffffffffffffffffffffff16905090565b60004382106109bd576040517f08c379a00000000000000000000000000000000000000000000000000000000081526004016109b490612fb0565b60405180910390fd5b6109c8600983611976565b9050919050565b6060600480546109de90612ed0565b80601f0160208091040260200160405190810160405280929190818152602001828054610a0a90612ed0565b8015610a575780601f10610a2c57610100808354040283529160200191610a57565b820191906000526020600020905b815481529060010190602001808311610a3a57829003601f168201915b5050505050905090565b600080600860008473ffffffffffffffffffffffffffffffffffffffff1673ffffffffffffffffffffffffffffffffffffffff16815260200190815260200160002080549050905060008114610b4957600860008473ffffffffffffffffffffffffffffffffffffffff1673ffffffffffffffffffffffffffffffffffffffff168152602001908152602001600020600182610afd9190612fd0565b81548110610b0e57610b0d613004565b5b9060005260206000200160000160049054906101000a90047bffffffffffffffffffffffffffffffffffffffffffffffffffffffff16610b4c565b60005b7bffffffffffffffffffffffffffffffffffffffffffffffffffffffff16915050919050565b600080610b7d611380565b90506000610b8b8286610e60565b905083811015610bd0576040517f08c379a0000000000000000000000000000000000000000000000000000000008152600401610bc7906130a5565b60405180910390fd5b610bdd8286868403611388565b60019250505092915050565b600080610bf4611380565b9050610c018185856115dd565b600191505092915050565b83421115610c4f576040517f08c379a0000000000000000000000000000000000000000000000000000000008152600401610c4690613111565b60405180910390fd5b6000610cb1610ca97fe48329057bfd03d55e49b547132e39cffd9c1820ad7b9d4c5307691425d15adf898989604051602001610c8e9493929190613131565b60405160208183030381529060405280519060200120611d04565b858585611d1e565b9050610cbc81611d49565b8614610cfd576040517f08c379a0000000000000000000000000000000000000000000000000000000008152600401610cf4906131c2565b60405180910390fd5b610d078188611a82565b50505050505050565b610d1a8282611da7565b5050565b83421115610d61576040517f08c379a0000000000000000000000000000000000000000000000000000000008152600401610d589061322e565b60405180910390fd5b60007f6e71edae12b1b97f4d1f60370fef10105fa2faae0126114a169c64845d6126c9888888610d908c611d49565b89604051602001610da69695949392919061324e565b6040516020818303038152906040528051906020012090506000610dc982611d04565b90506000610dd982878787611d1e565b90508973ffffffffffffffffffffffffffffffffffffffff168173ffffffffffffffffffffffffffffffffffffffff1614610e49576040517f08c379a0000000000000000000000000000000000000000000000000000000008152600401610e40906132fb565b60405180910390fd5b610e548a8a8a611388565b50505050505050505050565b6000600160008473ffffffffffffffffffffffffffffffffffffffff1673ffffffffffffffffffffffffffffffffffffffff16815260200190815260200160002060008373ffffffffffffffffffffffffffffffffffffffff1673ffffffffffffffffffffffffffffffffffffffff16815260200190815260200160002054905092915050565b610eef612839565b600860008473ffffffffffffffffffffffffffffffffffffffff1673ffffffffffffffffffffffffffffffffffffffff1681526020019081526020016000208263ffffffff1681548110610f4657610f45613004565b5b906000526020600020016040518060400160405290816000820160009054906101000a900463ffffffff1663ffffffff1663ffffffff1681526020016000820160049054906101000a90047bffffffffffffffffffffffffffffffffffffffffffffffffffffffff167bffffffffffffffffffffffffffffffffffffffffffffffffffffffff167bffffffffffffffffffffffffffffffffffffffffffffffffffffffff1681525050905092915050565b610fff611b9c565b600073ffffffffffffffffffffffffffffffffffffffff168173ffffffffffffffffffffffffffffffffffffffff160361106e576040517f08c379a00000000000000000000000000000000000000000000000000000000081526004016110659061338d565b60405180910390fd5b61107781611c1a565b50565b6110848282611107565b61108c611db5565b7bffffffffffffffffffffffffffffffffffffffffffffffffffffffff166110b26106a8565b11156110f3576040517f08c379a00000000000000000000000000000000000000000000000000000000081526004016110ea9061341f565b60405180910390fd5b611101600961126683611dd9565b50505050565b600073ffffffffffffffffffffffffffffffffffffffff168273ffffffffffffffffffffffffffffffffffffffff1603611176576040517f08c379a000000000000000000000000000000000000000000000000000000000815260040161116d9061348b565b60405180910390fd5b61118260008383612051565b80600260008282546111949190612f30565b92505081905550806000808473ffffffffffffffffffffffffffffffffffffffff1673ffffffffffffffffffffffffffffffffffffffff16815260200190815260200160002060008282546111e99190612f30565b925050819055508173ffffffffffffffffffffffffffffffffffffffff16600073ffffffffffffffffffffffffffffffffffffffff167fddf252ad1be2c89b69c2b068fc378daa952ba7f163c4a11628f55a4df523b3ef8360405161124e9190612a47565b60405180910390a361126260008383612056565b5050565b600081836112749190612f30565b905092915050565b60007bffffffffffffffffffffffffffffffffffffffffffffffffffffffff80168211156112df576040517f08c379a00000000000000000000000000000000000000000000000000000000081526004016112d69061351d565b60405180910390fd5b819050919050565b600063ffffffff8016821115611332576040517f08c379a0000000000000000000000000000000000000000000000000000000008152600401611329906135af565b60405180910390fd5b819050919050565b611345838383611365565b611360611351846107c4565b61135a846107c4565b836120cb565b505050565b505050565b600081836113789190612fd0565b905092915050565b600033905090565b600073ffffffffffffffffffffffffffffffffffffffff168373ffffffffffffffffffffffffffffffffffffffff16036113f7576040517f08c379a00000000000000000000000000000000000000000000000000000000081526004016113ee90613641565b60405180910390fd5b600073ffffffffffffffffffffffffffffffffffffffff168273ffffffffffffffffffffffffffffffffffffffff1603611466576040517f08c379a000000000000000000000000000000000000000000000000000000000815260040161145d906136d3565b60405180910390fd5b80600160008573ffffffffffffffffffffffffffffffffffffffff1673ffffffffffffffffffffffffffffffffffffffff16815260200190815260200160002060008473ffffffffffffffffffffffffffffffffffffffff1673ffffffffffffffffffffffffffffffffffffffff168152602001908152602001600020819055508173ffffffffffffffffffffffffffffffffffffffff168373ffffffffffffffffffffffffffffffffffffffff167f8c5be1e5ebec7d5bd14f71427d1e84f3dd0314c0f7b2291e5b200ac8c7c3b925836040516115449190612a47565b60405180910390a3505050565b600061155d8484610e60565b90507fffffffffffffffffffffffffffffffffffffffffffffffffffffffffffffffff81146115d757818110156115c9576040517f08c379a00000000000000000000000000000000000000000000000000000000081526004016115c09061373f565b60405180910390fd5b6115d68484848403611388565b5b50505050565b600073ffffffffffffffffffffffffffffffffffffffff168373ffffffffffffffffffffffffffffffffffffffff160361164c576040517f08c379a0000000000000000000000000000000000000000000000000000000008152600401611643906137d1565b60405180910390fd5b600073ffffffffffffffffffffffffffffffffffffffff168273ffffffffffffffffffffffffffffffffffffffff16036116bb576040517f08c379a00000000000000000000000000000000000000000000000000000000081526004016116b290613863565b60405180910390fd5b6116c6838383612051565b60008060008573ffffffffffffffffffffffffffffffffffffffff1673ffffffffffffffffffffffffffffffffffffffff1681526020019081526020016000205490508181101561174c576040517f08c379a0000000000000000000000000000000000000000000000000000000008152600401611743906138f5565b60405180910390fd5b8181036000808673ffffffffffffffffffffffffffffffffffffffff1673ffffffffffffffffffffffffffffffffffffffff16815260200190815260200160002081905550816000808573ffffffffffffffffffffffffffffffffffffffff1673ffffffffffffffffffffffffffffffffffffffff16815260200190815260200160002060008282546117df9190612f30565b925050819055508273ffffffffffffffffffffffffffffffffffffffff168473ffffffffffffffffffffffffffffffffffffffff167fddf252ad1be2c89b69c2b068fc378daa952ba7f163c4a11628f55a4df523b3ef846040516118439190612a47565b60405180910390a3611856848484612056565b50505050565b60007f000000000000000000000000000000000000000000000000000000000000000073ffffffffffffffffffffffffffffffffffffffff163073ffffffffffffffffffffffffffffffffffffffff161480156118d857507f000000000000000000000000000000000000000000000000000000000000000046145b15611905577f00000000000000000000000000000000000000000000000000000000000000009050611973565b6119707f00000000000000000000000000000000000000000000000000000000000000007f00000000000000000000000000000000000000000000000000000000000000007f00000000000000000000000000000000000000000000000000000000000000006122c4565b90505b90565b6000808380549050905060005b818110156119f557600061199782846122fe565b9050848682815481106119ad576119ac613004565b5b9060005260206000200160000160009054906101000a900463ffffffff1663ffffffff1611156119df578092506119ef565b6001816119ec9190612f30565b91505b50611983565b60008214611a575784600183611a0b9190612fd0565b81548110611a1c57611a1b613004565b5b9060005260206000200160000160049054906101000a90047bffffffffffffffffffffffffffffffffffffffffffffffffffffffff16611a5a565b60005b7bffffffffffffffffffffffffffffffffffffffffffffffffffffffff169250505092915050565b6000611a8d836107c4565b90506000611a9a84610895565b905082600760008673ffffffffffffffffffffffffffffffffffffffff1673ffffffffffffffffffffffffffffffffffffffff16815260200190815260200160002060006101000a81548173ffffffffffffffffffffffffffffffffffffffff021916908373ffffffffffffffffffffffffffffffffffffffff1602179055508273ffffffffffffffffffffffffffffffffffffffff168273ffffffffffffffffffffffffffffffffffffffff168573ffffffffffffffffffffffffffffffffffffffff167f3134e8a2e6d97e929a7e54011ea5485d7d196dd5f0ba4d4ef95803e8e3fc257f60405160405180910390a4611b968284836120cb565b50505050565b611ba4611380565b73ffffffffffffffffffffffffffffffffffffffff16611bc261094f565b73ffffffffffffffffffffffffffffffffffffffff1614611c18576040517f08c379a0000000000000000000000000000000000000000000000000000000008152600401611c0f90613961565b60405180910390fd5b565b6000600a60009054906101000a900473ffffffffffffffffffffffffffffffffffffffff16905081600a60006101000a81548173ffffffffffffffffffffffffffffffffffffffff021916908373ffffffffffffffffffffffffffffffffffffffff1602179055508173ffffffffffffffffffffffffffffffffffffffff168173ffffffffffffffffffffffffffffffffffffffff167f8be0079c531659141344cd1fd0a4f28419497f9722a3daafe3b4186f6b6457e060405160405180910390a35050565b611ce8611b9c565b611cf2828261107a565b5050565b600081600001549050919050565b6000611d17611d1161185c565b83612324565b9050919050565b6000806000611d2f87878787612357565b91509150611d3c81612463565b8192505050949350505050565b600080600560008473ffffffffffffffffffffffffffffffffffffffff1673ffffffffffffffffffffffffffffffffffffffff1681526020019081526020016000209050611d9681611cf6565b9150611da18161262f565b50919050565b611db18282612645565b5050565b60007bffffffffffffffffffffffffffffffffffffffffffffffffffffffff905090565b60008060008580549050905060008114611e475785600182611dfb9190612fd0565b81548110611e0c57611e0b613004565b5b9060005260206000200160000160049054906101000a90047bffffffffffffffffffffffffffffffffffffffffffffffffffffffff16611e4a565b60005b7bffffffffffffffffffffffffffffffffffffffffffffffffffffffff169250611e7883858763ffffffff16565b9150600081118015611ecb57504386600183611e949190612fd0565b81548110611ea557611ea4613004565b5b9060005260206000200160000160009054906101000a900463ffffffff1663ffffffff16145b15611f5857611ed98261127c565b86600183611ee79190612fd0565b81548110611ef857611ef7613004565b5b9060005260206000200160000160046101000a8154817bffffffffffffffffffffffffffffffffffffffffffffffffffffffff02191690837bffffffffffffffffffffffffffffffffffffffffffffffffffffffff160217905550612048565b856040518060400160405280611f6d436112e7565b63ffffffff168152602001611f818561127c565b7bffffffffffffffffffffffffffffffffffffffffffffffffffffffff168152509080600181540180825580915050600190039060005260206000200160009091909190915060008201518160000160006101000a81548163ffffffff021916908363ffffffff16021790555060208201518160000160046101000a8154817bffffffffffffffffffffffffffffffffffffffffffffffffffffffff02191690837bffffffffffffffffffffffffffffffffffffffffffffffffffffffff16021790555050505b50935093915050565b505050565b61206183838361133a565b8173ffffffffffffffffffffffffffffffffffffffff168373ffffffffffffffffffffffffffffffffffffffff167fd0ed88a3f042c6bbb1e3ea406079b5f2b4b198afccaa535d837f4c63abbc4de6836040516120be9190612a47565b60405180910390a3505050565b8173ffffffffffffffffffffffffffffffffffffffff168373ffffffffffffffffffffffffffffffffffffffff16141580156121075750600081115b156122bf57600073ffffffffffffffffffffffffffffffffffffffff168373ffffffffffffffffffffffffffffffffffffffff16146121e55760008061218e600860008773ffffffffffffffffffffffffffffffffffffffff1673ffffffffffffffffffffffffffffffffffffffff16815260200190815260200160002061136a85611dd9565b915091508473ffffffffffffffffffffffffffffffffffffffff167fdec2bacdd2f05b59de34da9b523dff8be42e5e38e818c82fdb0bae774387a72483836040516121da929190613981565b60405180910390a250505b600073ffffffffffffffffffffffffffffffffffffffff168273ffffffffffffffffffffffffffffffffffffffff16146122be57600080612267600860008673ffffffffffffffffffffffffffffffffffffffff1673ffffffffffffffffffffffffffffffffffffffff16815260200190815260200160002061126685611dd9565b915091508373ffffffffffffffffffffffffffffffffffffffff167fdec2bacdd2f05b59de34da9b523dff8be42e5e38e818c82fdb0bae774387a72483836040516122b3929190613981565b60405180910390a250505b5b505050565b600083838346306040516020016122df9594939291906139aa565b6040516020818303038152906040528051906020012090509392505050565b6000600282841861230f9190613a2c565b82841661231c9190612f30565b905092915050565b60008282604051602001612339929190613ad5565b60405160208183030381529060405280519060200120905092915050565b6000807f7fffffffffffffffffffffffffffffff5d576e7357a4501ddfe92f46681b20a08360001c111561239257600060039150915061245a565b601b8560ff16141580156123aa5750601c8560ff1614155b156123bc57600060049150915061245a565b6000600187878787604051600081526020016040526040516123e19493929190613b0c565b6020604051602081039080840390855afa158015612403573d6000803e3d6000fd5b505050602060405103519050600073ffffffffffffffffffffffffffffffffffffffff168173ffffffffffffffffffffffffffffffffffffffff16036124515760006001925092505061245a565b80600092509250505b94509492505050565b6000600481111561247757612476613b51565b5b81600481111561248a57612489613b51565b5b031561262c57600160048111156124a4576124a3613b51565b5b8160048111156124b7576124b6613b51565b5b036124f7576040517f08c379a00000000000000000000000000000000000000000000000000000000081526004016124ee90613bcc565b60405180910390fd5b6002600481111561250b5761250a613b51565b5b81600481111561251e5761251d613b51565b5b0361255e576040517f08c379a000000000000000000000000000000000000000000000000000000000815260040161255590613c38565b60405180910390fd5b6003600481111561257257612571613b51565b5b81600481111561258557612584613b51565b5b036125c5576040517f08c379a00000000000000000000000000000000000000000000000000000000081526004016125bc90613cca565b60405180910390fd5b6004808111156125d8576125d7613b51565b5b8160048111156125eb576125ea613b51565b5b0361262b576040517f08c379a000000000000000000000000000000000000000000000000000000000815260040161262290613d5c565b60405180910390fd5b5b50565b6001816000016000828254019250508190555050565b61264f8282612663565b61265d600961136a83611dd9565b50505050565b600073ffffffffffffffffffffffffffffffffffffffff168273ffffffffffffffffffffffffffffffffffffffff16036126d2576040517f08c379a00000000000000000000000000000000000000000000000000000000081526004016126c990613dee565b60405180910390fd5b6126de82600083612051565b60008060008473ffffffffffffffffffffffffffffffffffffffff1673ffffffffffffffffffffffffffffffffffffffff16815260200190815260200160002054905081811015612764576040517f08c379a000000000000000000000000000000000000000000000000000000000815260040161275b90613e80565b60405180910390fd5b8181036000808573ffffffffffffffffffffffffffffffffffffffff1673ffffffffffffffffffffffffffffffffffffffff1681526020019081526020016000208190555081600260008282546127bb9190612fd0565b92505081905550600073ffffffffffffffffffffffffffffffffffffffff168373ffffffffffffffffffffffffffffffffffffffff167fddf252ad1be2c89b69c2b068fc378daa952ba7f163c4a11628f55a4df523b3ef846040516128209190612a47565b60405180910390a361283483600084612056565b505050565b6040518060400160405280600063ffffffff16815260200160007bffffffffffffffffffffffffffffffffffffffffffffffffffffffff1681525090565b600081519050919050565b600082825260208201905092915050565b60005b838110156128b1578082015181840152602081019050612896565b60008484015250505050565b6000601f19601f8301169050919050565b60006128d982612877565b6128e38185612882565b93506128f3818560208601612893565b6128fc816128bd565b840191505092915050565b6000602082019050818103600083015261292181846128ce565b905092915050565b600080fd5b600073ffffffffffffffffffffffffffffffffffffffff82169050919050565b60006129598261292e565b9050919050565b6129698161294e565b811461297457600080fd5b50565b60008135905061298681612960565b92915050565b6000819050919050565b61299f8161298c565b81146129aa57600080fd5b50565b6000813590506129bc81612996565b92915050565b600080604083850312156129d9576129d8612929565b5b60006129e785828601612977565b92505060206129f8858286016129ad565b9150509250929050565b60008115159050919050565b612a1781612a02565b82525050565b6000602082019050612a326000830184612a0e565b92915050565b612a418161298c565b82525050565b6000602082019050612a5c6000830184612a38565b92915050565b600080600060608486031215612a7b57612a7a612929565b5b6000612a8986828701612977565b9350506020612a9a86828701612977565b9250506040612aab868287016129ad565b9150509250925092565b600060ff82169050919050565b612acb81612ab5565b82525050565b6000602082019050612ae66000830184612ac2565b92915050565b6000819050919050565b612aff81612aec565b82525050565b6000602082019050612b1a6000830184612af6565b92915050565b600060208284031215612b3657612b35612929565b5b6000612b4484828501612977565b91505092915050565b612b568161294e565b82525050565b6000602082019050612b716000830184612b4d565b92915050565b600063ffffffff82169050919050565b612b9081612b77565b82525050565b6000602082019050612bab6000830184612b87565b92915050565b600060208284031215612bc757612bc6612929565b5b6000612bd5848285016129ad565b91505092915050565b612be781612ab5565b8114612bf257600080fd5b50565b600081359050612c0481612bde565b92915050565b612c1381612aec565b8114612c1e57600080fd5b50565b600081359050612c3081612c0a565b92915050565b60008060008060008060c08789031215612c5357612c52612929565b5b6000612c6189828a01612977565b9650506020612c7289828a016129ad565b9550506040612c8389828a016129ad565b9450506060612c9489828a01612bf5565b9350506080612ca589828a01612c21565b92505060a0612cb689828a01612c21565b9150509295509295509295565b600080600080600080600060e0888a031215612ce257612ce1612929565b5b6000612cf08a828b01612977565b9750506020612d018a828b01612977565b9650506040612d128a828b016129ad565b9550506060612d238a828b016129ad565b9450506080612d348a828b01612bf5565b93505060a0612d458a828b01612c21565b92505060c0612d568a828b01612c21565b91505092959891949750929550565b60008060408385031215612d7c57612d7b612929565b5b6000612d8a85828601612977565b9250506020612d9b85828601612977565b9150509250929050565b612dae81612b77565b8114612db957600080fd5b50565b600081359050612dcb81612da5565b92915050565b60008060408385031215612de857612de7612929565b5b6000612df685828601612977565b9250506020612e0785828601612dbc565b9150509250929050565b612e1a81612b77565b82525050565b60007bffffffffffffffffffffffffffffffffffffffffffffffffffffffff82169050919050565b612e5181612e20565b82525050565b604082016000820151612e6d6000850182612e11565b506020820151612e806020850182612e48565b50505050565b6000604082019050612e9b6000830184612e57565b92915050565b7f4e487b7100000000000000000000000000000000000000000000000000000000600052602260045260246000fd5b60006002820490506001821680612ee857607f821691505b602082108103612efb57612efa612ea1565b5b50919050565b7f4e487b7100000000000000000000000000000000000000000000000000000000600052601160045260246000fd5b6000612f3b8261298c565b9150612f468361298c565b9250828201905080821115612f5e57612f5d612f01565b5b92915050565b7f4552433230566f7465733a20626c6f636b206e6f7420796574206d696e656400600082015250565b6000612f9a601f83612882565b9150612fa582612f64565b602082019050919050565b60006020820190508181036000830152612fc981612f8d565b9050919050565b6000612fdb8261298c565b9150612fe68361298c565b9250828203905081811115612ffe57612ffd612f01565b5b92915050565b7f4e487b7100000000000000000000000000000000000000000000000000000000600052603260045260246000fd5b7f45524332303a2064656372656173656420616c6c6f77616e63652062656c6f7760008201527f207a65726f000000000000000000000000000000000000000000000000000000602082015250565b600061308f602583612882565b915061309a82613033565b604082019050919050565b600060208201905081810360008301526130be81613082565b9050919050565b7f4552433230566f7465733a207369676e61747572652065787069726564000000600082015250565b60006130fb601d83612882565b9150613106826130c5565b602082019050919050565b6000602082019050818103600083015261312a816130ee565b9050919050565b60006080820190506131466000830187612af6565b6131536020830186612b4d565b6131606040830185612a38565b61316d6060830184612a38565b95945050505050565b7f4552433230566f7465733a20696e76616c6964206e6f6e636500000000000000600082015250565b60006131ac601983612882565b91506131b782613176565b602082019050919050565b600060208201905081810360008301526131db8161319f565b9050919050565b7f45524332305065726d69743a206578706972656420646561646c696e65000000600082015250565b6000613218601d83612882565b9150613223826131e2565b602082019050919050565b600060208201905081810360008301526132478161320b565b9050919050565b600060c0820190506132636000830189612af6565b6132706020830188612b4d565b61327d6040830187612b4d565b61328a6060830186612a38565b6132976080830185612a38565b6132a460a0830184612a38565b979650505050505050565b7f45524332305065726d69743a20696e76616c6964207369676e61747572650000600082015250565b60006132e5601e83612882565b91506132f0826132af565b602082019050919050565b60006020820190508181036000830152613314816132d8565b9050919050565b7f4f776e61626c653a206e6577206f776e657220697320746865207a65726f206160008201527f6464726573730000000000000000000000000000000000000000000000000000602082015250565b6000613377602683612882565b91506133828261331b565b604082019050919050565b600060208201905081810360008301526133a68161336a565b9050919050565b7f4552433230566f7465733a20746f74616c20737570706c79207269736b73206f60008201527f766572666c6f77696e6720766f74657300000000000000000000000000000000602082015250565b6000613409603083612882565b9150613414826133ad565b604082019050919050565b60006020820190508181036000830152613438816133fc565b9050919050565b7f45524332303a206d696e7420746f20746865207a65726f206164647265737300600082015250565b6000613475601f83612882565b91506134808261343f565b602082019050919050565b600060208201905081810360008301526134a481613468565b9050919050565b7f53616665436173743a2076616c756520646f65736e27742066697420696e203260008201527f3234206269747300000000000000000000000000000000000000000000000000602082015250565b6000613507602783612882565b9150613512826134ab565b604082019050919050565b60006020820190508181036000830152613536816134fa565b9050919050565b7f53616665436173743a2076616c756520646f65736e27742066697420696e203360008201527f3220626974730000000000000000000000000000000000000000000000000000602082015250565b6000613599602683612882565b91506135a48261353d565b604082019050919050565b600060208201905081810360008301526135c88161358c565b9050919050565b7f45524332303a20617070726f76652066726f6d20746865207a65726f2061646460008201527f7265737300000000000000000000000000000000000000000000000000000000602082015250565b600061362b602483612882565b9150613636826135cf565b604082019050919050565b6000602082019050818103600083015261365a8161361e565b9050919050565b7f45524332303a20617070726f766520746f20746865207a65726f20616464726560008201527f7373000000000000000000000000000000000000000000000000000000000000602082015250565b60006136bd602283612882565b91506136c882613661565b604082019050919050565b600060208201905081810360008301526136ec816136b0565b9050919050565b7f45524332303a20696e73756666696369656e7420616c6c6f77616e6365000000600082015250565b6000613729601d83612882565b9150613734826136f3565b602082019050919050565b600060208201905081810360008301526137588161371c565b9050919050565b7f45524332303a207472616e736665722066726f6d20746865207a65726f20616460008201527f6472657373000000000000000000000000000000000000000000000000000000602082015250565b60006137bb602583612882565b91506137c68261375f565b604082019050919050565b600060208201905081810360008301526137ea816137ae565b9050919050565b7f45524332303a207472616e7366657220746f20746865207a65726f206164647260008201527f6573730000000000000000000000000000000000000000000000000000000000602082015250565b600061384d602383612882565b9150613858826137f1565b604082019050919050565b6000602082019050818103600083015261387c81613840565b9050919050565b7f45524332303a207472616e7366657220616d6f756e742065786365656473206260008201527f616c616e63650000000000000000000000000000000000000000000000000000602082015250565b60006138df602683612882565b91506138ea82613883565b604082019050919050565b6000602082019050818103600083015261390e816138d2565b9050919050565b7f4f776e61626c653a2063616c6c6572206973206e6f7420746865206f776e6572600082015250565b600061394b602083612882565b915061395682613915565b602082019050919050565b6000602082019050818103600083015261397a8161393e565b9050919050565b60006040820190506139966000830185612a38565b6139a36020830184612a38565b9392505050565b600060a0820190506139bf6000830188612af6565b6139cc6020830187612af6565b6139d96040830186612af6565b6139e66060830185612a38565b6139f36080830184612b4d565b9695505050505050565b7f4e487b7100000000000000000000000000000000000000000000000000000000600052601260045260246000fd5b6000613a378261298c565b9150613a428361298c565b925082613a5257613a516139fd565b5b828204905092915050565b600081905092915050565b7f1901000000000000000000000000000000000000000000000000000000000000600082015250565b6000613a9e600283613a5d565b9150613aa982613a68565b600282019050919050565b6000819050919050565b613acf613aca82612aec565b613ab4565b82525050565b6000613ae082613a91565b9150613aec8285613abe565b602082019150613afc8284613abe565b6020820191508190509392505050565b6000608082019050613b216000830187612af6565b613b2e6020830186612ac2565b613b3b6040830185612af6565b613b486060830184612af6565b95945050505050565b7f4e487b7100000000000000000000000000000000000000000000000000000000600052602160045260246000fd5b7f45434453413a20696e76616c6964207369676e61747572650000000000000000600082015250565b6000613bb6601883612882565b9150613bc182613b80565b602082019050919050565b60006020820190508181036000830152613be581613ba9565b9050919050565b7f45434453413a20696e76616c6964207369676e6174757265206c656e67746800600082015250565b6000613c22601f83612882565b9150613c2d82613bec565b602082019050919050565b60006020820190508181036000830152613c5181613c15565b9050919050565b7f45434453413a20696e76616c6964207369676e6174757265202773272076616c60008201527f7565000000000000000000000000000000000000000000000000000000000000602082015250565b6000613cb4602283612882565b9150613cbf82613c58565b604082019050919050565b60006020820190508181036000830152613ce381613ca7565b9050919050565b7f45434453413a20696e76616c6964207369676e6174757265202776272076616c60008201527f7565000000000000000000000000000000000000000000000000000000000000602082015250565b6000613d46602283612882565b9150613d5182613cea565b604082019050919050565b60006020820190508181036000830152613d7581613d39565b9050919050565b7f45524332303a206275726e2066726f6d20746865207a65726f2061646472657360008201527f7300000000000000000000000000000000000000000000000000000000000000602082015250565b6000613dd8602183612882565b9150613de382613d7c565b604082019050919050565b60006020820190508181036000830152613e0781613dcb565b9050919050565b7f45524332303a206275726e20616d6f756e7420657863656564732062616c616e60008201527f6365000000000000000000000000000000000000000000000000000000000000602082015250565b6000613e6a602283612882565b9150613e7582613e0e565b604082019050919050565b60006020820190508181036000830152613e9981613e5d565b905091905056fea264697066735822122017be51580e499600e196331255d1b51b80dc95152f4ab3928e0760c4b3acb21e64736f6c63430008110033",
  "devdoc": {
    "kind": "dev",
    "methods": {
      "DOMAIN_SEPARATOR()": {
        "details": "See {IERC20Permit-DOMAIN_SEPARATOR}."
      },
      "allowance(address,address)": {
        "details": "See {IERC20-allowance}."
      },
      "approve(address,uint256)": {
        "details": "See {IERC20-approve}. NOTE: If `amount` is the maximum `uint256`, the allowance is not updated on `transferFrom`. This is semantically equivalent to an infinite approval. Requirements: - `spender` cannot be the zero address."
      },
      "balanceOf(address)": {
        "details": "See {IERC20-balanceOf}."
      },
      "checkpoints(address,uint32)": {
        "details": "Get the `pos`-th checkpoint for `account`."
      },
      "decimals()": {
        "details": "Returns the number of decimals used to get its user representation. For example, if `decimals` equals `2`, a balance of `505` tokens should be displayed to a user as `5.05` (`505 / 10 ** 2`). Tokens usually opt for a value of 18, imitating the relationship between Ether and Wei. This is the value {ERC20} uses, unless this function is overridden; NOTE: This information is only used for _display_ purposes: it in no way affects any of the arithmetic of the contract, including {IERC20-balanceOf} and {IERC20-transfer}."
      },
      "decreaseAllowance(address,uint256)": {
        "details": "Atomically decreases the allowance granted to `spender` by the caller. This is an alternative to {approve} that can be used as a mitigation for problems described in {IERC20-approve}. Emits an {Approval} event indicating the updated allowance. Requirements: - `spender` cannot be the zero address. - `spender` must have allowance for the caller of at least `subtractedValue`."
      },
      "delegate(address)": {
        "details": "Delegate votes from the sender to `delegatee`."
      },
      "delegateBySig(address,uint256,uint256,uint8,bytes32,bytes32)": {
        "details": "Delegates votes from signer to `delegatee`"
      },
      "delegates(address)": {
        "details": "Get the address `account` is currently delegating to."
      },
      "getPastTotalSupply(uint256)": {
        "details": "Retrieve the `totalSupply` at the end of `blockNumber`. Note, this value is the sum of all balances. It is but NOT the sum of all the delegated votes! Requirements: - `blockNumber` must have been already mined"
      },
      "getPastVotes(address,uint256)": {
        "details": "Retrieve the number of votes for `account` at the end of `blockNumber`. Requirements: - `blockNumber` must have been already mined"
      },
      "getVotes(address)": {
        "details": "Gets the current votes balance for `account`"
      },
      "increaseAllowance(address,uint256)": {
        "details": "Atomically increases the allowance granted to `spender` by the caller. This is an alternative to {approve} that can be used as a mitigation for problems described in {IERC20-approve}. Emits an {Approval} event indicating the updated allowance. Requirements: - `spender` cannot be the zero address."
      },
      "name()": {
        "details": "Returns the name of the token."
      },
      "nonces(address)": {
        "details": "See {IERC20Permit-nonces}."
      },
      "numCheckpoints(address)": {
        "details": "Get number of checkpoints for `account`."
      },
      "owner()": {
        "details": "Returns the address of the current owner."
      },
      "permit(address,address,uint256,uint256,uint8,bytes32,bytes32)": {
        "details": "See {IERC20Permit-permit}."
      },
      "renounceOwnership()": {
        "details": "Leaves the contract without owner. It will not be possible to call `onlyOwner` functions anymore. Can only be called by the current owner. NOTE: Renouncing ownership will leave the contract without an owner, thereby removing any functionality that is only available to the owner."
      },
      "symbol()": {
        "details": "Returns the symbol of the token, usually a shorter version of the name."
      },
      "totalSupply()": {
        "details": "See {IERC20-totalSupply}."
      },
      "transfer(address,uint256)": {
        "details": "See {IERC20-transfer}. Requirements: - `to` cannot be the zero address. - the caller must have a balance of at least `amount`."
      },
      "transferFrom(address,address,uint256)": {
        "details": "See {IERC20-transferFrom}. Emits an {Approval} event indicating the updated allowance. This is not required by the EIP. See the note at the beginning of {ERC20}. NOTE: Does not update the allowance if the current allowance is the maximum `uint256`. Requirements: - `from` and `to` cannot be the zero address. - `from` must have a balance of at least `amount`. - the caller must have allowance for ``from``'s tokens of at least `amount`."
      },
      "transferOwnership(address)": {
        "details": "Transfers ownership of the contract to a new account (`newOwner`). Can only be called by the current owner."
      }
    },
    "version": 1
  },
  "userdoc": {
    "kind": "user",
    "methods": {},
    "version": 1
  },
  "storageLayout": {
    "storage": [
      {
        "astId": 4264,
        "contract": "contracts/GovernanceToken.sol:GovernanceToken",
        "label": "_balances",
        "offset": 0,
        "slot": "0",
        "type": "t_mapping(t_address,t_uint256)"
      },
      {
        "astId": 4270,
        "contract": "contracts/GovernanceToken.sol:GovernanceToken",
        "label": "_allowances",
        "offset": 0,
        "slot": "1",
        "type": "t_mapping(t_address,t_mapping(t_address,t_uint256))"
      },
      {
        "astId": 4272,
        "contract": "contracts/GovernanceToken.sol:GovernanceToken",
        "label": "_totalSupply",
        "offset": 0,
        "slot": "2",
        "type": "t_uint256"
      },
      {
        "astId": 4274,
        "contract": "contracts/GovernanceToken.sol:GovernanceToken",
        "label": "_name",
        "offset": 0,
        "slot": "3",
        "type": "t_string_storage"
      },
      {
        "astId": 4276,
        "contract": "contracts/GovernanceToken.sol:GovernanceToken",
        "label": "_symbol",
        "offset": 0,
        "slot": "4",
        "type": "t_string_storage"
      },
      {
        "astId": 5597,
        "contract": "contracts/GovernanceToken.sol:GovernanceToken",
        "label": "_nonces",
        "offset": 0,
        "slot": "5",
        "type": "t_mapping(t_address,t_struct(Counter)6357_storage)"
      },
      {
        "astId": 5605,
        "contract": "contracts/GovernanceToken.sol:GovernanceToken",
        "label": "_PERMIT_TYPEHASH_DEPRECATED_SLOT",
        "offset": 0,
        "slot": "6",
        "type": "t_bytes32"
      },
      {
        "astId": 4938,
        "contract": "contracts/GovernanceToken.sol:GovernanceToken",
        "label": "_delegates",
        "offset": 0,
        "slot": "7",
        "type": "t_mapping(t_address,t_address)"
      },
      {
        "astId": 4944,
        "contract": "contracts/GovernanceToken.sol:GovernanceToken",
        "label": "_checkpoints",
        "offset": 0,
        "slot": "8",
        "type": "t_mapping(t_address,t_array(t_struct(Checkpoint)4929_storage)dyn_storage)"
      },
      {
        "astId": 4948,
        "contract": "contracts/GovernanceToken.sol:GovernanceToken",
        "label": "_totalSupplyCheckpoints",
        "offset": 0,
        "slot": "9",
        "type": "t_array(t_struct(Checkpoint)4929_storage)dyn_storage"
      },
      {
        "astId": 458,
        "contract": "contracts/GovernanceToken.sol:GovernanceToken",
        "label": "_owner",
        "offset": 0,
        "slot": "10",
        "type": "t_address"
      },
      {
        "astId": 10706,
        "contract": "contracts/GovernanceToken.sol:GovernanceToken",
        "label": "s_initialSupply",
        "offset": 0,
        "slot": "11",
        "type": "t_uint256"
      }
    ],
    "types": {
      "t_address": {
        "encoding": "inplace",
        "label": "address",
        "numberOfBytes": "20"
      },
      "t_array(t_struct(Checkpoint)4929_storage)dyn_storage": {
        "base": "t_struct(Checkpoint)4929_storage",
        "encoding": "dynamic_array",
        "label": "struct ERC20Votes.Checkpoint[]",
        "numberOfBytes": "32"
      },
      "t_bytes32": {
        "encoding": "inplace",
        "label": "bytes32",
        "numberOfBytes": "32"
      },
      "t_mapping(t_address,t_address)": {
        "encoding": "mapping",
        "key": "t_address",
        "label": "mapping(address => address)",
        "numberOfBytes": "32",
        "value": "t_address"
      },
      "t_mapping(t_address,t_array(t_struct(Checkpoint)4929_storage)dyn_storage)": {
        "encoding": "mapping",
        "key": "t_address",
        "label": "mapping(address => struct ERC20Votes.Checkpoint[])",
        "numberOfBytes": "32",
        "value": "t_array(t_struct(Checkpoint)4929_storage)dyn_storage"
      },
      "t_mapping(t_address,t_mapping(t_address,t_uint256))": {
        "encoding": "mapping",
        "key": "t_address",
        "label": "mapping(address => mapping(address => uint256))",
        "numberOfBytes": "32",
        "value": "t_mapping(t_address,t_uint256)"
      },
      "t_mapping(t_address,t_struct(Counter)6357_storage)": {
        "encoding": "mapping",
        "key": "t_address",
        "label": "mapping(address => struct Counters.Counter)",
        "numberOfBytes": "32",
        "value": "t_struct(Counter)6357_storage"
      },
      "t_mapping(t_address,t_uint256)": {
        "encoding": "mapping",
        "key": "t_address",
        "label": "mapping(address => uint256)",
        "numberOfBytes": "32",
        "value": "t_uint256"
      },
      "t_string_storage": {
        "encoding": "bytes",
        "label": "string",
        "numberOfBytes": "32"
      },
      "t_struct(Checkpoint)4929_storage": {
        "encoding": "inplace",
        "label": "struct ERC20Votes.Checkpoint",
        "members": [
          {
            "astId": 4926,
            "contract": "contracts/GovernanceToken.sol:GovernanceToken",
            "label": "fromBlock",
            "offset": 0,
            "slot": "0",
            "type": "t_uint32"
          },
          {
            "astId": 4928,
            "contract": "contracts/GovernanceToken.sol:GovernanceToken",
            "label": "votes",
            "offset": 4,
            "slot": "0",
            "type": "t_uint224"
          }
        ],
        "numberOfBytes": "32"
      },
      "t_struct(Counter)6357_storage": {
        "encoding": "inplace",
        "label": "struct Counters.Counter",
        "members": [
          {
            "astId": 6356,
            "contract": "contracts/GovernanceToken.sol:GovernanceToken",
            "label": "_value",
            "offset": 0,
            "slot": "0",
            "type": "t_uint256"
          }
        ],
        "numberOfBytes": "32"
      },
      "t_uint224": {
        "encoding": "inplace",
        "label": "uint224",
        "numberOfBytes": "28"
      },
      "t_uint256": {
        "encoding": "inplace",
        "label": "uint256",
        "numberOfBytes": "32"
      },
      "t_uint32": {
        "encoding": "inplace",
        "label": "uint32",
        "numberOfBytes": "4"
      }
    }
  }
}